:020000040000FA
:1000000000280020F1000000D1000000D70000000F
:1000100000000000000000000000000000000000E0
:10002000000000000000000000000000DD000000F3
:100030000000000000000000E3000000E9000000F4
:10004000D9010000D3010000CD010000C70100006C
:10005000C1010000BB010000B5010000AF010000BC
:10006000A9010000A30100009D010000970100000C
:10007000910100008B010000850100007F0100005C
:10008000770100006F010000670100005F010000C0
:10009000570100004F010000470100003F01000030
:1000A000370100002F010000270100001F010000A0
:1000B000170100000F01000007010000FF00000011
:1000C00082001068116070478200106C11647047E4
:1000D0004348806800474248C06800474048C06ABB
:1000E00000473F48806B00473D48C06B0047704762
:1000F00010B53C490020C86100F002FE10BD384830
:100100008030C06B004736488030806B00473448F1
:100110008030406B004732488030006B00473048E9
:100120008030C06A00472E488030806A00472C48E3
:100130008030406A00472A488030006A00472848DB
:100140008030C069004726488030806900472448D5
:1001500080304069004722488030006900472048CD
:100160008030C06800471E488030806800471C48C7
:100170008030406800471A488030006800471848BF
:10018000C06F00471648806F00471548406F004712
:100190001348006F00471248C06E00471048806E39
:1001A00000470F48406E00470D48006E00470C485E
:1001B000C06D00470A48806D00470948406D004700
:1001C0000748006D00470648C06C00470448806C33
:1001D00000470348406C00470148006C004700009E
:1001E00000100000401000F00000000000000000BF
:1001F00000000000000000000000000000000000FF
:1002000000000000000000000000000000000000EE
:1002100000000000000000000000000000000000DE
:1002200000000000000000000000000000000000CE
:1004F00000010101000100000001010100010000F4
:1005000010B507E013469C00241F521E9B000C5997
:100510001B1FC450002AF5D110BD30B50446002081
:100520000F221207136818258907AB43C90E0B4326
:100530001360116889088900491C1160411E2160FF
:10054000116804231943116011684907FCD430BDB8
:1005500010B500230F2212071468A408A400A41CDD
:10056000146001601068042108431060106840079F
:10057000FCD4184610BDF0B504460020844620681F
:100580000F46401C1ED0FE4E200A05024022314676
:100590002846FFF7B5FF00212846FFF7BEFF601B86
:1005A0008010C117890F0818801080003750002470
:1005B000A00031584019FFF7CBFF641C402CF7D343
:1005C0006046F0BD2046FFF7C3FFF9E70068002250
:1005D000884201D0002070471046704700207047C5
:1005E000F0B5074600200E4684469508044605E00F
:1005F000A000C0193168FFF7ABFF641CAC42F7D311
:100600006046F0BDDF4800210161DF4A426181613F
:10061000DE4A1160032101617047DA490020086158
:1006200048618861D9490860704710B500231A46AF
:1006300003E0845CE3185BB2521C8A42F9D3D8B25F
:1006400010BD78B503461A04000C81079B03890F7F
:10065000160EDB0F0124401A00255B00A4076A4632
:10066000102E1DD006DC012E09D0022E0CD0042E37
:1006700011D112E0202E18D0402E0CD11AE00368C0
:100680000093237D535403E001680091A18AD15265
:100690000099FFF770FF656178BD61690091F8E727
:1006A00000680090505C207578BD00680090D05ABA
:1006B000A08278BD0068606178BDFCB50020019023
:1006C00001208007416A40221143426AC9B2120ADE
:1006D00012020A434262AE4E416A02221143426A4A
:1006E000C9B2120A12020A434262AA4900200860F3
:1006F000A9480068002867D0A84F3868C0B24228CF
:10070000386803D0C0B2442803D024E0FFF799FF33
:100710001FE001252D03A804416A01221143426A0A
:10072000C9B2120A12020A434262002420032818A6
:100730000121FFF7F2FE641C0E2CF7D30120800785
:10074000416A426A0906490E4900120A12020A4326
:100750004262002038608F4801680429C8D1002116
:100760000160B16870688A4D0C1A641C103521460E
:100770002846FFF75AFF694608702A05506A042187
:100780000843FD210840516A090A090201435162E8
:10079000A708002409E07068A10040180F226958DA
:1007A00012020091FFF7D4FE641CBC42F3D3012077
:1007B0008007416A02221143FB221140426A120A59
:1007C00012020A43426293E701208007416ABF2276
:1007D0001140426A120A12020A4342620198FCBDA9
:1007E0006A480168491C016001206D494006486063
:1007F00070476C49012008607047F0B56A4C87B0BB
:1008000020680590FFF709FF67496017803108608D
:100810006449086065490F20FFF752FC0290644963
:100820000020FFF751FC049062490120FFF74CFCC7
:100830000390FFF7E7FE01202060022121600021E4
:1008400086077162716A090A0902803171625A4A27
:1008500011684303194311605849086057498039AA
:1008600008634E4F56490020CA6B0092CA6B019232
:10087000019B009A9A4207D1401C6428F4D946484B
:100880000068002802D003E00020EDE7012A27D00D
:100890003868C0B24228386850D0C0B24428E1D18C
:1008A0000725706A6D0301210843716AC0B2090A05
:1008B00009020143716200242003281A0121FFF775
:1008C0002CFE641C0E2CF7D3706A716A0006400E71
:1008D0004000090A09020143716200203860C1E743
:1008E0003548002440380460334A803AD0690121F9
:1008F0000843D06131480460304880380463FFF712
:100900008CFE2949601E80310860264908600F204E
:100910000299FFF7D5FB00200499FFF7D5FB0120D2
:100920000399FFF7D1FB2049059808601A48046035
:10093000706A000A0002706207B0F0BDFFF781FE26
:10094000CBE770B50E4DFF263602402229463046D1
:10095000FFF7D6FD00213046FFF7DFFD01202860BC
:100960001848416B6960816BA960C06B0024E86026
:10097000A200A9589019FFF7EBFD641C402C23E05E
:100980000018002000E000E0686000000010002077
:10099000F003004038100020341000203C100020EC
:1009A00000ED00E080E200E000E100E0E10700008F
:1009B000F30700002D0B0000801000F0805000F0C5
:1009C000C0EF0000C0000040D2D370BD10B520229F
:1009D0001023802402280FD08848016809090901E2
:1009E000C91C0160016811430160416819434160FD
:1009F00001682143016010BD8148EEE770B5012315
:100A00001B047E4A0029D1691FD01943D1612023DC
:100A10007C4980241D0310260228C869C86916D0A5
:100A200080088000C861106800090001C01C1060C7
:100A3000106818431060106820431060D069284384
:100A4000D06150683043506070BD9943DEE7800844
:100A50008000C8616A48016809090901C91C016070
:100A6000016819430160016821430160C16929439C
:100A7000C16141683143416070BD38B501239B07B6
:100A8000D87C614C02090F20A25C00070021012ADA
:100A90000CD0002200246D46102A38D00DDC012A2B
:100AA00010D0022A27D0042A2FD12CE0598A5A7C50
:100AB00008188107890F401AECE7202A2CD0402A19
:100AC00023D130E0026800921A7D6A544D4D00999E
:100AD000C0354E4A0160A84201D1516315E0494D2D
:100AE000C435A84201D191630FE0464DC835A842F4
:100AF0000BD1D16309E0026800929A8A4908490043
:100B00006A52009900E0596901605C6138BD006873
:100B10000090685C187538BD00684908009048006E
:100B2000285A988238BD0068586138BD38B53348B6
:100B30000168FF22013211430160016810229143D4
:100B400001603249B0398504287C314A00242028CC
:100B50002AD00CDC022822D004DC00282ED0012868
:100B60002CD10FE0032829D0102827D11AE0294BD7
:100B700040281BD0284A42281CD044281AD04F288D
:100B80001CD119E01F484030016801225203114373
:100B900001601E4880380460446084600EE0FFF706
:100BA0006CFF0BE0012003E0146007E0687C04E0C8
:100BB000106003E00868FBE70F2018602C612869CB
:100BC000009016490220086038BD0D480168FF22D8
:100BD00001321143016001681022914301600F4905
:100BE00004200860704701208007407C0C490128E0
:100BF00002D0022800D0002008607047009000F06A
:100C000000A000F0401000F0F0040000C000004020
:100C100034100020381000203C10002080E200E05A
:100C20004010002000000000000000000000000054
:100C300000000000000000000000000000000000B4
:100C400000000000000000000000000000000000A4
:100C50000000000000000000000000000000000094
:100C60000000000000000000000000000000000084
:100C70000000000000000000000000000000000074
:100C80000000000000000000000000000000000064
:100C90000000000000000000000000000000000054
:100CA0000000000000000000000000000000000044
:100CB0000000000000000000000000000000000034
:100CC0000000000000000000000000000000000024
:100CD0000000000000000000000000000000000014
:100CE0000000000000000000000000000000000004
:100CF00000000000000000000000000000000000F4
:100D0000FEB5424F0024FC61414A0126D6604149AC
:100D1000101708604049086000F01FF93C48803017
:100D200006601663C5052C616C612C626C623748E5
:100D30003A49C03001603A4941603A4981600268ED
:100D400039494A6342688A638068C8636022002127
:100D5000364800F0F0F8E0220021354800F0EBF8CA
:100D600001210846FFF74AFE3248046032490C6010
:100D700032490C6032490C6032490C6032490C60D7
:100D8000A968090A0902C91CA960A968C9B2A960B1
:100D90002E49E9602E490E60234980390C614C616F
:100DA0008C612C490C60396800291DD000217D22FE
:100DB000520100BF491C9142FBD3274C054600213C
:100DC000E06B0090E06B0190019A00989042F6D1A0
:100DD000491C6429F4D92868012802D00098012808
:100DE00011D0FFF70AFDEAE700F08AF8074840381B
:100DF00044631A4981634104C1633E60C169314360
:100E0000C1610020FEBD00F05BF9D8E7401000F0A2
:100E1000005000F080E100E080E200E0886207041A
:100E200080A0584088833884C000004060020040A1
:100E30000005004034100020381000203C10002035
:100E4000401000202010002024100020A5A5A5A5FA
:100E50000410002018100020C0EF0000FF0E00005A
:100E60000000000000000000000000000000000082
:100E70000000000000000000000000000000000072
:100E80000000000000000000000000000000000062
:100E90000000000000000000000000000000000052
:100EA0000000000000000000000000000000000042
:100EB0000000000000000000000000000000000032
:100EC0000000000000000000000000000000000022
:100ED0000000000000000000000000000000000012
:100EE0000000000000000000000000000000000002
:100EF00000000000000000000000000000000000F2
:100F0000012110B5002349070F200002401E1C5C80
:100F10000C54C028FAD801221203C020401E145CD1
:100F20000B460C54FAD1114A0A601148D10458609A
:100F30008A62C86210BD01E0521E8154002AFBD1B2
:100F4000704770470B48002101610B4A4261816183
:100F50000A4A1160032101617047064900200861B7
:100F6000486188610549086070470000002800203A
:100F7000F100000000E000E06860000018100020B0
:100F80000000000000000000000000000000000061
:100F90000000000000000000000000000000000051
:100FA0000000000000000000000000000000000041
:100FB0000000000000000000000000000000000031
:100FC0000000000000000000000000000000000021
:100FD0000000000000000000000000000000000011
:100FE0000000000000000000000000000000000001
:100FF00000000000000000000000000000000000F1
:1010000000280020F1000000091200001512000065
:1010100000000000000000000000000000000000D0
:101020000000000000000000000000001712000097
:10103000000000000000000019120000AB190000C1
:10104000891300009513000073140000471300007B
:101050003D13000033130000B31600001F130000FF
:10106000151300000B13000001130000F71200001D
:10107000ED120000E3120000D9120000CF120000B0
:10108000C5120000BB120000B1120000A712000040
:10109000FF140000F5140000D31400007F120000BC
:1010A000751200006B120000611200005712000060
:1010B0004D120000B5140000BF140000C914000058
:1010C000F8B54648826B012189020A438263426B6C
:1010D0008A434263826B49000A438263426B8A43BC
:1010E0004263816B0122120311438163416B91437F
:1010F00041633B48016A012211430162016B1022E6
:101100001143016300F05DFC002000F08BFC012026
:1011100000F088FC042000F085FC052000F082FC33
:101120001E2000F07FFC1F2000F07CFC142000F04B
:1011300079FC152000F076FC162000F073FC0620E8
:1011400000F070FC00F0CAFA26490020421E83001D
:10115000401CCA501028FADB00F0F0FA00F04EFBF9
:1011600000F02BFB2048002707601C4C1F4D40342B
:10117000C0261F480068012803D02868012804D031
:1011800013E0012080070761F8BD2F6000F024FC08
:10119000002000F029FCA068B0434030A06030BFC0
:1011A00000F00FFCA068B043A0602868022812D1AC
:1011B0002F6000F011FC012000F016FCA068B04385
:1011C0004030A06030BF00F0FCFBA068B043A060DE
:1011D000002000F009FC00F05FFFCAE7401000F0BB
:1011E000805000F010000040181000204010002037
:1011F000341000200348854601F066FB0048004794
:10120000010D0000002800205C488168C022914345
:1012100081607047FEE7704701205949C006486069
:10122000704701205649400648607047FEE710B5F8
:101230001F2000F09CF810BD10B51E2000F097F89C
:1012400010BD10B51D2000F092F810BD10B51C2087
:1012500000F08DF810BD10B51B2000F088F810BD0F
:1012600010B51A2000F083F810BD10B5192000F059
:101270007EF810BD10B5182000F079F810BD10B53B
:10128000172000F074F810BD10B5162000F06FF8AC
:1012900010BD10B5152000F06AF810BD10B514206F
:1012A00000F065F810BD10B5132000F060F810BD17
:1012B00010B5122000F05BF810BD10B5112000F041
:1012C00056F810BD10B5102000F051F810BD10B543
:1012D0000F2000F04CF810BD10B50E2000F047F8BC
:1012E00010BD10B50D2000F042F810BD10B50C2057
:1012F00000F03DF810BD10B50B2000F038F810BD1F
:1013000010B50A2000F033F810BD10B5092000F028
:101310002EF810BD10B5082000F029F810BD10B54A
:10132000072000F024F810BD10B5062000F01FF8CB
:1013300010BD10B5052000F01AF810BD10B504203E
:1013400000F015F810BD10B5032000F010F810BD26
:1013500010B5022000F00BF810BD10B5012000F010
:1013600006F810BD10B5002000F001F810BDC10650
:10137000C90E01208840034908607047801000F0C2
:1013800000ED00E080E200E00149012008607047C4
:1013900080E200E0F8B53E480168FF2201321143C7
:1013A0000160016810229143016084043949207C66
:1013B000FF227F2312045B04374F012600251028EB
:1013C0003FD00CDC022820D004DC00284AD00128C1
:1013D00048D10EE003281BD00F2843D12EE020284F
:1013E00035D02E4E402834D0422835D04F2839D120
:1013F00036E02B4801680122520311430160254861
:1014000030300560456085602CE0FFF736FB29E051
:10141000607C022808D1A07C282805D2A07C216A03
:101420000004914301432162607C03281AD1A07C0F
:10143000082817D2A07C1B49087013E0FFF7D3FBE4
:1014400000E03E60206A9043C01820620AE03D60E0
:10145000F8E7607C3060F5E7086813490860F1E759
:101460000F2030602561206900901049022008603B
:10147000F8BD0F480168FF22013211430160016885
:101480001022914301600949042008607047000060
:10149000009000F0100000403410002038100020B0
:1014A000801000F0481000203C10002080E200E096
:1014B00000A000F010B51D2000F0A0FA10BD10B57E
:1014C0001E2000F09BFA10BD10B51F2000F096FA08
:1014D00010BD10B5FE4901208861FE49002008605A
:1014E000FC4940318862C86208634863162000F0F6
:1014F00085FA10BD10B5152000F080FA10BDF8B5C2
:10150000F34B0122DA619007046BF24940318D6A96
:101510002C430463446BCD6A2C434463846B0D6B92
:101520002C438463C46B4D6B2C43C46300208862DE
:10153000C86208634863E748806A009000984004E6
:10154000460F009801070098090F0005400F5861E9
:10155000E04BE14828330024A446009CDF4D64049E
:10156000640F15D02F680C461034A24017432F602B
:10157000D74F20373C6814433C60012914D002291E
:1015800010D0032903D004290FD00F2910D08CE0EC
:1015900028688A4010432860CD48203001681143F4
:1015A000016082E0CC48403076E0CB48203073E0E8
:1015B000C848C06A009000980099C006C00E09048F
:1015C00027D56A68012181400A436A60C04A2432F3
:1015D00014680C43146001280AD002280AD003289A
:1015E0000BD004280CD005280DD006280ED05CE0C6
:1015F000BB4851E0BA4820304EE0B94840304BE09B
:10160000B748603048E0B648803045E0B448A03084
:1016100042E0B1480021E030771C03E08A009C588A
:101620008450491CB942F9D30099CA06A849D20E80
:101630002831012A08D1009A140CA54AD288944274
:1016400002D1AC6802220CE0009AD206D20E022A25
:101650000DD1009A140C9E4AD288944207D1AC68EE
:1016600004221443AC600C6814430C6011E0009A2F
:10167000D206D20E032A0CD1009A140C944AD288B6
:10168000944206D1AA6808242243AA600A68224329
:101690000A606146012908D10021761C03E08A0016
:1016A0009C588450491CB142F9D3142000F0A6F98B
:1016B000F8BD10B58948826841060A4382608448B3
:1016C000283002680A430260062000F097F910BD36
:1016D00001E0521E8154002AFBD17047FF2109020C
:1016E0000868012806D14A687E4802608A6842601C
:1016F000CA6882607B488038826808231A43826007
:10170000826804231A438260826802231A4382603B
:10171000826801231A4382600969C00501600021C3
:1017200041608268120A1202D21C82608268D2B2C0
:10173000FF32FF3202328260C1607047664B00B5F3
:101740000122603B920200211846FFF7C1FF624868
:10175000654920380160654941606348FF30186081
:101760006348586063481862634858625E4A5A4842
:101770000D32603002606149416062486049016039
:101780005E4941314160604981600021C1605F4B29
:1017900003610262594B823343625A48403002600F
:1017A0005B1C43605748C0380262494AD288426293
:1017B0008162C1620163416300BD10B55448442198
:1017C00001628021416252483F21403881620521F7
:1017D000C1620F2141611A2181614D4902224031CC
:1017E0000A6100224A610323CB62494C0123803401
:1017F000E360C361C3600A60026310BD4548C1680D
:101800004549C160816845498160416844494160FA
:101810000168444901601030C1684349C160816872
:101820004249816041684249416001684149016023
:101830001030C1684049C160816840498160416899
:101840003F49416001683F4901601030C1683E492D
:10185000C16081683D49816041683D4941600168DE
:101860003C49016000215038016041608160C160E5
:101870001748394A817082809D22D200C28001229D
:1018800002810222428103228281FF221202C2814E
:10189000C17020481038016070471D4910B5C03133
:1018A000086A486A08694869086A4007420D88055D
:1018B000036A07242402A343134303624A6A036AA8
:1018C0005207520C2401A343134303624A6945E0C3
:1018D00008100020003000F060020040400000408E
:1018E00020050040001100F0421000006490011338
:1018F000649001264411000064900136008000FFCE
:101900004F40000000040040E80400D0000460687C
:10191000405000F07410002050E04C400C08CC4CBB
:101920001201C004A8818880A03645E02A1140F049
:10193000CA628C6594A0A5C11804145082010305E5
:101940000A68F1A056142B1CA01804684050082BFC
:1019500001803640CC03C04C0D320000D207036A30
:10196000D2098411A34313430362026A43119A43C9
:10197000264B1C78E407A40922430262026A5B78C2
:101980000411DB07A2435B091A4302620B6A204879
:101990002214022B05D1496A022902D00168914321
:1019A00001E001681143016010BD00B517480169ED
:1019B000491C0161FFF771FF01201649400648608C
:1019C00000BD154800210161144A426181610F4A3E
:1019D00011610321016170470F49002008614861CE
:1019E00088610A49086170470A4904220028086989
:1019F00001D0104300E0904308617047C106C90E52
:101A00000120884006490860704700000810002047
:101A1000801000F000ED00E000E000E068600000F1
:101A200080E200E0C106C90E01208840014908603B
:101A30007047000000E100E00320012189070A6AE5
:101A4000120A12020A62704770B500256022294608
:101A5000F748FFF73DFEE0220021F648FFF738FE89
:101A600000210124A40721636163A163E163F248BB
:101A7000016041608160F14B01221A70226AFF23EC
:101A80001B041A432262226A120A120222620269AB
:101A9000120A1202D21D0261E9480170E948016090
:101AA000E9480160E9480160E9480160E9480160EE
:101AB000E9480160E9480160E9480160E948426B92
:101AC00004239A434263E84A10681B0218431060DB
:101AD00010685B001843106010685B00984310604A
:101AE000E0483F23803883620523C3620F234361AC
:101AF0001A238361DD4B1E68012E1BD0116863140D
:101B000099431160D74E80367169012914D0216A3A
:101B10000902090EFE292CD0216A0902090E282982
:101B2000F2D2206A216A0002000E090A090201436A
:101B300021621EE01960E5E73169012908D113210E
:101B400081620721C16241618161C94800F06BFC7B
:101B5000B068012803D0F068012805D009E0206AA8
:101B6000000A0002401C03E0206A000A00020F3055
:101B70002062284670BD0020BE4A01211170BE4A75
:101B80001170BE4A51619161D161BC4A7F214032DE
:101B9000D160D1050A6A120A12021A320A6270472B
:101BA000F8B500200090B04801680122520391432B
:101BB00001606946B24800F01EFCB24800F033FCF8
:101BC00001250098AD0700281FD10024AE4E00F07B
:101BD00044FB009000281BD0296A0902090E28291D
:101BE00008D2286A296A0002000E090A0902014384
:101BF000296217E0032816D0304600F014FC641C5C
:101C00000B2CE4D30098002802D0022805D009E06C
:101C1000286A000A0002001D03E0286A000A000288
:101C2000C01D28620098F8BD08B500200121009071
:101C30006B4626228904854800F0C3FB00980328E0
:101C40000AD0924800F0EFFB01208007016A090AE0
:101C50000902491D0162009808BD10B58C4C204650
:101C600000F0E1FB032000F01DFB204600F0DBFB51
:101C7000062000F017FB012189070A6A120A1202E6
:101C8000921D0A6210BD784900200A6801235B0397
:101C90009A430A60734A8032C9055369002B0DD0FC
:101CA0000B6A1B021B0E282BF7D20A6A0B6A120260
:101CB000120E1B0A1B0213430B6270470A6A120AB8
:101CC00012020A627047684900200A6801235B0318
:101CD0009A430A60634A8032C9055369002B0DD0CC
:101CE0000B6A1B021B0E282BF7D20A6A0B6A120220
:101CF000120E1B0A1B0213430B6270470A6A120A78
:101D000012020A62704700207047002070470020CE
:101D10007047002070470020704700207047002067
:101D2000704754490020087053490870534948616E
:101D300088610122CA61514A21214032D16089075C
:101D40000A6A120A120211320A62704700207047B2
:101D5000F8B500200227384E04467D070090002089
:101D600000903B480168B94301604A496B46FA223A
:101D7000364800F026FB009800282ED002280FD10C
:101D800030690006000E03D03069C0B2072824D3A2
:101D9000032C18D0072C16D0072000F083FA0090EF
:101DA000304880304069002811D0286A0002000EB7
:101DB00028280FD2286A296A0002000E090A09029F
:101DC0000143296229E0052000F008FAE7E7032033
:101DD0000090F8BD641C062CC1D31C480068002884
:101DE0000FDA112000F021FC30690006000E14D03B
:101DF0003069C0B2072810D2286A000A00021D30DC
:101E00000AE0062C01D30097F6E700980028F3D1EA
:101E1000286A000A0002123028620098F8BD0020EB
:101E2000012189070A6A120A120213320A627047F4
:101E300060020040000500404000004048100020C3
:101E4000491000204C1000205010002028100020C5
:101E50002C10002030100020441000201C10002006
:101E600018100020805000F0801000F004100020B6
:101E7000CF8AFF000810002009100020403000F039
:101E80005F0500003FD8F6005F44F2008FE8FF00D6
:101E9000AFB9FF0000000280F8B50020009097481D
:101EA00000F0C1FA9649086A042210430862964E6F
:101EB000944930780122002804D00B885B045B0F22
:101EC000834200D232708F4F0024203F3D063846B7
:101ED00000F026F97968072000078143307842072F
:101EE00052081143796087498000085A8005800DA7
:101EF000810201437868000D000508437860386866
:101F00004004410F384600F03EF9002000F066F929
:101F10000090002812D0032810D0286A0002000E7A
:101F2000282808D2286A296A0002000E090A090234
:101F30000143296216E0641C0B2CC8D36B46FA22BD
:101F40000821724800F03DFA0098002805D16B4640
:101F5000FA2240216D4800F034FA286A000A000293
:101F6000153028620098F8BD08B5002000906B4637
:101F7000FA224021654800F024FA01208007016A16
:101F8000090A090215310162009808BD6049002064
:101F90000A6801235B039A430A60594AC032C905A3
:101FA0005369002B0DD00B6A1B021B0E282BF7D296
:101FB0000A6A0B6A1202120E1B0A1B0213430B62FF
:101FC00035E7032033E7002031E700202FE700202A
:101FD0002DE700202BE738B5002000904D48016820
:101FE00070229143103101600121084600F017F979
:101FF0000124A4070090002808D16B460322022187
:10200000454800F0DEF90098002806D0206A000A52
:1020100000021C302062009838BD206A000A0002CD
:102020001B30F7E70020012189070A6A120A120211
:10203000D21C0A62FBE60020012189070A6A120A03
:102040001202D21C0A62F2E6F8B531480027016894
:102050000122520391430160294E2C4CC036C50524
:102060002068002802DA1D2000F0DFFA70690028DD
:10207000286A0DD00002000E2828F1D2286A296AA9
:102080000002000E090A0902014329623846F8BD20
:10209000000A00022862F9E770B50124A407206A4B
:1020A000000A00022062606A000A000260621B4EA1
:1020B000FF252D04206A0006800D30588047032834
:1020C00003D1206A000A00022062206A0002000E8A
:1020D000FE28206A0FD00002000E2828EAD2206ACB
:1020E000216A0002000E090A090201432162206AE6
:1020F00028432062DEE72843206270BDCF8AFF00BC
:10210000405000F0600200404810002028100020DD
:10211000801000F0003000F02C1000202C2900006E
:1021200030B5F7490A68F74B1B6800249A4206D17C
:102130000A68521C0A600A68072A00D90C60F24A31
:10214000126907255207130D02686D02AA431A434C
:10215000FF2301339A43ED4B1B78DB07DB0D1A435A
:10216000C0239A43403220239A43E94B1B78DB0774
:102170009B0E1A4302600868401C08600868072824
:1021800000D90C6030BD30B5E24A5269012A0AD14B
:10219000DD4C00223C3C491C03E09300C558E5504F
:1021A000521C8A42F9D330BD70B50A68002A14D196
:1021B000D94A146800251560D84B1D60D54D1E689E
:1021C000002E09D11668864201D9022003E06E690B
:1021D000002EF4D103200860146070BD38B50025CE
:1021E000CC4900954969002916D0C74C403C0528C8
:1021F00000D365602168702240079143400E01437F
:102200002160206801210843206069460220FFF711
:10221000CBFF2560009838BD0320009038BD70B515
:10222000BF4C06460D462046FFF77AFF6068F10670
:1022300040094001C90E08436060002D03D02068AA
:10224000202188432060216820464904490FFFF778
:102250009AFF2846FFF7C2FF70BD30B5B148B04CB9
:102260000068C03C01280CD02046FFF759FF2168C8
:1022700020464904490FFFF786FF0020FFF7AEFF15
:1022800030BDA74DA03D2846FFF74AFF2846216AEA
:10229000EFE7A0494969012903D19B49006840390A
:1022A0004860704770B505469D4C402020629C4EAA
:1022B00020363046FFF734FF206A0109090128075C
:1022C000000F014321623046FFF7E3FF0020FFF7D4
:1022D00085FF70BD10B5022817D0042817D0082834
:1022E00018D0102819D020281AD040281BD08C4C88
:1022F0002046FFF715FF218820464904490FFFF7C4
:1023000042FF0020FFF76AFF10BD874CF0E7864CC4
:102310002034EDE7844C4034EAE7834C6034E7E74F
:10232000814C8034E4E7804CA034E1E770B57C4D0B
:102330000446A0350E462846FFF7F2FE784A803262
:10234000106A0721090388437107490C084310628A
:1023500000215162506A754B80B21B881B041843E0
:102360005062506AC023984340305062506AE3067E
:1023700040094001DB0E18435062012C0FD0022CA3
:1023800002D0032C02D00AE0694800E069480368E3
:1023900093624368D36283681363C06850635A4A88
:1023A0003C3A00208300401CD1500828FAD32888EA
:1023B0004004410F2846FFF7E6FE0020FFF70EFF1E
:1023C00070BDF0B51C68002C14D1534D2E682C60E4
:1023D00004688C4304604F4F04680C4209D12C6898
:1023E000944201D9022003E07C69002CF4D103203F
:1023F00018602E60F0BD30B50A68002A12D1464A36
:10240000156800231360434BDC69012C09D0146864
:10241000844201D9022003E05C69002CF4D103203E
:102420000860156030BD70B5434900220A61434B16
:102430004B618A6101220A618A69002AFCD08A699B
:102440008242FCD2344D2C68FFF7BBFA2C6070BD81
:1024500030B5002906D0012906D0022906D003296B
:1024600006D00AE0364904E0364902E0364900E089
:1024700036490A684B688C68CD683CC030BD1FB5D2
:1024800001466846FFF7E4FF69461EC930484162CD
:102490008262C362046326482E4902680A62426867
:1024A0004A6282688A62C068C8621FBD3FB501295E
:1024B00003D0002402290DD000E00124002214439F
:1024C000254A00231278002C06D0244C6D4624881F
:1024D0006C806DE00122F2E7032903D00024042977
:1024E0000BD000E0012400252C433BD06D461C4C52
:1024F0006B702478AC70EB705BE00125F4E70000B2
:10250000441000201C100020403000F00810002073
:1025100009100020005100F01810002020100020A9
:10252000C002004050100020000400400E100020A7
:10253000541000206410002000E000E0FEFFFF00C7
:10254000741000208410002094100020A41000209B
:10255000001000F0006000F00A1000200C100020B5
:1025600010100020052903D00024062905D000E022
:10257000012400252C430AD101E00125FAE70729AF
:1025800005D0082909D00024092914D006E06C469A
:102590006370A270E370217010E0012400252C43C9
:1025A0000BD0BB4C6D462478EC70BA4C2478AC70E0
:1025B0006B70297002E00125F1E70093B649002A0B
:1025C0000D684C688B6807D0C968012A08D0022AB8
:1025D00008D0032A09D00BE001950294039307E089
:1025E000019400E00195029301E0019502940391AA
:1025F00069461EC91EC03FBD70B5A84C049D266823
:1026000076087600266021616261A361E561A449D4
:102610000A68002AFCDA0A68520052080A60216936
:102620006269A369E4691EC070BDF1B59D4E89B0B1
:102630003068800706D50220FFF74CFE3068022183
:10264000884309E0306804254007002806DA0420A2
:10265000FFF740FE3068A8433060FEE0904F3868D6
:10266000800708D501210846FFF760FE396802207F
:1026700081433960F1E038688B4942078B4828D59F
:102680008A68854C2260CA6862600A69A2604969EA
:10269000E160002101706846FFF7DAFE01A807C873
:1026A00084468348009B436263468362C16202633F
:1026B0007A482168016261684162A1688162E168CB
:1026C000C16205210220FFF731FE3868A843386057
:1026D000C3E03A681207C0D5704A13680124234347
:1026E00013608B681361CB6853610B69936149690F
:1026F000D16139680029FCDA69490B685B005B0825
:102700000B60116901915169029191690391D1693D
:10271000049169460979674F674C012906D007295A
:102720001AD004292FD0082977D091E0022105A8DA
:10273000FFF7BCFE05A90EC90898009005A8FFF791
:102740005BFF05A80FC80FC760696946000CC98800
:1027500000040843606177E069468D7905700621C1
:102760006846FFF7A3FE69460EC90398009001A8CA
:10277000FFF742FF01A80FC80FC72069FF21090218
:10278000884329025EE0042105A8FFF78FFE05A912
:102790000EC90898009005A8FFF72EFF05A80FC8DE
:1027A0000FC720696946000A897900020843206141
:1027B00020690122C7B23E48D2024049530080300E
:1027C000062F0BD02769FFB2052F0AD02769FFB269
:1027D000042F09D02469E4B2032C0ED04C6BAC4317
:1027E0000DE04C6B2C4301E04C6BAC434C63016837
:1027F000914301600168994307E04C6B2C434C63A3
:1028000001681143016001681943016001680122F8
:1028100052039143016017E0FFE7092105A8FFF784
:1028200045FE05A90EC90898009005A8FFF7E4FE2B
:1028300005A80FC80FC72069FF210904884369460E
:10284000897909040843206105210320FFF76EFD03
:1028500013480168082291430160306802218843CF
:10286000306017480168174A1140016013488030F2
:10287000416980050029016A07D0099A090A0902FD
:10288000D2B2114301620AB0F0BD090A0902F9E7A8
:10289000141000201210002054100020006000F0DE
:1028A000301000202C100020400300400A100020AF
:1028B000001000F06410002040000040805000F044
:1028C00028100020FFFFFD7F064C0125064E05E085
:1028D0002046E36807C82B4398471034B442F7D327
:1028E000FEF78CFC0C2900002C29000002E008C82F
:1028F000121F08C1002AFAD170477047002001E07A
:1029000001C1121F002AFBD170470000CC29000032
:102910000010002054000000EC280000202A0000D5
:102920005410002060000000FC280000491A00003C
:10293000771B0000391A0000A11B0000291C0000B1
:102940005B1C0000871C0000C71C0000071D000066
:10295000391A0000391A0000391A0000391A00002B
:10296000391A0000391A0000231D0000391A00002E
:10297000511D00001F1E0000991E0000691F00006D
:102980008D1F0000391A0000391A0000391A0000A2
:10299000391A0000D71F0000252000003720000052
:1029A00049200000391A0000391A0000391A0000C5
:1029B000391A0000391A0000391A0000391A0000CB
:1029C000391A0000391A0000391A0000000000000E
:1029D00000000000000000000000000000000000F7
:1029E00000000000000000000000000000000000E7
:1029F00000000000000000000000000000000000D7
:102A000000000000000000000000000000000000C6
:102A100000000000000000000000000000000000B6
:04000005000011F5F1
:00000001FF
