:2000000000100020E51600007D0100007D0100007D0100007D0100007D010000000000003F
:200020000000000000000000000000007D01000000000000000000007D010000D1010000F2
:20004000E9140000FB140000000000006F100000E310000033110000E511000003120000D3
:200060004D1500007115000000000000000000003B120000D1130000000000000000000067
:20008000000000000000000000000000000000000000000000000000000000000000000060
:2000A000000000000000000000000000000000000000000000000000000000000000000040
:2000C00039080000CD0900002F080000F3090000BD0A0000FD0A0000370B0000690C000051
:2000E0002F0800002F0800002F0800002F0800002F0800002F0800002F080000A70C0000CC
:200100002F080000BF0C00002F080000390D00002F080000DF0D00002F0800002F080000CF
:200120002F0800002F0800003B0F00002F0800002F080000450F00002F0800002F080000D7
:2001400006480021FF226132401E037859409042FAD801204007417170470000501700002E
:200160000348854601F0ACFA004800478F1500000010002010B501F00AFA10BD0521644816
:2001800009070861634800210860FEE76248416882684907490F5207920E0A43C169C907A8
:2001A000490E11438269D207120E0A435B490A618368052109071022022B05D1406802282C
:2001C00002D0C868104301E0C8689043C860704700B553480168491C0160FFF7D7FF514823
:2001E000002102685048012A05D001704A488069012804D01EE00278521C0270F6E74B482B
:200200000078012816D14A48C0694A4AC00501D411600FE01068FF23401CF53310609842A5
:2002200008D911603C4A0120C03A50623220401EFDD1516239482038007C002805D13C4811
:20024000C030C16B60221143C16301203A494006486000BD01E0521E8154002AFBD1704766
:20026000334801214162816205200007016A0122520411430162314A80211160264A803ADD
:2002800011632F49C16007222949D203C0314A6302228A636022CA632A498161C1695205AD
:2002A0001143C16101204007016849221206114301607047244800210161E122D2014261A0
:2002C0008161174A116003210161704700B50120400701791148203800290BD0002101744B
:2002E0000E48052200210F38FFF7B4FF1048C030602206E0017CC909C901F0E7C16B114350
:20030000C163C16B4906890F0329F7D100BD00001708000000100020006100504000002095
:2003200020050020080500202505002004050020003000500C05002000ED00E0180500201D
:200340002076860000042F0000E000E070B5D84900220A61D74B4B618A6101220A618A6981
:20036000002AFCD08A698242FCD2D34D2C68FFF7A1FF2C6070BD70B50C460546FFF79AFFAE
:20038000CD49CE48CE4E0A68AA4207D88269002A05D0F26B5206F6D5022CF4D070BD0A68DD
:2003A0000B689B1A962BFBD38269002AEBD170BDF0B5C24D96460646AA690020002A03D07C
:2003C000002B03D01846F0BD0320F0BD32788A433270B94A13689C4600231360B94B1F789A
:2003E00033780B4215D11468744501D9022010E0AC69002C07D113681468E41A962CFBD360
:20040000AC69002C04D0012F06D0002F06D008E0032061461160F0BD6B6900E02B69012B78
:20042000F6D0A94BDB7D002BDAD1F1E7A649002020318860C860A149C039486388630863A8
:200440007047F0B5A04E002305462036F068B0609A488069002824D0994CC03C052D03D356
:2004600000206063FFF7E2FF276B206B0E218843690008432063206B2121084320639248FF
:20048000924A08211530FFF793FF2763002D07D1F168491CF160F168072901D90021F16017
:2004A000F0BD0320F0BD30B5844A9269012A0AD1834C00228C3C491C03E09300C558E55025
:2004C000521C8A42F9D330BD7F4920318968072349070A0D01685B0299431143FF22013244
:2004E0009143784A1278D207D20D114320229143774A1278D207920E11430160704710B5C5
:2005000002280DD0734C2046FFF7DEFF218820464904490FFFF7C7FF0020FFF792FF10BDF8
:200520006C4C2034EFE7F8B501256D07686A002843D0686A122840D8686A012806D16649E0
:200540004868FF2280B21206801848605E4F2037F868B860584E0024002000905F48FFF7AD
:20056000F5FE5F480068012827D05E480078012823D0686A002100F01BF9534832224021D8
:200580001130009BFFF714FF3368002131604C4AC03A04E03168142906D8002804D1D169CA
:2005A0000906F7D5002805D0B868401CB860641C042CD1D3336000206862F8BDF8B53E4816
:2005C0000024066801277F07B86A002843D0B86A0E2840D24448FFF7B9FEB86A00F0CDF804
:2005E00039482346322240211130FFF7E1FEB86A012406281DD133480078012817D12F4868
:2006000080682E4DC03D022817D0AC632C6300202862AC603548FFF799FE0020A860334868
:20062000FFF794FE32483F2181620621C16231480460B86A032802D009E06C63E6E7224840
:20064000807C400603D5224801788C4304700020B86219480660F8BD18498969012903D153
:2006600017490068C0394863704715494039496B0160704730B5124C083C002203E0930095
:20068000E558C550521C8A42F9D330BD10B50446FFF77CFD012C04D10B48017C202211432F
:2006A00001740749C86B602290432030C86310BD00E000E0FEFFFF002005002000610050F3
:2006C000C030005004050020200000205F0500001C05002000030020000200208FEEFE000C
:2006E0000805002007050020F7ADFF00A7E4FF00006000500005002010B50D4800780128E4
:2007000015D00C48FFF722FE0B48417C8907417C04D5FD2211404174022006E0C90706D081
:20072000417C4908490041740120FFF7E8FE10BD1C050020A7E4FF002000002070B52B4840
:20074000C16881602A48294C0078C03401280CD02046FFF7B9FE216820464904490FFFF79A
:20076000A2FE0020FFF76DFE70BD204DE0352846FFF7AAFE2846216AEFE770B51B490546FA
:20078000C86888601B4C402020621A4E20363046FFF79AFE206A290700090001090F08430F
:2007A00020623046FFF758FF0020FFF74AFE70BD70B5104C06460D462046FFF785FE6068A2
:2007C000F10640094001C90E08436060002D03D02068202188432060216820464904490F0E
:2007E000FFF761FE2846FFF72CFE70BD40000020070500200002002010B5FE4A1469FE486B
:20080000FD4904238038012C0AD05269012A06D1CA6A9A43CA62016B49084900016310BD7B
:20082000CA6A1A43CA62016B01221143F6E70320F24A002191757047F8B50020014600905A
:20084000EE4805221130FFF705FD60220021EC48FFF700FDE0220021EA48FFF7FBFCE648C8
:20086000242200215038FFF7F5FCFFF7DFFDE1480121C0380163E448DE4A0068803A106340
:200880000026480746628662DB48406A0005C20EDA482030426140690525402220232D07F0
:2008A00004282AD0D54820304069052825D0E8689043E860E8681843E860D44901200870C6
:2008C000D348FF210660D3480670D3480660CB48C175D24C3B20A0620F20E062D0480670A2
:2008E000D0480670D0480078002817D0CE480670C0484069012806D010E0E8681043E860B4
:20090000E8689843D8E701272760C848FFF71EFD032020602F61C548FFF718FD2068022820
:20092000FCD0FFF7C7FCB54FB24DA86901280ED0F87D282801D20098F8BDAF484030C06BA0
:200940004006800F0328F0D0FFF7C0FCEDE7B648007800282BD1A9482030406900280DD1C7
:2009600001202063B248FFF7F1FC2663A248C16A04229143C162AF48FFF7E8FCAE48002450
:200980000660AE480660FFF737FF002C0AD0A748FFF7DCFCA869012809D00024F87D2828AA
:2009A000F1D20FE0A8690128F8D10124F6E7A448FFF7CCFC2869012803D06869012801D17D
:2009C0000F20B875954840300663B4E710B59D49012008709C4900240870FFF70DFF8F48CC
:2009E0003F2181620621C16284491A208875204610BDF8B51F204001052109070861884897
:200A00000078002805D00520FFF71BFD0221322009E00120FFF73AFE012040070079002878
:200A200003D00021FA20FFF7A6FC00252E467B4F012040373862FFF781FE704800232622E3
:200A400040211130FFF7B4FC044600203862002C2DD07E48FFF77AFC664FB86900280AD116
:200A6000FFF728FC0224754802E0B96900291AD001683229F9D37869012816D05F48C07DFE
:200A8000002812D06D1CEDB2112D04D900250520FFF7D7FC0446761C252EC8D3002C06D02A
:200AA000022C06D008E00324E5E70320F8BD042100E00721514881752046F8BD70B54F48EC
:200AC00000238A2210211330FFF772FC044603280ED04A4D002C0CD051490878401CC0B295
:200AE00008701E2801D2032000E00720A875204670BD5348FFF72AFC0520F7E770B5544810
:200B0000FFF724FC0320FFF738FE3C4D514C03461135224640212846FFF74AFC0620FFF72C
:200B20002CFE0346224640212846FFF741FC334A0621917570BDF8B500203F4F00900546CB
:200B40003860354805600120FFF7A0FD314E2B4C207C002802D00020FFF798FDFFF7E3FC5B
:200B6000FFF72CFD3868012811D001204007806A00282BD035701F488169002972D040692D
:200B800001286FD0E07D2828E2D20098F8BD224805602C480570FFF799FB1120A075012096
:200BA000FFF774FD25490D602B4802E0E27C520702D40A688242F9D31320E0751D48FFF72C
:200BC000C5FB1649284640310D62F8BD30780A28D1D935701E48FFF7B9FB0C20FFF7CDFDCE
:200BE0001748FFF7B3FBA07C80210843A074207C022134E000610050803000502000002012
:200C0000600100200004002018050020060500200C0500202505002008050020006000506F
:200C20002405002007050020050500204777FF001FEAFF004FC9FF000005002020050020CF
:200C4000A7E4FF00040500201C05002087FAFF00F7ADFF005F050000EE02000002E00843FC
:200C6000207488E70320F8BDF8B500250120FFF70DFDE34FE34EE44C207C002806D0002059
:200C8000FFF704FD00213846FFF775FBB069002807D07069012804D0E07D2828ECD2284691
:200CA000F8BD0325FBE700B5FFF7A6FDD74900200870D749D44A08701121917500BDF8B517
:200CC0000120FFF7E3FC00210220FFF754FBCE4D0024CD4ECB4F2035CB480023FA22042156
:200CE0001330FFF765FB00281BD002280CD16969042916D06969052913D0032C0BD0072C3C
:200D000009D00720FFF739FD3869012807D0641C062CE1D307E00520FFF793FBF4E7032012
:200D2000F8BD062C01D3022001E0002802D01D21B175F8BD1321FBE7F8B5B648FFF706FB2A
:200D4000B1482030C168491CC1608168491C8160AC4F0025B04CAC4EC03F2046FFF7B4FB4C
:200D60006168072000078143AC4800784207520811436160A84980002031085A8005800D5E
:200D8000810201436068000D00050843606020684004410F2046FFF786FB0020FFF751FB4C
:200DA0000346012038629848322280211130FFF7FFFA034600203862002B05D0F07D002892
:200DC0000BD06D1C0B2DC8D38F48954A08211230FFF7EEFA1521B175F8BD0320F8BDFEB541
:200DE0000020904901900A6B012002430A63FFF761FA8D48002404608C4804608148C0387A
:200E000004620120FFF742FC01266846002504708748884F04607C4CFFF76EFC8448006843
:200E2000012802D0002E07D008E00025FFF74EFA1320A0752846FEBDFFF775FBFFF7BEFBE1
:200E40007948006801280CD001204007406A002802D00120694608706D480078012810D0DA
:200E60001EE07148002505607048684905603D70012008706348C0380562FFF727FAE575A2
:200E800059E06846007800280AD16B480068C82806D9A07C40210843A074012069460870E2
:200EA000A07C400611D5207C072108432074607C402108436074A07C0843A074E07C0421EF
:200EC0000843E0740120FFF7E1FB3878012819D1002D0CD14F48FFF739FAFFF72FFC0020B2
:200EE0003870FFF7F3F94F48C030806A0125207C202108432074E17C04200143E174217C5E
:200F000001432174207C002805D00020FFF7BEFB0020019002E0FFF7D9F9002639488169A4
:200F2000002908D00069012805D0E07D282800D372E70198FEBD0320FEBD0020324A03217E
:200F40009175704770B500240120FFF79FFB2D4D2D4EF07C400607D50020FFF797FB00248B
:200F60002146FA20FFF707FAA869002807D02869012804D0F07D2828EBD2204670BD032427
:200F8000FBE7214C0025A5751E4FB869002802D0A07D002821D1A5752248C030C16B6022E2
:200FA0001143C1631F4A106B0121084310631548C038456385630163FFF788F91548FFF7E2
:200FC000C5F9012040070079002806D00120FFF75DFB00211948FFF7CEF9E07D282803D244
:200FE000E07DA075FF20E075A07D81001448405880470646FFF7CAF8032EC6D1A575C4E721
:20100000EE0200000061005020000020040500201C050020A7E4FF0040010020060500206F
:201020005F050000003000500005002008050020140500200705002020050020C409000003
:20104000C000000070B5012464072579FFF708F92571217905200007002901D0FE49C160C8
:201060001F2149010161FD490020C87570BD10B5FC48FB4C006AF949C0B24A7C02434A747D
:201080000A7C01231A430A74C10707D0F549C039C9698906C90F01D0F14C203C810701D594
:2010A000EF4C2034410701D5ED4C4034010701D5EB4C6034C10601D5E94C8034810601D54A
:2010C000E74CA034800908D12046FFF7CEFA20884004410F201DFFF7CDFA032000F0C0FA80
:2010E00010BD10B5DF4B586ADC49C0B28A7C02438A740A7C022422430A74C409DA490122F0
:20110000002C05D00C78012C02D1D84C4A602262840600D5CA70800907D0D86B60210843F0
:20112000D8630320012149078862042000F098FA10BDF8B5CB49CE4C896A0120C74AC9B207
:20114000D37C0B43D374137C04252B431374C54A403A526AC14B1205D20E20335A61052380
:201160001B0740262027042A27D0052A25D0DA68B243DA60DA683A43DA60CA0708D0B94A41
:201180000020D36B60263343D3630122520795628A0700D500204A0702D5B34B01221A6102
:2011A0000A0701D5B24C2034CA0601D5B04C4034890608D5FFF746FF10E0DA683243DA6058
:2011C000DA68BA43D8E7012808D12046FFF74DFA20884004410F201DFFF74CFA052000F0A2
:2011E0003FFAF8BD10B59F48C16A9C48027D0A430275017C082211430174062000F030FA53
:2012000010BD10B59748006B94494A7D02434A750A7C10231A430A7400070AD5944CE034DC
:201220002046FFF722FA20884004410F201DFFF721FA072000F014FA10BD70B50520000769
:20124000416BC907FCD141690902090EFF2923D04169864C0902090E403CFE291FD0824B61
:20126000D96800292DD0824D4A01203A603D521945692D022D0E26D045692D022D0E062D32
:2012800021D84169754A0902090E213A8918426909781202120A81E0FFF718F894E0012076
:2012A00020600020E0617148C03041680129FCD181680129F9D16B48C16B60221143C1634E
:2012C00082E06B4AD4E745692D022D0E132D1AD044692402240E152C17D044692402240EC8
:2012E000162C1AD044692402240E172C18D344692402240E1D2C13D2584A416910320902C3
:20130000090E173935E0216802E0544920310969426909061202120A41E05049897DF7E7FE
:2013200044692402250E514C40342D2D29D045692D022D0E2E2D26D044692402240E302C79
:2013400023D044692402240E402C32D043691B021B0E4F2B1FD041690902090E50292FD385
:2013600041690902090E70292AD241690902090E50394369515C1B021B0A09060B4343611B
:2013800022E0616BC4E7216BC2E736494039496A0905C90E06D042691202120A09060A4302
:2013A000426111E0416907220902090A1206891809E041699A780902090A1206114302E0DE
:2013C00041690902090A41610C2000F049F970BD70B505200007416BC907FCD1224BD968D0
:2013E00000290BD0224A49012039603A89184269D5B21A4A1406052D02D009E01C49F6E7C0
:2014000045692D042D0E2571157C6D066D0E15744569EDB2102D03D145692D042D0ED57552
:201420004269D2B2132A05D14269104D1204120E403D2A6042690D4DD2B240352D2A03D1FC
:2014400042691204120E6A634269D2B22E2A13D142691204120E0DE0207686002000002049
:2014600020040020C03000500405002040600050600100205A612A634269D2B2402A03D199
:2014800042691204120E9A704269D2B24C2A08D142691204120EA262754AD56B6026354301
:2014A000D5634269D2B24E2A03D142691204120E62624269D2B24F2A03D142691204120E77
:2014C000DA604269D2B2502A0AD34269D2B2702A06D242694069D2B2503A0004000E88545B
:2014E0000D2000F0BDF870BD10B50120614940064860002000F0B4F810BD10B505200007F5
:201500008068400704D55A48C16B40221143C1635948016900220261584B02171A60584BB2
:2015200042171A6030BF00BF00BF00BF00BF01611A6052495348803908604D48403001694B
:201540008907FCD5012000F08BF810BD10B5FF202D30401E0004000CFBD1454840300169E7
:201560008907FCD5FFF76EFD082000F079F810BD10B54549122048636420401E0006000E2D
:20158000FBD110204863092000F06AF810BD08B500243A48621E009402603C490868FF2669
:2015A000330201279843BB031843086034480260324934488039086005200007416BC907D4
:2015C000FCD107210161324A00213248FEF742FE304D1C35EE75802028742F4E7470FEF7A5
:2015E0003FFEFEF773FEFEF7ABFDFEF763FE2C482A49B46001602B49416028492848FF31D3
:2016000040380160284941602849016228494162224923480D31C0300160264A4260274811
:20162000254A0260234A413242609D22D2008260C460046101621F4A823242621F48403060
:201640000160511C4160104880308069002804D07770687D042108436875FFF792FCFCE7AE
:20166000C106C90E012088400549086070470000C030005000ED00E000E000E080E100E068
:2016800080E200E0FB3300008060005000E400E0FC05000004000020040500204210000046
:2016A0004001002064900113649001264411000064900136008000FF4F40000000030020F5
:2016C000064C0125064E05E02046E36807C82B4398471034B442F7D3FEF746FD0C1700002D
:2016E0001C170000004800477501000002E008C8121F08C1002AFAD170477047002001E0A2
:2017000001C1121F002AFBD1704700001C1700000005002028000000EC16000000000000A7
:201720000000000000000000000000000000000000000000000000000000000000000000A9
:0417400000000000A5
:00000001FF
