:1000000000930001000700003558000000000000C8
:1000100000000000000000000000000000000000E0
:10002000801878FFE4B8200118F6D8F99000007F16
:10003000007E07E4F0A3DFFCDEFA758120022D13B9
:100040009004357401F0A37403F0A374B3F0E4F5E5
:10005000DA75DA4043DA20F5DE75D74075DA5843B1
:10006000A90875B80875F8082200000228D9904040
:1000700006E493FF64166003EF7002002253A87F2A
:100080000080FD022EF475F00212216AE0FCA3E06C
:10009000FD75F09AEFA42444F582E5F03400F58371
:1000A000EE75F00202216AEF2466FFEE34FEFE7C5C
:1000B000007D0A1220897D3212209BEF249AFFEEE8
:1000C0003401FEEB75F002A42426F582E5F034003D
:1000D000F5832275F00412216AE0F8A3E0F9A3E0A9
:1000E000FAA3E0FB900321E0FCA3E0FDA3E0FEA364
:1000F000E022900448E0FF900447E0FE75F09AA4E7
:1001000024A7F582E5F03400F583E5822FF582E43B
:100110003583F58322E0FCA3E0FDEF75F09AA4247B
:1001200056F582E5F0340022900449E0FEA3E0FF9A
:10013000900447E0FD75F09AA4247AF582E5F03446
:1001400000F58322EF2424FFEE34FAFE7C007D0AC2
:100150001220897D1E12209BEF24DCFFEE3405FE69
:10016000EB75F002A42420F582E5F03400F583223B
:1001700090264EC39BFBEE9AFAED99F9EC98F8E4C1
:1001800093FE740193FFE4FCFDC302211CC39DFF99
:10019000EE9CFEE075F09AA42468F582E5F0340048
:1001A000F58322F583E0FCA3E0FDEF75F002A424C3
:1001B0001AF582E5F03400F58322900447E0FF75DC
:1001C000F09AA42444F582E5F03400F583229004EB
:1001D00047E0FF75F09AA42432F582E5F03400F58B
:1001E000832275F09AA4248CF582E5F03400F5831F
:1001F000EC75F00202216A75F002A42406F582E58E
:10020000F03402F583ECF0A3EDF0900439E022E045
:10021000FEA3E0FFEB75F002A42414F582E5F034B0
:1002200000F58322E04401F0E4900013F090031104
:1002300022F583E493FC740193FD75F00222F0A390
:10024000F0A3F0A3F0A3F0A3F0A322900448E0FFF2
:10025000900447E075F09AA4249EF582E5F03400FE
:1002600022900447E0FD75F09AA4248CF582E5F015
:100270003400F58322EF75F009A42425F582E434D7
:100280000322EF75F009A4248AF582E4340222E403
:10029000F075F09AEEA424B0F582E5F034002290D7
:1002A0000439E0FF25E0243BF582E4340422900485
:1002B00047E0FFA3E0FD2290043AE02412F582E437
:1002C0003402F5832290044BE0FDEF9D7480F86EBC
:1002D0009822EDF0CBEFCBEBD394032275F09AEE9E
:1002E000A424CBF582E5F034002274182EF582E4C4
:1002F0003402F5832275F002EF12216AE0FCA3E0DC
:10030000FD75F09A22E0FEA3E0FFD32274272BF5BF
:1003100082E43402F5832274022BF582E43400F582
:10032000832274422BF582E43402F5832274122B6B
:10033000F582E43403F58322E04406F09000137460
:1003400001F022C39BFBEE9AFAED99F9EC98F822A2
:10035000EB25E0247EF582E43427F58322E0249E19
:10036000F582E43400F583E0640122E4F0A3F07543
:10037000F09A22E0FCA3E0FDEC22EE8FF01220F0D8
:1003800075F09AED22902EC97428F0902EC374A0B7
:10039000F0A37409F022EF25E02441F582E434044F
:1003A00022A42400F582E5F0340222A4240CF58274
:1003B000E5F0340222E0FEA3E0C39D22C3EF94F6F1
:1003C000EE6480947F22F583E0FCA3E0FD75F002EB
:1003D00022CFF0A3EFF075F09AED22E490021CF02A
:1003E000900284F02275F024A42440F582E43403C2
:1003F000F5832275F024A424A5F582E43402F58364
:100400002225E025E0242AF582E43402F583222522
:10041000E025E02405F582E43400F5832225E0257B
:10042000E02475F582E43402F5832225E025E024FA
:1004300015F582E43403F58322900447E0FFA3E03E
:10044000FD22A424A7F582E5F03400F583E582229D
:10045000E0FEA3E02DFFEE3CFE900439E022F074B4
:10046000192EF582E43402F583E4F022E0FF9004D3
:100470003BE0FEEFC8EEC80822541FF0EDA3F022C7
:1004800075F002EF12216AECF0A3EDF022902EC578
:10049000E4F0902ECDF0A3F022F582E43402F5834F
:1004A00022940AEE64809480229003B3E054F0F02A
:1004B00022E02415F582E43402F58322902EC6F062
:1004C000902EC57401F022F583E493FC740193FD32
:1004D00022A4242CF582E5F034002275F0041221C8
:1004E0006A02212DECF0A3EDF0900447E022900485
:1004F0003AE004F022900439E0FF75F09AA422EC6F
:10050000F0A3EDF0900439E022F090021DF090028B
:1005100085F022F583E0FFA3E022E0FEA3E0FFC325
:10052000EE940422900447EFF0A3EDF090044B7496
:1005300003F0ED70037402F0900447E0FF1210FB2B
:10054000F583C083C082900448E0FED082D083123D
:100550001066121395FFEE9CFE900449F0A3EFF095
:100560001233C4C31212A540030215FD121108C0B4
:1005700083C082900448E0FCD082D08312108112A4
:10058000135A121118EC1210811212E51214814044
:1005900024121110C083C082900448E0FCD082D0A5
:1005A00083121081E4F0A3F0ED1210FB1211CEE4DF
:1005B00075F001802B12139C5029900447E0FF1224
:1005C0001115C083C082900448E0FED082D083120F
:1005D0001081E4F0A3F01210FA12107E74FFF5F00F
:1005E0001220F012128E12334212128E1231311278
:1005F000128E122F4BEF700302170B900448E0FF8E
:10060000900447E0FE1212341210E8E4F0EF6003A9
:1006100002170B1212BCF583E4F002170B9004488A
:10062000E07029A3E0FEA3E0FF1233C4D31212A5A9
:10063000400912122B1210E87401F01217444023E3
:10064000900447E075F09A1212C0801212174440CD
:100650001212122BF583E5822FF582E43583F583A0
:100660007401F0121108C083C082900448E0FCD0ED
:1006700082D08312108112135A1211181211D01243
:1006800012E59464EE648094804023121110C083BC
:10069000C082900448E0FCD082D0831210811213F3
:1006A0004BED1210FE1211CEE475F0018031C3EF54
:1006B000949CEE6480947F5029900447E0FF1211CF
:1006C00015C083C082900448E0FED082D08312100F
:1006D00081E4F0A3F01210FA12107E74FFF5F0120C
:1006E00020F0C3900449E064809480503212128E4E
:1006F0001230F812128E122F9EEF602990044712CA
:10070000119DC083C082900448E0FED082D0831245
:1007100010811210F512107EECF0A3EDF08006129D
:10072000128E12334212128E123356900447E0FF9B
:100730001210FBF583C083C082900448E0FED08293
:10074000D083121066E0FEA3E090044712116DC042
:1007500083C082900448E0D082D083121081EEF0F2
:10076000A3EFF022900449E0FEA3E0FF1233C4900F
:10077000044BE0FDD3EF9D7480F86E9822E4900462
:100780003AF090043AE0FDC394095023E0FF75F07D
:10079000021211B6E0FAA3E0FB75F002EF1211A20B
:1007A000EAF0A3EBF0E4FF1215041214CE80D3E4B8
:1007B000900439F0900012E0FF900439E0C39F40AC
:1007C0000302196B121282F583E4F0A3F012137680
:1007D000F583E4F0A3F0EF7003021962E490043AA9
:1007E000F090043AE0FDC394095018900439E0FFFA
:1007F000121971900439E0FFA3E0FD121B3A1214A4
:10080000CE80DEE490043AF090043AE0FFC394090D
:1008100040030218F5749E2F1213406010900439A3
:10082000E075F09A1212C0F583E0B4011990043912
:10083000121173C083C08290043AE0D082D0831238
:100840001081E4F0A3F090043AE0FF70030218EF87
:10085000900439E0FE12117475F002EF12216AE083
:10086000FCA3E0C39403EC64809480501A75F09A62
:10087000EE121177C083C08290043AE0D082D08318
:10088000121081E4F0A3F0900450E0605A90043913
:10089000E0FF1210FBF583C083C08290043AE0FEB3
:1008A000D082D083121081E0FCA3E0FD121376F514
:1008B00083EC8DF01220F01214D52468F582E5F057
:1008C000340012107E1210F5F583C083C0829004AC
:1008D0003AE0D082D083121081121430121284F5C3
:1008E00083EE8FF01220F0900439E0FF121174C0F3
:1008F00083C08290043AE0D082D083121081E0FC61
:10090000A3E0FDEF121284F583EC8DF01220F012BB
:1009100014CE0217E8900450E0604312127FF58372
:10092000E0FCA3E0FDEF1211F51214DFFF121377C4
:100930001211831214DFB4010F1211F5E0FFA3E0CE
:10094000900281CFF0A3EFF0900439E0B4020F12CF
:1009500011F5E0FFA3E0900223CFF0A3EFF0121413
:10096000D52458F582E5F03400121183ECF0A3EDA4
:10097000F012127F1211831214301211F5EEF0A34F
:10098000EFF0900439E004F0021794E490021EF0B6
:1009900022900447EFF0A3EDF090044B7405F0EDC6
:1009A000603F90009EE0640170028008900448124D
:1009B000133D702D1211AEC083C082900448E0FE3A
:1009C000D082D0831210661214C4121246C083C0A3
:1009D00082900448E0D082D083121081E4F0A3F02A
:1009E0002290044712119DC083C082900448E0FE0B
:1009F000D082D0831210811212DCEFA42432F5824F
:100A0000E5F0340012107E121395FFEE9CFE900468
:100A100049F0A3EFF01233C490044BE0FDC312126F
:100A2000AA4003021AC31210D2E06401703775F0B5
:100A30009AEE121177EF1211D1E0FEA3E0C3941EDB
:100A4000EE648094804003021B091211AEC083C083
:100A500082900448E0FED082D083121066ECF0A3AE
:100A6000EDF0021B09900449E0FEA3E0FF121241E1
:100A7000C083C082900448E0FCD082D083121081F1
:100A8000EE8FF01220F0ED1211C21212E512148155
:100A90004023121241C083C082900448E0FCD082FF
:100AA000D08312108112134BED1211A21211D0E457
:100AB00075F001802812139C506F900447E0FF12DC
:100AC0001246C083C082900448E0FED082D08312D8
:100AD0001081E4F0A3F012107174FFF5F01220F011
:100AE000021B091211AEC083C082900448E0FED000
:100AF00082D0831210661214C4FF121174C083C016
:100B000082900448E0FED082D083121081E0FCA3E2
:100B1000E0C39428EC64809480400E75F09AEF1244
:100B200014222E1210ED7401F01210D2E064017044
:100B3000281212711210E8E0041212701210E8E08C
:100B4000D394054014900448E0FF75F09AEE12101B
:100B5000DF12126F1210E8E4F022900447EFF0A3C6
:100B6000EDF090044B7405F0ED70037404F0900008
:100B70009EE064017002800890044812133D7038B2
:100B800012119AC083C082900448E0FED082D083C4
:100B90001210811210F512107EECF0A3EDF090040B
:100BA00047121173C083C082900448E0D082D08382
:100BB000121081E4F0A3F022900447E0FF1210FB32
:100BC000F583C083C082900448E0FED082D08312B7
:100BD0001066121395FFEE9C900449F0A3EFF0907D
:100BE0000447121491E06007E4900449F0A3F090E8
:100BF0000449E0FEA3E0FF1233C490044BE0FDC3C0
:100C00001212AA4003021C73900449E0FEA3E0FF05
:100C1000900447121113C083C082900448E0FCD0B6
:100C200082D08312108112135A1211181211D0128D
:100C300012E51214814026900447121113C083C09C
:100C400082900448E0FCD082D08312108112134BB2
:100C5000ED1210FE1211CEE475F001802B12139CE0
:100C60005029900447E0FF121115C083C082900400
:100C700048E0FED082D083121081E4F0A3F012107D
:100C8000FA12107E74FFF5F01220F01214191233CC
:100C9000428038C3900449E064809480502D12143F
:100CA000191230F8121419122F9EEF601E12119AA9
:100CB000C083C082900448E0FED082D083121081AD
:100CC0001210F512107EECF0A3EDF0900447E0FF57
:100CD0001210FBF583C083C082900448E0FED082EE
:100CE000D083121066E0FEA3E090044712116DC09D
:100CF00083C082900448E0D082D083121081EEF04D
:100D0000A3EFF022CBEFCBEB12118B1211EFE0FC33
:100D1000A3E0FDC39FEC9E5003021D91E42DFFEC68
:100D20003404FE75F002EB12118EE0FCA3E0FDC36B
:100D3000EF9DFFEE9C12113FEEF0A3EFF075F00275
:100D4000EB12118E1211EFE0FCA3E0C39FFFEC9EAB
:100D50001210A2EEF0A3EFF0121330E493FE740130
:100D600093FF1210A3E0FCA3E0FDD39FEC9E402470
:100D7000121330E493FE740193FFC3ED9FFFEC9ECA
:100D8000C313FEEF13FF1213307401932FFFE4938C
:100D90003EFE80131210A3E0FEA3E0FF7C007D6303
:100DA0001220890D12209B1210A3EEF0A3EFF08009
:100DB000401211F4E0FEA3E0FF75F002EB12118E79
:100DC000E0FCA3E0C39FEC9EC3940475F002EB50DB
:100DD000121210A7E4F0A3F01211407404F0A3E47F
:100DE000F0800E1210A7E4F0A3F0121140E4F0A37B
:100DF000F01210A3E0FEA3E0C39414EE9400500799
:100E00001210A3E4F0A3F0EB640170421210A312DD
:100E100012E5949AEE94014008121087EEF0A3EFC9
:100E2000F01210A31213539003BD12145912114063
:100E30001212E594DCEE94054008121124EEF0A3A2
:100E4000EFF01211401213539003C1121459EB64C6
:100E50000270481210A31212E5949AEE9401400811
:100E6000121087EEF0A3EFF01210A3121353541FC9
:100E70009003BFF0EDA3F01211401212E594DCEEE6
:100E800094054008121124EEF0A3EFF01211401265
:100E90001353541F9003C3F0EDA3F022900226E0F9
:100EA00024FE601E147003021F14147003021FCB73
:100EB0002403600302200E9002267402F0E49002E4
:100EC00083F09002267403F0900286E06401706162
:100ED000F0121489900013E0FF7009900311E07084
:100EE0000302200EEF6012900311E0600C12120852
:100EF000F09003B3E044058034900013E06012905A
:100F00000311E0700C121209F09003B3E044018069
:100F10001C900013E0600302200E900311E07003A8
:100F200002200E121208F09003B3E04404F0C28ACB
:100F300022022AC112233090021EE07003021FAC6D
:100F4000900283E004F0E4900438F0900012E0FF97
:100F5000900438E0C39F5074E4FF900438E0FE1220
:100F600011B31212D5EE1210FEF583121460900424
:100F700038E0FE1211B31212D5EE1211A212146053
:100F80000FEFB409D5900438E0FF1210A4E4F0A3E9
:100F9000F0EF1211417404F0A3E4F0EFB40110E497
:100FA0009003BDF0A3F09003C17404F0E4A3F0EF4C
:100FB000B40210E49003BFF0A3F09003C37404F0F4
:100FC000E4A3F0900438E004F0021F2B900283E0C9
:100FD000C394034059900011747EF0E490021FF016
:100FE000900283F09002267404F0221223309002C3
:100FF0001EE0603A12175DE4900438F0900012E0B1
:10100000FE900438E0FFC39E50161224BD12307EBD
:10101000900438E0FF121CE4900438E004F080DC17
:101020001231CE12279E1221A2900226EFF022BB8F
:10103000010689828A83E0225002E722BBFE02E396
:101040002289828A83E49322BB010CE58229F582FE
:10105000E5833AF583E0225006E92582F8E622BBD3
:10106000FE06E92582F8E222E58229F582E5833A47
:10107000F583E49322BB010689828A83F022500221
:10108000F722BBFE01F322F8BB010DE58229F582B0
:10109000E5833AF583E8F0225006E92582C8F62276
:1010A000BBFE05E92582C8F222EF8DF0A4A8F0CF9F
:1010B0008CF0A428CE8DF0A42EFE22BC000BBE0026
:1010C00029EF8DF084FFADF022E4CCF875F008EF45
:1010D0002FFFEE33FEEC33FCEE9DEC984005FCEE6A
:1010E0009DFE0FD5F0E9E4CEFD22EDF8F5F0EE849B
:1010F00020D21CFEADF075F008EF2FFFED33FD4060
:1011000007985006D5F0F222C398FD0FD5F0EA22D9
:10111000C5F0F8A3E028F0C5F0F8E582158270026A
:101120001583E038F022A3F8E0C5F025F0F0E58261
:10113000158270021583E0C838F0E822EB9FF5F0C5
:10114000EA9E42F0E99D42F0E89C45F022ECF0A3D3
:10115000EDF0A3EEF0A3EFF022A8828583F0D08318
:10116000D082122150122150122150122150E473CA
:10117000E493A3C583C5F0C583C8C582C8F0A3C5E1
:1011800083C5F0C583C8C582C822A42582F582E53F
:10119000F03583F58322EF4E6012EF60010EEDBB58
:1011A000010B89828A83F0A3DFFCDEFA2289F050EA
:1011B00007F709DFFCA9F022BBFEFCF309DFFCA95D
:1011C000F022900226E0B4021D9002867401F09095
:1011D00003C6E0B420089003AC7401F08005E490ED
:1011E00003ACF07F0222E4FE900012E0FFEEC39F0A
:1011F000400302232D1212CAE06401600302232976
:1012000074122E12129DE0FC6003022278121489DF
:10121000EE6401703A900285E0FD6401701B90025B
:1012200084E09003B3B40109E0440912120704807A
:10123000151212041214E98016ED9003B3B4020BD8
:10124000E0440512120712143E8004121204F0EE5C
:1012500064026003022322900285E0FD6401701C99
:10126000900284E09003B3B40106121318E48021C5
:10127000E044041212071214E9022322ED9003B392
:10128000B40205E044058003E04404F0E490001358
:10129000F0900311F0022322EC6401600302232288
:1012A000121489EE6401704C900284E0FFB4020BCA
:1012B0009003B3E0440A12131B8013EF64017026FD
:1012C00090021DE09003B3B4010C121318E49003D4
:1012D0001112143E801EE0440212131BE49003110D
:1012E000F01213BC800E9003B3E0440212131BE40F
:1012F000900311F0EE64027049900284E0B402138E
:101300009003B3E0440AF09003117401F0900013CD
:10131000F0802F90021CE06401701C900285E09028
:1013200003B3B40105E044098013E0440812120736
:1013300004F01213BB800B9003B3E04408121207B1
:1013400004F01212CAE4F0C28A0E0221C87F0422FD
:10135000E490043AF090043AE0FFC3940940030299
:1013600024B6EF902EC87014E0545FF0A3746AF0B6
:10137000902EC3744AF0A37401F0800EE044F0F0A4
:10138000902EC37480F0A37407F090043AE0902686
:101390003D93902ECAF0E4900439F0900012E0FFE3
:1013A000900439E0FEC39F40030224AD74872E12DF
:1013B0001479E0FF90043BF0E4F5E2EFC3940850A9
:1013C0003B741512149CC083C08212144C8002C35B
:1013D00033D8FCD082D083F0902ECD7401F0C0833E
:1013E000C082E0FFC8EEC8088002C333D8FCD082B8
:1013F000D083F0902EC074C1F002243390043BE0FF
:1014000024F8F0741612149CC083C08212144C800D
:1014100002C333D8FCD082D083F0902ECE7401F07A
:10142000C083C082E0FFC8EEC8088002C333D8FC86
:10143000D082D083F0EEB40506902EC97420F0EE71
:10144000B40603121365EEB40703121365902EC0A1
:1014500074C2F0E4FF900000742EF0A3E4F0900456
:1014600039E02487121479E090043BF0E5E220E2B1
:10147000050FEFB4C8DF53E2FB12146D90043BE09C
:10148000FD75F002A4FFAEF0900001E02FF0900097
:1014900000E03EF0ED90266E93FF900000E475F0C2
:1014A0000212210685F082F5831212DCEF1211B6CA
:1014B000C083C08290043AE0D082D083121081ECC5
:1014C000F0A3EDF0900439E004F002237B90043A9D
:1014D000E004F002233590021E7401F022CDEFCD1E
:1014E00075F09AED1211A2E0FFA3E09004391213F7
:1014F000B11210FE1214F390043B1213B1A424464F
:10150000F582E5F034001214F390043D1213B1A4F7
:101510002458F582E5F03400F583E0FEA3E0FBCA31
:10152000EECA75F09AEDA42434F582E5F034001289
:1015300014F390043FCFF0A3EFF0ED640170289016
:10154000043DE0900403F090043DA3E0900404F017
:10155000EAA3F0EBA3F090043FE0900407F09004BE
:101560003FA3E0900408F0ED6402704F90043EE069
:101570002470F090043DE034FEF074702BFB74FE98
:101580003AFA900440E02470F090043FE034FEF01A
:1015900090043DE0900413F090043DA3E090041407
:1015A000F0EAA3F0CFEBCFEFA3F090043FE090047C
:1015B00017F090043FA3E0900418F0ED60030226BA
:1015C0003C9004437407F0A374D0F0900441740776
:1015D000F0A374DAF090043EE024B0F090043DE013
:1015E0003404F074B02BFB74043AFA75F09AEDA44D
:1015F000249FF582E5F03400F583E0B401109004F7
:1016000044E02432F0900443E03400F0800390047E
:1016100043E09003E3F0900443A3E09003E4F0750B
:10162000F09AED121237F583E0B40110900442E015
:101630002432F0900441E03400F080039004411221
:1016400013539003E5F0EDA3F090043D1213539073
:1016500003E7F0EDA3F0EAA3F0EBA3F0223F3F3F56
:101660003F3F3F3F3F3F00320032177002580004B7
:10167000001E000A000A000F0064000A000A0000B1
:1016800000000000000000000000000101010D0E3C
:101690000F030405060708090A0B0C0001020032BB
:1016A00000320032003200320032003200320032AA
:1016B0000032003200320032003200320032003795
:1016C0000037003700370037003700370037003762
:1016D0000037003700370037003700370037002861
:1016E00000280028002800280028002800280028BA
:1016F0000028002800280028002800280028002DA5
:10170000002D002D002D002D002D002D002D002D71
:10171000002D002D002D002D002D002D002D00503E
:101720000050005000500050005000500050005039
:101730000050005000500050005000500050005524
:1017400000550055005500550055005500550055F1
:1017500000550055005500550055005500550046F0
:101760000046004600460046004600460046004649
:101770000046004600460046004600460046002D52
:10178000002D002D002D002D002D002D002D002DF1
:10179000002D002D002D002D002D002D002D00FA14
:1017A00000FA00FA00FA00FA00FA00FA00FA00FA69
:1017B00000FA00FA00FA00FA00FA00FA00FA9004BF
:1017C00039747EF0900453E060030228CAE4900468
:1017D0003AF0900012E0FE90043AE0FFC39E40030E
:1017E0000228CA1231FCEF60031213BB121297E0F9
:1017F000600302285390043AE0FF75F0021213814F
:101800001213A6EF1210A7121395EE9C40409004FD
:101810003AE0900439F012129B7401F090021CE03F
:1018200004F0900284F090043AE0FF24181212CDE4
:101830007401F012337C90043AE0FF12338B900471
:101840003AE0FF12329A90043AE0FF1232D4900448
:101850003AE0FF12316AEF600890043A121491E402
:10186000F090043AE0FF123228EF6075E490021D18
:101870000228BC90043AE0FF75F00212138B121399
:10188000A6EF1210A7121395EE9C401A90043AE0AE
:10189000900439F012319CEF60479002267402F0F8
:1018A000121297E4F02290043AE0FF12129BE4F047
:1018B0001233A990043AE0FF12327D90043AE0FF1F
:1018C00012339A90043AE0FF1232B790043AE024BF
:1018D000181212CD7401F090021DE004F090028500
:1018E000F090043AE004F00227B2900439E0FF904F
:1018F0000221E06F6002EFF022C0E0C083C082C02E
:10190000D0E8C0E0E9C0E0EAC0E0EBC0E0EFC0E052
:10191000D2AFE5DB30E415E5DB30E1028022900355
:10192000B2E5DFF0900433E4F00229B9E5DB30E5FD
:10193000059003AF803FE5DB30E12DE5DB30E011C2
:10194000900435123257123260122028F5DF022936
:10195000B9900434E0640160030229B9208A7AD284
:101960008A9003B3F00229B9900433E0700DA3E527
:10197000DFF09004337401F00229B9900434E09050
:101980002D5893FFB4FF0E9003B2E5DFF0900434BE
:10199000E004F0803EEF640F900435702B12325754
:1019A000900434E0FF123274540F12205590043525
:1019B000123257900434E0FF04F0123274FFE5DF76
:1019C00054F04F122055800B123257123260E5DF6F
:1019D0001220679003B1E004F075DBFFD0E0FFD088
:1019E000E0FBD0E0FAD0E0F9D0E0F8D0D0D082D05F
:1019F00083D0E0329003C6E0FF6410706790043932
:101A0000F0900012E0FE900439E0C39E4003022AE9
:101A1000ADE0FE25E0241EF582E434271214A7EE83
:101A20001211D7FE25E024FEF582E43426121211AD
:101A3000EE1213811211E3FE25E0243EF582E43418
:101A400027121211EE12138B1211E3FE25E0245E11
:101A5000F582E43427121211EE1214B11211E304CC
:101A6000F00229E1EF6420706D900439F0900012CB
:101A7000E0FF900439E0C39F5053E0FF25E0249E2F
:101A8000F582E434261214A7EF1211D7FF25E024C3
:101A90007EF582E43426121211EF1213811211E343
:101AA000FF25E024BEF582E43426121211EF121352
:101AB0008B1211E3FF25E024DEF582E434261212B6
:101AC00011EF1214B11211E304F0022A4D90020238
:101AD000A3E09003B7F09003B4E0B4AA03122DD8AA
:101AE000227E027F0F7D007B017A0079141221761D
:101AF0001230399003ACE09003C670057410F0808A
:101B0000037420F01229D4E4FE900012E0FFEEC32B
:101B10009F4003022B79E4FC75F09AEE1211181223
:101B200011D012134BEE121237F583E5822C1210EE
:101B3000EDE4F0EE1211C212134BEE1214222C122D
:101B400010ED12126FF583E5822C1210EDE4F0CF48
:101B5000EECFCDECCD1233421233560CEC6409704B
:101B6000B71212BCF583E4F0CFEECF12337C123300
:101B70009A12338B1233A974122E12129DE4F012B2
:101B800012CAE4F090021B747EF0E4A3F0A3F0907C
:101B90000284F0A3F00E022AE9900221747EF090F4
:101BA0000011F0E4900220F022E490043AF0FF905B
:101BB0000439F0EF14601E14603514604C14605B3F
:101BC0002404707490043B7401F0A3742FF0A37488
:101BD00058F0022C12123254900001122028FED329
:101BE000941F400312326D12200F6E704B8043120F
:101BF0003254900002122028FED394064003123281
:101C00006D12200F6E703180291232549000031231
:101C10002028FE12200F6E701F8017123254900081
:101C200004122028FE648B600312326D12200F6EA6
:101C30007006900439E004F00FEF64056003022B96
:101C400093900439E0B40504A37401F090043AE0E1
:101C5000FD60079003C7E0547FF0CFEDCF22758A77
:101C600050538AEF9004517411F090044F7422F095
:101C70009004527433F075997F759A80E4FFFEC228
:101C80009600000020970ED2960000003097069034
:101C900004517487F00FBF00010EEF640A4E70DF2D
:101CA0007590FF75993F759AC00000000000000014
:101CB0000000E4FEFF30960320970690044F7487DF
:101CC000F00FBF00010EEF640A4E70E9E4F5AD7548
:101CD000AEF075AF1DF5AC7589FF75913E75991F16
:101CE000F59675931CF59BF595F592F59A75800C14
:101CF000D28A90045004F022022E9DE493A3F8E4CB
:101D000093A34003F68001F208DFF48029E493A353
:101D1000F85407240CC8C333C4540F4420C883406C
:101D200004F456800146F6DFE4800B01020408103B
:101D30002040809030BEE47E019360BCA3FF543FFE
:101D400030E509541FFEE493A360010ECF54C02573
:101D5000E060A840B8E493A3FAE493A3F8E493A363
:101D6000C8C582C8CAC583CAF0A3C8C582C8CAC5C7
:101D700083CADFE9DEE780BE0F00FF00000000003D
:101D80000000FFFFFFFFFFFFFFFFFF00000000005C
:101D90000000000000000000000000000000000043
:101DA0000000000000000000000000000000000033
:101DB0000000000000000000000000000000000023
:101DC0000000000000000000000000000000000013
:101DD0000000000000000000000000000000000003
:101DE00000000000000000000000000000000000F3
:101DF000000000000000000090043A7410F0A3E41A
:101E0000F0A3743FF0A374FFF0E4FDFCF9758A10B1
:101E1000538AEF00000090043AE0FEA3E02DF58223
:101E2000EE3CF583E493FF69F90DBD00010CBC376E
:101E3000E5BDDFE290043CE0FEA3E0F5828E83E4A2
:101E4000936970089003B47407F08005E49003B4BC
:101E5000F0758A50538AEF00000022902EC0E4F003
:101E6000902ECB74F4F0902F58E0540F24F0902E65
:101E7000C8F0902ECC7448F0902EC97428F0A3744A
:101E80003FF0902E40748112121EF0A3F0A30412B2
:101E9000121E7402F0A37488F0902EC67414F09091
:101EA0002EC17490F0A37401F0A37480F0A37407A2
:101EB000F043E31012330E900012EFF02275200170
:101EC00012104E53A87F122C3E12102043A88012ED
:101ED00033B812336A900453E004F0758DE0123287
:101EE000F1EF24E0600A2410700AC283C2828004E9
:101EF000D283D2821229D4438D20121E7C900453A7
:101F0000E060DBC394145005E004F080D1E4900459
:101F100053F080CAC0E0C0F0C083C082C0D0E8C027
:101F2000E0ECC0E0EDC0E0EEC0E0EFC0E0D2AF908A
:101F30000225E004F0C3940A4017E4F01210C42410
:101F400001FFE43EFEE43DFDE43CFC900321122150
:101F50002DD0E0FFD0E0FED0E0FDD0E0FCD0E0F8F6
:101F6000D0D0D082D083D0F0D0E03290044DEDF0CC
:101F700090044CEFF0A3E0FE121262F583E5822E8E
:101F80001210EDE0603590044CE01213D3C083C012
:101F90008290044DE0D082D0831210B312132390AC
:101FA000265412115F401490044DE0FF90044CE061
:101FB0001212631210E8E4F07F01227F00229004E5
:101FC0004DEDF090044CEFF0A3E0FE121255F583B6
:101FD000E5822E1210EDE0603290044CE01213C541
:101FE000C083C08290044DE0D082D0831210B390A1
:101FF0002652121153401490044DE0FF90044CE01F
:102000001212561210E8E4F07F01227F00229002A3
:1020100008A3E090040BF090020AA3E090040CF0F7
:10202000900202A3E090040DF0900204A3E090045B
:102030000EF090020EA3E090040FF0900210A3E0C7
:10204000900410F0902780740193900411F0902771
:1020500082740193900412F0227E007F807D007BC9
:10206000017A0379B3122176E49003B3F0A37407E5
:10207000F0E4A3F09003C574ABF09003C77493F041
:10208000900451E09003B9F090044FE09003BAF04F
:10209000900452E09003BBF0122B89022FEE9004C3
:1020A00050E060399002811214FA500EEF9400EE65
:1020B000940340069004527487F09002231214FA9D
:1020C000500EEF9400EE940340069004527487F093
:1020D000E4900450F0900452E09003BBF0224104DD
:1020E0005300410283004102250041028600410065
:1020F0001300410311004103AC00410433004104CB
:1021000034004203AD00004103AF004103B1004180
:1021100003B0004103B2100090044C1212B25030D0
:1021200090044CE0FFEB1212561210E8E07021EB25
:102130001212561210E87401F01210C4FFEB1213C1
:10214000C5C083C08290044CE0D082D0831214BBFF
:102150002290044C1212B2503090044CE0FFEB126B
:1021600012631210E8E07021EB1212631210E8748F
:1021700001F01210C4FFEB1213D3C083C08290048D
:102180004CE0D082D0831214BB2290043BEFF0E0ED
:10219000FF24271212EFE06020EF1213E11210B9B2
:1021A00012132390264812115F400E90043BE02446
:1021B000271212EFE4F07F01227F002290043BEF10
:1021C000F0E0FF2412121310E06020EF12140B1243
:1021D00010B912132390264C12115F400E90043B4D
:1021E000E02412121310E4F07F01227F0022E4FFAA
:1021F000FE900012E0FDEEC39D501BEF1210A412E2
:1022000013A8EE1210A7E0FAA3E0D39DEA9C4003C6
:10221000CFEECF0E80DB900222EFF02290043BEF56
:10222000F0E0FF24021212FAE0601AEF1213EF122C
:1022300010B9121150400E90043BE024021212FA21
:10224000E4F07F01227F002290043BEFF0E0FF24C6
:1022500042121305E0601AEF1213FD1210B91211A9
:1022600050400E90043BE02442121305E4F07F013D
:10227000227F002290043BE0FBA3E0FAA3E0F922D6
:10228000900434E0FF04F08F827583002290043ABA
:102290007401F022E92FF9E43AFA02200F1212B485
:1022A00050171212ECE070111212EC7401F01210BF
:1022B000C4FFEB1213E112212D221212B450171297
:1022C00012F7E070111212F77401F01210C4FFEB54
:1022D0001213EF12212D221212B45017121302E022
:1022E00070111213027401F01210C4FFEB1213FDEF
:1022F00012212D221212B4501712130DE070111278
:10230000130D7401F01210C4FFEB12140B12212DE7
:1023100022E4FD9003AFE060119003B3E0FE54F0BF
:10232000FDEE540FF0E49003AFF0CFEDCF22121486
:102330006DFFFEEE90265E93600974872F1214796C
:10234000EEF00F0EEEB410EB2290032112213900B3
:102350000000007E007F0C7D007B017A027936024E
:102360002176EFD39403500D121255F583E5822D9B
:102370001210EDE4F022EFD39403500D121262F527
:1023800083E5822D1210EDE4F02275B28E75B6F958
:10239000E4F5B743B20143AA01023329EFD3940312
:1023A000500874272F1212EFE4F022EFD394035059
:1023B0000874022F1212FAE4F022EFD394035008AB
:1023C00074422F121305E4F022EFD39403500874E3
:1023D000122F121310E4F022122E3B9002267401E9
:1023E000F0022AC1EE30E707C3E49FFFE49EFE221D
:1023F00000000000000000000000000000000000DD
:1024000000000000000000000000000000000000CC
:1024100000000000000000000000000000000000BC
:1024200000000000000000000000000000000000AC
:10301000000000000000000000000000000000D5DB
:00000001FF
