:1000000000A10000000200001CCC00000000000065
:1000100000000000000000000000000000000000E0
:10002000801878FFE4B8200118F6D8F99000007F16
:10003000007E07E4F0A3DFFCDEFA758120022CBC11
:100040009004357401F0A37403F0A374B3F0E4F5E5
:10005000DA75DA4043DA20F5DE75D74075DA5843B1
:10006000A90875B80875F808220000022882904097
:1000700006E493FF64166003EF7002002253A87F2A
:100080000080FD022E9A75F002121FB7E0FCA3E07B
:10009000FD75F09AEFA42444F582E5F03400F58371
:1000A000EE75F002021FB775F004121FB7E0F8A357
:1000B000E0F9A3E0FAA3E0FB900321E0FCA3E0FD5C
:1000C000A3E0FEA3E022900448E0FF900447E0FE96
:1000D00075F09AA424A7F582E5F03400F583E58253
:1000E0002FF582E43583F58322E0FCA3E0FDEF7574
:1000F000F09AA42456F582E5F0340022900449E0F9
:10010000FEA3E0FF900447E0FD75F09AA4247AF581
:1001100082E5F03400F58322EF2424FFEE34FAFE6A
:100120007C007D0A121ED67D1E121EE8EF24DCFF25
:10013000EE3405FEEB75F002A42420F582E5F034E0
:1001400000F58322F583E0FCA3E0FDEF75F002A447
:100150002426F582E5F03400F58322902602C39B25
:10016000FBEE9AFAED99F9EC98F8E493FE7401939A
:10017000FFE4FCFDC3021F69C39DFFEE9CFEE0751A
:10018000F09AA42468F582E5F03400F58322F58323
:10019000E0FCA3E0FDEF75F002A4241AF582E5F07F
:1001A0003400F58322900447E0FF75F09AA42444BC
:1001B000F582E5F03400F58322900447E0FF75F006
:1001C0009AA42432F582E5F03400F5832275F09A82
:1001D000A4248CF582E5F03400F583EC75F002027E
:1001E0001FB775F002A42406F582E5F03402F5830A
:1001F000ECF0A3EDF0900439E022E0FEA3E0FFEB89
:1002000075F002A42414F582E5F03400F58322E0B1
:100210004401F0E4900013F090031122F583E4937D
:10022000FC740193FD75F00222F0A3F0A3F0A3F09B
:10023000A3F0A3F0A322900448E0FF900447E075E8
:10024000F09AA4249EF582E5F0340022900447E061
:10025000FD75F09AA4248CF582E5F03400F5832234
:10026000EF75F009A42425F582E4340322EF75F03C
:1002700009A4248AF582E4340222E4F075F09AEEAF
:10028000A424B0F582E5F0340022900439E0FF2583
:10029000E0243BF582E4340422900447E0FFA3E02D
:1002A000FD2290043AE02412F582E43402F5832220
:1002B00090044BE0FDEF9D7480F86E9822EDF0CB3A
:1002C000EFCBEBD394032275F09AEEA424CBF58206
:1002D000E5F034002274182EF582E43402F583220E
:1002E00075F002EF121FB7E0FCA3E0FD75F09A2253
:1002F000E0FEA3E0FFD3940AEE648094802274278A
:100300002BF582E43402F5832274022BF582E43467
:1003100000F5832274422BF582E43402F5832274C3
:10032000122BF582E43403F58322E04406F09000BA
:10033000137401F022C39BFBEE9AFAED99F9EC9845
:10034000F822EB25E02432F582E43427F58322E01D
:10035000249EF582E43400F583E0640122E4F0A3F6
:10036000F075F09A22E0FCA3E0FDEC22EE8FF01293
:100370001F3D75F09AED22902EC97420F0902EC387
:100380007430F0A37408F022EF25E02441F582E4F4
:10039000340422A42400F582E5F0340222A4240CC3
:1003A000F582E5F0340222E0FEA3E0C39D22C3EF14
:1003B00094F6EE6480947F22CFF0A3EFF075F09A6C
:1003C000ED22E490021CF0900284F02275F024A447
:1003D0002440F582E43403F5832275F024A424A597
:1003E000F582E43402F5832225E025E0242AF58213
:1003F000E43402F5832225E025E02405F582E43487
:1004000000F5832225E025E02475F582E43402F529
:10041000832225E025E02415F582E43403F58322C8
:10042000900447E0FFA3E0FD22A424A7F582E5F0B5
:100430003400F583E58222E0FEA3E02DFFEE3CFED2
:10044000900439E022F074192EF582E43402F58329
:10045000E4F022E0FF90043BE0FEEFC8EEC8082283
:10046000541FF0EDA3F02275F002EF121FB7ECF06D
:10047000A3EDF022902EC5E4F0902ECDF0A3F02253
:10048000F582E43402F583229003B3E054F0F022C5
:10049000E0FEA3E0FFD394DCEE940522E02415F502
:1004A00082E43402F58322902EC6F0902EC57401AA
:1004B000F022F583E493FC740193FD22A4242CF52F
:1004C00082E5F034002275F004121FB7021F7AECA7
:1004D000F0A3EDF0900447E02290043AE004F0220B
:1004E000900439E0FF75F09AA422ECF0A3EDF090AF
:1004F0000439E022F090021DF0900285F022F5838D
:10050000E0FFA3E022E0FEA3E0FFC3EE940422900C
:100510000447EFF0A3EDF090044B7403F0ED70038B
:100520007402F0900447E0FF1210CFF583C083C03F
:1005300082900448E0FED082D083121066121387A6
:10054000FFEE9CFE900449F0A3EFF012336BC31250
:10055000129040030215E51210DCC083C0829004A3
:1005600048E0FCD082D08312108112134C1210ECA0
:10057000EC1210811212D040241210E4C083C08209
:10058000900448E0FCD082D083121081E4F0A3F004
:10059000ED1210CF1211B9E475F001802B12138EF9
:1005A0005029900447E0FF1210E9C083C0829004F4
:1005B00048E0FED082D083121081E4F0A3F0121044
:1005C000CE12107E74FFF5F0121F3D121279123216
:1005D000E91212791230D7121279122EF1EF70034C
:1005E0000216F6900448E0FF900447E0FE12121F46
:1005F0001210BCE4F0EF60030216F61212A7F583A6
:10060000E4F00216F6900448E07029A3E0FEA3E0AF
:10061000FF12336BD312129040091212161210BC43
:100620007401F012172F4023900447E075F09A12DE
:1006300012AB801212172F4012121216F583E582A8
:100640002FF582E43583F5837401F01210DCC0834A
:10065000C082900448E0FCD082D083121081121333
:100660004C1210EC1211BBE0FEA3E0FFD39464EE39
:100670006480948040231210E4C083C082900448B8
:10068000E0FCD082D08312108112133DED1210D203
:100690001211B9E475F0018031C3EF949CEE6480CF
:1006A000947F5029900447E0FF1210E9C083C08274
:1006B000900448E0FED082D083121081E4F0A3F0D1
:1006C0001210CE12107E74FFF5F0121F3DC390047D
:1006D00049E064809480503212127912309E1212D6
:1006E00079122F44EF6029900447121188C083C00B
:1006F00082900448E0FED082D0831210811210C98B
:1007000012107EECF0A3EDF080061212791232E99D
:100710001212791232FD900447E0FF1210CFF583D8
:10072000C083C082900448E0FED082D0831210665D
:10073000E0FEA3E0900447121158C083C0829004E9
:1007400048E0D082D083121081EEF0A3EFF0229027
:100750000449E0FEA3E0FF12336B90044BE0FDD3AD
:10076000EF9D7480F86E9822E490043AF090043A79
:10077000E0FDC394095023E0FF75F0021211A1E0DF
:10078000FAA3E0FB75F002EF12118DEAF0A3EBF093
:10079000E4FF1214EF1214B980D3E4900439F090FE
:1007A0000012E0FF900439E0C39F40030219561283
:1007B000126DF583E4F0A3F0121368F583E4F0A35F
:1007C000F0EF700302194DE490043AF090043AE01F
:1007D000FDC394095018900439E0FF12195C90048D
:1007E00039E0FFA3E0FD121B221214B980DEE49071
:1007F000043AF090043AE0FFC3940940030218E081
:10080000749E2F1213326010900439E075F09A1222
:1008100012ABF583E0B4011990043912115EC08364
:10082000C08290043AE0D082D083121081E4F0A319
:10083000F090043AE0FF70030218DA900439E0FE09
:1008400012115F75F002EF121FB7E0FCA3E0C39432
:1008500003EC64809480501A75F09AEE121162C015
:1008600083C08290043AE0D082D083121081E4F0F9
:10087000A3F0900450E0605A900439E0FF1210CFCA
:10088000F583C083C08290043AE0FED082D0831208
:100890001081E0FCA3E0FD121368F583EC8DF012EB
:1008A0001F3D1214C02468F582E5F0340012107E5A
:1008B0001210C9F583C083C08290043AE0D082D080
:1008C0008312108112141712126FF583EE8FF0123B
:1008D0001F3D900439E0FF12115FC083C082900475
:1008E0003AE0D082D083121081E0FCA3E0FDEF1249
:1008F000126FF583EC8DF0121F3D1214B90217D35D
:10090000900450E0604312126AF583E0FCA3E0FD1E
:10091000EF1211E01214CAFF12136912116E1214B1
:10092000CAB4020F1211E0E0FFA3E0900281CFF001
:10093000A3EFF0900439E0B4010F1211E0E0FFA33F
:10094000E0900223CFF0A3EFF01214C02458F582F8
:10095000E5F0340012116EECF0A3EDF012126A1201
:10096000116E1214171211E0EEF0A3EFF09004399B
:10097000E004F002177FE490021EF022900447EF9B
:10098000F0A3EDF090044B7405F0ED603F90009EF5
:10099000E064017002800890044812132F702D1239
:1009A0001199C083C082900448E0FED082D08312A7
:1009B00010661214AF121231C083C082900448E056
:1009C000D082D083121081E4F0A3F0229004471269
:1009D0001188C083C082900448E0FED082D0831288
:1009E00010811212C7EFA42432F582E5F034001210
:1009F000107E121387FFEE9CFE900449F0A3EFF0E7
:100A000012336B90044BE0FDC31212954003021A9F
:100A1000AB1210A6E06401703775F09AEE12116205
:100A2000EF1211BCE0FEA3E0C3941EEE648094803C
:100A30004003021AF1121199C083C082900448E069
:100A4000FED082D083121066ECF0A3EDF0021AF112
:100A5000900449E0FEA3E0FF12122CC083C08290F4
:100A60000448E0FCD082D083121081EE8FF0121F78
:100A70003DED1211AD1212D0402312122CC083C0D2
:100A800082900448E0FCD082D08312108112133D82
:100A9000ED12118D1211BBE475F001802812138E36
:100AA000506F900447E0FF121231C083C08290045F
:100AB00048E0FED082D083121081E4F0A3F012103F
:100AC0007174FFF5F0121F3D021AF1121199C083E3
:100AD000C082900448E0FED082D0831210661214C7
:100AE000AFFF12115FC083C082900448E0FED08245
:100AF000D083121081E0FCA3E0C39428EC648094BE
:100B000080400E75F09AEF1214092E1210C1740174
:100B1000F01210A6E06401702812125C1210BCE002
:100B20000412125B1210BCE0D394054014900448E8
:100B3000E0FF75F09AEE1210B312125A1210BCE4D4
:100B4000F022900447EFF0A3EDF090044B7405F011
:100B5000ED70037404F090009EE064017002800860
:100B600090044812132F7038121185C083C08290F0
:100B70000448E0FED082D0831210811210C91210F6
:100B80007EECF0A3EDF090044712115EC083C082AA
:100B9000900448E0D082D083121081E4F0A3F022C8
:100BA000900447E0FF1210CFF583C083C082900409
:100BB00048E0FED082D083121066121387FFEE9CAD
:100BC000900449F0A3EFF090044712147CE0600712
:100BD000E4900449F0A3F0900449E0FEA3E0FF1282
:100BE000336B90044BE0FDC31212954003021C5876
:100BF000900449E0FEA3E0FF9004471210E7C08391
:100C0000C082900448E0FCD082D08312108112137D
:100C10004C1210EC1211BB1212D040269004471255
:100C200010E7C083C082900448E0FCD082D08312D9
:100C3000108112133DED1210D21211B9E475F001BA
:100C4000802B12138E5029900447E0FF1210E9C048
:100C500083C082900448E0FED082D083121081E4E9
:100C6000F0A3F01210CE12107E74FFF5F0121F3DAB
:100C70001214001232E98038C3900449E064809471
:100C800080502D12140012309E121400122F44EFC7
:100C9000601E121185C083C082900448E0FED0829D
:100CA000D0831210811210C912107EECF0A3EDF067
:100CB000900447E0FF1210CFF583C083C0829004F8
:100CC00048E0FED082D083121066E0FEA3E09004DC
:100CD00047121158C083C082900448E0D082D0836C
:100CE000121081EEF0A3EFF022900226E024FE60C5
:100CF0001E147003021D61147003021E1824036089
:100D000003021E5B9002267402F0E4900283F090CE
:100D100002267403F0900286E064017061F0121400
:100D200068900013E0FF7009900311E07003021E49
:100D30005BEF6012900311E0600C1211F3F090036E
:100D4000B3E044058034900013E06012900311E09A
:100D5000700C1211F4F09003B3E04401801C900079
:100D600013E06003021E5B900311E07003021E5B40
:100D70001211F3F09003B3E04404F0C28A22022A75
:100D80006A12217D90021EE07003021DF990028319
:100D9000E004F0E4900438F0900012E0FF90043892
:100DA000E0C39F5074E4FF900438E0FE12119E12DD
:100DB00012C0EE1210D2F583121447900438E0FEF0
:100DC00012119E1212C0EE12118D1214470FEFB4C1
:100DD00009D5900438E0FF12112CE4F0A3F0EF12D3
:100DE00011157404F0A3E4F0EFB40210E49003BD15
:100DF000F0A3F09003C17404F0E4A3F0EFB4011089
:100E0000E49003BFF0A3F09003C37404F0E4A3F0F4
:100E1000900438E004F0021D78900283E0C394034C
:100E20004059900011747EF0E490021FF09002830C
:100E3000F09002267404F02212217D90021EE060E0
:100E40003A121748E4900438F0900012E0FE900443
:100E500038E0FFC39E501612230A12302490043843
:100E6000E0FF12248A900438E004F080DC12317430
:100E7000122752121FEF900226EFF022BB010689C3
:100E8000828A83E0225002E722BBFE02E3228982AB
:100E90008A83E49322BB010CE58229F582E5833A3B
:100EA000F583E0225006E92582F8E622BBFE06E93A
:100EB0002582F8E222E58229F582E5833AF583E48A
:100EC0009322BB010689828A83F0225002F722BB5B
:100ED000FE01F322F8BB010DE58229F582E5833A94
:100EE000F583E8F0225006E92582C8F622BBFE050C
:100EF000E92582C8F222EF8DF0A4A8F0CF8CF0A4EF
:100F000028CE8DF0A42EFE22BC000BBE0029EF8D52
:100F1000F084FFADF022E4CCF875F008EF2FFFEE7F
:100F200033FEEC33FCEE9DEC984005FCEE9DFE0F8D
:100F3000D5F0E9E4CEFD22EDF8F5F0EE8420D21CE8
:100F4000FEADF075F008EF2FFFED33FD4007985030
:100F500006D5F0F222C398FD0FD5F0EA22C5F0F8CD
:100F6000A3E028F0C5F0F8E582158270021583E051
:100F700038F022A3F8E0C5F025F0F0E58215827084
:100F8000021583E0C838F0E822EB9FF5F0EA9E42B4
:100F9000F0E99D42F0E89C45F022ECF0A3EDF0A3CF
:100FA000EEF0A3EFF022A8828583F0D083D08212E6
:100FB0001F9D121F9D121F9D121F9DE473E493A39A
:100FC000C583C5F0C583C8C582C8F0A3C583C5F075
:100FD000C583C8C582C822A42582F582E5F0358381
:100FE000F58322EF4E6012EF60010EEDBB010B891D
:100FF000828A83F0A3DFFCDEFA2289F05007F7092A
:10100000DFFCA9F022BBFEFCF309DFFCA9F0229073
:101010000226E0B4021D9002867401F09003C6E03F
:10102000B420089003AC7401F08005E49003ACF0A8
:101030007F0222E4FE900012E0FFEEC39F40030215
:10104000217A1212B5E06401600302217674122E37
:10105000121288E0FC60030220C5121468EE6402DC
:10106000703A900285E0FD6401701B900284E0906C
:1010700003B3B40109E044091211F20480151211FE
:10108000EF1214D48016ED9003B3B4020BE04405C4
:101090001211F212142580041211EFF0EE640160B7
:1010A0000302216F900285E0FD6401701C900284B0
:1010B000E09003B3B4010612130AE48021E0440473
:1010C0001211F21214D402216FED9003B3B4020591
:1010D000E044058003E04404F0E4900013F0900342
:1010E00011F002216FEC6401600302216F12146899
:1010F000EE6402704C900284E0FFB4020B9003B3E4
:10110000E0440A12130D8013EF6401702690021D53
:10111000E09003B3B4010C12130AE490031112140B
:1011200025801EE0440212130DE4900311F0121307
:10113000A3800E9003B3E0440212130DE490031158
:10114000F0EE64017049900284E0B402139003B39E
:10115000E0440AF09003117401F0900013F0802F26
:1011600090021CE06401701C900285E09003B3B40F
:101170000105E044098013E044081211F204F01262
:1011800013A2800B9003B3E044081211F204F01292
:1011900012B5E4F0C28A0E0220157F0422E4900406
:1011A0003AF090043AE0FFC394094003022303EFAE
:1011B000902EC87014E0545FF0A3746AF0902EC3B0
:1011C000744AF0A37401F0800EE044F0F0902EC356
:1011D0007480F0A37407F090043AE09025F19390A6
:1011E0002ECAF0E4900439F0900012E0FF90043928
:1011F000E0FEC39F40030222FA74872E121460E0BF
:10120000FF90043BF0E4F5E2EFC39408503B741503
:10121000121487C083C0821214338002C333D8FCF7
:10122000D082D083F0902ECD7401F0C083C082E0D4
:10123000FFC8EEC8088002C333D8FCD082D083F048
:10124000902EC074C1F002228090043BE024F8F09C
:101250007416121487C083C0821214338002C33301
:10126000D8FCD082D083F0902ECE7401F0C083C021
:1012700082E0FFC8EEC8088002C333D8FCD082D019
:1012800083F0EEB40506902EC97420F0EEB4060388
:10129000121357EEB40703121357902EC074C2F006
:1012A000E4FF900000742EF0A3E4F0900439E024F1
:1012B00087121460E090043BF0E5E220E2050FEFB6
:1012C000B4C8DF53E2FB12145490043BE0FD75F008
:1012D00002A4FFAEF0900001E02FF0900000E03E8D
:1012E000F0ED90262293FF900000E475F002121FAB
:1012F0005385F082F5831212C7EF1211A1C083C08B
:101300008290043AE0D082D083121081ECF0A3EDF9
:10131000F0900439E004F00221C890043AE004F0AF
:1013200002218290021E7401F022CDEFCD75F09A59
:10133000ED12118DE0FFA3E0900439121398121002
:10134000D21214DE90043B121398A42446F582E5D1
:10135000F034001214DE90043D121398A42458F5C2
:1013600082E5F03400F583E0FEA3E0FBCAEECA7527
:10137000F09AEDA42434F582E5F034001214DE90E6
:10138000043FCFF0A3EFF0ED6402702890043DE03D
:10139000900403F090043DA3E0900404F0EAA3F06D
:1013A000EBA3F090043FE0900407F090043FA3E02B
:1013B000900408F0ED6401704F90043EE02470F05A
:1013C00090043DE034FEF074702BFB74FE3AFA900A
:1013D0000440E02470F090043FE034FEF090043DBF
:1013E000E0900413F090043DA3E0900414F0EAA30D
:1013F000F0CFEBCFEFA3F090043FE0900417F09014
:10140000043FA3E0900418F0ED60030224899004E7
:10141000437407F0A374D0F09004417407F0A374F0
:10142000DAF090043EE024B0F090043DE03404F0A3
:1014300074B02BFB74043AFA75F09AEDA4249FF56E
:1014400082E5F03400F583E0B40110900444E02418
:1014500032F0900443E03400F08003900443E090C5
:1014600003E3F0900443A3E09003E4F075F09AEDF9
:10147000121222F583E0B40110900442E02432F00D
:10148000900441E03400F080039004411213459031
:1014900003E5F0EDA3F090043D1213459003E7F04F
:1014A000EDA3F0EAA3F0EBA3F022CBEFCBEB12110C
:1014B000761211DAE0FCA3E0FDC39FEC9E5003021C
:1014C0002548E42DFFEC3404FE75F002EB1211798F
:1014D000E0FCA3E0FDC3EF9DFFEE9C121113EEF0C4
:1014E000A3EFF075F002EB1211791211DAE0FCA310
:1014F000E0C39FFFEC9EFE75F002EB12112FEEF0A1
:10150000A3EFF0121322E493FE740193FF75F0022F
:10151000EB12112FE0FCA3E0FDD39FEC9E402412C0
:101520001322E493FE740193FFC3ED9FFFEC9EC36F
:1015300013FEEF13FF1213227401932FFFE4933E67
:10154000FE801775F002EB12112FE0FEA3E0FF7C86
:10155000007D63121ED60D121EE875F002EB12110B
:101560002FEEF0A3EFF080401211DFE0FEA3E0FFCA
:1015700075F002EB121179E0FCA3E0C39FEC9EC36F
:10158000940475F002EB501212112FE4F0A3F01244
:1015900011147404F0A3E4F0800E12112FE4F0A3F0
:1015A000F0121114E4F0A3F0EB6402702C75F00259
:1015B000EB12112F1213459003BD12144012111497
:1015C00012147040081210F8EEF0A3EFF01211148C
:1015D0001213459003C1121440EB6401703275F090
:1015E00002EB12112F121345541F9003BFF0EDA30D
:1015F000F012111412147040081210F8EEF0A3EF5C
:10160000F0121114121345541F9003C3F0EDA3F010
:10161000223F3F3F3F3F3F3F3F3F00320032177086
:1016200002580004001E000A000A000F0064000AAD
:10163000000A00000000000000000000000000019F
:1016400001010D0E0F030405060708090A0B0C0023
:101650000102003200320032003200320032003229
:1016600000320032003200320032003200320032EA
:1016700000320037003700370037003700370037B7
:1016800000370037003700370037003700370037A2
:1016900000370028002800280028002800280028FB
:1016A00000280028002800280028002800280028FA
:1016B0000028002D002D002D002D002D002D002DC7
:1016C000002D002D002D002D002D002D002D002DB2
:1016D000002D0050005000500050005000500050AD
:1016E000005000500050005000500050005000507A
:1016F0000050005500550055005500550055005547
:101700000055005500550055005500550055005531
:10171000005500460046004600460046004600468A
:101720000046004600460046004600460046004689
:101730000046002D002D002D002D002D002D002D28
:10174000002D002D002D002D002D002D002D002D31
:10175000002D00FA00FA00FA00FA00FA00FA00FA86
:1017600000FA00FA00FA00FA00FA00FA00FA00FAA9
:1017700000FA900439747EF0900453E0600302286C
:1017800073E490043AF0900012E0FE90043AE0FF17
:10179000C39E40030228731231A3EF60031213A209
:1017A000121282E0707A90043AE0FF75F002121390
:1017B00073121124121387EE9C404090043AE0907B
:1017C0000439F01212867401F090021CE004F090CB
:1017D0000284F090043AE0FF24181212B87401F069
:1017E00012332390043AE0FF12333290043AE0FFC0
:1017F00012324190043AE0FF12327B90043AE0FF4B
:10180000123110EF600890043A12147CE4F0900456
:101810003AE0FF1231CFEF6071E490021D022865BB
:1018200090043AE0FF75F00212137D121124121396
:1018300087EE9C401A90043AE0900439F01231424D
:10184000EF60479002267402F0121282E4F02290B8
:10185000043AE0FF121286E4F012335090043AE0AA
:10186000FF12322490043AE0FF12334190043AE030
:10187000FF12325E90043AE024181212B87401F09C
:1018800090021DE004F0900285F090043AE004F02C
:10189000022766900439E0FF900221E06F6002EFBA
:1018A000F022C0E0C083C082C0D0E8C0E0E9C0E060
:1018B000EAC0E0EBC0E0EFC0E0D2AFE5DB30E4151A
:1018C000E5DB30E10280229003B2E5DFF0900433E3
:1018D000E4F0022962E5DB30E5059003AF803FE5E7
:1018E000DB30E12DE5DB30E0119004351231FE12E2
:1018F0003207121E75F5DF022962900434E064019C
:101900006003022962208A7AD28A9003B3F0022906
:1019100062900433E0700DA3E5DFF09004337401AE
:10192000F0022962900434E0902D0193FFB4FF0E81
:101930009003B2E5DFF0900434E004F0803EEF6401
:101940000F900435702B1231FE900434E0FF1232F8
:101950001B540F121EA29004351231FE900434E085
:10196000FF04F012321BFFE5DF54F04F121EA2807D
:101970000B1231FE123207E5DF121EB49003B1E004
:1019800004F075DBFFD0E0FFD0E0FBD0E0FAD0E060
:10199000F9D0E0F8D0D0D082D083D0E0329003C626
:1019A000E0FF64107067900439F0900012E0FE9040
:1019B0000439E0C39E4003022A56E0FE25E024D20B
:1019C000F582E43426121492EE1211C2FE25E024B0
:1019D000B2F582E434261211FCEE1213731211CE0A
:1019E000FE25E024F2F582E434261211FCEE1213F7
:1019F0007D1211CEFE25E02412F582E43427121167
:101A0000FCEE12149C1211CE04F002298AEF64201D
:101A1000706D900439F0900012E0FF900439E0C33B
:101A20009F5053E0FF25E02452F582E4342612143F
:101A300092EF1211C2FF25E02432F582E43426121F
:101A400011FCEF1213731211CEFF25E02472F58200
:101A5000E434261211FCEF12137D1211CEFF25E0A3
:101A60002492F582E434261211FCEF12149C121118
:101A7000CE04F00229F6900202A3E09003B7F090A2
:101A800003B4E0B4AA03122D81227E027F0F7D00F1
:101A90007B017A007914121FC3122FDF9003ACE090
:101AA0009003C670057410F080037420F012297D35
:101AB000E4FE900012E0FFEEC39F4003022B22E4FD
:101AC000FC75F09AEE1210EC1211BB12133DEE12DF
:101AD0001222F583E5822C1210C1E4F0EE1211AD52
:101AE00012133DEE1214092C1210C112125AF58372
:101AF000E5822C1210C1E4F0CFEECFCDECCD123246
:101B0000E91232FD0CEC640970B71212A7F583E4F8
:101B1000F0CFEECF1233231233411233321233504F
:101B200074122E121288E4F01212B5E4F090021B27
:101B3000747EF0E4A3F0A3F0900284F0A3F00E0210
:101B40002A92900221747EF0900011F0E49002201D
:101B5000F022E490043AF0FF900439F0EF14601E94
:101B600014603514604C14605B2404707490043B62
:101B70007401F0A3742FF0A37458F0022BBB123140
:101B8000FB900001121E75FED3941F400312321405
:101B9000121E5C6E704B80431231FB900002121ECD
:101BA00075FED394064003123214121E5C6E70311F
:101BB00080291231FB900003121E75FE121E5C6E0E
:101BC000701F80171231FB900004121E75FE648B8B
:101BD0006003123214121E5C6E7006900439E00429
:101BE000F00FEF64056003022B3C900439E0B4056C
:101BF00004A37401F090043AE0FD60079003C7E08D
:101C0000547FF0CFEDCF22758A50538AEF90045164
:101C10007411F090044F7422F09004527433F075F4
:101C2000997F759A80E4FFFEC29600000020970E0F
:101C3000D2960000003097069004517487F00FBFD1
:101C400000010EEF640A4E70DF7590FF75993F75C5
:101C50009AC0000000000000000000E4FEFF309683
:101C60000320970690044F7487F00FBF00010EEF1A
:101C7000640A4E70E9E4F5AD75AEF075AF1DF5ACD4
:101C80007589FF75913E75991FF59675931CF59BA7
:101C9000F595F592F59A75800CD28A90045004F06F
:101CA00022022E43E493A3F8E493A34003F68001B9
:101CB000F208DFF48029E493A3F85407240CC8C386
:101CC00033C4540F4420C8834004F456800146F6C0
:101CD000DFE4800B0102040810204080903064E4AF
:101CE0007E019360BCA3FF543F30E509541FFEE41E
:101CF00093A360010ECF54C025E060A840B8E493E0
:101D0000A3FAE493A3F8E493A3C8C582C8CAC58321
:101D1000CAF0A3C8C582C8CAC583CADFE9DEE780A6
:101D2000BE0F00FF00000000000000FFFFFFFFFFEC
:101D3000FFFFFFFF000000000000000000000000A7
:101D40000000000000000000000000000000000093
:101D50000000000000000000000000000000000083
:101D60000000000000000000000000000000000073
:101D70000000000000000000000000000000000063
:101D80000000000000000000000000000000000053
:101D90000000000000000000000000000000000043
:101DA0000090043A7410F0A3E4F0A3743FF0A3741D
:101DB000FFF0E4FDFCF9758A10538AEF00000090F3
:101DC000043AE0FEA3E02DF582EE3CF583E493FFB8
:101DD00069F90DBD00010CBC37E5BDDFE290043CA4
:101DE000E0FEA3E0F5828E83E4936970089003B46B
:101DF0007402F08005E49003B4F0758A50538AEFC2
:101E000000000022902EC0E4F0902ECB74F4F090ED
:101E10002F58E0540F24F0902EC8F0902ECC744828
:101E2000F0902EC97428F0A3743FF0902E40748176
:101E3000121209F0A3F0A30412120914F0A3F090F7
:101E40002EC67414F0902EC17490F0A37401F0A308
:101E50007480F0A37407F043E3101232B5900012BF
:101E6000EFF02275200112104E53A87F122BE712BB
:101E7000102043A88012335F123311900453E00402
:101E8000F0758DE0123298EF24E0600A2410700A99
:101E9000C283C2828004D283D28212297D438D20E4
:101EA000121CC9900453E060DBC3940A5005E0049F
:101EB000F080D1E4900453F080CAC0E0C0F0C08349
:101EC000C082C0D0E8C0E0ECC0E0EDC0E0EEC0E011
:101ED000EFC0E0D2AF900225E004F0C3940A4017AF
:101EE000E4F01210982401FFE43EFEE43DFDE43CE2
:101EF000FC900321121F7AD0E0FFD0E0FED0E0FD7D
:101F0000D0E0FCD0E0F8D0D0D082D083D0F0D0E0C8
:101F10003290044DEDF090044CEFF0A3E0FE12126D
:101F20004DF583E5822E1210C1E0603590044CE03F
:101F30001213BAC083C08290044DE0D082D08312C5
:101F4000108712131590260812114A401490044D60
:101F5000E0FF90044CE012124E1210BCE4F07F013E
:101F6000227F002290044DEDF090044CEFF0A3E0AE
:101F7000FE121240F583E5822E1210C1E06032900D
:101F8000044CE01213ACC083C08290044DE0D082B8
:101F9000D08312108790260612113E401490044DF3
:101FA000E0FF90044CE01212411210BCE4F07F01FB
:101FB000227F002290020AA3E090040BF090020816
:101FC000A3E090040CF0900204A3E090040DF090C4
:101FD0000202A3E090040EF0900210A3E090040F20
:101FE000F090020EA3E0900410F090273674019355
:101FF000900411F0902734740193900412F0227E23
:10200000007F807D007B017A0379B3121FC3E490C7
:1020100003B3F0A37402F0E4A3F09003C574ABF033
:102020009003C774A1F0900451E09003B9F09004BC
:102030004FE09003BAF0900452E09003BBF0122BF3
:1020400032022F94900450E060399002811214E51E
:10205000500EEF9400EE940340069004527487F003
:102060009002231214E5500EEF9400EE9403400604
:102070009004527487F0E4900450F0900452E09081
:1020800003BBF022410453004102830041022500BA
:102090004102860041001300410311004103AC00DE
:1020A00041043300410434004203AD00004103AF5A
:1020B000004103B1004103B0004103B2100090049D
:1020C0004C12129D503090044CE0FFEB1212411262
:1020D00010BCE07021EB1212411210BC7401F0121E
:1020E0001098FFEB1213ACC083C08290044CE0D078
:1020F00082D0831214A62290044C12129D5030906C
:10210000044CE0FFEB12124E1210BCE07021EB12F7
:10211000124E1210BC7401F0121098FFEB1213BA99
:10212000C083C08290044CE0D082D0831214A622D7
:1021300090043BEFF0E0FF24271212E1E06020EF73
:102140001213C812108D1213159025FC12114A405B
:102150000E90043BE024271212E1E4F07F01227F7D
:10216000002290043BEFF0E0FF2412121302E06023
:1021700020EF1213F212108D121315902600121177
:102180004A400E90043BE02412121302E4F07F0157
:10219000227F0022E4FFFE900012E0FDEEC39D507E
:1021A0001C12112BE0FCA3E0FDEE12112CE0FAA3AF
:1021B000E0D39DEA9C4003CFEECF0E80DA9002225E
:1021C000EFF02290043BEFF0E0FF24021212ECE06B
:1021D000601AEF1213D612108D12113B400E9004AC
:1021E0003BE024021212ECE4F07F01227F002290F7
:1021F000043BEFF0E0FF24421212F7E0601AEF1206
:1022000013E412108D12113B400E90043BE0244267
:102210001212F7E4F07F01227F002290043BE0FBE2
:10222000A3E0FAA3E0F922900434E0FF04F08F82E7
:102230007583002290043A7401F022E92FF9E43A00
:10224000FA021E5C12129F50171212DEE070111279
:1022500012DE7401F0121098FFEB1213C8121F7AED
:102260002212129F50171212E9E070111212E97433
:1022700001F0121098FFEB1213D6121F7A221212DD
:102280009F50171212F4E070111212F47401F01240
:102290001098FFEB1213E4121F7A2212129F5017AC
:1022A0001212FFE070111212FF7401F0121098FF69
:1022B000EB1213F2121F7A22E4FD9003AFE06011DB
:1022C0009003B3E0FE54F0FDEE540FF0E49003AF42
:1022D000F0CFEDCF22121454FFFEEE902612936041
:1022E0000974872F121460EEF00F0EEEB410EB227B
:1022F000900321121F86000000007E007F0C7D00ED
:102300007B017A027936021FC3EFD39403500D127A
:102310001240F583E5822D1210C1E4F022EFD39430
:1023200003500D12124DF583E5822D1210C1E4F019
:102330002275B28E75B6F9E4F5B743B20143AA012E
:102340000232D0EFD39403500874272F1212E1E425
:10235000F022EFD39403500874022F1212ECE4F031
:1023600022EFD39403500874422F1212F7E4F022A4
:10237000EFD39403500874122F121302E4F02212C8
:102380002DE49002267401F0022A6AEE30E707C3BA
:10239000E49FFFE49EFE2200000000000000000019
:1023A000000000000000000000000000000000002D
:1023B000000000000000000000000000000000001D
:1023C000000000000000000000000000000000000D
:1023D00000000000000000000000000000000000FD
:10301000000000000000000000000000000000F4BC
:00000001FF
