:1000000000960009000F0000A59A00000000000003
:1000100000000000000000000000000000000000E0
:10002000801878FFE4B8200118F6D8F99000007F16
:10003000007E07E4F0A3DFFCDEFA75812002301CAD
:10004000902EC5E4F0902ECDF0A3F0FFFEEE901CB4
:100050008F93600D746C2FF582E43402F583EEF01B
:100060000F0EEEB410E722000000000221BE75B2B0
:100070008E75B6F9E4F5B743B20143AA010234D252
:1000800000000002321BC0E0758D0175AA0043AA72
:1000900001D2AFD0E03200000000000210669004F0
:1000A00050E0FF75F08DA42433F582E5F03400F5BF
:1000B00083E0FCA3E0FDEF75F08DA42443F582E519
:1000C000F03400F58322F583E0FCA3E0FDEF75F04A
:1000D00002A42417F582E5F03400F583229004563B
:1000E000E0FEA3E0FF900450E0FD75F08DA42467CE
:1000F000F582E5F03400F58322900450E075F08D30
:10010000A42453F582E5F03400F58322F583E493CB
:10011000FC740193FD75F002EFA424D0F582E5F0A4
:100120003401F583ECF0A3EDF090043CE02275F08F
:1001300002122186E0FCA3E0FDEF75F08DA42433CC
:10014000F582E5F03400F5832275F002EBA4240B70
:10015000F582E5F03400F583E0FCA3E0FD75F002E4
:10016000EBA42405F582E5F03400F58322F583E461
:1001700093FC740193FD75F002EFA422EB25E025BA
:10018000E02417F582E43402F583E5822FF582E45A
:100190003583F5832290043BE0FE75F08DA4242383
:1001A000F582E5F03400F583EF75F002022186E474
:1001B000900004F090039FF074DC2DF582E434018C
:1001C000F583E4F074E22DF582E43401F58322E056
:1001D0004409F0E4900004F090039F22900450E062
:1001E000FF75F08DA42423F582E5F03400F5832219
:1001F000900456C3E0FDEF9D7480F86E982275F070
:1002000002EBA4240BF582E5F03400F58322FEEB2B
:1002100075F002A42411F582E5F03400F5832290F4
:100220000450E0FEA3E0FF900068E02FF09000672C
:10023000E03EF0E0FEA3E0FFD322F0A3F0A3F0A3A2
:10024000F0A3F0A3F0A322900450E075F08DA42455
:1002500077F582E5F03400F58322EF25E0243EF5C2
:1002600082E43404F5832275F002A424CAF582E501
:10027000F034012290039FF074E32DF582E4340101
:10028000F583E4F022A3F0902ECEF0902EC074C23D
:10029000F0900000742EF0A32253E2FB902EC5E4F0
:1002A000F0902ECEF0900000E0FAA3E0F5828A8371
:1002B00075F002E0FAA3E0FBED2290043DE0FD12B0
:1002C00034BC90043DE0FD2224DCF582E43401F5E9
:1002D0008322E4900067F0A3F0900044E022EB2535
:1002E000E0242FF582E4341EF583E493FE74019339
:1002F000FF22F09003A3E0FCA3E0FDA3E0FEA3E057
:1003000022E4F0A3F075F08DEEA422E0FCA3E0FD62
:1003100075F08D22902ECB74F4F0A37448F0741E07
:10032000902EC6F0902EC322E4F0A3F0900451E08A
:1003300004F022EE75F00202218624EAF582E4340C
:1003400001F583E422900003E0FF90043CE0C39FAA
:1003500022E49001E6F0900268F02224D6F582E5CE
:10036000F0340122FFE0FCA3E0C39FFFEC9EFE22DD
:10037000900451E0FFC3940822E04406F09000048A
:100380007401F022E0FCA3E0FDEC541F22ECF0A38A
:10039000EDF0E4900451F022EF25E025E02417F57C
:1003A00082E43402F583E58222900450E0FD7F0A66
:1003B00022241DF582E5F0340022E0FEA3E02DFFAB
:1003C000EE3CFE90043CE022E0FEA3E0FFC322905E
:1003D000043DE004F022A4246FF582E5F03402F538
:1003E0008322E4900077F0A3F022900454EEF0A36F
:1003F000EFF0229003B5E054F0F02224FFF09000DB
:1004000043E034FFF022EE8FF012212275F08DEDE3
:10041000222463F582E5F03400F583222465F58219
:10042000E5F03400F58322E0FAA3E0D39478EA946F
:100430000022E0FEA3E0C39478EE94002290020A2A
:10044000E0640122C3EF94E2EE6480947F22E0FE38
:10045000A3E0C39D2224DFF582E43401F58322C3A7
:10046000EF94CEEE6480947F22E0FF90043CE02283
:10047000E0FCA3E0FDC322F09001E7F0900269F0F8
:1004800022CFF0A3EFF075F08DEB22E4900444F05E
:10049000A3F090020BE090044F7003F080037414FB
:1004A000F0122906E490043CF0900003121449FD78
:1004B000C39F400302177990044F121449FC121293
:1004C00047F583E0FAA3E0C39FFFEA9400FEEF78CC
:1004D00003CEC313CE13D8F9FF900449EEF0A3EF77
:1004E000F0EC12123BE4F0A3F0900444F0A3F0ED22
:1004F0007003021770E4900213F090043DF0900432
:100500003DE0FDC39408500D90043CE0FF1224E14F
:100510001213AF80E9900213E0C39408402AE490DC
:10052000043DF090043C1211BFC083C08290043D92
:10053000E0FED082D08312110E121313ECF0A3ED63
:10054000F01213AFE0B408DB90043CE0FF12177F19
:10055000E4900448F090044BF0A3F0A3F0A3F090D3
:10056000043DF090043DE0FFC3940840030215FAF7
:1005700090043CE0FE1210DD121188E0FCA3E0FDC7
:10058000900445E02DF0900444E03CF0C3ED940469
:10059000EC64809480501A75F08DEE1210E0C083E8
:1005A000C08290043DE0D082D083121189E4F0A390
:1005B000F090043C1210DCC083C08290043DE0D077
:1005C00082D083121189E0FEA3E0FF900449121447
:1005D00050EF9DEE9C4006900448E004F090044BE0
:1005E000E0FCA3E0FDD3EF9DEE9C402890043C127C
:1005F00010DCC083C08290043DE0FFD082D0831223
:100600001189E0FDA3E090044BCDF0A3EDF0A3E44D
:10061000F0A3EFF01213AF021543C3900444E0645B
:100620008094805004E4F0A3F0900444E0FEA31210
:100630001449FD75F08DA41213F1EEF0A3EFF090C4
:10064000044B75F08D121293A41213FCEAF0A3EB85
:10065000F0C3EF9BFFEE9AFE900444F0A3EFF07C12
:10066000007D071220ECA3EEF0A3EFF0900446E02B
:10067000FCA3E0FD90044EE025E0FF90044DE03344
:10068000FE90043C1210DCE5822FF582E5833EF5F6
:1006900083ECF0A3EDF0E490043DF0900448E0C357
:1006A00094084012A3E0FEA3E0FF900447E09F906F
:1006B0000446E09E501990043C1210DCC083C082B6
:1006C00090043DE0D082D083121189E4F0A3F09031
:1006D000045EE090043C6022E0FF1210DDC083C0A5
:1006E0008290043DE0D082D08312118912109112C1
:1006F000139A12123BEE8FF0801FE0FF1210DDC044
:1007000083C08290043DE0D082D083121189E0FC46
:10071000A3E0FD12123AEC8DF01221221213AFE089
:100720006408600302167B90045EE0602C90043C39
:10073000E0B4010F12123BE0FFA3E0900263CFF0A0
:10074000A3EFF090043CE0FF6402704412123AE020
:10075000FFA3E090020ECF803390043CE0FF121024
:1007600097E0FCA3E01211551211E3ECF0A3EDF0B9
:1007700090043CE0FF12123BE0FCA3E01211551282
:1007800011E312139A75F002121141EEF0A3EFF08B
:1007900090043CE004F0021489E4900205F02290F9
:1007A0000450EFF09004527405F09003A0E070192B
:1007B00012107E12136D1213504003021A421210CF
:1007C000D912118812130880ED900452E0FD240222
:1007D000A3F0900450E0121247F583E0FEA3E07806
:1007E00003CEC313CE13D8F9FF1213CA7C00D39DD6
:1007F000EE9C400A900454E0FEA3E0FF8006CEEC9D
:10080000CECFEDCF1213CA900450E0FF1210971212
:10081000111412142EFFEE9C900456F0A3EFF090EA
:10082000026BE064016006900460E06027121A43E6
:10083000C3EF940AEE64809480501912107E121354
:100840006D1213504003021A421210D9121188126D
:10085000130880ED900087E064016011D39000548C
:10086000E09401900053E064809480401912107E5F
:1008700012136D1213504003021A421210D91211B2
:100880008812130880ED121A439004521211D340BB
:10089000030218F8900450E0FF121435E06011755F
:1008A000F08DEF1210CDE4F0A3F0900456F0A3F019
:1008B000900450E0FF12131AF09004561212EBEF5E
:1008C0001210CDEC8DF0122122900450E01210CACB
:1008D000121213941EEE6480948040111210C5E42D
:1008E000F0A3F0ED121097E475F0018018121424B3
:1008F0005016900450E0FF1210CAE4F0A3F012105A
:100900009674FFF5F01221221213891234BC900460
:1009100050E0FD7F020219FF9001E8E0640170657C
:10092000121A4F9004531211D3500B12107EECF098
:10093000A3EDF002195A1210BD1213E61210CD12D7
:1009400012139432EE6480948040141210C5E4F0C7
:10095000A3F075F08DED12109AE475F00180181275
:10096000143F5016900450E0FF1210CAE4F0A3F0B8
:1009700012109674FFF5F0122122900450E0121329
:100980001AF0021A02121A4FD3900455E09F9004F5
:1009900054E09E40461210BD1213E61210CD121202
:1009A000139432EE6480948040141210C5E4F0A3D6
:1009B000F075F08DED12109AE475F00180181214A4
:1009C0003F5035900450E0FF1210CAE4F0A3F0123B
:1009D000109674FFF5F0122122801D900450E0FD66
:1009E0007F021234BC900450E0FF1210CAE4F0A35E
:1009F000F074EA2F12131CF0C3900456E064809444
:100A00008050191213891233911213891230E1EFB9
:100A1000601012107EECF0A3EDF080061213891224
:100A200034BCE4900451F01213505036900450E05E
:100A3000FE12111A1211881212EBEE12109A1213F2
:100A4000A8ED9FFFEC9EFE1210D9C083C0829004D7
:100A500051E0D082D083121189EEF0A3EF12130B74
:100A600080C522900456E0FEA3E0FF1234C6229017
:100A70000456E0FEA3E0FF1234C622E4FD9000031A
:100A8000E0FFEDC39F4003021C5B1211A4E0640170
:100A90006003021C5774DC2D1212AAE0FC600302F2
:100AA0001B2E1213D3ED6401704D900269E0FE64B9
:100AB00001701B900268E09003B5B401061211AFFB
:100AC000048025E044011211B21214578029EE640B
:100AD00002701A900215E060061211A4E4800990D9
:100AE00003B5E044051211B2121257800A9003B503
:100AF000E044011211B2F0ED6402703D900269E031
:100B0000FE6401701B900268E09003B5B401061208
:100B10001359E48020E044041211B21214578019D2
:100B2000EE9003B5B40205E044058003E04404F010
:100B3000E4900004F090039FF01211A4E4F09002FE
:100B400015E06005E4F0021C57C28A021C57EC64F1
:100B5000016003021C571213D3ED64016003021BF2
:100B6000F0900268E0FF64027048900437E0703350
:100B70009003A11214074008900265121407502335
:100B80001211B3F074DC2D1212AAE4F074DD2DF50D
:100B900082E434011211A0E412125790021504F0FD
:100BA000021BF09003B5E0440A12135C12125402C7
:100BB0001BF0EF64017059900437E0702A900265D1
:100BC000121213943CEE9400401DEF9478EE9400C2
:100BD00050159003A1121412500D12118FE4F0124F
:100BE000133290021504F09001E7E0B4010A90037B
:100BF000B5121359E41212549001E6E0B4011190B9
:100C000003B5E0440212135CE490039FF012133228
:100C1000ED64027055900437E0702B9003A112121E
:100C200013943CEE9400401EEF9478EE940050161E
:100C3000900265121412500E12118FE4F09001E62A
:100C4000F090021504F09001E6E06401701C90023F
:100C500069E09003B5B401071211AF04F0800BE016
:100C600044081211B204F01213311211A4E4F090EE
:100C70000215E07002C28A0D021A5D7F04223F3F16
:100C80003F3F3F3F3F3F3F003200321770001E02A0
:100C9000580064025800040004001E000A00C80046
:100CA000C8000F0064000A000A000C0014001400C1
:100CB0000000000000000000000000000101010D24
:100CC0000E0F030405060708090A0B0C00010200B9
:100CD0003200320032003200320032003200320084
:100CE0003200320032003200320032003200320074
:100CF000370037003700370037003700370037003C
:100D0000370037003700370037003700370037002B
:100D10002800280028002800280028002800280093
:100D20002800280028002800280028002800280083
:100D30002D002D002D002D002D002D002D002D004B
:100D40002D002D002D002D002D002D002D002D003B
:100D50006400640064006400640064006400640073
:100D60006400640064006400640064006400640063
:100D7000690069006900690069006900690069002B
:100D8000690069006900690069006900690069001B
:100D90005A005A005A005A005A005A005A005A0083
:100DA0005A005A005A005A005A005A005A005A0073
:100DB0002D002D002D002D002D002D002D002D00CB
:100DC0002D002D002D002D002D002D002D002D00BB
:100DD000C800C800C800C800C800C800C800C800D3
:100DE000C800C800C800C800C800C800C800C800C3
:100DF000CD00CD00CD00CD00CD00CD00CD00CD008B
:100E0000CD00CD00CD00CD00CD00CD00CD00CD007A
:100E1000BE00BE00BE00BE00BE00BE00BE00BE00E2
:100E2000BE00BE00BE00BE00BE00BE00BE00BE00D2
:100E30002D002D002D002D002D002D002D002D004A
:100E40002D002D002D002D002D002D002D002D003A
:100E5000FA00FA00FA00FA00FA00FA00FA00FA00C2
:100E6000FA00FA00FA00FA00FA00FA00FA00FA9022
:100E7000043C747EF0E4A3F0900003E0FF90043D96
:100E8000E0FDC39F4003021FF27F081230E1EF60D4
:100E90000312133190043DE0FF1212A8E060030238
:100EA0001F17EFB4010F1210AEE0FFA3E09003A1F3
:100EB000CFF0A3EFF090043DE0B4020F1210AEE0CB
:100EC000FFA3E0900265CFF0A3EFF090043DE0FFB8
:100ED0001212471210A612142EEE9C403990043DB7
:100EE000E090043CF01212A87401F09001E6E004D6
:100EF000F0900268F090043DE0FD24E21211A77426
:100F000001F0FF1234BC7F0812129A1233917F064F
:100F100012129A1233917F01122001600990043D50
:100F2000E0121435E4F07F071220017003021FE97C
:100F3000E49001E7021FE490043DE0FF75F002A495
:100F400012133B1210A612142EEE9C5003021FB275
:100F500090043DE0FD90043CF07F061230E1EF701C
:100F600003021FE990043D121081ECF0A3EDF09014
:100F7000043DE01212A8E4F01213D3900004E0FF45
:100F8000700990039FE07003022000EF601290034D
:100F90009FE0600C1211B3F09003B5E04405802E81
:100FA000900004E0601290039FE0700C1211B4F006
:100FB0009003B5E044018016900004E07062900355
:100FC0009FE0605C1211B3F09003B5E04404F0C2FE
:100FD0008A2290043DE0FD1212A8E4F07F0612126E
:100FE0009F7F0112339190043DE0FD7F0712129F15
:100FF00012339190043DE024E21211A77401F090A5
:1010000001E7E004F0900269F090043DE004F00292
:101010001E5890043CE0FF900208E06F6002EFF081
:101020002290043DE0FD1230E1EF22BB01068982EF
:101030008A83E0225002E722BBFE02E32289828AF1
:1010400083E49322BB010CE58229F582E5833AF51E
:1010500083E0225006E92582F8E622BBFE06E92558
:1010600082F8E222E58229F582E5833AF583E4936A
:1010700022BB010689828A83F0225002F722BBFE3E
:1010800001F322F8BB010DE58229F582E5833AF5EB
:1010900083E8F0225006E92582C8F622BBFE05E966
:1010A0002582C8F222EF8DF0A4A8F0CF8CF0A428FE
:1010B000CE8DF0A42EFE22BC000BBE0029EF8DF0D9
:1010C00084FFADF022E4CCF875F008EF2FFFEE338B
:1010D000FEEC33FCEE9DEC984005FCEE9DFE0FD53A
:1010E000F0E9E4CEFD22EDF8F5F0EE8420D21CFE0E
:1010F000ADF075F008EF2FFFED33FD400798500677
:10110000D5F0F222C398FD0FD5F0EA22C2D5EC301B
:10111000E709B2D5E4C39DFDE49CFCEE30E715B2CF
:10112000D5E4C39FFFE49EFE122097C3E49DFDE437
:101130009CFC800312209730D507C3E49FFFE49EF8
:10114000FE22C5F0F8A3E028F0C5F0F8E58215828C
:1011500070021583E038F022EB9FF5F0EA9E42F032
:10116000E99D42F0E89C45F022ECF0A3EDF0A3EEFF
:10117000F0A3EFF022A8828583F0D083D0821221E1
:101180006C12216C12216C12216CE473E493A3C5E0
:1011900083C5F0C583C8C582C8F0A3C583C5F0C5A3
:1011A00083C8C582C822A42582F582E5F03583F57F
:1011B0008322EF4E6012EF60010EEDBB010B8982BE
:1011C0008A83F0A3DFFCDEFA2289F05007F709DFFB
:1011D000FCA9F022BBFEFCF309DFFCA9F022C0E071
:1011E000C083C082C0D0E8C0E0E9C0E0EAC0E0EB64
:1011F000C0E0EFC0E0D2AFE5DB30E4239003B4748D
:1012000001F0E5DB30E10280339003B1E5DFF090DF
:101210000435E4F090026AF0900216F0022337E5FC
:10122000DB30E50E9003AD7401F09003B4E4F002FE
:101230002337E5DB30E135E5DB30E01A9004381286
:1012400033CA900436E0FF04F08F827583001220C9
:1012500024F5DF022337900436E0640160030223A3
:1012600037308A03022337D28A022337900435E0CD
:10127000700DA3E5DFF09004357401F00223379080
:101280000436E090306193FFB4FF099003B1E5DFCD
:10129000F002232BEF640F702F9004381233CA90A2
:1012A0000436E0FF1233EE540F122051900438122E
:1012B00033CA900436E0FF04F01233EEFFE5DF544A
:1012C000F04F1220510223319004381233CA900497
:1012D00036E0FFF582758300E5DF122063EF6413CB
:1012E0007049E5DFB4201BE41233D504F0900437D5
:1012F000F09003A9E0B40104E4F080069003B07418
:1013000001F0E5DF641070231233D314F09004373A
:10131000E4F09003B0F09003B3E0B40108C283C2DC
:1013200082C2888006D283D282D288900436E0B40A
:101330001519E5DFB4200A90020B7401F090020A3F
:10134000F0E5DFB410051233D314F0900436E00456
:10135000F09003AFE004F075DBFFD0E0FFD0E0FBDE
:10136000D0E0FAD0E0F9D0E0F8D0D0D082D083D06D
:10137000E0327D037F051230E1EF6005E49003A9C0
:10138000F0900211E024FE603314603914700302FF
:10139000245B1470030224D7240460030224E09029
:1013A00002117402F0E4900267F090026AF0900279
:1013B00016F07D037F121234BC1233919002117427
:1013C00003F0022B56122A32900205E07003022429
:1013D0003B900267E004F0E490043BF0900003E0EF
:1013E000FF90043BE0C39F5072E4FF12117512128C
:1013F000EBEE12109A121188ECF0A3EDF0121175B9
:101400001212EBEE12111D121188ECF0A3EDF00F89
:10141000EFB408D790043BE0FF1210AEE4F0A3F065
:10142000EF1211F07404F0A3E4F0EFB40110E490B3
:1014300003BFF0A3F09003C37404F0E4A3F0EFB48F
:101440000210E49003C1F0A3F09003C57404F0E42B
:10145000A3F090043BE004F00223BC900267E0C3D9
:10146000940350030224E0900002747EF0E49002A2
:1014700006F09002671234B70224DA7D037F12125D
:1014800030E1EF60069003A07401F012330A122AD3
:101490003212330A900205E0606612146BE4900485
:1014A0003BF0900003E0FE90043BE0FFC39E501928
:1014B000122E4D1232C090043BE0FF1227BC1233B3
:1014C0000A90043BE004F080D91233F7121E4F90CB
:1014D00003B0E060199003B2E004F0E0D394274039
:1014E0001FE4F09003B0F09002117402F022121A7F
:1014F0005B900211EFF0221234269002117404F076
:1015000022900450EFF0A3EDF09004567403F09095
:101510000460E0601D1211BCC083C082900451E0E1
:10152000FED082D08312110EEE121189ECF0A3EDE1
:10153000F022900087E0640170321211BCC083C0B9
:1015400082900451E0FED082D08312110E12131348
:10155000ECF0A3EDF0121227C083C082900451E09A
:10156000D082D083121189E4F0A3F022900450E0DD
:10157000FF12111AC083C082900451E0FED082D0C5
:10158000831211891212EBEF1211C4121313E0FE31
:10159000A3E0FBCAEECAC39DFEEA9C900452F0A3EE
:1015A000CEF0900450E0F91210971213A8EB9FFFB1
:1015B000EA9E900454F0A3EFF0900452E0FEA3E002
:1015C000FF75F08DE912122EC083C082900451E0A5
:1015D000FDD082D083121189EE8FF01221221212D7
:1015E00027ED1213141212139419EE6480948040A4
:1015F0002D900450E0FD12122BC083C08290045144
:10160000E0FCD082D083121189E4F0A3F0ED121136
:101610001A75F002EC122186E475F0018031C3EFF7
:1016200094E7EE6480947F5029900450E0FF1212FA
:101630002BC083C082900451E0FED082D08312116F
:1016400089E4F0A3F012111912131374FFF5F012CC
:1016500021221226541226541211D05010900452F6
:10166000E0FEA3E0FF1234C61211D0400690021330
:10167000E004F022900454E0FEA3E0FF1234C622FE
:1016800090020BE014606E1470030227362402608F
:101690000302279A12141D600302279AF090043C5B
:1016A000F01213254003022791E0FF25E024CFF537
:1016B00082E4341C1210ECFF25E024AFF582E43400
:1016C0001C12114D12124B121102FF25E024EFF5EE
:1016D00082E4341C12114D12133B121102FF25E05B
:1016E000240FF582E4341D12114D121391121102D0
:1016F00004F002268112141D600302279AF0900460
:101700003CF0121325504CE0FF25E024CFF582E495
:10171000341D1210ECFF25E024AFF582E4341D12D5
:10172000114D12124B121102FF25E024EFF582E455
:10173000341D12114D12133B121102FF25E0240F2C
:10174000F582E4341E12114D12139112110204F0AD
:101750000226E202279112141D705FF090043CF003
:10176000121325504CE0FF25E0244FF582E4341D90
:101770001210ECFF25E0242FF582E4341D12114DE8
:1017800012124B121102FF25E0246FF582E4341D82
:1017900012114D12133B121102FF25E0248FF58226
:1017A000E4341D12114D12139112110204F002279C
:1017B000409001CCA3E09003B9F09003B6E0B4AA46
:1017C000031231BE9003D0E07011A3E0B4100CE41A
:1017D0009003D0F0A37410F012327122CBEFCB1231
:1017E00011DEE0FEA3E0FF12113D1214509FEC9EAB
:1017F0005003022869E42DFFEC3404FE1211DE12BE
:101800001450EF9DFFEE9C1211EEEEF0A3EFF012DC
:1018100011DEE0FEA3E0FF12113D12134575F00248
:10182000EB1210B1EEF0A3EFF01212BE75F002EB66
:101830001210B1E0FCA3E0FDD39FEC9E40261212F3
:10184000BEC3ED9FFFEC9EC313FEEF13FFEB25E03D
:10185000242FF582E4341EF5837401932FFFE49363
:101860003EFE801775F002EB1210B1E0FEA3E0FF20
:101870007C007D631220850D12209775F002EB121B
:1018800010B1EEF0A3EFF0802112113DE0FEA3E0D5
:10189000FF1211DEE0FCA3E0C39FEC9EC39404752D
:1018A000F002EB1210B1E4F0A3F09003B0E0601688
:1018B000EBB401071210AEE4F0A3F0EBB402071290
:1018C00010AEE4F0A3F075F002EB1210B1E0FEA34D
:1018D000E02400FFEE34041211EEEEF0A3EFF0EB83
:1018E0006401701E75F002EB1210B11213649003C4
:1018F000BFF0EDA3F01211EF1213649003C3F0EDEB
:10190000A3F0EB6402701E75F002EB1210B112131B
:10191000649003C1F0EDA3F01211EF121364900371
:10192000C5F0EDA3F0229004527404F02405A3F056
:10193000122F5D900043E0FEA3E0900033121344A9
:10194000900450F0A3EFF0900053EEF0A3EFF012EC
:1019500034C69004521211D3505C1211FF941EEE43
:1019600064809480400F1212B204F0701390004310
:10197000E004F0800B12142450061212B21213DB92
:101980009001E8E07003022A22E4FD7F0B123391FC
:10199000E4FD7F0B1230E1EF7003022A22E4900194
:1019A000E8F0900087F0FD7F0C1234BC1233919068
:1019B00001E97401F022E4FD7F0B1234BC9001E9CF
:1019C000E0700B9001E804F0900087F0801A122A72
:1019D00023D31211D44002800AE4FD7F0C1230E1BF
:1019E000EF6005E49001E9F09001E8E064017052D5
:1019F000122A23E0FDD31211D6401C900450E0FEC1
:101A0000A3E0FF7C007D021220EC900044E02FF068
:101A1000900043E03EF0221211FF9464EE64809443
:101A200080400E1212B204F07018900043E004F0EF
:101A300022C3EF949CEE6480947F50061212B2127F
:101A400013DB22900450E0FEA3E0FF1234C69004A2
:101A50005322D2AF902ECBE044C0F0902EC6741E1D
:101A6000F0E4FD902EC8E044F0F0A37428F0902E2E
:101A7000C37480F0A37407F0EDC39401503675AEC3
:101A8000207599DF1212F47480F0A37405F07420AD
:101A9000121265741AF0E4FEFFE5E220E20B0FBFBC
:101AA00000010EBE07F3BFD0F01212791211C4EA82
:101AB000F0A3EBF075AE407599BF902ECB74D4F0C7
:101AC000A37488F0743E1213007440F0A3740BF0FA
:101AD0007440121265741CF0E4FEFFE5E220E20B94
:101AE0000FBF00010EBE07F3BFD0F053E2FB902EF4
:101AF000C5E4F0902ECEF0900000E0FEA3E0F58269
:101B00008E83E0FEA3E0FF75F002EDA424B0F58221
:101B1000E5F03400F583EEF0A3EFF075AE80759933
:101B20007F1212F47410F0A37408F0A374801212E0
:101B300066741EF0E4FEFFE5E220E20B0FBF000139
:101B40000EBE07F3BFD0F0121279A4243DF582E552
:101B5000F03401F583EAF0A3EBF00DED64086003C7
:101B6000022A439002057401F0902ECBE0543FF01E
:101B7000902ECEE4F0227E027F057D007B017A006C
:101B8000790512219212334E90020A7401F0122646
:101B900060E4FE900003E0FFEEC39F4003022C4C84
:101BA000E4FF75F08DEE1210CD1211881212E124AF
:101BB00087F582E5F03400121168E41212E424770C
:101BC000F582E5F034001211861212E1248FF582BD
:101BD000E5F03400121168E41212E42497F582E56E
:101BE000F03400121168E4F075F008EEA424EDF56D
:101BF00082E5F03401121168E4F00FEF640870A27E
:101C000075F08DEEA424AFF582E5F03400F583E4A1
:101C1000F0CDEECD7F011234BC7F071234BC0F1221
:101C200034BC7F061234BC7F0A1234BC7F021234EB
:101C3000BC74DC2E1212AAE4F074E22E1211A7E496
:101C4000F09001E5747EF0E4A3F0A3F0900268F058
:101C5000A3F074EA2E12131C1212E41213F11212E2
:101C6000E11213FCE4F0A3F00E022B73E49001E800
:101C7000F0A3F0FD7F0B1234BC0F1234BC900208AD
:101C8000747EF0900002F0E4900207F022E49004E9
:101C90003DF0FF90043CF0EF14601E1460351460BA
:101CA0004C14605B2404707490043E7401F0A374BF
:101CB0002FF0A37458F0022CF61233C790000112D3
:101CC0002024FED3941F40031233DD12200B6E70CC
:101CD0004B80431233C7900002122024FED3940697
:101CE00040031233DD12200B6E703180291233C78E
:101CF000900003122024FE12200B6E701F8017121A
:101D000033C7900004122024FE648B60031233DD7D
:101D100012200B6E700690043CE004F00FEF640597
:101D20006003022C7790043CE0B40504A37401F036
:101D300090043DE0FD60079003C9E0547FF0CFEDD3
:101D4000CF2275200153A87F122DBD12345443A811
:101D50008012104E12347B12349AEF24E0602D244E
:101D600010704F9003B37401F090020BE060437D5C
:101D7000037F0F1234BC7D037F0F123391900460F8
:101D8000E04410F0C283C282C2888026E49003B38C
:101D9000F090020BE0601B7D037F101234BC7D03CA
:101DA0007F10123391900460E04401F0D283D2821C
:101DB000D2887D037F0F1230E1EF6007900460E06E
:101DC00054EFF07D037F101230E1EF600790046064
:101DD000E054FEF0122660122352022D37758A500D
:101DE000538AEF90045C7411F090045B7422F090BD
:101DF000045D7433F075997F759A80E4FFFEC29696
:101E000020970BD29630970690045C7487F00FBF32
:101E100000010EEF640A4E70E57590FF75993F75ED
:101E20009AC0E4FEFF30960320970690045B748707
:101E3000F00FBF00010EEF640A4E70E9E4F5AD75D6
:101E4000AEE075AF1DF5AC7589FF75913D75991FB5
:101E5000F59675931CF59BF595F592F59A75800CA2
:101E6000758801F590D28A90045E04F022CBEFCB06
:101E700075F08DEB1211C4E0FFA3E090043C121446
:101E80006112111DE0FFA3E090043E1214611210D4
:101E90009AE0FFA3E0900440CFF0A3EFF0EB6401E1
:101EA0007028121129E0900405F012113DA3E09072
:101EB0000406F0ECA3F0EDA3F0900263E09003D5EC
:101EC000F0900263A3E09003D6F0EB640270271257
:101ED0001129E0900409F012113DA3E090040AF0EA
:101EE000ECA3F0EDA3F090020EE0FAA3E0FBEA9081
:101EF00003D7F0EBA3F0224104600041026A0041E5
:101F00000216004102140041026700410210004124
:101F100000040041039F0042020C00004203A7009E
:101F20000041020A014102120041026B004103A07C
:101F300000410213004203A100004202650000417B
:101F400002150041043500410436004203AA000096
:101F50004103AD004103AF004103AE004103B110A6
:101F60004103B0004103B2004103A901410437001D
:101F70004103B3004103AC004103B4000090045698
:101F80007403F0900033E0FEA3E0900023121344AA
:101F9000900454F0A3EFF01234C69004561211D3FB
:101FA000504C900454E0FEA3E0FF900078E02FF046
:101FB000900077121210940AEE64809480401212FE
:101FC00013C2900034E004F07006900033E004F097
:101FD00022C3EF94F6EE6480947F50241213C290D3
:101FE0000034E024FFF0900033E034FFF0221213BD
:101FF000C2900023E0FFA3E0900033CFF0A3EFF006
:1020000022022D22E493A3F8E493A34003F6800177
:10201000F208DFF48029E493A3F85407240CC8C322
:1020200033C4540F4420C8834004F456800146F65C
:10203000DFE4800B0102040810204080902ED7E4DA
:102040007E019360BCA3FF543F30E509541FFEE4BA
:1020500093A360010ECF54C025E060A840B8E4937C
:10206000A3FAE493A3F8E493A3C8C582C8CAC583BE
:10207000CAF0A3C8C582C8CAC583CADFE9DEE78043
:10208000BE0F00FF00000000000000FFFFFFFFFF89
:10209000FFFFFFFF00000000000000000000000044
:1020A0000000000000000000000000000000000030
:1020B0000000000000000000000000000000000020
:1020C0000000000000000000000000000000000010
:1020D0000000000000000000000000000000000000
:1020E00000000000000000000000000000000000F0
:1020F00000000000000000000000000000000000E0
:1021000000900459EDF0900458EFF0A3E0FE121394
:10211000782E12116DE06060900458E075F0101296
:1021200013B6C083C082900459E0D082D08375F08A
:1021300004122186E0F8A3E0F9A3E0FAA3E0FB1281
:1021400012D3C39BFBEE9AFAED99F9EC98F8900440
:1021500058E025E02467F582E4341C1212C8E4FC40
:10216000FDC31221384011900459E0FF900458E05B
:1021700012115DE4F07F01227F0022902EC0E4F076
:10218000902ECB74D7F0902F58E0540F24F0902E5F
:10219000C8F0902ECC7408F0902EC97428F0A37467
:1021A0003FF0902E40748112121AF0A3F0A3740431
:1021B00012121A7402F0A37404F0902EC67414F074
:1021C000902EC17490F0A37403F0A37480F0A374F4
:1021D00007F043E310121020900003EFF022900468
:1021E0003D7410F0A3E4F0A3743FF0A374FFF0E497
:1021F000FDFCF9758A10538AEF00000090043DE061
:10220000FEA3E01233E4FF69F90DBD00010CBC2F01
:10221000EBBDFFE890043FE0FEA3E0F5828E83E48F
:10222000936970089003B6740FF08005E49003B6CC
:10223000F0758A50538AEF00000022C0E0C0F0C061
:1022400083C082C0D0E8C0E0ECC0E0EDC0E0EEC0EA
:10225000E0EFC0E0D2AF900210E004F0C3940A4077
:1022600016E41212D22401FFE43EFEE43DFDE43CFC
:10227000FC9003A3122149D0E0FFD0E0FED0E0FDA6
:10228000D0E0FCD0E0F8D0D0D082D083D0F0D0E045
:10229000327F007E10E4FDFC90043DF0A3F0758ACF
:1022A00010538AEF000000EF1233E4FB90043EE08D
:1022B0002BF090043DE03400F00DBD00010CED70FA
:1022C00003EC643070E190043DE0FCA3E0FDEC9091
:1022D00003D0F0EDA3F0758A50538AEF000000227E
:1022E00090045EE060439002631213A894E0EE94C1
:1022F0002E500EEF94F8EE942A400690045D7487F9
:10230000F090020E1213A89428EE9423500EEF942E
:1023100040EE941F400690045D7487F0E490045EE4
:10232000F090045DE09003BDF022900212E024FEE4
:1023300060111460222403703430893190021274C9
:1023400002F0222089279002127403F090026B742D
:10235000011234B70233917D037F111230E1EF6037
:102360000C1234B8E4900212F090026BF0227E005E
:102370007F807D007B017A0379B5122192E490037E
:10238000B5F0A3740FF0A37408F09003C774ABF01A
:102390009003C97496F090045CE09003BBF0900445
:1023A0005BE09003BCF090045DE09003BDF0022C74
:1023B0006D900458EDF0CBEFCBE0FF12115CE070B4
:1023C0002512115C74011212D2FF75F010EB12137A
:1023D000B6C083C082900458E0D082D08375F004E8
:1023E0001221861221492290043EE0FBA3E0FAA3C9
:1023F000E0F922740290020BF090020A2290043D50
:102400007401F0222DF582EE3CF583E49322E92F4E
:10241000F9E43AFA02200BE4FFFE900003E0FDEE3F
:10242000C39D501C1210ADE0FCA3E0FDEE1210AEF7
:10243000E0FAA3E0D39DEA9C4003CFEECF0E80DA12
:10244000900209EFF022E5DB20E2289003B4E0706F
:1024500022D2AFE4F5A8F5A9F5AA43A908F58B7532
:102460008E09F58643AA08758DA0758A70438A8403
:10247000758703229004387401F0A37403F0A374E9
:10248000B5F0E4F5DA75DA4043DA2075D74075DA4D
:102490005843A90875B80875F808227D037F05120E
:1024A00034BC12339112315B90020B7402F0900233
:1024B0000A14F0900211F0022B56E4FD9003ADE0F7
:1024C00060119003B5E0FE54F0FDEE540FF0E4907F
:1024D00003ADF0CFEDCF22F07D037F111213782DE5
:1024E00012116DE4F022EE30E707C3E49FFFE49E93
:1024F000FE229003A31221550000000022000000DC
:1025000000000000000000000000000000000000CB
:1025100000000000000000000000000000000000BB
:1025200000000000000000000000000000000000AB
:10253000000000000000000000000000000000009B
:10301000000000000000000000000000000000426E
:00000001FF
