:1000000000930000000600000D2600000000000024
:1000100000000000000000000000000000000000E0
:10002000801878FFE4B8200118F6D8F99000007F16
:10003000007E07E4F0A3DFFCDEFA758120022CC508
:100040009004357401F0A37403F0A374B3F0E4F5E5
:10005000DA75DA4043DA20F5DE75D74075DA5843B1
:10006000A90875B80875F80822000002288B90408E
:1000700006E493FF64166003EF7002002253A87F2A
:100080000080FD022EA075F00212214DE0FCA3E0DD
:10009000FD75F09AEFA42444F582E5F03400F58371
:1000A000EE75F00202214D75F00412214DE0F8A327
:1000B000E0F9A3E0FAA3E0FB900321E0FCA3E0FD5C
:1000C000A3E0FEA3E022900448E0FF900447E0FE96
:1000D00075F09AA424A7F582E5F03400F583E58253
:1000E0002FF582E43583F58322E0FCA3E0FDEF7574
:1000F000F09AA42456F582E5F0340022900449E0F9
:10010000FEA3E0FF900447E0FD75F09AA4247AF581
:1001100082E5F03400F58322EF2424FFEE34FAFE6A
:100120007C007D0A12206C7D1E12207EEF24DCFFF5
:10013000EE3405FEEB75F002A42420F582E5F034E0
:1001400000F58322F583E0FCA3E0FDEF75F002A447
:100150002426F582E5F03400F5832290260BC39B1C
:10016000FBEE9AFAED99F9EC98F8E493FE7401939A
:10017000FFE4FCFDC30220FFC39DFFEE9CFEE07583
:10018000F09AA42468F582E5F03400F58322F58323
:10019000E0FCA3E0FDEF75F002A4241AF582E5F07F
:1001A0003400F58322900447E0FF75F09AA42444BC
:1001B000F582E5F03400F58322900447E0FF75F006
:1001C0009AA42432F582E5F03400F5832275F09A82
:1001D000A4248CF582E5F03400F583EC75F002027E
:1001E000214D75F002A42406F582E5F03402F58372
:1001F000ECF0A3EDF0900439E022E0FEA3E0FFEB89
:1002000075F002A42414F582E5F03400F58322E0B1
:100210004401F0E4900013F090031122F0A3F0A346
:10022000F0A3F0A3F0A3F0A3F0A322F583E493FCE2
:10023000740193FD75F00222900448E0FF9004479A
:10024000E075F09AA4249EF582E5F0340022900433
:1002500047E0FD75F09AA4248CF582E5F03400F5B2
:100260008322EF75F009A42425F582E4340322EFFC
:1002700075F009A4248AF582E4340222E4F075F0D2
:100280009AEEA424B0F582E5F0340022900439E01F
:10029000FF25E0243BF582E4340422900447E0FF8C
:1002A000A3E0FD2290043AE02412F582E43402F542
:1002B000832290044BE0FDEF9D7480F86E9822ED50
:1002C000F0CBEFCBEBD394032275F09AEEA424CBC2
:1002D000F582E5F034002274182EF582E43402F53C
:1002E000832275F002EF12214DE0FCA3E0FD75F0D2
:1002F0009A22E0FEA3E0FFD3940AEE648094802269
:1003000074272BF582E43402F5832274022BF582E4
:10031000E43400F5832274422BF582E43402F58341
:100320002274122BF582E43403F58322E04406F0B4
:100330009000137401F022C39BFBEE9AFAED99F939
:10034000EC98F822EB25E0243BF582E43427F58392
:1003500022E0249EF582E43400F583E0640122E487
:10036000F0A3F075F09A22E0FCA3E0FDEC22EE8F02
:10037000F01220D375F09AED22EF25E02441F582AA
:10038000E4340422A42400F582E5F0340222A424FB
:100390000CF582E5F0340222E0FEA3E0C39D22C307
:1003A000EF94F6EE6480947F22CFF0A3EFF075F027
:1003B0009AED22E490021CF0900284F02275F02461
:1003C000A42440F582E43403F5832275F024A424A8
:1003D000A5F582E43402F5832225E025E0242AF500
:1003E00082E43402F5832225E025E02405F582E449
:1003F0003400F5832225E025E02475F582E43402FB
:10040000F5832225E025E02415F582E43403F58305
:1004100022900447E0FFA3E0FD22A424A7F582E593
:10042000F03400F583E58222E0FEA3E02DFFEE3CF0
:10043000FE900439E022F074192EF582E43402F5BE
:1004400083E4F022E0FF90043BE0FEEFC8EEC80832
:1004500022541FF0EDA3F02275F002EF12214DECB3
:10046000F0A3EDF022902EC5E4F0902ECDF0A3F095
:1004700022F582E43402F583229003B3E054F0F0D5
:1004800022E0FEA3E0FFD394DCEE940522E02415E5
:10049000F582E43402F58322902EC6F0902EC574C6
:1004A00001F022F583E493FC740193FD22A4242C33
:1004B000F582E5F034002275F00412214D0221107E
:1004C000ECF0A3EDF0900447E022902EC97420F0E8
:1004D0002290043AE004F022900439E0FF75F09A8B
:1004E000A422ECF0A3EDF0900439E022F090021D7C
:1004F000F0900285F022F583E0FFA3E022E0FEA366
:10050000E0FFC3EE940422900447EFF0A3EDF090D7
:10051000044B7403F0ED70037402F0900447E0FFA5
:100520001210CFF583C083C082900448E0FED082D1
:10053000D083121066121378FFEE9CFE900449F0EF
:10054000A3EFF0123371C312129240030215DD12B1
:1005500010DCC083C082900448E0FCD082D08312BB
:10056000108112134E1210ECEC1210811212D240B4
:10057000241210E4C083C082900448E0FCD082D0F2
:1005800083121081E4F0A3F0ED1210CF1211B9E440
:1005900075F001802B12137F5029900447E0FF1261
:1005A00010E9C083C082900448E0FED082D083125C
:1005B0001081E4F0A3F01210CE12107E74FFF5F05B
:1005C0001220D312127B1232EF12127B1230DD1284
:1005D000127B122EF7EF70030216EE900448E0FF34
:1005E000900447E0FE1212211210BCE4F0EF600309
:1005F0000216EE1212A9F583E4F00216EE900448FA
:10060000E07029A3E0FEA3E0FF123371D31212922F
:1006100040091212181210BC7401F012172740235F
:10062000900447E075F09A1212AD8012121727401D
:1006300012121218F583E5822FF582E43583F583D3
:100640007401F01210DCC083C082900448E0FCD03A
:1006500082D08312108112134E1210EC1211BBE0E3
:10066000FEA3E0FFD39464EE6480948040231210D4
:10067000E4C083C082900448E0FCD082D083121092
:100680008112133FED1210D21211B9E475F00180FE
:1006900031C3EF949CEE6480947F5029900447E02E
:1006A000FF1210E9C083C082900448E0FED082D0DF
:1006B00083121081E4F0A3F01210CE12107E74FFAA
:1006C000F5F01220D3C3900449E064809480503246
:1006D00012127B1230A412127B122F4AEF60299063
:1006E0000447121188C083C082900448E0FED08283
:1006F000D0831210811210C912107EECF0A3EDF01D
:10070000800612127B1232EF12127B123303900416
:1007100047E0FF1210CFF583C083C082900448E009
:10072000FED082D083121066E0FEA3E09004471250
:100730001158C083C082900448E0D082D083121048
:1007400081EEF0A3EFF022900449E0FEA3E0FF1257
:10075000337190044BE0FDD3EF9D7480F86E9822C6
:10076000E490043AF090043AE0FDC394095023E089
:10077000FF75F0021211A1E0FAA3E0FB75F002EFA1
:1007800012118DEAF0A3EBF0E4FF1214E71214B19A
:1007900080D3E4900439F0900012E0FF900439E037
:1007A000C39F400302194E12126FF583E4F0A3F0C9
:1007B000121359F583E4F0A3F0EF7003021945E436
:1007C00090043AF090043AE0FDC394095018900464
:1007D00039E0FF121954900439E0FFA3E0FD121B29
:1007E0001A1214B180DEE490043AF090043AE0FF6B
:1007F000C3940940030218D8749E2F12133460105A
:10080000900439E075F09A1212ADF583E0B4011945
:1008100090043912115EC083C08290043AE0D08205
:10082000D083121081E4F0A3F090043AE0FF70034B
:100830000218D2900439E0FE12115F75F002EF1237
:10084000214DE0FCA3E0C39403EC64809480501A33
:1008500075F09AEE121162C083C08290043AE0D023
:1008600082D083121081E4F0A3F0900450E0605A2B
:10087000900439E0FF1210CFF583C083C08290044A
:100880003AE0FED082D083121081E0FCA3E0FD129A
:100890001359F583EC8DF01220D31214B82468F5A7
:1008A00082E5F0340012107E1210C9F583C083C0B7
:1008B0008290043AE0D082D0831210811214081280
:1008C0001271F583EE8FF01220D3900439E0FF12FD
:1008D000115FC083C08290043AE0D082D0831210AE
:1008E00081E0FCA3E0FDEF121271F583EC8DF012B4
:1008F00020D31214B10217CB900450E060431212BF
:100900006CF583E0FCA3E0FDEF1211E01214C2FFCE
:1009100012135A12116E1214C2B4010F1211E0E038
:10092000FFA3E0900281CFF0A3EFF0900439E0B490
:10093000020F1211E0E0FFA3E0900223CFF0A3EF3B
:10094000F01214B82458F582E5F0340012116EEC60
:10095000F0A3EDF012126C12116E1214081211E0D5
:10096000EEF0A3EFF0900439E004F0021777E49082
:10097000021EF022900447EFF0A3EDF090044B74B8
:1009800005F0ED603F90009EE064017002800890E9
:100990000448121331702D121199C083C082900443
:1009A00048E0FED082D0831210661214A0121233D7
:1009B000C083C082900448E0D082D083121081E4CA
:1009C000F0A3F022900447121188C083C0829004E3
:1009D00048E0FED082D0831210811212C9EFA42405
:1009E00032F582E5F0340012107E121378FFEE9C8F
:1009F000FE900449F0A3EFF012337190044BE0FD38
:100A0000C31212974003021AA31210A6E0640170E9
:100A10003775F09AEE121162EF1211BCE0FEA3E0FE
:100A2000C3941EEE648094804003021AE912119967
:100A3000C083C082900448E0FED082D0831210664A
:100A4000ECF0A3EDF0021AE9900449E0FEA3E0FF08
:100A500012122EC083C082900448E0FCD082D08362
:100A6000121081EE8FF01220D3ED1211AD1212D2BE
:100A7000402312122EC083C082900448E0FCD08232
:100A8000D08312108112133FED12118D1211BBE4AD
:100A900075F001802812137F506F900447E0FF1219
:100AA0001233C083C082900448E0FED082D083120B
:100AB0001081E4F0A3F012107174FFF5F01220D34E
:100AC000021AE9121199C083C082900448E0FED056
:100AD00082D0831210661214A0FF12115FC083C06F
:100AE00082900448E0FED082D083121081E0FCA303
:100AF000E0C39428EC64809480400E75F09AEF1265
:100B000013FA2E1210C17401F01210A6E0640170E5
:100B10002812125E1210BCE00412125D1210BCE02A
:100B2000D394054014900448E0FF75F09AEE12103B
:100B3000B312125C1210BCE4F022900447EFF0A351
:100B4000EDF090044B7405F0ED70037404F0900028
:100B50009EE06401700280089004481213317038DE
:100B6000121185C083C082900448E0FED082D083F9
:100B70001210811210C912107EECF0A3EDF0900457
:100B80004712115EC083C082900448E0D082D083B7
:100B9000121081E4F0A3F022900447E0FF1210CF7E
:100BA000F583C083C082900448E0FED082D08312D7
:100BB0001066121378FFEE9C900449F0A3EFF090BA
:100BC000044712146DE06007E4900449F0A3F0902C
:100BD0000449E0FEA3E0FF12337190044BE0FDC333
:100BE0001212974003021C50900449E0FEA3E0FF5C
:100BF0009004471210E7C083C082900448E0FCD004
:100C000082D08312108112134E1210EC1211BB12FB
:100C100012D240269004471210E7C083C08290048D
:100C200048E0FCD082D08312108112133FED1210E5
:100C3000D21211B9E475F001802B12137F50299064
:100C40000447E0FF1210E9C083C082900448E0FE30
:100C5000D082D083121081E4F0A3F01210CE1210D3
:100C60007E74FFF5F01220D31213F11232EF8038A8
:100C7000C3900449E064809480502D1213F1123027
:100C8000A41213F1122F4AEF601E121185C083C007
:100C900082900448E0FED082D0831210811210C9E5
:100CA00012107EECF0A3EDF0900447E0FF1210CF9D
:100CB000F583C083C082900448E0FED082D08312C6
:100CC0001066E0FEA3E0900447121158C083C08272
:100CD000900448E0D082D083121081EEF0A3EFF0B0
:100CE00022E490043AF090043AE0FFC394094003F0
:100CF000021E58EF902EC87014E0545FF0A3746A7F
:100D0000F0902EC3744AF0A37401F0800EE044F01A
:100D1000F0902EC37480F0A37407F090043AE09032
:100D200025FA93902ECAF0E4900439F0900012E076
:100D3000FF900439E0FEC39F4003021E4F74872ECC
:100D4000121451E0FF90043BF0E4F5E2EFC3940885
:100D5000503B7415121478C083C082121424800290
:100D6000C333D8FCD082D083F0902ECD7401F0C074
:100D700083C082E0FFC8EEC8088002C333D8FCD02D
:100D800082D083F0902EC074C1F0021DD590043B38
:100D9000E024F8F07416121478C083C08212142470
:100DA0008002C333D8FCD082D083F0902ECE740161
:100DB000F0C083C082E0FFC8EEC8088002C333D809
:100DC000FCD082D083F0EEB405031214AAEEB40670
:100DD0000D1214AA902EC37430F0A37409F0EEB46F
:100DE000070D1214AA902EC37480F0A3740AF09019
:100DF0002EC074C2F0E4FF900000742EF0A3E4F063
:100E0000900439E02487121451E090043BF0E5E2AD
:100E100020E2050FEFB4C8DF53E2FB121445900443
:100E20003BE0FD75F002A4FFAEF0900001E02FF072
:100E3000900000E03EF0ED90262B93FF900000E440
:100E400075F0021220E985F082F5831212C9EF12C3
:100E500011A1C083C08290043AE0D082D0831210E6
:100E600081ECF0A3EDF0900439E004F0021D0C9049
:100E7000043AE004F0021CC690021E7401F02290B5
:100E80000226E024FE601E147003021EF714700395
:100E9000021FAE24036003021FF19002267402F0C9
:100EA000E4900283F09002267403F0900286E064DE
:100EB000017061F0121459900013E0FF7009900363
:100EC00011E07003021FF1EF6012900311E0600C5B
:100ED0001211F3F09003B3E044058034900013E066
:100EE0006012900311E0700C1211F4F09003B3E063
:100EF0004401801C900013E06003021FF190031175
:100F0000E07003021FF11211F3F09003B3E0440408
:100F1000F0C28A22022A73121CC190021EE07003E2
:100F2000021F8F900283E004F0E4900438F09000F8
:100F300012E0FF900438E0C39F5074E4FF9004383F
:100F4000E0FE12119E1212C2EE1210D2F58312149C
:100F500038900438E0FE12119E1212C2EE12118D6A
:100F60001214380FEFB409D5900438E0FF12112C99
:100F7000E4F0A3F0EF1211157404F0A3E4F0EFB461
:100F80000110E49003BDF0A3F09003C17404F0E4F9
:100F9000A3F0EFB40210E49003BFF0A3F09003C3FA
:100FA0007404F0E4A3F0900438E004F0021F0E9003
:100FB0000283E0C394034059900011747EF0E490E2
:100FC000021FF0900283F09002267404F022121C9B
:100FD000C190021EE0603A121740E4900438F0908D
:100FE0000012E0FE900438E0FFC39E501612231357
:100FF00012302A900438E0FF122493900438E00461
:10100000F080DC12317A12275B122185900226EFE4
:10101000F022BB010689828A83E0225002E722BBCC
:10102000FE02E32289828A83E49322BB010CE582DB
:1010300029F582E5833AF583E0225006E92582F816
:10104000E622BBFE06E92582F8E222E58229F58246
:10105000E5833AF583E49322BB010689828A83F013
:10106000225002F722BBFE01F322F8BB010DE582FC
:1010700029F582E5833AF583E8F0225006E92582D6
:10108000C8F622BBFE05E92582C8F222EF8DF0A446
:10109000A8F0CF8CF0A428CE8DF0A42EFE22BC00A8
:1010A0000BBE0029EF8DF084FFADF022E4CCF87583
:1010B000F008EF2FFFEE33FEEC33FCEE9DEC984092
:1010C00005FCEE9DFE0FD5F0E9E4CEFD22EDF8F52E
:1010D000F0EE8420D21CFEADF075F008EF2FFFED8E
:1010E00033FD4007985006D5F0F222C398FD0FD586
:1010F000F0EA22C5F0F8A3E028F0C5F0F8E5821583
:101100008270021583E038F022A3F8E0C5F025F0E4
:10111000F0E582158270021583E0C838F0E822EB12
:101120009FF5F0EA9E42F0E99D42F0E89C45F022EE
:10113000ECF0A3EDF0A3EEF0A3EFF022A8828583FC
:10114000F0D083D0821221331221331221331221A5
:1011500033E473E493A3C583C5F0C583C8C582C8CF
:10116000F0A3C583C5F0C583C8C582C822A4258263
:10117000F582E5F03583F58322EF4E6012EF6001D2
:101180000EEDBB010B89828A83F0A3DFFCDEFA221D
:1011900089F05007F709DFFCA9F022BBFEFCF30938
:1011A000DFFCA9F022900226E0B4021D90028674B2
:1011B00001F09003C6E0B420089003AC7401F08005
:1011C00005E49003ACF07F0222E4FE900012E0FF01
:1011D000EEC39F40030223101212B7E064016003C4
:1011E00002230C74122E12128AE0FC600302225BAE
:1011F000121459EE6401703A900285E0FD640170AA
:101200001B900284E09003B3B40109E04409121179
:10121000F20480151211EF1214CC8016ED9003B376
:10122000B4020BE044051211F212141680041211DC
:10123000EFF0EE64026003022305900285E0FD6496
:1012400001701C900284E09003B3B4010612130CE9
:10125000E48021E044041211F21214CC022305EDC3
:101260009003B3B40205E044058003E04404F0E4D5
:10127000900013F0900311F0022305EC6401600369
:10128000022305121459EE6401704C900284E0FFB1
:10129000B4020B9003B3E0440A12130F8013EF64FF
:1012A00001702690021DE09003B3B4010C12130CE0
:1012B000E4900311121416801EE0440212130FE48E
:1012C000900311F0121394800E9003B3E0440212C5
:1012D000130FE4900311F0EE64027049900284E071
:1012E000B402139003B3E0440AF09003117401F0C8
:1012F000900013F0802F90021CE06401701C90029B
:1013000085E09003B3B40105E044098013E044088C
:101310001211F204F0121393800B9003B3E044080F
:101320001211F204F01212B7E4F0C28A0E0221ABDD
:101330007F0422CDEFCD75F09AED12118DE0FFA361
:10134000E09004391213891210D21214D690043B83
:10135000121389A42446F582E5F034001214D690C5
:10136000043D121389A42458F582E5F03400F58376
:10137000E0FEA3E0FBCAEECA75F09AEDA42434F5B2
:1013800082E5F034001214D690043FCFF0A3EFF0C2
:10139000ED6401702890043DE0900403F090043D5A
:1013A000A3E0900404F0EAA3F0EBA3F090043FE084
:1013B000900407F090043FA3E0900408F0ED64026D
:1013C000704F90043EE02470F090043DE034FEF055
:1013D00074702BFB74FE3AFA900440E02470F09095
:1013E000043FE034FEF090043DE0900413F09004DC
:1013F0003DA3E0900414F0EAA3F0CFEBCFEFA3F00D
:1014000090043FE0900417F090043FA3E09004188C
:10141000F0ED60030224929004437407F0A374D0AB
:10142000F09004417407F0A374DAF090043EE024D5
:10143000B0F090043DE03404F074B02BFB74043A37
:10144000FA75F09AEDA4249FF582E5F03400F58357
:10145000E0B40110900444E02432F0900443E034FE
:1014600000F08003900443E09003E3F0900443A372
:10147000E09003E4F075F09AED121224F583E0B4E5
:101480000110900442E02432F0900441E03400F076
:1014900080039004411213479003E5F0EDA3F09010
:1014A000043D1213479003E7F0EDA3F0EAA3F0EB3D
:1014B000A3F022CBEFCBEB1211761211DAE0FCA3F2
:1014C000E0FDC39FEC9E5003022551E42DFFEC3458
:1014D00004FE75F002EB121179E0FCA3E0FDC3EF0E
:1014E0009DFFEE9C121113EEF0A3EFF075F002EBEE
:1014F0001211791211DAE0FCA3E0C39FFFEC9EFE0B
:1015000075F002EB12112FEEF0A3EFF0121324E4AA
:1015100093FE740193FF75F002EB12112FE0FCA310
:10152000E0FDD39FEC9E4024121324E493FE74014B
:1015300093FFC3ED9FFFEC9EC313FEEF13FF121347
:10154000247401932FFFE4933EFE801775F002EBA5
:1015500012112FE0FEA3E0FF7C007D6312206C0DD2
:1015600012207E75F002EB12112FEEF0A3EFF08047
:10157000401211DFE0FEA3E0FF75F002EB121179DB
:10158000E0FCA3E0C39FEC9EC3940475F002EB5013
:101590001212112FE4F0A3F01211147404F0A3E45A
:1015A000F0800E12112FE4F0A3F0121114E4F0A356
:1015B000F0EB6401702C75F002EB12112F1213473F
:1015C0009003BD121431121114121461400812104C
:1015D000F8EEF0A3EFF01211141213479003C112AA
:1015E0001431EB6402703275F002EB12112F1213FA
:1015F00047541F9003BFF0EDA3F0121114121461B1
:1016000040081210F8EEF0A3EFF012111412134775
:10161000541F9003C3F0EDA3F0223F3F3F3F3F3FF5
:101620003F3F3F00320032177002580004001E0096
:101630000A000A000F0064000A000A00000000000F
:1016400000000000000000000101010D0E0F030466
:1016500005060708090A0B0C0001020032003200DF
:1016600032003200320032003200320032003200EA
:1016700032003200320032003200320037003700D0
:1016800037003700370037003700370037003700A2
:1016900037003700370037003700370028002800B0
:1016A00028002800280028002800280028002800FA
:1016B0002800280028002800280028002D002D00E0
:1016C0002D002D002D002D002D002D002D002D00B2
:1016D0002D002D002D002D002D002D00500050005C
:1016E000500050005000500050005000500050007A
:1016F0005000500050005000500050005500550060
:101700005500550055005500550055005500550031
:10171000550055005500550055005500460046003F
:101720004600460046004600460046004600460089
:101730004600460046004600460046002D002D00AB
:101740002D002D002D002D002D002D002D002D0031
:101750002D002D002D002D002D002D00FA00FA0087
:10176000FA00FA00FA00FA00FA00FA00FA00FA00A9
:10177000FA00FA00FA00FA00FA00FA900439747ECE
:10178000F0900453E0600302287CE490043AF09067
:101790000012E0FE90043AE0FFC39E400302287C62
:1017A0001231A9EF6003121393121284E0707A9041
:1017B000043AE0FF75F00212136412112412137838
:1017C000EE9C404090043AE0900439F01212887484
:1017D00001F090021CE004F0900284F090043AE0E2
:1017E000FF24181212BA7401F012332990043AE05F
:1017F000FF12333890043AE0FF12324790043AE087
:10180000FF12328190043AE0FF123116EF60089027
:10181000043A12146DE4F090043AE0FF1231D5EF6F
:101820006071E490021D02286E90043AE0FF75F0AA
:101830000212136E121124121378EE9C401A9004B7
:101840003AE0900439F0123148EF60479002267474
:1018500002F0121284E4F02290043AE0FF1212889F
:10186000E4F012335690043AE0FF12322A90043A20
:10187000E0FF12334790043AE0FF12326490043ADA
:10188000E024181212BA7401F090021DE004F090E6
:101890000285F090043AE004F002276F900439E0EA
:1018A000FF900221E06F6002EFF022C0E0C083C031
:1018B00082C0D0E8C0E0E9C0E0EAC0E0EBC0E0EF01
:1018C000C0E0D2AFE5DB30E415E5DB30E102802299
:1018D0009003B2E5DFF0900433E4F002296BE5DB1E
:1018E00030E5059003AF803FE5DB30E12DE5DB30EF
:1018F000E01190043512320412320D12200BF5DF84
:1019000002296B900434E06401600302296B208A91
:101910007AD28A9003B3F002296B900433E0700D01
:10192000A3E5DFF09004337401F002296B900434D6
:10193000E0902D0A93FFB4FF0E9003B2E5DFF09024
:101940000434E004F0803EEF640F900435702B12F5
:101950003204900434E0FF123221540F12203890E8
:101960000435123204900434E0FF04F0123221FFF7
:10197000E5DF54F04F122038800B12320412320D82
:10198000E5DF12204A9003B1E004F075DBFFD0E000
:10199000FFD0E0FBD0E0FAD0E0F9D0E0F8D0D0D032
:1019A00082D083D0E0329003C6E0FF64107067906D
:1019B0000439F0900012E0FE900439E0C39E400329
:1019C000022A5FE0FE25E024DBF582E434261214CF
:1019D00083EE1211C2FE25E024BBF582E434261208
:1019E000120BEE1213641211CEFE25E024FBF582D9
:1019F000E4342612120BEE12136E1211CEFE25E005
:101A0000241BF582E4342712120BEE12148D1211EE
:101A1000CE04F0022993EF6420706D900439F090A9
:101A20000012E0FF900439E0C39F5053E0FF25E02F
:101A3000245BF582E43426121483EF1211C2FF25D1
:101A4000E0243BF582E4342612120BEF12136412E9
:101A500011CEFF25E0247BF582E4342612120BEF31
:101A600012136E1211CEFF25E0249BF582E434267A
:101A700012120BEF12148D1211CE04F00229FF90F6
:101A80000202A3E09003B7F09003B4E0B4AA0312FB
:101A90002D8A227E027F0F7D007B017A007914124D
:101AA0002159122FE59003ACE09003C67005741025
:101AB000F080037420F0122986E4FE900012E0FF0B
:101AC000EEC39F4003022B2BE4FC75F09AEE12103C
:101AD000EC1211BB12133FEE121224F583E5822C97
:101AE0001210C1E4F0EE1211AD12133FEE1213FA10
:101AF0002C1210C112125CF583E5822C1210C1E485
:101B0000F0CFEECFCDECCD1232EF1233030CEC64FC
:101B10000970B71212A9F583E4F0CFEECF12332982
:101B200012334712333812335674122E12128AE4CB
:101B3000F01212B7E4F090021B747EF0E4A3F0A35D
:101B4000F0900284F0A3F00E022A9B900221747E92
:101B5000F0900011F0E4900220F022E490043AF0BA
:101B6000FF900439F0EF14601E14603514604C14BB
:101B7000605B2404707490043B7401F0A3742FF034
:101B8000A37458F0022BC412320190000112200BF2
:101B9000FED3941F400312321A121FF26E704B8054
:101BA0004312320190000212200BFED39406400330
:101BB00012321A121FF26E70318029123201900017
:101BC0000312200BFE121FF26E701F8017123201DB
:101BD00090000412200BFE648B600312321A121F55
:101BE000F26E7006900439E004F00FEF64056003B4
:101BF000022B45900439E0B40504A37401F090046D
:101C00003AE0FD60079003C7E0547FF0CFEDCF22AC
:101C1000758A50538AEF9004517411F090044F74F8
:101C200022F09004527433F075997F759A80E4FF26
:101C3000FEC29600000020970ED29600000030975A
:101C4000069004517487F00FBF00010EEF640A4E36
:101C500070DF7590FF75993F759AC0000000000015
:101C600000000000E4FEFF30960320970690044F2A
:101C70007487F00FBF00010EEF640A4E70E9E4F5BF
:101C8000AD75AEF075AF1DF5AC7589FF75913E75FC
:101C9000991FF59675931CF59BF595F592F59A7538
:101CA000800CD28A90045004F022022E49E493A3BF
:101CB000F8E493A34003F68001F208DFF48029E4FE
:101CC00093A3F85407240CC8C333C4540F4420C84A
:101CD000834004F456800146F6DFE4800B010204E1
:101CE000081020408090306AE47E019360BCA3FF1E
:101CF000543F30E509541FFEE493A360010ECF5416
:101D0000C025E060A840B8E493A3FAE493A3F8E404
:101D100093A3C8C582C8CAC583CAF0A3C8C582C870
:101D2000CAC583CADFE9DEE780BE0F00FF000000FE
:101D300000000000FFFFFFFFFFFFFFFFFF000000AC
:101D40000000000000000000000000000000000093
:101D50000000000000000000000000000000000083
:101D60000000000000000000000000000000000073
:101D70000000000000000000000000000000000063
:101D80000000000000000000000000000000000053
:101D90000000000000000000000000000000000043
:101DA0000000000000000000000090043A7410F0F1
:101DB000A3E4F0A3743FF0A374FFF0E4FDFCF97515
:101DC0008A10538AEF00000090043AE0FEA3E02D51
:101DD000F582EE3CF583E493FF69F90DBD00010C3B
:101DE000BC37E5BDDFE290043CE0FEA3E0F5828E67
:101DF00083E4936970089003B47406F08005E4905E
:101E000003B4F0758A50538AEF00000022902EC070
:101E1000E4F0902ECB74F4F0902F58E0540F24F09F
:101E2000902EC8F0902ECC7448F0902EC97428F0F3
:101E3000A3743FF0902E4074811211FCF0A30412A1
:101E400011FC7402F0902EC67414F0902EC17490A0
:101E5000F0A37401F0A37480F0A37407F043E310BF
:101E60001232BB900012EFF02275200112104E5377
:101E7000A87F122BF012102043A880123365123372
:101E800017900453E004F0758DE012329EEF24E0C9
:101E9000600A2410700AC283C2828004D283D28274
:101EA000122986438D20121E5F900453E060DBC32D
:101EB000940A5005E004F080D1E4900453F080CA05
:101EC000C0E0C0F0C083C082C0D0E8C0E0ECC0E099
:101ED000EDC0E0EEC0E0EFC0E0D2AF900225E0043C
:101EE000F0C3940A4017E4F01210982401FFE43E76
:101EF000FEE43DFDE43CFC900321122110D0E0FF04
:101F0000D0E0FED0E0FDD0E0FCD0E0F8D0D0D08230
:101F1000D083D0F0D0E03290044DEDF090044CEF3F
:101F2000F0A3E0FE12124FF583E5822E1210C1E0FD
:101F3000603590044CE01213ABC083C08290044D16
:101F4000E0D082D08312108712131790261112113D
:101F50004A401490044DE0FF90044CE012125012DD
:101F600010BCE4F07F01227F002290044DEDF09040
:101F7000044CEFF0A3E0FE121242F583E5822E122C
:101F800010C1E0603290044CE012139DC083C08207
:101F900090044DE0D082D08312108790260F12114A
:101FA0003E401490044DE0FF90044CE012124312A6
:101FB00010BCE4F07F01227F0022900208A3E09091
:101FC000040BF090020AA3E090040CF0900202A32C
:101FD000E090040DF0900204A3E090040EF0900253
:101FE0000EA3E090040FF0900210A3E0900410F014
:101FF00090273D740193900411F090273F74019352
:10200000900412F0227E007F807D007B017A0379AC
:10201000B3122159E49003B3F0A37406F0E4A3F0E3
:102020009003C574ABF09003C77493F0900451E033
:102030009003B9F090044FE09003BAF0900452E09E
:102040009003BBF0122B3B022F9A900450E06039B2
:102050009002811214DD500EEF9400EE94034006BE
:102060009004527487F09002231214DD500EEF9406
:1020700000EE940340069004527487F0E4900450FC
:10208000F0900452E09003BBF0224104530041025F
:1020900083004102250041028600410013004103F4
:1020A00011004103AC0041043300410434004203F9
:1020B000AD00004103AF004103B1004103B0004156
:1020C00003B2100090044C12129F503090044CE068
:1020D000FFEB1212431210BCE07021EB12124312FC
:1020E00010BC7401F0121098FFEB12139DC083C056
:1020F0008290044CE0D082D0831214972290044C3A
:1021000012129F503090044CE0FFEB12125012104C
:10211000BCE07021EB1212501210BC7401F01210CE
:1021200098FFEB1213ABC083C08290044CE0D082C6
:10213000D0831214972290043BEFF0E0FF24271283
:1021400012E3E06020EF1213B912108D12131790F2
:10215000260512114A400E90043BE024271212E398
:10216000E4F07F01227F002290043BEFF0E0FF24A7
:1021700012121304E06020EF1213E312108D1213F9
:102180001790260912114A400E90043BE0241212C7
:102190001304E4F07F01227F0022E4FFFE9000128E
:1021A000E0FDEEC39D501C12112BE0FCA3E0FDEE00
:1021B00012112CE0FAA3E0D39DEA9C4003CFEECFAE
:1021C0000E80DA900222EFF02290043BEFF0E0FF65
:1021D00024021212EEE0601AEF1213C712108D12D1
:1021E000113B400E90043BE024021212EEE4F07F1B
:1021F00001227F002290043BEFF0E0FF2442121204
:10220000F9E0601AEF1213D512108D12113B400E37
:1022100090043BE024421212F9E4F07F01227F0097
:102220002290043BE0FBA3E0FAA3E0F922900434FF
:10223000E0FF04F08F827583002290043A7401F06D
:1022400022E92FF9E43AFA021FF21212A1501712F2
:1022500012E0E070111212E07401F0121098FFEB1E
:102260001213B9122110221212A150171212EBE010
:1022700070111212EB7401F0121098FFEB1213C7D9
:10228000122110221212A150171212F6E070111230
:1022900012F67401F0121098FFEB1213D5122110F0
:1022A000221212A15017121301E0701112130174BF
:1022B00001F0121098FFEB1213E312211022E4FD3B
:1022C0009003AFE060119003B3E0FE54F0FDEE54D4
:1022D0000FF0E49003AFF0CFEDCF22121445FFFED4
:1022E000EE90261B93600974872F121451EEF00FA5
:1022F0000EEEB410EB2290032112211C000000000E
:102300007E007F0C7D007B017A027936022159EF35
:10231000D39403500D121242F583E5822D1210C1A1
:10232000E4F022EFD39403500D12124FF583E582AF
:102330002D1210C1E4F02275B28E75B6F9E4F5B72E
:1023400043B20143AA010232D6EFD394035008747A
:10235000272F1212E3E4F022EFD394035008740203
:102360002F1212EEE4F022EFD39403500874422FA0
:102370001212F9E4F022EFD39403500874122F12D2
:102380001304E4F022122DED9002267401F0022ACB
:1023900073EE30E707C3E49FFFE49EFE22000000D7
:1023A000000000000000000000000000000000002D
:1023B000000000000000000000000000000000001D
:1023C000000000000000000000000000000000000D
:1023D00000000000000000000000000000000000FD
:10301000000000000000000000000000000000446C
:00000001FF
