:10000000009C0009000F0000C38A000000000000EF
:1000100000000000000000000000000000000000E0
:10002000801878FFE4B8200118F6D8F99000007F16
:10003000007E07E4F0A3DFFCDEFA7581200233F4D2
:10004000CBEFCBEBD39412501E1213D6E0701812E4
:1000500013D67401F012115812148724EAF582E4C1
:100060003402F5831228D022000000022AC07F0546
:10007000123B241210201234B99002127401F002C3
:100080002FD00002362D75B28E75B6F9E4F5B74360
:10009000B20143AA01023AFB000000023B149006A1
:1000A0000BE0FF75F089A42442F582E5F03400F5F9
:1000B00083E0FCA3E0FDEF75F089A42452F582E50E
:1000C000F03400F58322900600E0FEA3E0FF9005E7
:1000D000F8E075F089A42462F582E5F03400F58338
:1000E0002290060BE0FE75F008A424F0F582E5F0FE
:1000F0003401F583E5822FF582E43583F58322F51B
:1001000083E0FCA3E0FDEF75F002A42426F582E570
:10011000F03400F58322E004F090060DE0FCA3E04B
:10012000FD75F089EEA42482F582E5F03400F583B4
:1001300075F002EF12290DEC8DF01228A990060B34
:10014000E075F089A42482F582E5F03400F583227D
:1001500075F00212290DE0FCA3E0FDEF75F089A413
:100160002442F582E5F03400F58322F583E0F8A31C
:10017000E0F9A3E0FAA3E0FB9004E8E0FCA3E0FDD3
:10018000A3E0FEA3E022E0FEA3E0FF90060BE0FD6B
:1001900075F089A42472F582E5F03400F58322F528
:1001A00083E493FC740193FD75F002EFA42275F0D3
:1001B0000212290DE4F0A3F075F089EFA42432F5C2
:1001C00082E5F03400F583EE75F00202290D24D3A8
:1001D000F582E5F03401F583ECF0A3EDF09005F83D
:1001E000E022C39BFBEE9AFAED99F9EC98F8E02532
:1001F000E0242EF582E43422F583E493FE74019327
:10020000FFE4FCFDC30228BF75F002EBA4241AF53D
:1002100082E5F03400F583E0FCA3E0FDEB75F0022D
:10022000A42414F582E5F03400F58322E490001351
:10023000F09004D6F074DF2DF582E43401F583E408
:10024000F074E52DF582E43401F583229005F7E0A2
:10025000FE75F089A42432F582E5F03400F583EFD1
:1002600075F00202290DE4F0A3F075F002EFA4246A
:1002700020F582E5F03400F5832253E2FB902EC591
:10028000E4F0902ECEF0900000E0FAA3E0F5828A30
:1002900083E0FAA3E0FB75F002EDA422E04409F04C
:1002A000E4900013F09004D62290060BE0FEA3E049
:1002B000FF900073E02FF0900072E03EF0E0FEA3AC
:1002C000E0FFD322C3E0FDEF9D7480F86E9822F02A
:1002D000A3F0A3F0A3F0A3F0A3F0A322EEF0A3EF0A
:1002E000F0ED75F008A424F0F582E5F03401F58313
:1002F000E58222E0FF25E024FAF582E43405F58367
:100300002275F002EDA4241AF582E5F03400F5839D
:100310002290060CE0FF90060BE022E4F075F089D5
:10032000EEA424A2F582E5F0340022EE75F089A453
:10033000249AF582E5F0340022EF25E025E02496AA
:10034000F582E4340222902EC5F0902ECEF0902E4D
:10035000C074C2F0900000742EF0A3229004D6F076
:1003600074E62DF582E43401F583E4F02290060B67
:10037000E0FF75F089A42432F582E5F03400F583BE
:1003800022900052E0FEA3E0900042FFE0FCA3E0D8
:10039000C39FFFEC9E22900600F0A3F0A3F0A3F011
:1003A000A3F0A3F0A32224DFF582E43401F5832235
:1003B000C39BFBEE9AFAED99F9EC98F822E49000D1
:1003C00072F0A3F0900053E02275F002A424CDF562
:1003D00082E5F0340122E0FCA3E0FDC3EF900600CB
:1003E0009DFFEE9CFEF0A3EFF02224EDF582E434B5
:1003F00001F583E4F02274842BF582E43402F58362
:100400002274272BF582E43402F5832274142BF531
:1004100082E43402F5832274022BF582E43400F581
:10042000832274392BF582E43402F5832290060F7F
:10043000E06480948022E0FEA3E0FFC322902ECBF4
:1004400074F4F0A37448F0902EC6741EF02290004D
:1004500012E0FF9005F8E0C39F22E4F0A3F075F0EE
:100460008922E49001E9F0900337F02224D9F58243
:10047000E5F0340122E0FCA3E0FD75F08922E044C0
:1004800006F09000137401F022E0FCA3E0FDEC54B0
:100490001F22EE8FF01228A975F089ED22C3900675
:1004A0000DE06480948022FFEB25E025E022C3EF7D
:1004B00094ECEE6480947F2290060BE0FD7F09228D
:1004C000C3EF94CEEE6480947F22E4F0A3F0900614
:1004D0000CE004F022242CF582E5F0340022900692
:1004E0000CE0FFC3940822EEF0A3EFF0900600E0CA
:1004F000FEA3E0FF22E0FEA3E02DFFEE3CFE900510
:10050000F8E022E0FEA3E0C39DEE9C2225E024F467
:10051000F582E43423F583E49322A42456F582E59E
:10052000F03403F58322CBEFCBEBD3940322E4909A
:100530000082F0A3F0229414EE648094802294321E
:10054000EE648094802275F002EC12290DE475F0BF
:10055000012290056FE054F0F0229005F8E075F06C
:10056000022224FFF0900052E034FFF022ECF0A3CE
:10057000EDF0E490060CF022E0FAA3E0D39478EAE0
:10058000940022E0FEA3E0C39478EE940022900051
:1005900092E064012224E2F582E43401F5832290A2
:1005A00005F9E004F022E0FCA3E0FDC3227F06127F
:1005B0003B6F9005F9E022F09001EAF0900338F0EB
:1005C0002290060CEDF090060BEFF024FE6016046E
:1005D000702C90061DE09006116005740AF08016DC
:1005E0007406F0801190061DE090061160057408F5
:1005F000F080037406F0900611E02405A3F01215B4
:100600006E703212134DC083C08290060CE0FED093
:1006100082D0831211301211A7ECF0A3EDF0121169
:100620001DC083C08290060CE0D082D0831211A836
:10063000E4F0A3F02290060BE0FF12113CC083C04F
:100640008290060CE0FED082D0831211A8E0FCA3B9
:10065000E0FD121198E0FEA3E0FBCAEECAC39DFEC6
:10066000EA9C90060DF0A3CEF090060BE0121097D6
:10067000121416EB9FFFEA9E90060FF0A3EFF01204
:1006800019D99006111212A440030217531212F145
:10069000FE12130C1210D2E06401704CC3900610CD
:1006A000E0940A12140D501E12147D4003021749E3
:1006B00075F089EE12109AE0FCA3E0FDEE12113CF9
:1006C00075F002EF801712134DC083C08290060CA4
:1006D000E0FED082D08312113075F002EE12290DA7
:1006E000ECF0A3EDF002174990060DE0FEA3121204
:1006F000F4FD121121C083C08290060CE0FCD08270
:10070000D0831211A8121472121124EC121240128A
:10071000129D12151E402490060BE0FD121121C0FF
:1007200083C08290060CE0FCD082D0831211A81204
:10073000143AED12113F121526802B1214A05029E5
:1007400090060BE0FF121121C083C08290060CE0DE
:10075000FED082D0831211A8E4F0A3F012113B1254
:1007600011A774FFF5F01228A91212F11212C22F6C
:100770000219121219D99006121212A4400302197A
:100780001990060EE0940012147E40701212F112BD
:1007900010C6E0C39414502B1210C11210F6C0837F
:1007A000C08290060CE0D082D0831211A812129D54
:1007B000121516400302181612148E400302194730
:1007C00002184290060BE0FF121121C083C08290F4
:1007D000060CE0FED082D08312118EE0FEA312122E
:1007E000F4FD12113CC083C08290060CE0FCD08264
:1007F000D0831211A81212BC2C02191212147D40BF
:1008000003021947C312140D40030218A71212F174
:100810001210C6E0C3941450751210C11210F6C025
:1008200083C08290060CE0D082D0831211A81212ED
:100830009D121516402490060BE0FD121121C08375
:10084000C08290060CE0FCD082D0831211A8121452
:100850003AED12113F121526802E12148E4003021B
:10086000194790060BE0FF121121C083C082900649
:100870000CE0FED082D0831211A8E4F0A3F0121194
:100880003B1211A774FFF5F01228A9021947900630
:100890000BE0FF121121C083C08290060CE0FED055
:1008A00082D08312118EE0FEA31212F4FD12113CCD
:1008B000C083C08290060CE0FCD082D0831211A8C5
:1008C0001212BC2C021912C3900610E094081214E4
:1008D0000D90060BE0FF75F089501712109A121157
:1008E00036C083C08290060CE0D082D08375F002BF
:1008F0008017121355C083C08290060CE0FED08290
:10090000D08312113075F002EE12290DECF0A3ED38
:10091000F090060BE0FF121121C083C08290060CFC
:10092000E0FED082D0831211A8E4F0A3F0EF1212FF
:10093000C22E1210D7E4F0802E90060CE0FF1210A9
:10094000C1E4F075F089EE121234E0FEA31212F445
:1009500012113CC083C08290060CE0D082D083127A
:1009600011A8EEF0A3EFF090060BE0FF1210B2C05A
:1009700083C08290060CE0FED082D0831211A8E0E2
:10098000FCA3E0C39414EC64809480402990060C8E
:10099000E0FD90060BE0FC75F089121301F583E58C
:1009A000822D1210D7E4F0EC12130CF583E5822DA2
:1009B0001210D77401F075F089EF12130FF583E56B
:1009C000822E1210D7E06401702E1212F1FE75F023
:1009D000891213011210D2E0041212FC1210D2E09C
:1009E000D39414401390060CE0FF12130B1210D294
:1009F0001212FB1210D2E4F02290060DE0FEA3E0EA
:100A0000FF123B7D22E41213767403F0A3F0E4A3FB
:100A1000F0A3F0A37403F0122EABE49005F8F0906D
:100A20000012E0FF9005F8E0C39F4003021D6F1223
:100A300012D3E4F0A3F01213767403F0A3F0A374BE
:100A4000EAF0A37460F0A37403F0EF7003021D6674
:100A5000E49005F9F09005F9E0FDC39408500D907D
:100A600005F8E0FF1215A112157F80E99005F8E066
:100A7000FF121D75E49005F9F09005F9E0FFC394AD
:100A8000084003021B639005F8E0FE1210B2121238
:100A90003FE0FCC3EC64809480501A75F089EE123C
:100AA00010B5C083C0829005F9E0D082D0831211C6
:100AB000A8E4F0A3F01210AEC083C0829005F9E064
:100AC000D082D0831211A8E0FEA3E0FF900601E0DF
:100AD0002FF0900600E03EF09006021215869FEC83
:100AE0009E5036ED64034C600AA3ECF0A3EDF0A336
:100AF000E0A3F01210AEC083C0829005F9E0FFD0F1
:100B000082D0831211A8E0FDA3E0900602CDF0A3ED
:100B1000EDF0900606EFF080331210AEC083C08275
:100B20009005F9E0D082D0831211A8121416900615
:100B300005E09F900604E09E50129005F9E0FD90BC
:100B40000604EEF0A3EFF0900607EDF01210AEC031
:100B500083C0829005F9E0D082D0831211A81212CE
:100B60009D900609E09F900608E09E40109005F9D0
:100B7000E0FD900608EEF0A3EFF0A3EDF012157F74
:100B8000021A59900602121416900601E09FFF9077
:100B90000600E09EFEF0A3EFF09006041213B6905C
:100BA00006081213B67C007D0512281E900600125E
:100BB00014C79005F8E0FD1210B2C083C082900601
:100BC00006E0D082D0831211A81214C775F089ED07
:100BD0001210B5C083C082900607E0D082D0831285
:100BE00011A8EEF0A3EFF01210A6C083C082900609
:100BF0000AE0D082D0831211A8EEF0A3EFF0E490C7
:100C000005F9F09005F9E0FFC394084003021D01C7
:100C100012156E600790033AE0B4010A1210AE128A
:100C2000123FE4F0A3F090061DE060289005F8E084
:100C3000FF1210B2C083C0829005F9E0FED082D0CE
:100C4000831211A8E0FCA3E0C3940AEC64809480B2
:100C5000503680269005F8E0FF1210B2C083C082A3
:100C60009005F9E0FED082D0831211A8E0FCA3E049
:100C7000C39405EC64809480500E75F089EF1210D7
:100C8000B51211A7E4F0A3F0900619E060269005D4
:100C9000F8E0FF1210B2C083C0829005F9E0D08264
:100CA000D0831211A81210911214D51212D5EE8F02
:100CB000F0021CF8900601E02402FF900600E034E8
:100CC00000FE1210AEC083C0829005F9E0D082D041
:100CD000831211A8E0FCA3E0D39FEC9E40171210F2
:100CE000A6C083C0829005F9E0D082D0831211A8FB
:100CF000EEF0A3EFF09005F8E0FF1210B2C083C051
:100D0000829005F9E0D082D0831211A8E0FCA3E024
:100D1000FDEF1212D5EC8DF01228A912157F021BDF
:100D2000E3900619E0602D9005F8E0B4010F12126F
:100D3000D5E0FFA3E0900332CFF0A3EFF09005F8E9
:100D4000E0FF64027040EF1212D5E0FFA3E09002D2
:100D50000FCF802E9005F8E0FF121097E0FCA3E083
:100D60001211871212E6ECF0A3EDF09005F81212C2
:100D7000D3E0FCA3E01211871212E61214D512116F
:100D8000FDEEF0A3EFF09005F8E004F00219FFE4A7
:100D9000900208F02290060BEFF090061DE09006FE
:100DA0000D60057408F080037405F090060DE0FDF9
:100DB0002402A3F090060BE01213A9F583E0FEA332
:100DC000E07803CEC313CE13D8F990060FF0D39D6D
:100DD0004004E0FF800590060DE0FF90060FEFF065
:100DE00090033AE06401701D12107E12154D12142A
:100DF000BE400302201590060B1210B1EF1211A88D
:100E00001214AA80E912156E701C12107E12154D74
:100E10001214BE400302201590060B1210B11212DC
:100E20003F1214AA80EA90060BE0FF1210971211ED
:100E300036E0FEA3E0C39006101213C0123B7D9073
:100E4000060D1212A44003021EB390060BE0FF121F
:100E50001575E0601175F089EF121173E4F0A3F0DD
:100E6000900610F0A3F090060BE0FF1213CA900654
:100E700010121455EF121173EC8DF01228A9900680
:100E80000BE012117012129D941EEE64809480404B
:100E90001112116BE4F0A3F0ED121097E475F0015C
:100EA000801EC3EF94E2EE6480947F501690060B90
:100EB000E0FF121170E4F0A3F012109674FFF5F049
:100EC0001228A9121498123B6F90060BE0FD7F02C6
:100ED000021FA79001EBE06401705F1220169006DC
:100EE0000E1212A4500B12107EECF0A3EDF0021FB4
:100EF0001090061012116612147212117312129DC4
:100F000012151E401012116B12143AED12109AE4D1
:100F100075F00180181214A0501690060BE0FF1215
:100F20001170E4F0A3F012109674FFF5F01228A9E6
:100F300090060BE01213CA021FAA12201690060F89
:100F40001212A4503FA312116612147212117312DE
:100F5000129D12151E401012116B12143AED121050
:100F60009AE475F00180181214A0503490060BE03A
:100F7000FF121170E4F0A3F012109674FFF5F01256
:100F800028A9801C90060BE0FD7F02123B6F9006A3
:100F90000BE0FF121170E4F0A3F074ED2F1213CCEC
:100FA000C3900610E064809480501912149812388F
:100FB000371214981235D4EF601012107EECF0A3A3
:100FC000EDF08006121498123B6FE490060CF012BC
:100FD00014BE503990060BE0FE12113C12123F1263
:100FE0001455EE12109A121416ED9FFFEC9EFE900F
:100FF000060B1210B1C083C08290060CE0D082D0E4
:10100000831211A8EEF0A3EF1214AD80C29005F286
:10101000E0602290060BE0FF1210B2E0FCA3E0D3E8
:101020009478EC64809480400C75F089EF121086FF
:10103000ECF0A3EDF022900610E0FEA3E0FF123BDF
:101040007D22E4FD900012E0FFEDC39F40030222E9
:1010500022121221E06401600302221E74DF2D12AD
:101060001388E0FC60030220F5121532ED64017074
:101070004D900338E0FE6401701B900337E090054B
:101080006FB4010612127C048025E0440112127F25
:101090001215978029EE6402701A900224E060060F
:1010A000121221E4800990056FE0440512127F12AC
:1010B000133F800A90056FE0440112127FF0ED6447
:1010C00002703D900338E0FE6401701B900337E02E
:1010D00090056FB4010612145EE48020E04404120F
:1010E000127F1215978019EE90056FB40205E04447
:1010F000058003E04404F0E4900013F09004D6F07F
:10110000121221E4F0900224E06005E4F002221EB5
:10111000C28A02221EEC6401600302221E121532F2
:10112000ED640160030221B7900337E0FF640270B1
:10113000489005F2E070339004DA12155840089098
:1011400003341215585023121280F074DF2D12133D
:1011500088E4F074E02DF582E4340112121DE412EB
:10116000133F90022404F00221B790056FE0440A77
:1011700012146112133C0221B7EF640170599005FB
:10118000F2E0702A90033412129D943CEE940040D9
:101190001DEF9478EE940050159004DA1215635008
:1011A0000D12120CE4F012144390022404F090018A
:1011B000EAE0B4010A90056F12145EE412133C9049
:1011C00001E9E0B4011190056FE04402121461E4FA
:1011D0009004D6F0121443ED640270559005F2E0CD
:1011E000702B9004DA12129D943CEE9400401EEF96
:1011F0009478EE94005016900334121563500E123A
:10120000120CE4F09001E9F090022404F09001E95E
:10121000E06401701C900338E090056FB401071280
:10122000127C04F0800BE0440812127F04F01214C8
:1012300042121221E4F0900224E07002C28A0D02F0
:1012400020247F04223F3F3F3F3F3F3F3F3F00324C
:1012500000321770001E0258006402580004001E7D
:10126000000A00C800C8000F006400960096000C39
:10127000000A000A0000000000000000000000005A
:10128000000101010D0E0F030405060708090A0BF2
:101290000C00010200320032003200320032003213
:1012A00000320032003200320032003200320032AE
:1012B0000032003200370037003700370037003780
:1012C0000037003700370037003700370037003766
:1012D00000370037002800280028002800280028B0
:1012E00000280028002800280028002800280028BE
:1012F00000280028002D002D002D002D002D002D90
:10130000002D002D002D002D002D002D002D002D75
:10131000002D002D0064006400640064006400641B
:10132000006400640064006400640064006400649D
:10133000006400640069006900690069006900696F
:101340000069006900690069006900690069006955
:1013500000690069005A005A005A005A005A005A9F
:10136000005A005A005A005A005A005A005A005AAD
:10137000005A005A002D002D002D002D002D002DAB
:10138000002D002D002D002D002D002D002D002DF5
:10139000002D002D00C800C800C800C800C800C843
:1013A00000C800C800C800C800C800C800C800C8FD
:1013B00000C800C800CD00CD00CD00CD00CD00CDCF
:1013C00000CD00CD00CD00CD00CD00CD00CD00CDB5
:1013D00000CD00CD00BE00BE00BE00BE00BE00BEFF
:1013E00000BE00BE00BE00BE00BE00BE00BE00BE0D
:1013F00000BE00BE002D002D002D002D002D002D63
:10140000002D002D002D002D002D002D002D002D74
:10141000002D002D00FA00FA00FA00FA00FA00FA96
:1014200000FA00FA00FA00FA00FA00FA00FA00FAEC
:1014300000FA00FA9005F8747EF0E4A3F090001230
:10144000E0FE9005F9E0FFC39E40030225C4123977
:101450002BEF60031214429005F9E0FF121386E0AF
:1014600060030224EBEFB4010F1210E7E0FFA3E0EA
:101470009004DACFF0A3EFF09005F9E0B4020F1278
:1014800010E7E0FFA3E0900334CFF0A3EFF0900566
:10149000F9E0FF1213A91210DF1214E34044900583
:1014A000F9E09005F8F01213867401F09001E9E07C
:1014B00004F0900337F09005F9E0FF24E5121224C0
:1014C0007401F0123B429005F9E0FF123B51900588
:1014D000F9E0FF123A969005F9E0FD12158DFD1224
:1014E00038379005F9E0FF1238F1EF60099005F9FF
:1014F000E0121575E4F09005F9E0FF123965EF7020
:10150000030225BBE49001EA0225B69005F9E0FF4D
:1015100075F002A412144C1210DF1214E3500302EF
:1015200025849005F9E0FD9005F8F07F061235D48A
:10153000EF70030225BB9005F9121081ECF0A3EDCA
:10154000F09005F9E0121386E4F0121532900013C2
:10155000E0FF70099004D6E070030225D2EF60121C
:101560009004D6E0600C121280F090056FE0440504
:10157000802E900013E060129004D6E0700C1212DE
:1015800081F090056FE044018016900013E07062D6
:101590009004D6E0605C121280F090056FE0440485
:1015A000F0C28A229005F9E0FD121386E4F01215CC
:1015B0008DFF123A729005F9E0FF123B609005F939
:1015C000E0FF123ABA9005F9E024E5121224740102
:1015D000F09001EAE004F0900338F09005F9E0049F
:1015E000F002241D9005F8E0FF90020BE06F60020E
:1015F000EFF0229005F8EFF0E0FF75F0021212E52F
:10160000E0FCA3E01211871212011214169DEE9C49
:1016100050030226A09005F8E0FDE42FFFEE34040D
:10162000FE1212E1121586EF9DFFEE9CFE9005F86A
:10163000E0FD75F00212124EEEF0A3EFF01212E18F
:10164000E0FEA3E0FFED1211FD12136CFE9005F811
:10165000E0FD1210E7EEF0A3EFF0ED1214ECFE74D3
:101660000193FF75F002ED1210EAE0FCA3E0D39FB6
:10167000EC9E9005F8E04025FF1214ECFC740193F9
:101680001210E5E0FEA3E0C39DFFEE9CC313FEEF46
:1016900013FFED2FFFEC3EFE12153A8018FB1210DF
:1016A000E7E0FEA3E0FF7C007D6312280C0D12280A
:1016B0001E75F002EB1210EAEEF0A3EFF00226DA4C
:1016C0009005F8E0FF1211FDE0FCA3E01211871273
:1016D00012E61214E3C394049005F8E0FF75F002DB
:1016E000500E1210EA1212467404F0A3E4F0800ABD
:1016F0001210EA121246E4F0A3F0900226E0601AFB
:101700009005F8E0FFB401071210E7E4F0A3F0EF52
:10171000B402071210E7E4F0A3F09005F8E0FF121E
:1017200010E71215869432EC9400501E1210E6C099
:1017300083C082EDCEECCE7802CEC313CE13D8F99F
:10174000FFD082D083EEF0A3EFF09005F8E0FF1217
:1017500010E7E0FCA3E02400FDEC3404FC12124A84
:10176000ECF0A3EDF09005F8E0FF6401701D12109D
:10177000E6121469900579F0EDA3F012153A1212F1
:101780004E12146990057DF0EDA3F09005F8E0FF8E
:101790006402701D1210E612146990057BF0EDA32F
:1017A000F012153A12124E12146990057FF0EDA353
:1017B000F022BB010689828A83E0225002E722BB25
:1017C000FE02E32289828A83E49322BB010CE58234
:1017D00029F582E5833AF583E0225006E92582F86F
:1017E000E622BBFE06E92582F8E222E58229F5829F
:1017F000E5833AF583E49322BB010689828A83F06C
:10180000225002F722BBFE01F322F8BB010DE58254
:1018100029F582E5833AF583E8F0225006E925822E
:10182000C8F622BBFE05E92582C8F222EF8DF0A49E
:10183000A8F0CF8CF0A428CE8DF0A42EFE22BC0000
:101840000BBE0029EF8DF084FFADF022E4CCF875DB
:10185000F008EF2FFFEE33FEEC33FCEE9DEC9840EA
:1018600005FCEE9DFE0FD5F0E9E4CEFD22EDF8F586
:10187000F0EE8420D21CFEADF075F008EF2FFFEDE6
:1018800033FD4007985006D5F0F222C398FD0FD5DE
:10189000F0EA22C2D5EC30E709B2D5E4C39DFDE4FD
:1018A0009CFCEE30E715B2D5E4C39FFFE49EFE1228
:1018B000281EC3E49DFDE49CFC800312281E30D545
:1018C00007C3E49FFFE49EFE22C5F0F8A3E028F0E2
:1018D000C5F0F8E582158270021583E038F022EB3E
:1018E0009FF5F0EA9E42F0E99D42F0E89C45F02227
:1018F000ECF0A3EDF0A3EEF0A3EFF022A882858335
:10190000F0D083D0821228F31228F31228F3122881
:10191000F3E473E493A3C583C5F0C583C8C582C847
:10192000F0A3C583C5F0C583C8C582C822A425829B
:10193000F582E5F03583F58322EF4E6012EF60010A
:101940000EEDBB010B89828A83F0A3DFFCDEFA2255
:1019500089F05007F709DFFCA9F022BBFEFCF30970
:10196000DFFCA9F0227F05123876EF600AE49005CB
:1019700066F07F05123B24900212E024FE602914D9
:10198000602F147003022A44147003022AB6240440
:101990006003022ABF9002127402F0E4900336F052
:1019A000900339F0900225F09002127403F0022F98
:1019B000D0122D83900208E07003022A2290033691
:1019C000E004F0E49005F7F0900012E0FF9005F7D6
:1019D000E0C39F506DE4FF12122C121455EE12104A
:1019E0009A12123FECF0A3EDF012122C121455EEE5
:1019F00012113F12123FECF0A3EDF00FEFB408D735
:101A00009005F7E0FF1210E71212467404F0A3E409
:101A1000F0EFB40110E4900579F0A3F090057D7427
:101A200004F0E4A3F0EFB40210E490057BF0A3F01F
:101A300090057F7404F0E4A3F09005F7E004F00251
:101A400029A8900336E0C394035003022ABF9000F4
:101A500011747EF0E4900209F0900336F07F1012CA
:101A60003B338075900225E07003123768122D8396
:101A7000123768900208E060661219E5E49005F7F5
:101A8000F0900012E0FE9005F7E0FFC39E5019129F
:101A9000351A12371E9005F7E0FF1225D31237686A
:101AA0009005F7E004F080D912399F1224149002B7
:101AB00026E060199005EFE004F0E0D39427401F82
:101AC000E4F0900226F09002127402F0221220221A
:101AD000900212EFF0221239CE9002127404F0221A
:101AE000C0E0C083C082C0D0E8C0E0E9C0E0EAC086
:101AF000E0EBC0E0EFC0E0D2AFE5DB30E4239005DF
:101B00006E7401F0E5DB30E102803390056DE5DFB6
:101B1000F09005F0E4F0900339F0900225F0022CEB
:101B20001EE5DB30E50E9005697401F090056EE46A
:101B3000F0022C1EE5DB30E12CE5DB30E0119005F6
:101B4000F41238B81238C11227ABF5DF022C1E9000
:101B500005F1E064016003022C1E308A03022C1E92
:101B6000D28A022C1E9005F0E0700DA3E5DFF09004
:101B700005F07401F0022C1E9005F1E090343993C9
:101B8000FFB4FF0F90056DE5DFF09005F1E004F084
:101B9000022C18EF640F702F9005F41238B89005DE
:101BA000F1E0FF1238E8540F1227D89005F41238EC
:101BB000B89005F1E0FF04F01238E8FFE5DF54F0DB
:101BC0004F1227D8022C189005F41238B81238C1D9
:101BD000E5DF1227EA9005F1E0FF64147041E5DFCC
:101BE000B4201B900566E06004E4F08006900226B5
:101BF0007401F09005F27401F090056CE4F0E5DFFB
:101C0000B4101C1238CEF0900226F090061CE06052
:101C100008C283C282C2888006D283D282D288EF71
:101C2000B41615E5DFB4200774011238CFE4F0E5EF
:101C3000DFB410041238CEF090056BE004F075DBD1
:101C4000FFD0E0FFD0E0FBD0E0FAD0E0F9D0E0F840
:101C5000D0D0D082D083D0E0329005F2E064017021
:101C60005B9005F8F012142E4003022D58E0FF257A
:101C7000E02494F582E4342212117F1211AEFF2584
:101C8000E02474F582E4342212117F1213AD121194
:101C9000B6FF25E024B4F582E4342212117F121439
:101CA0004C1211B6FF25E024D4F582E4342212113F
:101CB0007F1214B51211B604F0022C4590056CE0A9
:101CC0006401705B9005F8F012142E504FE0FF2570
:101CD000E02494F582E4342312117F1211AEFF2523
:101CE000E02474F582E4342312117F1213AD121133
:101CF000B6FF25E024B4F582E4342312117F1214D8
:101D00004C1211B6FF25E024D4F582E434231211DD
:101D10007F1214B51211B604F0022CA8022D58E45B
:101D20009005F8F012142E504FE0FF25E02414F532
:101D300082E4342312117F1211AEFF25E024F4F562
:101D400082E4342212117F1213AD1211B6FF25E086
:101D50002434F582E4342312117F12144C1211B68C
:101D6000FF25E02454F582E4342312117F1214B5C8
:101D70001211B604F0022D049001CFA3E090057378
:101D8000F0900570E0B4AA0312357790058AE070F0
:101D900011A3E0B4100CE490058AF0A37410F012C3
:101DA000368422D2AF902ECBE044C0121426E4FD3C
:101DB000902EC8E044F0F0A37428F0902EC37480F5
:101DC000F0A37407F0EDC39401503A75AE207599F5
:101DD000DF12141D902EC37480F0A37405F0A37459
:101DE00020121329741AF0E4FEFFE5E220E20B0F43
:101DF000BF00010EBE07F3BFD0F012125A121356E5
:101E0000EAF0A3EBF075AE407599BF902ECB74D17C
:101E1000F0A37488F0902EC6743EF09005F2E09026
:101E20002EC3600974A0F0A3740FF080077440F013
:101E3000A3740BF07440121326741CF0E4FEFFE54B
:101E4000E220E20B0FBF00010EBE07F3BFD0F0127D
:101E5000125A24BBF582E5F03400F583EAF0A3EBD7
:101E6000F075AE8075997F12141D9005F2E0902EEA
:101E7000C360097440F0A3740EF08006E4F0A3740C
:101E80000AF07480121326741EF0E4FEFFE5E220CF
:101E9000E20B0FBF00010EBE07F3BFD0F012125AC3
:101EA0002444F582E5F03401F583EAF0A3EBF00D6C
:101EB000ED64086003022D909002087401F0902EEA
:101EC000CBE0543FF0902ECEE4F02290060D740348
:101ED000F02405A3F0123334121361FE90060BF0C8
:101EE000A3EFF0123B7D90060D1212A4505A12126D
:101EF00089121516400F12139D04F07013900052B2
:101F0000E004F0800B12148E500612139D1215423D
:101F10009001EBE07003022FB6E4FD7F0A12383720
:101F2000E4FD7F0A1235D4EF7003022FB6E490016E
:101F3000EBF0900092F0FD7F0B123B6F1238379060
:101F400001EC7401F0022FB6E4FD7F0A123B6F90A2
:101F500001ECE0700B9001EB04F0900092F0801A1D
:101F6000122FC1D31212A54002800AE4FD7F0B128A
:101F700035D4EF6005E49001ECF09001EBE06401F2
:101F80007054122FC1E0FDD31212A7401D90060B12
:101F9000E0FEA3E0FF7C007D02122873900053E076
:101FA0002FF0900052E03EF0802C1212899464EEE3
:101FB00064809480400F12139D04F07019900052B9
:101FC000E004F08011C3EF949CEE6480947F50068F
:101FD00012139D121542121361900062F0A3EFF0EC
:101FE0002290060BE0FEA3E0FF123B7D90060E223E
:101FF0007E017FF97D007B017A0079141229191284
:1020000037AF122C39E4FE900012E0FFEEC39F4080
:1020100003023097E4FF75F089EE12117312123F3C
:1020200012143AEEA42492F582E5F034001210D294
:10203000E4F075F089EE12112412123FE4F0A3F0DF
:1020400012130B1210D21212FB1210D2E4F075F020
:1020500008EE1210C9E4F00FEF640870B975F0894A
:10206000EEA424BAF582E5F03400F583E4F0CFEE77
:10207000CF123B42123B60123B51CDEECD7F061298
:102080003B6F7F09123B6F7F02123B6F74DF2E1292
:102090001388E4F074E52E121224E4F09001E87441
:1020A0007EF0E4A3F0A3F0900337F0A3F074ED2EDC
:1020B0001213CC0E022FE7E49001EBF0A3F0FD7FAA
:1020C0000A123B6F0F123B6F90020B747EF0900070
:1020D00011F0E490020AF022E49005F9F0FF900577
:1020E000F8F0EF14601E14603514604C14605B242B
:1020F0000470749005FA7401F0A3742FF0A374585F
:10210000F00231411238B59000011227ABFED39492
:102110001F40031238D71227926E704B804312383B
:10212000B59000021227ABFED3940640031238D7B5
:102130001227926E703180291238B5900003122751
:10214000ABFE1227926E701F80171238B5900004F4
:102150001227ABFE648B60031238D71227926E7081
:10216000069005F8E004F00FEF640560030230C24A
:102170009005F8E0B40504A37401F09005F9E0FDC2
:102180006007900583E0547FF0CFEDCF22752001EA
:1021900053A87F12321E123A4B43A88012106612C7
:1021A000104E123ADEEF24E060332410705B7D03A2
:1021B0007F0E123B6F7D037F0E123837900614742A
:1021C00001F090061DE04410F090061C7401F090A0
:1021D00005F2E07034C283C282C288802C7D037F06
:1021E0000F123B6F7D037F0F12383790061A740170
:1021F000F090061DE04401F0E490061CF09005F21A
:10220000E07006D283D282D2887D037F0E1235D44D
:10221000EF600CE4900614F090061DE054EFF07DA2
:10222000037F0F1235D4EF600CE490061AF090068D
:102230001DE054FEF0122C39122945023182758AB4
:1022400050538AEF9006177411F09006167422F01E
:102250009006187433F075997F759A80E4FFFEC27A
:102260009620970BD2963097069006177487F00F3A
:10227000BF00010EEF640A4E70E57590FF75993F3F
:10228000759AC0E4FEFF30960320970690061674F8
:1022900087F00FBF00010EEF640A4E70E9E4F5AD60
:1022A00075AEE075AF1DF5AC7589FF75913D7599FB
:1022B0001FF59675931CF59BF595F592F59A75802B
:1022C0000C758801F590D28A90061904F022410617
:1022D0001C0041061D004106140041061A0041037E
:1022E000390041022500410223004103360041022A
:1022F0001100410013004104D60042020D000042CB
:1023000004EC0000410226004102130041033A00A0
:102310004204DA0000420334000041022400410577
:10232000F0004105F10042056700004105690041E8
:10233000056B0041056A0041056D104105F3004140
:1023400005EF00410566014105F20041056C0041C1
:10235000056E00009006117404F0900042E0FEA3A8
:10236000E090003212136BFE90060FF0A3EFF01214
:102370003B7D9006111212A4504C90060FE0FEA374
:10238000E0FF900083E02FF090008212129A940FE9
:10239000EE64809480401212150E900043E004F029
:1023A0007006900042E004F022C3EF94F1EE6480E6
:1023B000947F502412150E900043E024FFF090000B
:1023C00042E034FFF02212150E900032E0FFA3E04D
:1023D000900042CFF0A3EFF02202316DE493A3F816
:1023E000E493A34003F68001F208DFF48029E4932C
:1023F000A3F85407240CC8C333C4540F4420C88323
:102400004004F456800146F6DFE4800B0102040824
:10241000102040809032AEE47E019360BCA3FF5454
:102420003F30E509541FFEE493A360010ECF54C072
:1024300025E060A840B8E493A3FAE493A3F8E493FA
:10244000A3C8C582C8CAC583CAF0A3C8C582C8CA02
:10245000C583CADFE9DEE780BE0F00FF0000000091
:10246000000000FFFFFFFFFFFFFFFFFF0000000075
:10247000000000000000000000000000000000005C
:10248000000000000000000000000000000000004C
:10249000000000000000000000000000000000003C
:1024A000000000000000000000000000000000002C
:1024B000000000000000000000000000000000001C
:1024C000000000000000000000000000000000000C
:1024D000000000000000000000902EC0E4F0902EEC
:1024E000CB74F4F0902F58E0540F24F0902EC8F0E5
:1024F000902ECC7448F0902EC97428F0A3743FF04D
:10250000902E4074811212AFF0A3F0A37404121243
:10251000AF7402F0A3F0902EC67414F0902EC17424
:1025200090F0A37403F0A37480F0A37407F043E366
:1025300010123A24900012EFF022CBEFCBEB6401A3
:1025400070281211E8E09005BFF01211FCA3E09092
:1025500005C0F0ECA3F0EDA3F0900332E090058FFE
:10256000F0900332A3E0900590F0EB640270271224
:1025700011E8E09005C3F01211FCA3E09005C4F04F
:10258000ECA3F0EDA3F090020FE0FAA3E0FBEA90D9
:102590000591F0EBA3F0229005F97410F0A3E4F09C
:1025A000A3743FF0A374FFF0E4FDFCF9758A1053A7
:1025B0008AEF0000009005F9E0FEA3E01238DEFF8C
:1025C00069F90DBD00010CBC2FEBBDFFE89005FBC8
:1025D000E0FEA3E0F5828E83E493697008900570B5
:1025E000740FF08005E4900570F0758A50538AEFFF
:1025F00000000022900613EDF0900612EFF0A3E029
:10260000FE121319F583E5822E1210D7E0603B907D
:102610000612E075F0101214FAC083C082900613FF
:10262000E0D082D08375F00412290D12114D90066E
:10263000121211C24014900613E0FF900612E0122D
:10264000131A1210D2E4F07F01227F0022C0E0C0F2
:10265000F0C083C082C0D0E8C0E0ECC0E0EDC0E0D4
:10266000EEC0E0EFC0E0D2AF900211E004F0C394FE
:102670000A4017E4F01211582401FFE43EFEE43D45
:10268000FDE43CFC9004E81228D0D0E0FFD0E0FE4E
:10269000D0E0FDD0E0FCD0E0F8D0D0D082D083D024
:1026A000F0D0E0327F007E10E4FDFC9005F9F0A34D
:1026B000F0758A10538AEF000000EF1238DEFB90AD
:1026C00005FAE02BF09005F9E03400F00DBD0001B3
:1026D0000CED7003EC643070E19005F9E0FCA3E0D0
:1026E000FDEC90058AF0EDA3F0758A50538AEF0057
:1026F0000000229001D5A3E09005C7F09001D7A378
:10270000E09005C8F09001CFA3E09005C9F09001DA
:10271000D1A3E09005CAF09001DBA3E09005CBF0D7
:102720009001DDA3E09005CCF09023F67401939026
:1027300005CDF09023F87401939005CEF022900619
:1027400019E0604390033212141694F8EE942A5064
:102750000EEF9410EE942740069006187487F090C0
:10276000020F1214169434EE9421500EEF944CEE96
:10277000941D40069006187487F0E4900619F090B6
:102780000618E0900577F022900213E024FE601115
:10279000146025240370373089349002137402F0DA
:1027A0002220892A9002137403F090033A7401F0F6
:1027B0007F10123B330239FC7F101237F5EF600EA9
:1027C0007F10123B33E4900213F090033AF0227E24
:1027D000007F807D007B017A05796F122919E490D2
:1027E000056FF0A3740FF0A37409F090058174AB2A
:1027F000F0900583749CF0900617E0900575F090BA
:102800000616E0900576F0900618E0900577F01235
:1028100030B80236D39005F8EFF0C394125035E08B
:10282000FF24271213E4E0602BEF25E025E0243C91
:10283000F582E4340212114B1213909005F8121134
:10284000CE400E9005F8E024271213E4E4F07F0157
:10285000227F00227F0022900612EDF0CBEFCBE02A
:10286000FFEB12131A1210D2E0702AEB12131A1295
:1028700010D27401F0121158FF75F010EB1214FA17
:10288000C083C082900612E0D082D08375F004121B
:10289000290D1228D0229005F8EFF0C3941250327F
:1028A000E0FF24841213D9E06028EF25E025E0241E
:1028B000EAF582E4340212114B9005F81211C2407D
:1028C0000E9005F8E024841213D9E4F07F01227FF2
:1028D00000227F00229005FAE0FBA3E0FAA3E0F9D2
:1028E000229005F1E0FF04F08F8275830022E490CE
:1028F000056CF09005F2229005F97401F0222DF597
:1029000082EE3CF583E49322E92FF9E43AFA0227B8
:10291000929005FAEFF0E0FF24141213EFE0602824
:10292000EF25E025E02417F582E4340212114B1262
:1029300013909022301211DA400E9005FAE0241420
:102940001213EFE4F07F01227F00229005FAEFF0EE
:10295000E0FF24021213FAE06028EF25E025E024CE
:1029600005F582E4340012114B12139090223C12B0
:1029700011DA400E9005FAE024021213FAE4F07F17
:1029800001227F00229005FAEFF0E0FF24391214B3
:1029900005E06028EF25E025E024DEF582E434023E
:1029A00012114B12139090223C1211DA400E900536
:1029B000FAE02439121405E4F07F01227F0022E4BA
:1029C000FFFE900012E0FDEEC39D501C1210E6E0E9
:1029D000FCA3E0FDEE1210E7E0FAA3E0D39DEA9C31
:1029E0004003CFEECF0E80DA90020CEFF022E5DB51
:1029F00020E22890056EE07022D2AFE4F5A8F5A998
:102A0000F5AA43A908F58B758E09F58643AA0875C2
:102A10008DA0758A70438A8475870322CBEFCBEB38
:102A2000D39412501E1213E1E070181213E17401D6
:102A3000F0121158121487243CF582E43402F58315
:102A40001228D022902EC5E4F0902ECDF0A3F0FFF6
:102A5000FEEE90225493600D743B2FF582E4340314
:102A6000F583EEF00F0EEEB410E7229005F474013A
:102A7000F0A37405F0A3746FF0E4F5DA75DA40435F
:102A8000DA2075D74075DA5843A90875B80875F883
:102A90000822121506501E1213ECE070181213ECE7
:102AA0007401F01211581214872417F582E43402CD
:102AB000F5831228D022121506501E1213F7E0706B
:102AC000181213F77401F01211581214872405F527
:102AD00082E43400F5831228D022121506501E120B
:102AE0001402E070181214027401F012115812143A
:102AF0008724DEF582E43402F5831228D022E4FD37
:102B0000900569E0601190056FE0FE54F0FDEE5411
:102B10000FF0E4900569F0CFEDCF229004E8122881
:102B2000DC000000007E007F127D007B017A0279CC
:102B300027022919C0E0758D0175AA0043AA01D2A8
:102B4000AFD0E032EFD39412500874842F1213D90F
:102B5000E4F022EFD39412500874272F1213E4E408
:102B6000F022EFD39403500874142F1213EFE4F003
:102B700022EFD39403500874022F1213FAE4F022C8
:102B8000EFD39403500874392F121405E4F0221285
:102B90001319F583E5822D1210D7E4F022EE30E709
:102BA00007C3E49FFFE49EFE220000000000000037
:102BB0000000000000000000000000000000000015
:102BC0000000000000000000000000000000000005
:102BD00000000000000000000000000000000000F5
:102BE00000000000000000000000000000000000E5
:103010000000000000000000000000000000008030
:00000001FF
