:100000005446495300010000089B0100C2558C155D
:10001000050901121511031848304130050901285E
:10002000151103184830413005090108151103174F
:1000300048304130030000000000000000000000D4
:100040005446435300200000048B010000000000D0
:10005000004001200121000025210000272100008F
:10006000292100002B2100002D2100003D2100004E
:100070003D2100003D2100003D2100002F21000016
:10008000312100003D210000332100000B5400000D
:100090000B550000372100003D2100001106001023
:1000A000372100008D360000E13600003D210000C0
:1000B0003D210000DF500000372100003721000003
:1000C000134E0000372100003D2100003D210000BB
:1000D0000000000000000000000000000000000020
:1000E0000000000000000000000000000000000010
:1000F0000000000000000000000000000000000000
:1001000000000000000000000000000000000000EF
:1001100000000000000000000000000000000000DF
:1001200000000000000000000000000000000000CF
:1001300000000000000000000000000000000000BF
:1001400000000000000000000000000000000000AF
:1001500000F003F800F020F8FEE70D48016821F0F8
:100160000301002001C101C101C101C170470000AC
:10017000E40B0010FEE7FEE7FEE7FEE7FEE7FEE722
:10018000FEE7FEE7FEE703480047FEE7FEE7000064
:10019000202100003D21000000F002F800F068F886
:1001A0000AA090E8000C82448344AAF10107DA45D2
:1001B00001D100F05DF8AFF2090EBAE80F0013F0BC
:1001C000010F18BFFB1A43F001031847F87C010028
:1001D000287D01000A444FF0000C10F8013B13F099
:1001E000070408BF10F8014B1D1108BF10F8015B90
:1001F000641E05D010F8016B641E01F8016BF9D183
:1002000013F0080F1EBF10F8014BAD1C0C1B09D1D9
:100210006D1E58BF01F801CBFAD505E014F8016B4B
:1002200001F8016B6D1EF9D59142D6D370470000DD
:10023000103A24BF78C878C1FAD8520724BF30C812
:1002400030C144BF04680C607047000000230024E4
:1002500000250026103A28BF78C1FBD8520728BFD6
:1002600030C148BF0B6070471FB51FBD10B510BD32
:10027000DFF80CD0FFF7F8FF04F048FA14F0EEFEB8
:100280000040012003B4FFF7F1FF03BC14F0EEFEC1
:100290007047002818BF0120FE49096808627047AE
:1002A000FC480068006A002818BF01207047F94A1E
:1002B000126802EBC00041637047F649096801EB20
:1002C000C000006B00F480707047F24A1021126881
:1002D00002EBC00041637047EE490A68D2F8402142
:1002E00060F30D220868C0F840217047E9480068B3
:1002F000D0F84001C0F305207047E64A00F00F0334
:10030000C0F303101268002902EBC31202EB401085
:10031000D0F8401114BF41F0010121F00101C0F8F3
:1003200040117047DB4A00F00F01C0F30310126860
:1003300002EBC11101EB4010D0F8400100F00100C8
:100340007047D44900230A6813620268D1F800C0DC
:10035000CCF800204268D1F800C0CCF804208268B4
:10036000D1F800C0CCF80820C268D1F800C0CCF8A1
:100370000C20426AD1F800C0CCF84020826AD1F843
:1003800000C0CCF844200269D1F800C0CCF8182095
:100390004269D1F800C0CCF81C20826BD1F800C0B3
:1003A000CCF86020C26BD1F800C0CCF87020026C91
:1003B000D1F800C0CCF87420426CD1F800C0CCF861
:1003C0007820826CD1F800C0CCF88020C26CD1F8C3
:1003D00000C0CCF88420026DD1F800C0CCF8882091
:1003E000426DD1F800C0CCF88C20426ED1F800C02C
:1003F000CCF89C20826ED1F800C0CCF8A020C26E50
:10040000D1F800C0CCF8A420026FD1F800C0CCF81D
:10041000A820826FD1F800C0CCF8C020C26FD1F8FC
:1004200000C0CCF8C420D0F88020D1F800C0CCF8AF
:10043000C820D0F88420D1F800C0CCF8CC20D0F867
:100440008820D1F800C0CCF8D020D0F88C20D1F88A
:1004500000C0CCF8D420D0F89420D1F800C0CCF85B
:10046000DC20D0F89C20D1F800C0CCF8F020D0F8E7
:10047000A020D1F800C0CCF8F420D0F8A420D1F806
:1004800000C0CCF8F820D0F8A820D1F800C0CCF8F3
:10049000FC20D0F8AC20D1F800C0CCF80021D0F876
:1004A000B020D1F800C0CCF80421D0F8B420D1F8A5
:1004B00000C0CCF80821D0F8B820D1F800C0CCF8A2
:1004C0000C21D0F8BC20D1F800C0CCF81021D0F815
:1004D000C020D1F800C0CCF81421D0F8C420D1F845
:1004E00000C0CCF81821D0F8C820D1F800C0CCF852
:1004F0001C21D0F8CC20D1F800C0CCF82021D0F8B5
:10050000D020D1F800C0CCF82421D0F8D420D1F8E4
:1005100000C0CCF83021D0F8D820D1F800C0CCF8F9
:100520004021D0F8DC20D1F800C0CCF84421D0F82C
:10053000E020D1F800C0CCF84821D0F8E420D1F870
:1005400000C0CCF84C21D0F8E820D1F800C0CCF89D
:100550005021D0F8EC20D1F800C0CCF85421D0F8CC
:10056000F020D1F800C0CCF85821D0F8F420D1F810
:1005700000C0CCF85C21D0F81821D1F800C0CCF82C
:100580008021D0F81C21D1F800C0CCF88421D0F80B
:100590002021D1F800C0CCF88821D0F82421D1F84E
:1005A00000C0CCF88C21D0F82821D1F800C0CCF8BC
:1005B0009021D0F82C21D1F800C0CCF89421D0F8AB
:1005C0003021D1F800C0CCF89821D0F83421D1F8EE
:1005D00000C0CCF89C21D0F83821D1F800C0CCF86C
:1005E000A021D0F83C21D1F800C0CCF8A421D0F84B
:1005F0004021D1F800C0CCF8B021D0F84421D1F886
:1006000000C0CCF8C021D0F84821D1F800C0CCF807
:10061000C421D0F84C21D1F800C0CCF8C821D0F8C2
:100620005021D1F800C0CCF8CC21D0F85421D1F819
:1006300000C0CCF8D021D0F85821D1F800C0CCF8B7
:10064000D421D0F85C21D1F800C0CCF8D821D0F862
:100650006021D1F800C0CCF8DC21D0F86421D1F8B9
:1006600000C0CCF8E021D0F86821D1F800C0CCF867
:10067000E421D0F86C21D1F800C0CCF8E821D0F802
:100680007021D1F800C0CCF8EC21D0F87421D1F859
:1006900000C001E088920100CCF8F021D0F8782168
:1006A000D1F800C0CCF8F421D0F87C21D1F800C0FA
:1006B000CCF8F821D0F88021D1F800C0CCF8FC218A
:1006C000D1F800C02122CCF83420D1F800C0CCF8F9
:1006D0003C20C269D1F800C0CCF82420C26AD1F80D
:1006E00000C0CCF84820026BD1F800C0CCF84C20F8
:1006F000426FD1F800C0CCF8AC20D0F89820D1F8E7
:1007000000C0CCF8E020D0F88421D1F800C0CCF8AB
:100710000022D0F88821D1F800C0CCF80422D0F80B
:100720008C21D1F800C0CCF80822D0F89021D1F863
:1007300000C0CCF80C22D0F89421D1F800C0CCF83D
:100740001022D0F89821D1F800C0CCF81422D0F8AB
:100750009C21D1F800C0CCF81822D0F8A021D1F803
:1007600000C0CCF81C22D0F8A421D1F800C0CCF8ED
:100770002022D0F8A821D1F800C0CCF82422D0F84B
:10078000AC21D1F800C0CCF83022D0F8B021D1F89B
:1007900000C0CCF84022D0F8B421D1F800C0CCF889
:1007A0004422D0F8B821D1F800C0CCF84822D0F8C3
:1007B000BC21D1F800C0CCF84C22D0F8C021D1F82F
:1007C00000C0CCF85022D0F8C421D1F800C0CCF839
:1007D0005422D0F8C821D1F800C0CCF85822D0F863
:1007E000CC21D1F800C0CCF85C22D0F8D021D1F8CF
:1007F00000C0CCF86022D0F8D421D1F800C0CCF8E9
:100800006422D0F8D821D1F800C0CCF86822D0F802
:10081000DC21D1F800C0CCF86C22D0F8E021D1F86E
:1008200000C0CCF87022D0F8E421D1F800C0CCF898
:100830007422D0F8E821D1F800C0CCF87822D0F8A2
:10084000EC21D1F800C0CCF87C22FA4A126832F0D0
:10085000FF0C08D1D1F800C0DCF890C062F3030CA3
:100860000A68C2F890C0F44A1370836F13F0010F46
:100870001CBF02231370D0F8880010F0010F03D0C2
:10088000107840F0010010700868D0F8C0000A68C5
:1008900020F00100C2F8C0000868D0F8D000096854
:1008A00020F00100C1F8D0007047E349087070479C
:1008B000E2480068D0F8C00000F001007047DF484F
:1008C0000068C068704770B5DC4D04462868D0F8F1
:1008D000400114F0020F20F00D0118BF41F001019A
:1008E00014F0080F18BF41F0040114F0040F18BFF2
:1008F00041F008012868C0F8401114F0010F70D0D1
:1009000001F031F8064601F031F801462868C06868
:1009100000280EBF30460846314600282868D0F827
:10092000C00114BF40F0010020F001002A68C2F8A5
:10093000C00128680029D0F8E00114BF40F0010090
:1009400020F001002968C1F8E001BB4890F800C020
:100950001CF0010F5DD0BA480168496C026841F48F
:10096000803151640168896CC1F3090240F2E731BA
:1009700003689B6CC3F30903934202D1491EF7D16C
:1009800017E0B1B11CF0010F07D02868D0F8D000F3
:10099000296840F00100C1F8D0001CF0020F38D0E7
:1009A0002868D0F8C000296840F00100C1F8C000F4
:1009B0002FE02968D1F8D0102A6821F00101C2F88F
:1009C000D0102968D1F8C0102A6821F00101C2F8BE
:1009D000C0100168496C006821F48031416418E05E
:1009E000FFE72868D0F8C001296820F00100C1F8AD
:1009F000C0012868D0F8E001296820F00100C1F8A2
:100A0000E0012868D0F8C000296820F00100C1F892
:100A1000C00014F0200F18BF002413D0204600F0AF
:100A2000ACFF0028286800EB4410D0F8401214BF37
:100A300041F0010121F00101C0F84012641C022CB8
:100A4000ECD370BD2868D0F84002296820F001007E
:100A5000C1F840022868D0F86002296820F001003F
:100A6000C1F8600270BD2DE9F0037449024602F03E
:100A70000F03D1F800C000200CEBC315C2F3031321
:100A800005EB4313D3F8403113F0010F0DD142F0C1
:100A90001003C3F3031305EB4313D3F8403113F0F2
:100AA000010F04BFBDE8F00370470CEBC214D4F88B
:100AB0001C31DCF81C10C3F3080901F00807D4F856
:100AC0000011C1F30A08002142EA0113C3F3031322
:100AD00005EB4313D3F8403113F0010F14D004EBAE
:100AE0004113D3F844C1CCF3080617F1000C1CBF26
:100AF000D3F844C1CCF3023CD3F8403106FA0CFCE5
:100B0000C3F3054360441844491C0229DCD300FBAD
:100B100008F0C9EB0911BDE8F00300EB4100704794
:100B200070B5464801680968006801F01F06406812
:100B3000C0F30C050120FFF796FF04460220FFF7E3
:100B400092FF044400F073FB211805FB06F0C0EB94
:100B5000001001EB40004FF47A71484347F23051E6
:100B6000B0FBF1F070BD2DE9F041344F0546386817
:100B7000006810F01F0408BF01240120FFF773FF75
:100B800006460220FFF76FFF064400F050FB2D4A97
:100B90003118B5B1B2FBF5F0884298BF00200AD9F0
:100BA000C4EB0413401A5B00B0FBF3F0B0F5005F38
:100BB00088BF41F6FF703B685B6860F30C033868E0
:100BC000436038684068C0F30C006043C0EB00101D
:100BD00001EB4000B2FBF0F0BDE8F08170B51748C2
:100BE00001680968006801F01F054068C0F30C0641
:100BF0000120FFF738FF04460220FFF734FF0444CA
:100C000000F015FB06FB05F1C1EB011104EB4101FE
:100C100008440C49B1FBF0F070BD08490A685268FD
:100C20000B68C2F30C025B6860F30C030868436056
:100C300010467047E0FE030000400020889201004B
:100C40008492010000389C1CF84800684068C0F39A
:100C50000C007047F549096801EBC010D0F800019D
:100C60004EF66021C0F30A00B1FBF0F0401C4008D2
:100C700070474EF66022B2FBF1F1491C4908B2FB05
:100C8000F1F2F0B4E94D521C56082A684FEA510CB3
:100C900002EBC01238B1D2F804318C1F24F00104E9
:100CA000012806D019E0ACF10603981F20F00104DA
:100CB00013E02868D0F8D00010F0010F0DD04800E4
:100CC000B0F5006F88BF40F2FF702F68D7F8E07072
:100CD00060F30A072868C0F8E07041EA0C40C2F8E7
:100CE0000001C2F80431C2F810413046F0BC704730
:100CF000CE4A00F00F01C0F30310126802EBC111DD
:100D000001EB4010D0F84401C0F308007047C74A17
:100D100000F00F03126802EBC312D2F81431C0F3D3
:100D2000031002EB4010CB1AD0F844219B1E61F354
:100D30000802C0F84421D0F8441163F31841C0F808
:100D400044117047B9490A68D269096812F0100F56
:100D500000F00F0201EBC211D1F82021C0F3031003
:100D600001EB4010D2B2D0F84401C0F3080008BF34
:100D70000022801A0004000C08BF012070474FEACF
:100D8000101C0007C00EAA4B02FA00F01B6803EB10
:100D9000CC1303EB810101F5C0410B6818430860D7
:100DA0007047A34B020900071B68C00E03EBC21279
:100DB00002EB810101F5C041096821FA00F000F061
:100DC0000300704799480068006D704797491020EC
:100DD0000968C8657047954B00F00F02C0F3031017
:100DE0001B6803EBC21202EB4010C0F84C117047B5
:100DF0008E4A00F00F01C0F30310126802EBC1111C
:100E000001EB4010D0F84C017047884B00211A6864
:100E1000D26912F0080F0CD000F00F011A68C0F36D
:100E2000031002EBC11101EB4010D0F84401C0F3F4
:100E30000231084670477D4A1368DB69D2F800C06A
:100E400043F00803CCF81C3000F00F031268C0F325
:100E5000031002EBC31202EB4010D0F8442161F3FF
:100E60000E32C0F844217047704B00211A68D269D5
:100E700012F0080F0CD000F00F011A68C0F3031035
:100E800002EBC11101EB4010D0F84801C0F3024160
:100E900008467047654A00F00F03C0F3031012685C
:100EA00002EBC31202EB4010D0F8482161F312426A
:100EB000C0F848217047042988BF704730B4002328
:100EC0005A4C2268D269254612F0080F00F00F0232
:100ED0002D68C0F3031005EBC21202EB40121CBFD9
:100EE000D2F84401C0F302330020D4F800C0DCF88B
:100EF0001CC01CF0080F1CBFD2F84801C0F3024010
:100F0000C91A0844042803DD081A011D042003E05F
:100F10000028BCBF0144002019442368DB69D4F8D1
:100F200000C043F00803CCF81C30D2F8443161F320
:100F30000E33C2F84431D2F8481160F31241C2F8BE
:100F4000481130BC7047394900280868806904D0CE
:100F5000096840F0080088617047096820F00800BF
:100F600088617047314A00F00F01C0F30310126826
:100F700002EBC11101EB4010D0F8480180B270477C
:100F80002A4B00211A68D26912F0080F0CD000F029
:100F90000F011A68C0F3031002EBC11101EB4010FE
:100FA000D0F84801C0F30051084670471F490200BD
:100FB000086880690A6800F00100926904D0096835
:100FC00042F001028A617047096822F001028A61D9
:100FD000704730B4022ADDF808C026BF921E5208BE
:100FE0000022022B26BF9B1E5B080023114C00F041
:100FF0000F05A4FB0C4C4FEA1C14DFF830C0C0F303
:101000000310DCF800C00CEBC51C0CEB4010D0F852
:1010100054C161F3196C62F3134C63F30B2C64F34A
:10102000070CC0F854C130BC704700008892010022
:10103000A0920100CDCCCCCC70B49B4D00F00F043D
:10104000C0F303102D68DDF80CC005EBC41404EBED
:101050004010D0F854010029C0F30166C0F30345E5
:10106000C0F30324C0B218BF0E6012B16900891C1E
:10107000116013B16100891C1960BCF1000F04BF3D
:1010800070BC704700EB80008000CCF8000070BCA2
:10109000704770B491B000224FF480456C10EC465C
:1010A00001E0082A05D2531C03EB8303B5FBF3F3DD
:1010B00004E0D31F03EB8303B4FBF3F35B1A002BB1
:1010C000B8BF5B424CF82230521C102AE9D30026EC
:1010D000009B01215CF821209A42BCBF13460E46BA
:1010E000491C1029F6D3704900F00F02C0F3031019
:1010F000096801EBC21101EB4011D1F85801C1F8A8
:101100005861082807D2401C00EB8000B5FBF0F0C6
:1011100011B070BC7047C01F00EB8000B4FBF0F052
:1011200011B070BC7047604A00F00F01C0F30310AB
:10113000126802EBC11101EB4010D0F858010828E9
:1011400034BF401CC01F00EB800034BF4FF480410F
:101150004FF40051B1FBF0F0704710F00F0F08BFD3
:101160007047514A00F00F000029126802EBC010CE
:10117000D0F824110CBF21F4803141F48031C0F843
:1011800024117047002110F00F0F0BD0464A00F0D9
:101190000F00126802EBC010D0F8240110F4803F59
:1011A00018BF0121084670473F4902460868D0F839
:1011B000AC0012F0010F0A68C0F3C000D2F8AC20F6
:1011C00005D0096842F00802C1F8AC2070470968F0
:1011D00022F00802C1F8AC207047334A1368586700
:1011E000106881677047304900280868D0F8AC0063
:1011F00005D0096840F00200C1F8AC0070470968EA
:1012000020F00200C1F8AC007047274900280868A8
:10121000D0F8AC0005D0096840F00100C1F8AC007E
:101220007047096820F00100C1F8AC00704770B445
:101230001D4E00203168D1F8401111F0010F04BF9C
:1012400070BC704711F0040F336801F00805D3F843
:101250001C31D6F800C0C3F30803DCF800C1CCF39E
:101260000804D6F800C0DCF844C1CCF3080C18BF61
:10127000C1F307403268D269C1F3052112F00802B8
:1012800004D03268D2F84421C2F30232002D18BFD4
:10129000491C0CFA02F201FB0200604370BCC3EB74
:1012A000031100EB4100704788920100FEF7F8BF80
:1012B00010B5FEF7F5FF012818BF10BD0020FEF79E
:1012C000E8FF21210020FEF7F2FF2121BDE81040B8
:1012D0000120FEF7ECBF10B5FEF7DAFFFEF7E0FFE6
:1012E00001280AD10020FEF7D4FF21210020FEF7BB
:1012F000DEFF21210120FEF7DAFF0121052001F0A8
:1013000068FC0121052001F064FCFF4900204870C1
:1013100010BD10B5602001F0B2FCBDE810406020A7
:1013200001F0A0BCF84A0146507A002818BF0120FD
:10133000002918BF012151727047F34A91699061E9
:1013400008467047F04800210172C1717047EE48AD
:1013500000210172C17170472DE9F34F00F00F05B4
:101360006800861E9DB0002445EA0410FEF7DAFFEF
:1013700000284DD01E9AC4EBC400002102EB0017D8
:10138000EC46C1EBC10307EBC30200200CEBC30327
:1013900052F8208043F82080401C0E28F8D3491CC6
:1013A0000229EED3D9490022301909684FF002080A
:1013B000C0EBC000434601EB001723FA02F101F035
:1013C0000101C1EBC101C2EBC2000CEBC10107EB93
:1013D000C00091E8004E00F58840521CC0E9CE9A4A
:1013E000C0E9D0BE01F11009424599E8004EC0E9BC
:1013F000D29AC0E9D4BE01F1200999E8004EC0E9B3
:10140000D69AC0E9D8BED1E90C91C0E9DA91D4D31B
:10141000641C022CA8D31FB0BDE8F08F70B5054640
:10142000FEF764FF29460446B84DC0EBC400C20075
:10143000286800F5804013F01FFE2968C4EBC40043
:1014400001EBC00000F58040002101604160816037
:10145000C160016141618161C1610162416281627A
:10146000C1620163416370BDA7494861FFF72BBAB0
:10147000A74801688968A74A11430268916001681A
:101480000968A54A00681143016000F077BE2DE9A4
:10149000F0479F4A06460D46106880689D49014303
:1014A00010688160106800689B49084311680860F3
:1014B00000F064FE0024944F002D63D00020FEF75E
:1014C000E8FE286820B1FEF73CFF0020FEF7E1FEB1
:1014D00030467E61FFF7F7F90020FEF723FF002872
:1014E00034D0DFF828826E6816B3FEF7FFFE81461F
:1014F000C0EBC900C200D8F80000314600F58040BA
:1015000013F0BAFDD8F80010C9EBC90001EBC00018
:1015100000F58040046044608460C46004614461FC
:101520008461C461046244628462C462046344638B
:10153000E96841B1D8F800004FF4807200F5C0406E
:1015400013F09AFD02E0754800F038FD0120FEF727
:10155000E9FE18B91120FEF7E5FE28B1A9680029B7
:101560001CBF0120FFF7F8FE0220FEF7DBFE18B9D2
:101570001220FEF7D7FE28B1296900291CBF0220DE
:10158000FFF7EAFE3C72FC71BC61787A0020787249
:10159000602001F074FBBDE8F047602001F062BB01
:1015A00010B50020FEF775FE00F0CAFD584801682E
:1015B0000968026821F0030141F00D7141F080518A
:1015C000116001688968006821F0020141F00D7125
:1015D00041F08051816010BD602001F047BB10B523
:1015E000602001F043FBFEF75BFE01280AD10020DA
:1015F000FEF74FFE21210020FEF759FE2121012098
:10160000FEF755FE46480168496C006821F48031B8
:1016100041640020FEF73DFE00F092FD3C48016869
:101620000968026821F0030141F00D7141F0805119
:10163000116001688968006821F0020141F00D71B4
:1016400041F08051816010BD2F48406970472E489D
:101650000078002818BF0120704770B5FEF720FE03
:10166000002818BF70BD0025274C2572E571212187
:101670002846FEF71CFE21210120FEF718FE2570EA
:10168000BDE870400120FEF704BE10B5FEF708FE6D
:10169000002818BF10BD00201B4C2072E0712121D2
:1016A000FEF705FE21210120FEF701FE0120FEF7D5
:1016B0000CFE01202070BDE81040FEF7EABD0020BE
:1016C000FEF7E7BD10490020C8710120FEF7E1BD1B
:1016D0000D49C86170470C48C069704770B50A4C25
:1016E0000025E069411CE161207800281CBF002032
:1016F000FEF7CFFD20212846FEF7D9FDA16900297C
:101700001CBF284688470DE004400020A09201003D
:10171000909201000200341203003412384200207B
:1017200084920100FB48016841F02001016070BD16
:1017300070B5F94C0125E069411CE1612078002871
:101740001CBF0020FEF7A5FD20212846FEF7AFFDB7
:10175000A16900291CBF28468847EE48016841F06E
:101760002001016070BDED487047ED487047EA48C0
:10177000006A7047E848406A70472DE9F007DFF8D3
:101780009C834FF0000C87B008F1380665464FF097
:10179000FF3408F80C4006F80C500CF1010CBCF1B9
:1017A0001C0FF6DB4FF0000C002807D912F80C7064
:1017B00008F80C700CF1010C6045F7D80027B94609
:1017C0004FF0010C002810D918F90720002A09DB76
:1017D000082AB4BF1432083A1C2A3CBF0CFA02F2A1
:1017E00042EA09097F1C8742EED3002002466F4679
:1017F0000CFA02FA1AEA090F1ABFB854401CBC547A
:10180000521C1C2AF4DB0022002816D918F9029079
:10181000B9F1000F0EDBB9F1080FB4BF09F11409DB
:10182000A9F10809B9F11C0F3ABF17F8099006F899
:101830000290B454521C8242E8D3DFF8DC820022CA
:101840000028C8F8205009D916F90290914502D015
:10185000C8F8206002E0521C8242F5D3B04E00204E
:1018600006F1380234541554401C1C28FADB0020C1
:10187000002906D913F8009006F80090401C814218
:10188000F8D80023994600290BD9F056002805DB2B
:101890001C283CBF0CFA00F040EA09095B1C8B4293
:1018A000F3D3002001460CFA01F313EA090F1ABF23
:1018B0007854401C7C54491C1C29F4DB002100286E
:1018C00009D97356002B03DB1C2B3CBFFB5C535424
:1018D000491C8142F5D30021C8F8245000289EBF3E
:1018E00007B0BDE8F007704753568B4205D0C8F8E3
:1018F000242007B0BDE8F0077047491C8142F3D3AC
:1019000007B0BDE8F0077047C0EB0010854900EB59
:10191000C00001EBC0007047C0EBC00101EB00103C
:10192000814901EB80007047DFF8ECC1012B8CF896
:1019300002008CF8031003D9401C20F0010011466E
:1019400000FB01F24FF6FF718CF8040001EA42023D
:10195000ACF80C2001EA4000ACF80E0070476E4A6B
:101960005071917170476C48807970476A4840792E
:1019700070476E4A1070517070476C49085C704730
:1019800070B5654D0446687A002804BFE87913F005
:101990000CFC287A002808BF70BD4FF0000C686965
:1019A00063466246614610F0020F09D0DFF874C149
:1019B00010F0040F04D0AB89664623F001033344D2
:1019C00010F0010F04D010F0100F0CBF564A56490A
:1019D000ED692560C4E90321C4E901C310F0200FBB
:1019E00014BF534800206061012070BD4A490020A7
:1019F0000872704710B50446FEF778FCC0EBC000D3
:101A0000C2004C48006800F580412046BDE8104007
:101A100013F032BB2DE9F041FEF768FC04460020CC
:101A2000FFF7E6F90022002C84BF0125414E21D9A1
:101A3000D6F800C0C2EBC20300210CEBC30C05FAC0
:101A400001F3034210D04B080CEB830303F58043F2
:101A5000CF071B68FF0EFB40C3F30B03B3F57F6F8B
:101A600002D90020BDE8F081491C1C29E7D3521C93
:101A7000A242DDD30120BDE8F0812DE9F35F00F043
:101A80000F070024DFF8AC807E0044F2387547EA87
:101A90000410FEF747FC002835D00222019BC4EB5E
:101AA000C4009246002103EB001B4FF0000C002AFB
:101AB00009D92AFA0CF000F0010088421CBF0CF191
:101AC000010C9445F5D394451AD2A6F10209A1441C
:101AD000D8F800E0C1EBC100C9EBC9090BEBC003AA
:101AE0000EEB0919CCEBCC0C002009EBCC0909EB6F
:101AF000800C5CF805C043F820C0401C0E28F6D3CB
:101B0000491C0229D1D3641C022CC0D302B0BDE809
:101B1000F09F0000304000200440002038420020A8
:101B200054420020A8420020E04600200E40002041
:101B30003C470020A09201002DE9F05F00F00F0665
:101B400070000024A0F1020B012744F2387846EA25
:101B500004194846FEF7E6FBA0B34846FFF755F9DF
:101B600007FA00F54846FFF743F90022002D29D96E
:101B70000BEB0401C1EBC101FE4B1B6803EB011A27
:101B8000C2EBC20300210AEBC30907FA01F30342C7
:101B900012D04B0809EB83034FEAC17C53F808309D
:101BA0004FEADC6C23FA0CF3C3F30B03B3F57F6F3E
:101BB00002D90020BDE8F09F491C1C29E5D3521C26
:101BC000AA42DDD3641C022CC1D30120BDE8F09FE2
:101BD000C1EBC103E7494FF6FF7C096801EBC30184
:101BE000430801EB830101F58041C007C00E0CFAE8
:101BF00000FC0B6802FA00F023EA0C0318430860AB
:101C00007047DC4AC1EBC101126802EBC101420816
:101C100001EB820101F58041C0070968C00E21FA7D
:101C200000F080B270472DE9FF4FD24883B01D46C7
:101C30000068109C00F5804017460E460190FEF7A4
:101C40002FFB5FEA00081CBF0020FEF722FB0020EC
:101C5000FFF7CEF8824670190090B04284BF4FF073
:101C6000010B4FF6FF7E28D90198C6EBC6014FF055
:101C7000000C00EBC101039B17E00BFA03F010EA24
:101C80000A0F11D05808DD0751F82020ED0E0EFA8A
:101C900005F922EA090234F8029B0CF1010C09FA59
:101CA00005F52A4341F820205B1CBC4538BF1C2B9E
:101CB000E3D30098761C8642D6D3B8F1000F04BF58
:101CC00007B0BDE8F08F0020AB49C87107B0012014
:101CD000BDE8F04FFEF7DDBA2DE9F0470746A5480D
:101CE0009A46144600680E46089D00F58049FEF7A6
:101CF000D7FA5FEA00081CBF0020FEF7CAFA06EB1D
:101D00000A03B34284BF9D4907EB040C1CD9C6EB00
:101D1000C6003C4609EBC0000FE00A571C2A0BD254
:101D200002EBD27A4FEA6A0AD20750F82AA0D20E02
:101D30002AFA02F225F8022B641C644538BF1C2CD9
:101D4000EBD3761C9E42E2D3B8F1000F08BFBDE88A
:101D5000F08700208849C871BDE8F0470120FEF7F0
:101D600098BA2DE9F05F0027DFF80C82814A4FF620
:101D7000FF7600280C4646D0116801F5804900F036
:101D80000F01C0F3031001290EBF00210229BDE895
:101D9000F09F022828BFBDE8F09F01EB000AFEF784
:101DA0007FFA05001CBF0020FEF773FA0020CAEB83
:101DB000CA0109EB0119C0EBC001002209EBC10CFB
:101DC00051080CEB810303F5E761D3F838A7D3077B
:101DD000DB0E06FA03FB04FA03F32AEA0B0A4AEACB
:101DE0000303521C0B601C2AEAD3401C0228E2D3D6
:101DF000002D08BFBDE8F09F88F80770BDE8F05FD0
:101E00000120FEF746BA106800F58049FEF748FA4F
:101E100005001CBF0020FEF73CFA4FF0000CCCEB95
:101E2000CC00002209EBC0015308D007C00E06FA0F
:101E300000FB51F823A004FA00F02AEA0B0A4AEA50
:101E40000000521C41F823001C2AEDD30CF1010CB8
:101E5000BCF1210FE3D3002DCED1BDE8F09F10B52A
:101E6000FEF770FF4449088210BD434AC1B200F436
:101E70007063128A914288BF11464FF0640C01FBD7
:101E80000CF1B1FBF2F11A0A02FB0C1189B210F449
:101E9000805F12BF08B2484200B270470028B8BF46
:101EA000404280B2B4BF00214FF4805100F4706210
:101EB0001143314AC0B2128A504341EA10207047A0
:101EC0002F4800F07BB8FFF73EB870B52C4800F003
:101ED00075F8284840F6F801006800F5804013F0D6
:101EE000D0F80020FEF799FE00210846FEF7A3FF78
:101EF00000210120FEF79FFF00211120FEF79BFF2C
:101F000000210846FEF7C6FF00210120FEF7C2FFB0
:101F100000211120FEF7BEFF0120FEF79BFE0446C4
:101F20000120FEF7E5FE06461120FEF7E1FE05461C
:101F3000A64288BF2646A54288BF254631460120D5
:101F4000FEF7E5FE29461120FEF7E1FE0020FEF730
:101F5000ACFC00210220FEF76EFF00211220FEF7EC
:101F60006AFF00210220FEF795FFBDE870400021C6
:101F7000122007E0A09201000440002054420020FB
:101F800038420020FEF786BF214910B50220486183
:101F9000FEF799FC1F4C4FF48071206800F5C0409B
:101FA00013F06FF820684FF4E76100F5804013F0FC
:101FB00068F8BDE810400020FEF72FBE70B5154D43
:101FC00004464FF48071286800F5C04013F059F8BA
:101FD000002101206256002A15DBD31702EB137C87
:101FE0004FEA2C132E682CF00F0C06EBC31303EBF7
:101FF000810303F5C043A2EB0C0252001E6800FAF5
:1020000002F232431A60491C1C29E3D370BD000060
:1020100004400020A092010070B400246E4982B0F8
:102020004FF0010C002814BF0C7081F800C06B4DFC
:10203000286800686A4A10432A6810600978694A6B
:1020400031B113686848D86013686848986006E042
:1020500013686748D86013684FF0BB709860654894
:10206000006830F0FF0305D11368DB6860F30303F9
:102070001068C36040F2E243D1B11068806816680E
:1020800040F01800B0600120009005E00198461E65
:1020900001960028FAD10098461E0096002818BF25
:1020A0000193F3D110688068166840F48050B060E6
:1020B0000120009005E00198461E01960028FAD103
:1020C0000098461E0096002818BF0193F3D11068AF
:1020D000C068166840F03000F0601068D0F8B000BA
:1020E000166840F00100C6F8B0000120009005E03D
:1020F0000198461E01960028FAD10098461E0096C7
:10210000002818BF0193F3D11068C0F87CC0136891
:102110004FF4E06018611068C0F8884000291CBFC7
:102120001068C0F894C028680068296820F004008E
:1021300040F00D7040F08050086002B070BC7047F5
:1021400028480168C968026821F03001D16022493D
:10215000097839B101688968006821F0180121F413
:10216000805181601D4801680968006821F0040100
:1021700041F00D7141F080510160704717480168CE
:102180000968174A0068114301601348017815482F
:1021900031B10168896841F2180211430268916007
:1021A0000168C968026841F03001D1600168D1F866
:1021B000B010006841F00101C0F8B01070470E493E
:1021C000C0B241EA00200749096808647047054920
:1021D0000A480968086470472C400020909201006A
:1021E000040034128C920100057601002000760173
:1021F00005F40100D0FE030013005FA000005FA003
:1022000059485849026891610268891CD161026885
:10221000491E516302681268036822F0030242F00B
:102220000D7242F080521A6002685269036822F00F
:10223000010242F00D7242F080525A610268126946
:102240001143026811610268484991600068484979
:10225000C160484900200860704770B501F06DF911
:10226000444D2C682CB10020286001F06BF9204609
:1022700070BD30BF00F0BFFD0028F2D000F0CEFDF1
:102280006860EEE72DE9F04101F057F9354E364C24
:10229000DFF8E080771CD8F800503DB10020C8F886
:1022A000000001F04FF92846BDE8F08172B62068C1
:1022B00046632068876120BF206886612068476385
:1022C00062B6BFF36F8FBFF34F8F00F094FD00280D
:1022D000E1D000F0A3FDC8F80400DCE72248016863
:1022E0000968026821F0030141F00D7141F080514D
:1022F0001160026820499160016809691F4A0068FD
:102300001143016130BF704772B616491648026822
:1023100051630268C91CD1610068891E816162B67F
:102320007047114801680968154A00681143016047
:1023300070470D4801680968006821F0030141F009
:102340000D7141F080510160704772B60549064831
:10235000026891610268891CD1610068491E41636D
:1023600062B6704700003412909201003C003412B3
:1023700028003412304000200800341201003412CA
:10238000030034127047002818BF0120B6490968BD
:10239000486070470022002908D950F8043B5B1CB4
:1023A00001D000207047521C8A42F6D301207047AA
:1023B00030B44FF0000C6346002A13D950F8044B98
:1023C00051F82350AC421CBF0CF1010C1FFA8CFCDD
:1023D0005B1C9BB29342F1D3BCF1000F1EBF0020E7
:1023E00030BC7047012030BC70472DE9F0410546F4
:1023F00001F0ADF800249C4B21274FF4825826466B
:10240000186807602E6018680068196840F00400BA
:1024100008601868006810F0040FFAD11868C0F856
:10242000008040202946002251F804CB1CF1010C09
:1024300008D018680660601CC4B2082CE0D30220E3
:10244000BDE8F081521C8242EED31868066001207C
:10245000BDE8F0812DE9F041044601F078F8002054
:10246000814B0925844619680D60C4F800C01968BD
:1024700009681A6841F0040111601968096811F0CF
:10248000040FFAD121464FF48066002251F8047BF4
:102490007F1C09D01968C1F800C0401CC0B20328D5
:1024A000E1D30220BDE8F081521CB242EED318689D
:1024B000C0F800C00120BDE8F0812DE9F05F0F46B3
:1024C000804604264FF0020A4FF0000BDFF8989187
:1024D00001F03DF8D9F80000C0F800A044463846A5
:1024E0000F2190E82C10A4E82C101030491EF8D2CF
:1024F000D9F800000068D9F8001040F00400086026
:10250000D9F80000006810F0040F07D000BF00BF2A
:10251000D9F80000006810F0040FF7D1D9F80000D6
:10252000C0F800B0454638460F21D5E90023D5E96B
:1025300002C4D0F800E0964504BF42689A4205D133
:102540008268624504BFC268A24208D0761E03D3E7
:102550004046FFF74AFFBBE70220BDE8F09F103579
:102560001030491EE1D20120BDE8F09F70B50D4644
:10257000044600F0ECFF4FF480722146284612F02A
:102580007BFD012070BD2DE9F041C0B014460E4620
:10259000054610F0FF0F23D025F0FF086F4600F02E
:1025A000D6FF4FF480724146384612F065FDE8B21E
:1025B000C0F58077A74288BF274668443A4631462F
:1025C00012F064FD4046FFF710FF022843D0694631
:1025D0004046FFF772FF022841D03D443E44E41BD1
:1025E000B4F5807F19D34FF480723146684612F0FB
:1025F0004DFD2846FFF7F9FE02282CD069462846F3
:10260000FFF75BFF02282AD0A4F5807405F58075DA
:1026100006F58076B4F5807FE5D2C4B16F4600F050
:1026200096FF4FF480722946384612F025FD224667
:102630003146684612F02AFD2846FFF7D6FE0228EA
:1026400009D069462846FFF738FF022807D040B076
:102650000120BDE8F08140B00A20BDE8F08140B023
:102660000B20BDE8F08100007492010028490A683F
:1026700010600968086100F016B825490A68106002
:102680000968486100F00FB8214909684867704738
:102690001F490968886770471D4801210268116653
:1026A0000068016570471B4A1168096B10F0010F43
:1026B00018BF21F4404110F0020F1CBF21F440511B
:1026C00041F4805110F0040F18BF41F4406110F044
:1026D000080F18BF41F4407110F0100F18BF41F0FF
:1026E000C00110F0200F18BF41F0300110F0400F72
:1026F00018BF41F00C0110F0800F18BF41F003012A
:1027000041F4BE00116840F02040086370470000AB
:102710007C92010084920100FE4801688A68FE49AB
:1027200003680A439A600268D26811430268D16064
:1027300001684969F94A0068114341617047F548E9
:1027400001684969026821F0010141F00D7141F011
:10275000805151610168C968026821F0400141F06F
:102760000D7141F08051D16001688968006821F0E5
:10277000400141F00D7141F080518160704710B50A
:10278000E44C20688168E448226801439160216834
:10279000C96808432168C86020684069DF49084368
:1027A00021684861DE483F210268D160026800214B
:1027B0009163026891640068C0F8B01003210A2098
:1027C00000F007FA0A2000F028FA20684069216822
:1027D00020F0010040F00D7040F08050486120680A
:1027E000C068216820F0400040F00D7040F080503B
:1027F000C86020688068216820F0400040F00D70BB
:1028000040F08050886010BDC54A13681860136896
:1028100059604843116888607047C14A136818605E
:1028200013685960484310F0010F18BF401C11682D
:1028300088607047BA490968C1F8B0007047B84964
:1028400018B109680120886470470968002088640D
:102850007047B3490A6890630868C068096840F027
:102860000200C8607047DFF8B8C210B4DCF800405E
:102870002062DCF800004162DCF800008262DCF8D3
:102880000000C362DCF8001001200863DCF80000DF
:10289000406B10F0010F09D000BF00BF00BF00BFA8
:1028A000DCF80000406B10F0010FF5D110F00200D1
:1028B00018BF4FF0FF3010BC704799480168C968D5
:1028C000006821F00201C160704795480168C9683D
:1028D000006841F00101C1607047914BD3F800C01E
:1028E000CCF82000186841621868826219680120DB
:1028F00008641868406C10F0010F08D000BF00BFDA
:1029000000BF00BF1868406C10F0010FF6D110F046
:10291000060018BF4FF0FF30704781480168C96852
:10292000006821F00101C16070477D480168C968F5
:10293000006841F00401C1607047027C017B02F035
:102940003F0241EA0241764A1368996513680168BB
:10295000596213684168996213688168D962136883
:10296000012119651168496D11F0010F08D000BFF0
:1029700000BF00BF00BF1168496D11F0010FF6D113
:102980001368DB6D83821368DB6D1B0CC3821368D5
:102990001B6E038313681B6E1B0C438313685B6EF3
:1029A00083831268526EC2F30E42C28311F002009A
:1029B00018BF4FF0FF30704759480168C968006878
:1029C00021F00401C160704755480168C96800687A
:1029D00041F00801C1607047DFF844C110B4DCF871
:1029E0000040A267DCF800201062DCF800004362BF
:1029F000DCF800008162DCF8001001200867DCF8D8
:102A00000000406F10F0010F09D000BF00BF00BFF1
:102A100000BFDCF80000406F10F0010FF5D110F09E
:102A2000060018BF4FF0FF3010BC70473C480168EB
:102A3000C968006821F00801C160704701684FEA69
:102A4000314237490B68C3F898200A684068C2F8D9
:102A50009C000868C068096840F02000C8607047A2
:102A60002F4A136818621068416211680120C1F88A
:102A700090001068D0F8940010F0010F09D000BF4A
:102A800000BF00BF00BF1068D0F8940010F0010F25
:102A9000F5D110F0060018BF4FF0FF307047204806
:102AA0000168C968006821F02001C16070471C48B6
:102AB0000168C968006841F01001C1607047A3F166
:102AC000050C174B10B41C68C4F888C0D3F800C0BC
:102AD000CCF82000186842621868816219680120E9
:102AE000C1F880001868D0F8840010F0010F09D0F8
:102AF00000BF00BF00BF00BF1868D0F8840010F00E
:102B0000010FF5D110F0060018BF4FF0FF3010BCD8
:102B1000704700009092010040003412010034120E
:102B20009492010003480168C968006821F010010F
:102B3000C160704794920100234810B502680221D9
:102B40001165026801211166036810225A67036843
:102B500041F206025A66036800229A660268C2F8C9
:102B6000881002689021C2F884100168D1F884109E
:102B7000026841F00101C2F8841002684FF48171CB
:102B8000116600680166032000F047F80021032069
:102B900000F01FF8002010BD10B5032000F048F829
:102BA00009484FF4807102681166026800211166BD
:102BB000026810219167006802214165002010BD64
:102BC00002490020087070478092010038400020C0
:102BD000704700F00303DA004FF0FF0C0CFA02F22A
:102BE0004FF0050C0CEBC303994000F00C030028D8
:102BF00008DA304800681844436911409343194388
:102C0000416170472C4800681844D0F800331140E7
:102C100093431943C0F80013704700F01F010122CD
:102C200002FA01F1244A4009126842F82010704764
:102C300000F01F01012202FA01F11F4A4009126847
:102C400002EB8000C0F88010704700F01F010122E5
:102C500002FA01F1184A4009126802EB8000C0F83C
:102C60008011704714490968086070471249096863
:102C7000C1F88000704710480068006870470E492E
:102C80000968C1F8800170470A4800688068704789
:102C900008490A6892680968886010467047054AC2
:102CA0001268926800F1100352F8230042F82310D2
:102CB00070470000709201006C92010002210C200C
:102CC000FFF787BFC64801688A68C64903680A4398
:102CD0009A600268D26800681143C1607047C048BA
:102CE00001688968026821F4805141F00D7141F05A
:102CF000805191600168C968006821F4805141F0F9
:102D00000D7141F08051C1607047B74982B00868C9
:102D1000006F10F4007F1CBF4FF47A70009014D045
:102D2000421E009230B10868006F10F4007F18BF97
:102D30001046F5D16420009003E00868006F019010
:102D40001046421E00920028F7D10868006F10F468
:102D5000007F03D10A684CF271001066096842F2E4
:102D60004130886602B070479F494FF40D520B689E
:102D70009A660A68126F0B68DA66002808BF01209D
:102D800080B24FF05C5242EA00200A68506609683F
:102D90004FF01140C1F88000B7E7934982B008684E
:102DA000006F10F4007F1CBF4FF47A7301931CD0A6
:102DB0000198421E019220B10868006F10F4007F54
:102DC000F6D10868806E10F0010F0ED00868D0F8B8
:102DD0008400CDE900030198421E019228B10868E1
:102DE000D0F88400009A9042F5D009684FF40D5055
:102DF000886602B070477A480068806810F4805096
:102E000008BF704778480068806E00F00100704786
:102E100075480068406EC0F30F2070477248006824
:102E2000D0F88400704710B50C20FFF70EFF0C207F
:102E3000FFF7F3FE6C4902200968486710BD6A4934
:102E400010B50968032088670C20FFF7F1FEBDE884
:102E500010400C20FFF7F9BE644A11681060084664
:102E60007047614810B50168096F0068C1665F4826
:102E70000068002818BF80475D48016841F4805110
:102E8000016010BD594840687047554810B5016849
:102E90008A68544903680A439A600268D2680068E5
:102EA0001143C160504C0320216888670C20FFF754
:102EB000BFFE0C20FFF7C9FE00F092F94D4B042035
:102EC0001968C1F8880019684FF6FF70C1F88C00C6
:102ED00072B621684FF40D5088662068006F216833
:102EE000C86621684448486621684FF01140C1F81F
:102EF0008000FFF70AFF19684FF40070086662B699
:102F000010BD10B572B6FFF748FF3A484FF40031D4
:102F10000268116662B60068D0F80402304C0028DE
:102F200041D0324B4FF6FF71081A986021688969C9
:102F3000226801F00F01D26902F00F021144091D4D
:102F4000884047F2305181422DD227490968D1F893
:102F50008410C1F101110A04B2FBF0F040F2C91271
:102F60005043C3E90310B0F57A7F38BF4FF47A704D
:102F7000DFF888C0DCF80810002908BFCCF808008A
:102F8000DCF80410CCF80010DCF80820CCE90120B3
:102F900091421FD9814205D9824201D95A6002E08B
:102FA000586000E0596000F02CF9206880682168C2
:102FB00020F4805040F00D7040F080508860206810
:102FC000C068216820F4805040F00D7040F08050BF
:102FD000C86010BD8142E5D88242E1D8DEE700003A
:102FE00090920100001034129C9201003C4000209D
:102FF000304000209892010000FFFF376847002012
:10300000134801688968134A0068114381601248B7
:1030100001684969026841F40071516101680969F8
:10302000026841F00401116101680969006841F01A
:103030001001016170470849096888607047BFF353
:103040004F8F054905480968C860BFF34F8FFEE7F9
:103050009092010004003412709201000400FA05FD
:10306000254801688968254A006811438160244821
:1030700001684969026841F0010151610168096B09
:10308000204A21F440511143026811630168096A22
:10309000036821F00F021C490A431A621B4B8A1E67
:1030A0001B68C3F8C42000680165704714480068B5
:1030B000006900F0700070471148154902681163FB
:1030C0000268144951630168496C026821F40031B7
:1030D00051640168496C40F2FF3211430268516447
:1030E0000168496C006821F48031416470470448EC
:1030F000006840687047000090920100040034129C
:103100008492010000205FA003005FA08C92010068
:10311000C08C5FA095995FA0022824BF0020704753
:10312000B84B53F8202043F820101046704770B574
:10313000B54C2068006FB34D10F0010F06D0216828
:103140000120C8662868002818BF80472068006FE3
:1031500010F0020F08BF70BD02202168C8666868C1
:10316000002808BF70BDBDE870400047A74810B5F3
:1031700001688A68A64903680A439A600268D268AF
:1031800011430268D160A04902220B681A65D1F888
:1031900000C00123CCF86030D1F800C00323CCF884
:1031A0006C3009684A6501688968026821F080010D
:1031B00041F00D7141F0805191600168C96800686B
:1031C00021F0800141F00D7141F08051C160092072
:1031D000FFF723FD0221BDE810400920FFF7F9BCED
:1031E0008A4801688A688A4903680A439A600268C3
:1031F000D26800681143C1608349022009680865EC
:1032000070478149022009684865804801688968DB
:10321000026821F0800141F00D7141F08051916010
:103220000168C968006821F0800141F00D7141F02A
:103230008051C1607047754800688068C0F3C01055
:10324000704771480168096F11F4007F04D000686D
:103250004FF440710166704700684FF48071016659
:10326000704710B5684C2068C06F10F0020F4FF027
:10327000010018BF03202168486700F0F3F8634994
:103280000A689269096802F00F02D040C969226891
:1032900001F00F01C8400521B0FBF1F04FF40571BA
:1032A0000009C2F8801013F0F6FE5A4A5A4B13F088
:1032B00005FF13F0C3FE2168C1F884002068006F89
:1032C00010F4007F04D021684FF44070086610BDF0
:1032D00021684FF48070086610BD4B480168096F83
:1032E00011F4807F04D000684FF44071016670478C
:1032F00000684FF4007101667047434B30B41A68A0
:10330000D26F12F0010F1DBF4FF0030C1A68C2F804
:1033100074C0022204BFD3F800C0CCF874204FF070
:10332000020C00EB4005C5EBC0104FF49674C1EBE6
:10333000C0004C4300EB8000384904EB4010A1FB77
:10334000001032490022C0080C68A469096804F022
:103350000F04C96901F00F012144C8400521B0FBE9
:10336000F1F0B0F5803F05D3511C4008CAB2B0F56A
:10337000803FF9D242EA0C211A6841F01001C2F8EC
:1033800088101968C1F88C001868006F10F4807FED
:1033900005D019684FF44070086630BC7047196852
:1033A0004FF40070086630BC704717480168096F19
:1033B00011F4003F04D000684FF4403101667047BB
:1033C00000684FF48031016670470F480168096F4B
:1033D00011F4803F04D000684FF44031016670471B
:1033E00000684FF400310166704707480068006FBD
:1033F000C0F30020704704480068006FC0F340200D
:103400007047000050400020989201009092010007
:10341000800034127B14AE47E17A843FCDCCCCCC13
:10342000244900200A6890600968086022494860C1
:10343000704710B51F4C21684860216800208860E3
:103440000221401EFFF7C5FB21680720086010BD60
:103450001849002009680860704717480188491C0E
:10346000018070471448806870472DE9F041124C84
:10347000002705462780A0684FF47A71B0FBF1F071
:103480000C4E401E31684860306887600221C81EBB
:10349000FFF79FFB3168072008602188A942FCD311
:1034A00030680760BDE8F0810449484302498860FC
:1034B00070470000689201005840002040420F0011
:1034C000704770B52C4C05464FF40D502168886646
:1034D00021680320C86621682848486621684CF2A4
:1034E0007100086621682648C1F88000216842F210
:1034F0004630886602210020FFF76BFB0020FFF7B3
:103500008CFB002D08BF70BD2068806E42F24131F7
:1035100008432168886670BD174810B5026801210C
:10352000916700684FF40D5181660020FFF780FB22
:10353000BDE810400020FFF788BB0F490120096853
:10354000486770470C4901200968886770470A4935
:103550004CF27100096808667047074881B04CF268
:103560007101026811660168096F0268D16600681E
:10357000006F009001B0704778920100073839372A
:10358000009C1C9170B5FE4E00244FF48061347095
:103590007470FC4811F075FD4FF48061FA4811F029
:1035A00070FDFA4DB460B4702C606C60AC60EC607F
:1035B0002C616C61AC61EC612C626C62AC62EC629F
:1035C0002C636C63AC63EC632C646C64AC64EC647F
:1035D0002C656C65AC65EC652C666C66AC66EC665F
:1035E000F470582105F1700011F04BFD582105F1E0
:1035F000C80011F046FDF4603471C5F87841C5F893
:103600007C41C5F88041C5F88441C5F88841C5F8BA
:103610008C41C5F89041C5F89441C5F89841C5F86A
:103620009C41C5F8A041C5F8A441C5F8A841C5F81A
:10363000AC41C5F8B041C5F8B441C5F8B841C5F8CA
:10364000BC41C5F8C041C5F8C441346170BDCC4827
:103650008078002818BF01207047C94800790028E9
:1036600018BF01207047C648C078002818BF012045
:103670007047C3484078002818BF01207047C048F1
:1036800000697047BE48C06870472DE9F041BC4FE3
:1036900080463878002814BFBD48BE48057814BF5E
:1036A000BD48BE48047805FB04F6FFF735F821460F
:1036B0002846FFF7A9F8B44A4346A2F580610846B8
:1036C000FFF7D1F8FFF73BF872004146AE4811F022
:1036D000DDFC01207870BDE8F081A9488068704762
:1036E0002DE9F04FA64CADF2344D94F801A094F8BA
:1036F000029094F803802779FDF7D8FDCDF82C04CB
:10370000FDF7A5FFCDF82804FDF7D2FD0020FDF759
:1037100084FACDF82404FDF7B8FF0026CDF818642C
:1037200004F03FF9012811D00DF58060FEF728F96B
:10373000002800F06F810DF5806004F0B4FEDDF824
:10374000080410B3B9F1000F05D01EE00120CDF838
:10375000180400F062B90546FEF7DEFF904C012127
:103760002078FFF751F88F4A2B46A2F1380108461E
:10377000FFF779F8FEF7E3FF2078294642008948F1
:1037800011F084FC7E4901208870DDF804040028D3
:1037900070D0BAF1000F6DD1DFF8E4B104469BF8A8
:1037A000000000283DD1DBF8085025B378480078A8
:1037B000CDF8200478480078CDF81C04FEF7ACFF63
:1037C000DDF81C14DDF82004FFF727F821462A460F
:1037D0000846FFF782F8FEF7B2FF73480078022828
:1037E00004BF284604F048FB6F480078092804BF4E
:1037F000204604F041FB6D480078012811D96A4D3C
:103800002878042804BF204604F036FB2146684689
:1038100012F0CAF904462878052804BF684604F067
:103820002BFBCDF81C449BF80000002814BF58481F
:103830005848047814BF58485848057804FB05FBDD
:10384000FEF76AFF29462046FEF7DEFF4E4ADDF806
:103850001C34A2F580610846FFF705F8FEF76FFFFC
:103860004FEA4B024848DDF81C1411F00FFC4449A4
:1038700001204870DDF8100400284ED0B8F1000F88
:103880004BD1DFF8FCB004469BF8000038BBDBF8F6
:103890000C5025B346480178464800780844401C3F
:1038A0004008019002200090FEF736FFDDE900108D
:1038B000FEF7B3FF21462A460846FFF70EF8FEF74B
:1038C0003EFF3D480078022804BF284604F0EAFB8A
:1038D00039480078092804BF204604F0E3FB254658
:1038E00033480178334800780C18FEF715FF601C48
:1038F00040080221FEF788FF304A2B46A2F158010A
:103900000846FEF7B0FFFEF71AFF620029462B4873
:1039100011F0BCFB01208BF80300DDF81404002833
:1039200070D0002F6ED1DFF858B004469BF800002D
:1039300028BBDBF8105015B32148017840780844C3
:10394000401C4008019002200090FEF7E5FEDDE9F2
:103950000010FEF762FF21462A460846FEF7BDFF2B
:10396000FEF7EDFE10480078022804BF284604F058
:103970009BFC0D480078092808BF204622E024E07F
:103980006440002074470020744B002074530020D2
:10399000814000207E400020824000207F400020A7
:1039A00085400020AC530020F940002080400020DA
:1039B0008340002084400020FE4000203C54002032
:1039C0008640002008BF04F06FFC2546F4480178CB
:1039D00040780C18FEF7A0FE601C40080221FEF79C
:1039E00013FFF04A2B46A2F128010846FEF73BFFE1
:1039F000FEF7A5FE62002946EA4811F047FB0120C8
:103A00008BF80400FDF7F2FF761C032E05D2FDF7BC
:103A10003CFE85E600F0B0FE82E6FDF749FCDDF8ED
:103A20002404FDF7FAF8DDF82C0438B1DDF8280499
:103A300010B1FDF72AFE01E0FDF70FFEDDF81804D6
:103A400038B1D94880F801A080F8029080F803804E
:103A50000771DDF818040DF2344DBDE8F08F10B594
:103A60000024FDF7F1FDD04910F0020F0AD04A788A
:103A7000002A08BF012410F0040F03D08A78002A1E
:103A800008BF012410F0010F18BF10F0100F03D071
:103A9000CA78002A08BF012410F0200F03D008794B
:103AA000002808BF01240020002C08BF10BD002002
:103AB0000870BDE8104013E608B50F2100F0FEFEC7
:103AC000012804D1FFF7CBFF009001F068F8B64859
:103AD000417800291CBFC178002906D0017900294E
:103AE0001FBF80780028012008BD002008BD08B550
:103AF0000F2100F0E3FE012804D1FFF7B0FF009092
:103B000001F04DF8A848417800291CBFC178002970
:103B100006D0017900291FBF80780028012008BD48
:103B2000002008BD7047A048002141708170C1701D
:103B3000017170479C480078002814BF9B489C483E
:103B4000017814BF9B489C48007801FB00F09B491A
:103B50004FEA400201F5806011F08EBA2DE9F0477E
:103B6000914F814608983978002914BF8F499049B0
:103B70000D78A0EB030805FB08F603FB05F4FEF740
:103B8000CBFD41462846FEF73FFE8D4809EB440534
:103B900000EB4408A0F5806C0CEB44012B46424638
:103BA0000846FEF760FEFEF7CAFD72002946404651
:103BB00011F06CFA01207870BDE8F0877F487047FB
:103BC0002DE9F047784F044601463878DFF8ECC11C
:103BD000DFF8D881DFF8D891764D774E002815BFF1
:103BE00098F8002099F800202B78337802FB03F036
:103BF0004FEA4002604611F049FA3878DFF8C0C158
:103C00002146002815BF98F8002099F800202B784D
:103C1000337802FB03F0BDE8F0474FEA400260460C
:103C200011F034BA002818BF01205F49487070476E
:103C300010B55D4C002804BFA06010BDDFF884C142
:103C40005A490B785B490A7801465A43520060464C
:103C500011F01CFA5B48A06010BD5B485B4900781E
:103C6000420001F1380011F007BA5848704770B5AA
:103C7000554C0546014622785448520011F006FA88
:103C800022782946BDE870405200514811F0FEB933
:103C9000002818BF01204449887070474D480178BA
:103CA0004D48007808444D49420001F1580011F098
:103CB000E3B94A48704770B5464E474D0446014641
:103CC00032782878454B10444200184611F0DEF94E
:103CD000327828782146BDE87040414B10444200BC
:103CE000184611F0D3B9002818BF01202E49C8701A
:103CF000704710B52C4C002804BFE06010BDDFF801
:103D0000E4C034490B7834490A7801461A44520019
:103D1000604611F0BBF93348E06010BD20480178DF
:103D2000407808443049420001F1280011F0A4B95C
:103D30002D48704770B51A4A0546107851784218D8
:103D4000520014462946284811F0A0F92246294677
:103D5000BDE87040134811F099B9002818BF012040
:103D600011490871704710B50F4C002804BF20613D
:103D700010BD0B490A78497811444A0001461B4896
:103D800011F084F91948206110BD0749002200286C
:103D90004A708A70CA700A7118BF012008709FE4C7
:103DA00086400020145500206440002081400020FF
:103DB0007E400020824000207F4000207447002089
:103DC000744B0020744F0020854000207453002065
:103DD000AC5300208340002084400020E4530020A6
:103DE0003C54002094540020EC5400203C5500200A
:103DF0002DE9F00F0023B0F90050B0F902C01E46C3
:103E0000A5EB0C02984699461C461F46002AB8BFEF
:103E1000ACEB05021FFA82FA00EB410232F902CC48
:103E200032F9045CACEB0502002AB8BFA5EB0C022A
:103E300092B2BAF1080F2DBF082A4FF0000A4A1EAD
:103E40004FF0010A28BF8A1E0FFA82FC5246E24553
:103E500027DC30F912504545C4BFA846D7B25245B9
:103E60001BDD00EB420B3BF902BCABEB0505ED1D86
:103E70000E2D03D85B1CDBB262450ED19E420BD2E5
:103E80001E46624503D10E2D98BF54B201D9541E6F
:103E900064B2A31B4FFA83F90023521C92B29445DB
:103EA000D7DA081F864206DDB945DFBFA7420020EA
:103EB000BDE8F00F70470120BDE8F00F704770B506
:103EC000FF4AFE4906461478097800EB4402104682
:103ED000FFF78EFF054621463046FFF789FF002297
:103EE000F849002D1CBF00280A7008D10878401C32
:103EF000C0B208700A2882BF0A70002070BD01207D
:103F000070BD2DE9F34F93B00DA8139A099002A844
:103F10000790EA48CDF820D04FF0000800780390D1
:103F20000690E7480DF1040E474603780493B2F972
:103F3000006032F9134001203546A446ADF8343014
:103F4000ADF80080ADF80430ADF80880012B2ADD13
:103F500032F91090B145C8BF4E46A94504DA4D4626
:103F6000DDF81C90A9F8000002EB400932F910A01E
:103F700039F902BCABEB0A09B9F1000FB8BFAAEBE3
:103F80000B090FFA89F9C14509DDC846D345D4BFED
:103F90008146A0F10109DDF820A0AAF80090401C9C
:103FA00000B28342D4DCDDF81890581C00B209EB53
:103FB000030B834525DD32F91030A342C8BF1C46F0
:103FC0006345BCBF9C46AEF8000002EB400332F9EB
:103FD000109033F902ACAAEB0903002BB8BFA9EB90
:103FE0000A031BB2BB4208DD1F46CA45D4BF0346C5
:103FF000431EDDF82490A9F80030401C00B2834530
:10400000D9DCB148A4EB0C0C0268012092F81F31F6
:104010009C45C4BFA6EB050C9C4505DD92F81E31FE
:10402000BB42B8BF43451FDB099BB2F91C21B3F962
:1040300000C031F91C309A4216DBBEF900C0534271
:1040400031F91CC09C450FDBDDF820C0BCF90040F5
:1040500031F914C0624507DB079AB2F900C031F9A3
:104060001C209A42A8BF00200B90012840F0EB8052
:10407000BDF93400139C0990BDF900000C90BDF906
:1040800004001190BDF908001090DDE9030B5844BD
:104090000A90401E00B2CDE907B00E46ABF1010018
:1040A000002100B2CDE9051009988A46D14634F9BD
:1040B00010000F900C98D046574634F91000049128
:1040C00003910E90FFF7F5FD05460C9800280BDBD9
:1040D00034F910200E99B2EBA10F01DA059003E03C
:1040E000401E00B20028F3DA0C9858450BDA34F978
:1040F00010200E99B2EBA10F01DA069003E0401CEC
:1041000000B25845F3DB099883450BDC34F91020E5
:104110000F99B2EBA10F01DA079003E0401E00B245
:104120008345F3DDDDE9090181420CDD34F910201E
:104130000F99B2EBA10F01DA089004E0401C0A9934
:1041400000B28842F2DBDDE9071081422DDA06EB8E
:10415000410036F91120B0F90230D01A0028B8BF5A
:10416000981A049A104400B2049005EB410035F906
:104170001120B0F90230D01A0028B8BF981A039A5B
:10418000104400B2039004EB410034F91120B0F95F
:104190000230D01A0028B8BF981A50440FFA80FA9B
:1041A000481C01B208988142D1DBDDE90501884253
:1041B0002ADA06EB400136F91020B1F90230D11AA3
:1041C0000029B8BF991A41440FFA81F805EB400164
:1041D00035F91030B1F90220991A0029B8BFD11A67
:1041E00049440FFA81F904EB400134F91020B1F988
:1041F0000230D11A0029B8BF991A39440FB2401CB5
:10420000069900B28842D4DBDDE90301401AB0EB25
:104210006A0FDCBFA9EB0800B0EB670F10DC07F0FA
:1042200007FD80B9119835F9101027480068B0F9DA
:104230001C01814204DC109935F91110884202DA20
:104240004FF0FF300B901398FFF739FE002806BFA0
:104250004FF0FF300B900B9815B0BDE8F08F2DE9B3
:10426000F04FDFF86490064685B0D9F8000090F86A
:10427000241100291CBFB0F8380100280AD0FDF72E
:104280002AFAD9F8001091F82411B0FBF1F201FBE1
:10429000120018B105B00120BDE8F08F01F0B2FDA9
:1042A0000546FFF7EFF90446D9F80000002DB0F9F4
:1042B00038110491B0F93A7174D007E083400020BE
:1042C000844000207840002078410020FE4800789B
:1042D000102804BF284603F0E5FEFC484FF0000814
:1042E0000378FB480278A4B1002103EB020CBCF177
:1042F000000F84BFD9F80000B0F8289109D934F92B
:10430000020B0028B8BF404248454DDC491C8C4593
:10431000F5D8CDE90082C6460020CDE902235DF83C
:1043200020A002AA06EB4A0352F820B033F9024B50
:104330004FF000080121C146A446BBF1010F0CD982
:1043400033F9022B9442BCBF144689469445C4BF3E
:1043500094468846491C8B45F2D8A4EB0C010AB25E
:1043600004998A421BDB0AEB09010AEB080335F8C2
:10437000111035F81330C91A511A09B20029B4BF07
:104380004B420B46002AB8BF5242934207DA00293B
:10439000B8BF4942B94202DAF04605E002E0401CEB
:1043A0000228BCD34FF00108B8F1000F08BF01F09C
:1043B000BCFD404605B0BDE8F08F2DE9F74F04463F
:1043C000C4484FF0000882B00578C3484FF0060992
:1043D00047460078C2464646C3460090FFF7EEFBCC
:1043E00086460098002200282ED90021002D26D9CB
:1043F00002FB051080B234F910000028B4BF43421C
:104400000346B3EB490F16DD0028DCBF08F10103BA
:104410000FFA83F8B8BF4342C4BF7B1C1FB200DB56
:1044200003469A4507DA0028ACBF034643420FFA19
:1044300083FA16468B46481C81B2A942D8D3501C39
:1044400082B200988242D0D306FB05B0009034F9C6
:104450001020A5F101094FF0000C1FFA89F35FEA63
:104460000B0020D006FB050189B2002A0CDD34F9CF
:1044700011A004EB410131F9021CBAEB01010ED588
:10448000401E1FFA80FC0EE009DA34F911A004EB9B
:10449000410131F9021CAAEB01010029F0DC401EA8
:1044A0000004000CDED1CB4520DA06FB05B080B25B
:1044B000002A0BDD34F9101004EB4000B0F90200C3
:1044C000081A0DD50BF1010083B20FE008DA34F9B8
:1044D000101004EB4000B0F90200081A0028F1DCCB
:1044E0000BF101001FFA80FBCB45DEDB57EA080029
:1044F00004BF05B0BDE8F08F17B9B8F1000F5EDC5E
:10450000009806FB053281B206FB05C080B2039D10
:10451000039B3EF8104035F8100092B23EF911C0EE
:10452000039F33F811103EF8125037F812200CEBAD
:1045300001032618081A891A1BB20844AF18991BE0
:10454000DA1B11440AB2ACEB0401ACEB050400B277
:10455000214409B20028B4BF44420446002AB4BF33
:1045600055421546641B2FD5002AB8BF5242002879
:10457000B4BF44420446121B0028B4BF4442044660
:104580000029B4BF4D420D46641B26D50029B8BF93
:1045900049420028B8BF4042081A82420FDC03F1AA
:1045A0001E000028B8BF4042BCF1000FB8BFCCF1DC
:1045B000000C6045A2BF012005B0BDE8F08F4FF0B0
:1045C000FF3005B0BDE8F08F0028B4BF4442044678
:1045D000002AB8BF5242A21ACEE70028B8BF404214
:1045E0000029B8BF4942401AD7E72DE9F05FDFF84C
:1045F000ECA080460026DAF80000374690F8241137
:1046000000291CBFB0F8300100287CD0FDF763F80A
:10461000DAF8001091F82411B0FBF1F201FB12005E
:10462000002870D101F076FB5FEA00096BD02C48BE
:104630000078102804BF484603F01EFC25484FF0C0
:10464000000C444690F800B02348634690F800E020
:10465000BEF1000F19DD34F9020B0125BBF1010F8A
:1046600010DD34F9022B101A01B20029B8BF4942FB
:1046700008B2604502DD84461E462F466D1C10467A
:104680005D45EEDB5B1C7345E5DBDAF80020B2F834
:104690003001844537DB06FB0B7008EB400338F82C
:1046A000101033F8023CC91A39F8103009EB4000F9
:1046B00009B230F8020C181A081A00B20028B4BF68
:1046C0004342034600290EE0FE40002083400020C4
:1046D000844000207E4000207F4000207841002060
:1046E000F94000200FE0B8BF49428B420BDA0028A6
:1046F000B8BF4042B2F83211884204DA01F015FC2A
:104700000020BDE8F09F0120BDE8F09F10B505F046
:10471000ADF805F024F9002010BD0000FE48007837
:104720007047FD480078022805D005281CBF0020EE
:10473000704704F03FB807F095B9F7490870704723
:1047400010B50446062828BF10BDDFE800F01203AC
:10475000070F120B084600F02FFA0AE0084607F090
:1047600075F906E0084604F019F802E0084606F07C
:1047700015FFE948047010BDE84900200968B1F848
:10478000641011F4807F08BF7047FDF766BDE349F0
:1047900000200968B1F8641011F4807F08BF7047E9
:1047A000FDF770BDDD4900200968B1F8641011F40F
:1047B000007F08BF704710F071BDD849002009681C
:1047C000B1F8641011F4806F08BF704710F0A6BDF7
:1047D000D149487800281CBF401E4870704770B50A
:1047E000CF490868D0F8CC00CB4C10F0030F0BD0A9
:1047F000096840F4BE0040F02040C1F8C80060786D
:10480000002804BF01206070C64800688068C34D5E
:1048100010F0020F296807D1C3480068406910F002
:10482000010F01D0607840B1B1F86410002011F49C
:10483000807F18BFFDF726FD07E0B1F86410002067
:1048400011F4806F18BF10F069FDB849084208BF25
:1048500070BD2968496E090C617070BD10B572B6E3
:10486000FEF75AFEBDE81040FEF7E9BB10B54FF465
:104870002F30FDF7BAFD72B6FEF74EFEBDE81040D0
:10488000FEF7DDBBA44800697047A348C0687047C5
:10489000A14948617047A048406970479E498861B6
:1048A00070479D48806970479C48026802F5B07364
:1048B000118A508A02F5A072FCF75FBF2DE9F04F14
:1048C000DFF8549295B08A46C9F8100004F02BFF27
:1048D000C9F80C0000287CD090F800C089F802C00C
:1048E000417889F80310837804460CF1010089F8B7
:1048F000043000F0FE0089F80500E27889F806200F
:10490000207989F80700607989F8080009F10A051B
:10491000A0792870E0796870207889F809006046ED
:10492000FDF702F899F8081099F80700FDF717F855
:1049300069782878FDF71DF86946204604F010FFD5
:10494000608AD9F8145000281CBF6843050BB4F8DE
:104950001A80D9F81860B8F1000F08BF4FF48058DA
:10496000678C002F08BF4FF4805700201AF0020F09
:1049700018BF11201AF0040F18BF40F00A001AF0F7
:10498000080F18BF40F004001AF0010F18BF40F0E4
:104990002000616A01EA000A0098109004981190C2
:1049A000089812900C9814900198139010A95046F2
:1049B000FCF76DFD1AF0020F66D004F0CEFB5FEA43
:1049C000000B2AD004F0E0FB6843050B5946002099
:1049D00000E015E0FCF74DF9218A00291CBF0020FA
:1049E000FCF795F904F0F0FB7043000B00F5006054
:1049F000010A0820012202FA00F30B4215D112E04D
:104A000046480068B0F8640010F4807F18BFFDF7D6
:104A100039FC002015B0BDE8F08FB4F80CB0BBF144
:104A2000000FD3D1D8E7401EE5D5061FA07B002894
:104A300018BFA0F1010B02D1FCF7E7F98346E07B38
:104A4000002814BF401EFCF70FFA0BEB06010429E7
:104A500003DD711A0E1D042103E00029BCBF761A84
:104A600000210644042E03DD301FC540042604E067
:104A7000002E02DA7042854000260020FCF7DBF9A8
:104A800031460020FCF706FA1AF0010F23D0A18A64
:104A900000291CBF0120FCF7ECF8268B3EB1314603
:104AA0000120FCF734F931461120FCF730F9A67DDE
:104AB0003EB1711E0120FCF7BEF9711E1120FCF7FA
:104AC000BAF9E67D3EB1711E0120FCF7E3F9711ED3
:104AD0001120FCF7DFF91AF0200F30D0A18B00294C
:104AE0001CBF0220FCF7C5F8268C3EB131460220DF
:104AF000FCF70DF931461220FCF709F9A67F3EB10B
:104B0000711E0220FCF797F9711E1220FCF793F931
:104B1000E67FA6B1711E0BE07C40002078410020AA
:104B20008C92010090920100849201000800030021
:104B30000220FCF7AFF9711E1220FCF7ABF9E07A06
:104B400000281CBF0001FCF70EF8029803F03DFF9F
:104B5000039830B12B4699F8032099F8021003F01E
:104B60003FFF3A464146284603F0A4FF0598FFF769
:104B70005FF8069801F04AF81AF0100F05D009986E
:104B8000FFF7B7F80A9801F0D0F80D98FFF7EBF8A7
:104B90000E9801F042F915B00120BDE8F08F10B574
:104BA000FCF71DFD03F019FF02490020C860012039
:104BB00010BD00007C400020FE4948707047FD4851
:104BC00040787047FC4810B4FC4A0168914218D103
:104BD0004168B1F5887F14D80022D0F808C0034698
:104BE0001146B2EB9C0F24BF10BC704753F8214014
:104BF000491C2244B1EB9C0FF8D3002A04BF10BC1F
:104C00007047002010BC7047EB48FDF7EEBBE94948
:104C1000012048707047E7490020087070472DE96F
:104C2000F34FDDB000208A4646904D904C9072B60E
:104C3000FCF70AFD8046FEF7FEFA48B1FEF7D5FB09
:104C40004D90FEF7B2FBFEF7D6FB4C90FEF7BDFB96
:104C5000FCF70EFCFCF72AFB5690FCF7F8FC55908D
:104C6000FCF726FBFEF7C7F85490FEF796F84FF4D2
:104C70009350FEF704F862B60020814630AF47F843
:104C80002090401C0628FAD3CD4E18F0020F4FF0AA
:104C9000010407D0309430684FF4E76100F580409C
:104CA00010F0EFF9C64A44F2387018F0010F12689C
:104CB00002EB000510D04FF4E071284610F0E1F946
:104CC0000120FBF72FFB002818BF32941120FBF7BF
:104CD00029FB002818BF339418F0200F10D04FF490
:104CE000E071284610F0CDF90220FBF71BFB0028ED
:104CF00018BF34941220FBF715FB002818BF359419
:104D0000DFF8C0B2DFF8AC82309868B30020FCF75F
:104D10006FF800909BF800008DF80400AA48007816
:104D2000012894BFA948AA4800788DF80500002002
:104D3000FCF726F9002818BF4FF0FF3003908DF8DC
:104D400006A0B8F80400ADF808000020FBF7FAFF51
:104D5000ADF80A00306800F5804005903068069094
:104D6000306800F50050079031984FF0FF0A48B3C3
:104D70000020FCF73DF808909BF800008DF8240017
:104D80008DF82540CDF82C908DF826A0B8F80400B9
:104D9000ADF828000020FBF7D5FFADF82A009DF8FC
:104DA00005003268C0EBC00102EBC10101F5804192
:104DB0000D919DF80410484302EB40000E9000F561
:104DC00000500F90DFF80C92DFF80CB2329870B3FD
:104DD0000120FCF70DF81090FBF771FD00280CBFC7
:104DE0009BF8000099F800008DF844000120FCF7C2
:104DF0000CF804FA00F08DF845000120FCF7B2F839
:104E0000C04313908DF846A0B8F80600ADF84800EE
:104E10000120FBF797FFADF84A001595306842F284
:104E2000204100F58460169030680844179033984C
:104E300090B31120FBF7DCFF1890FBF740FD002832
:104E40000CBF99F800009BF800008DF86400112059
:104E5000FBF7DBFF04FA00F08DF865001120FCF78A
:104E600081F8C0431B908DF866A0B8F80600ADF835
:104E700068001120FBF766FFADF86A00306844F265
:104E8000A87108441D90306842F2206100F5C460AA
:104E90001E90306808441F90504D349858B302203B
:104EA000FBF7A6FF209028788DF884000220FBF7FE
:104EB000ACFF04FA00F08DF885000220FCF752F8F0
:104EC000C04323908DF886A0B8F80600ADF888009E
:104ED0000220FBF737FFADF88A00306844F618016E
:104EE00008442590306842F6A01100F51A6026901B
:104EF000306808442790359858B31220FBF778FFA4
:104F0000289068788DF8A4001220FBF77EFF04FA41
:104F100000F08DF8A5001220FCF724F8C0432B9078
:104F20008DF8A6A0B8F80600ADF8A8001220FBF78F
:104F300009FFADF8AA00306844F6880108442D90B6
:104F4000306842F6E02100F52E602E90306808446B
:104F50002F900120FCF7B7FF0120FCF727F85990AC
:104F60000020FCF7EAF958900020FCF7DBF9579095
:104F70000020FBF752FE5A90FCF787FB0020489078
:104F8000499037903E904698002840F0C98302F03F
:104F900008FD012800F0C4834998802800F2C083EE
:104FA00040A8FCF7EDFC002800F0B48340A803F013
:104FB0007AFA15E09840002000AF020054435246B0
:104FC000A092010081400020804000207F4000200E
:104FD0008240002083400020844000208640002042
:104FE0004898401C489000F09083002048904998D1
:104FF000401C4990002038AA012142F82010401C92
:105000000628F8D33798002808BF369013D0012817
:1050100004BF0020369000F0E580022804BF002085
:10502000369000F01482032804BF0120469000F05F
:10503000468300F075BB369930A850F8210000284F
:1050400000F0C880369A684600EB42100022479272
:1050500007794279D0F800803F92B0F90860426940
:105060004B923E998269C068C1F104054A90F9B13A
:10507000002D7CDB3F984FF00009002860D905F136
:105080000800012101FA00FBE81D01FA00F0509030
:1050900001234A9803FA09F1084018BF01200021B2
:1050A00051904B98C9EBC9038C4600EBC30A80E0D2
:1050B0003F984FF00009002842D901214A9801FA8F
:1050C00009F3034214BF4FF0010E4FF0000E002011
:1050D0004B99C9EBC903844601EBC30A29E00121BE
:1050E000814011EA080F21D041084E915AF821B0B1
:1050F000C107CC0E2BFA04F132F9023B0CF1010C82
:105100009B1B89B2BEF1000F18BF5B42002BC8BFCA
:1051100041F4805141F400614FF6FF73A3402BEA44
:105120000303A1400B434E994AF82130401C1C2830
:1051300001D2BC45D3D33F9809F101098145BCD3C5
:105140003FE00120884010EA080F2FD048084F9018
:105150005AF82000CB07DC0E4E90E04032F9023BBB
:105160000CF1010C80B29B1BDDF844E100E02CE067
:10517000BEF1000F18BF5B4210F4805F02D0002B1D
:1051800004DA01E0002B01DD20EA0B00002DC4BF92
:10519000509B18434FF6FF7E0EFA04FE4E9BA04034
:1051A00023EA0E0303434F984AF82030491C1C2978
:1051B00001D2BC45C5D33F9809F101098145FFF4EF
:1051C00067AF002D04BF0120479038A9369A479851
:1051D00041F822003698401C36900628FFF42BAF89
:1051E00000F06DBA369930A850F82100002800F080
:1051F0002681369A684600EB421000224E920479CE
:105200004679837905684793B0F9088042694A92E4
:10521000C368826950934089479B3E991840C1F109
:1052200008074F90E9B1002F77DB4FF0000A002EFE
:1052300072D90120B8404B90781E012101FA00F08C
:1052400053900123509803FA0AF1084018BF012037
:1052500000213F904A98CAEBCA038C4600EBC30B6F
:1052600095E04FF0000A002E56D90123509803FA1A
:105270000AF1084018BF012000213F904A98CAEB6C
:10528000CA038C4600EBC30B40E001208840284253
:1052900039D0480851905BF82000CB074FEAD3691A
:1052A0004B9020FA09F032F9023BDDF8FCE00CF1FA
:1052B000010C80B2A3EB0803BEF1000F18BF5B42E4
:1052C00010F4805F09D0002B0EDA10F4706018BF64
:1052D000A0F5807040F4805006E0002B04DD10F44F
:1052E000706018BFA0F5807040F080004FF6FF7E20
:1052F0004B9B0EFA09FE23EA0E0300FA09F0034362
:1053000051984BF82030491C1C2901D2A445BCD32C
:105310000AF1010AB245A8D340E043E001208840E9
:10532000284231D0480852905BF82000CB074FEA62
:10533000D369519020FA09F032F9023BDDF8FCE024
:105340000CF1010C80B2A3EB0803BEF1000F18BFF3
:105350005B4210F4805F02D0002B04DA01E0002BE6
:1053600001DD4B9B9843002FC4BF539B18434FF65E
:10537000FF7E519B0EFA09FE23EA0E0300FA09F0A4
:10538000034352984BF82030491C1C2901D2A445F4
:10539000C4D30AF1010AB245FFF453AF002FC8BFCE
:1053A0004E9848DC4FF0000A002E42D94798C0F5CD
:1053B00080703F90479840F4807B4A990020CAEB68
:1053C000CA03024601EBC3092DE0012181402942B5
:1053D00026D04FEA5008521C59F82870C107CB0E4E
:1053E00027FA03F11FFA81FCDDF8FCE00CF0FF0165
:1053F00001EB5E01DDF83CE101EA0B01714588BF7C
:1054000071462CF0FF0C4CEA01014FF6FF7C0CFAC0
:1054100003FC27EA0C0C99404CEA010149F82810DA
:10542000401C1C2801D2A242CFD30AF1010AB24586
:10543000C3D301204E90369A38A941F822003698FD
:10544000401C36900628FFF4CDAE00F038B93699EE
:1054500030A850F82100002800F02B813E9852908F
:10546000684600EB411000214E910168509101798E
:10547000479141793F918179B0F908904269519201
:10548000D0E906844289C0684F905298C1F5807671
:1054900002EA010710F0010F15D03F984FF0000B02
:1054A00000287DD901214F9801FA0BF2104018BF56
:1054B00001204A905199CBEBCB02002001EBC201B5
:1054C00082464B91E2E00020FBF770FD05464799CC
:1054D0003F984143032000EB410020F00302414686
:1054E00020460FF0D3FD2846FBF760FD3F984FF0B4
:1054F000000B002854D901224F9802FA0BF1084002
:1055000018BF012000214A905198CBEBCB020D46E9
:1055100000EBC20E50E0012000FA01F25098024266
:1055200047D038F9020B6D1CA0EB09034A980028FC
:1055300018BF5B42480853905EF82000CA074FEA44
:10554000D26A4B9020FA0AF082B2C2F3032002F032
:10555000FF0C12F4805F02D0002B05DA01E0002B73
:1055600002DDACEB060401E00CEB0604BC4205DDF9
:105570000F28AEBF3C46401C002406E0002C04DA95
:105580000028C6BF401E3C46002402F4805242EA76
:1055900000204FF6FF72204302FA0AF24B9B00E014
:1055A0007DE023EA020200FA0AF0024353984EF823
:1055B0002020491C1C2902D247988542ABD33F9832
:1055C0000BF1010B834596D369E0012101FA00F24A
:1055D00050990A4257D034F9021B4A9A0AF1010A3B
:1055E000A1EB0901002A18BF494238F9022BA2EBAE
:1055F000090218BF52420029B4BF4B420B46002A91
:10560000B8BF52429A423ED94B9B4208539253F83C
:105610002220C3074FEAD36E5B9222FA0EF293B2B6
:10562000C3F3032203F0FF0C13F4805F02D00029C0
:1056300005DA01E0002902DD0CEB060501E0ACEB28
:105640000605BD4205DD0F2AAEBF3D46521C0025B2
:1056500006E0002D04DA002AC6BF521E3D46002592
:1056600003F4805141EA022129434FF6FF735B9A0C
:1056700003FA0EF39A4301FA0EF142EA01034B9A40
:10568000539942F82130401C1C2802D247998A4580
:105690009BD33F980BF1010B8345FFF403AF529866
:1056A000032826BF01204E904E9838A9369A41F81B
:1056B00022003698401C36900628FFF4C8AE01231D
:1056C000002038A951F8202022B1401C0628F9D327
:1056D000012B02D03E98401C16E037981F2812D2AA
:1056E000401C01463790012000FA01F25D990A4200
:1056F00009D13799491C3791032904D800FA01F2DE
:105700005D990A42F5D000203E90469840B9FBF7DB
:10571000BCFF3CE4FFF73BF8469800283FF437AC69
:10572000FBF7C6FD0020FCF7CEFB5998FBF73EFCCB
:105730005898FBF702FE5798FBF7F4FD5A98FBF7D1
:105740006CFA569830B1559810B1FBF79EFF01E006
:10575000FBF783FFFDF76FFD48B14D98002818BF98
:10576000FDF76FFD4C98002818BFFDF7B6FD549863
:10577000002818BFFDF7C9FA469800280CBF012081
:1057800000205FB0BDE8F08F2DE9F04FADF2047D51
:105790004FF0000807464646CDF8008700F04FB9A5
:1057A000304603F0C0FF002800F04881008900EA7D
:1057B000070424F0CC0030F47C4000F03F810F213E
:1057C0003046FFF77BF8002800F03881FBF73CFFFC
:1057D0000546DDF80007002840F02E8105F00E0098
:1057E000FBF742FE03210020FBF765FBDDF8000715
:1057F000002840F0218114F0010F20D0FF210F205C
:10580000FFF70DFACDF80007FBF752FDDDF80007B2
:10581000002840F01181FFF738F88146EA464FF042
:10582000040B5046FCF7E6F899F92C1052465846FE
:1058300003F0B8FFDDF80007002840F0FD8014F009
:10584000060F35D00120FEF7A0FACDF80007FBF7D0
:105850002FFDDDF80007002840F0EE8014F0020F65
:1058600011D0FEF7ABF98146FFF70FF805235FEA89
:10587000090204D090F92D10184603F093FFDDF8CB
:10588000000700287DD114F0040F11D0FEF796F91F
:105890008146FEF7FAFF06235FEA090204D090F979
:1058A0002E10184603F07EFFDDF80007002868D1AF
:1058B00005F01100FBF7D8FDDDF80007002860D1E6
:1058C00014F0100F1FD0FF210F20FFF7A8F9CDF81B
:1058D0000007FBF7EDFCDDF80007002851D1FEF7CB
:1058E000D4FF8346E9464FF0080A49460120FCF7F9
:1058F000C4F89BF930104A46504603F053FFDDF8D8
:10590000000700283DD114F0600F39D00120FEF7C8
:105910003CFACDF80007FBF7CBFCDDF800070028C8
:105920002FD114F0200F14D015F0100018BFFEF77F
:10593000C0F98146FEF7A9FF09235FEA090204D0F6
:1059400090F93110184603F02DFFDDF8000700280C
:1059500072D114F0400F13D015F0100018BFFEF7ED
:10596000A8F98146FEF791FF0A235FEA090204D0F5
:1059700090F93210184603F015FFDDF8000700B962
:1059800000E045E005F02000FBF76EFDDDF80007C4
:10599000F0BB14F4807F1DD0FF210F20FFF73FF9EB
:1059A000CDF80007FBF784FCDDF8000780BBFEF7AD
:1059B0006CFF81466D464FF00C0A29460220FCF729
:1059C0005CF899F934102A46504603F0EBFEDDF8F6
:1059D0000007E8B914F4107F2ED00120FEF7D5F9A6
:1059E000CDF80007FBF764FCDDF8000780B914F47C
:1059F000007F11D0FEF79CF90546FEF746FF0D2308
:105A00002A0004D090F93510184603F0CBFE00E0D0
:105A100012E0DDF8000778B914F0400F0CD0FEF763
:105A200087F90446FEF731FF0E23220004D090F9D7
:105A30003610184603F0B6FEFFF7B1F8761C03F0F7
:105A40006EFEB04204D9DDF8000700283FF4A8AE8E
:105A5000FE4880F80080DDF8000700280CBF012018
:105A600000200DF2047DBDE8F08F2DE9F04FF748DE
:105A7000CDB04578FEF752FE01287DD1F44800688C
:105A8000B0F93610B0F9340003F0E4F915F0020F64
:105A900073D040ACFFF796F80026DFF8B8833027C4
:105AA0004FF488794FF0FF3A90B190E80E10A4E8D7
:105AB0000E1000F1100191E80E1084E80E10D0E9EC
:105AC0000812D0E90A30CDE94A30CDE9481215E094
:105AD000FF22302120460FF0DEFA5020CDF8008161
