:100000000110A500010000000020000016310000D2
:1000100000040020110000000D0C00000D0C000079
:1000200008B500F0B7FE00F0FBFD000010B572B699
:10003000EE22204BC0211A6010231F4A490313608F
:100040001E4A1F4C11601F4A182013604C221E4B81
:100050001A601E4A1E4B1A600C221E4B1A601E4B61
:10006000093A1A601D4B4F321A601123236000F0C9
:1000700041FEFE221A4B12021A601A491A4B012045
:1000800019601A490A601A4A1A491A6000220A605D
:10009000194919600421194B1960194B3C31196039
:1000A000184B01311960184B01311960226000F0C2
:1000B00005FE10BD0003024000000440080004409B
:1000C00030001040180004400001044030001000CF
:1000D00008010440180104400003044008030440E0
:1000E0000003014040FF0080000001400403014084
:1000F00041FF00800803014042FF008028000340C8
:10010000080101400401014000010140000000001D
:1001100010B5064C2378002B07D1054B002B02D0DD
:10012000044800E000BF0123237010BDC000002080
:1001300000000000001F000008B5084B002B03D092
:100140000748084900E000BF07480368002B00D1BA
:1001500008BD064B002BFBD09847F9E700000000D4
:10016000001F0000C40000207000002000000000FC
:1001700008B500F027FE00F02DFE00F01DFE044B38
:1001800080B21B68C01800F00DFE00F02BFE08BD09
:1001900074000020F8B500260324371C01F088F80D
:1001A00000F038FF002802D000F078FEF8E70A4D92
:1001B000013C2B88E4B2FF186B88F618002CEDD1B7
:1001C000381C032101F0ECFD03212880301C01F0D4
:1001D000E7FD6880F8BDC046E60000200B4B1A78AA
:1001E0000B4B1988042A06D023224A4392091A800D
:1001F00059880D2205E031224A4392091A801622BD
:1002000059884A4392095A807047C0460B01002022
:10021000E6000020F8B5FFF7BDFFFFF7DFFF002085
:1002200001F026F90A4F0B4E3B880B4D0B4C0C4A44
:10023000012033802B802380138001F019F97B8803
:10024000074A73806B806380538001F08FF9F8BD9B
:10025000E600002062010020660100200C01002061
:100260002001002010B501F083F8134B1C78012CFD
:100270000FD100201C2101F047F800201C2101F0C3
:1002800049F8201C0C2101F03FF8201C0B2101F043
:1002900041F80020462101F081F90120372101F0C9
:1002A0007DF90020282101F081F90120282101F0A9
:1002B0007DF9FFF7AFFF10BD6001002010B500F021
:1002C00093FE052000F0CAFD01F052F80B4B1C789C
:1002D000012C0FD100201C2101F016F800201C2158
:1002E00001F018F8201C0C2101F00EF8201C0B2145
:1002F00001F010F8FFF78EFF10BDC046600100202E
:10030000034A044B1188198052885A807047C046AE
:10031000E6000020F0000020031C828840881B8833
:10032000824207D398420ED2181C934200D9101C67
:1003300080B208E09A4205D21A1C834200D9021CFE
:1003400090B200E0101C7047F0B5494D85B02B7895
:100350000133DBB22B70032B06D9464B32331A78AC
:1003600001321A7000232B70434B1B78082B05D1E8
:10037000424B1B78012B00D078E06FE00024FFF7A0
:1003800009FF271CFFF72AFFFA213D4E3D4B325B48
:100390001B5B0196C900D01A9A4200D8981A012313
:1003A000884200DC0023DBB2002B04D0364A1378ED
:1003B0000133137039E03548201803889C466146A4
:1003C000334B1953334BE31819881A806346018065
:1003D0003148038041808280FFF79EFF2F4A019BB6
:1003E000115B1B1918800292814209D9421C02AE8E
:1003F000F280F288914201D81A8001E00230188020
:10040000019B18190388994208D25A1E02AEF28045
:10041000F288023B914200D3131C0380019B029A95
:100420001B5B381C135301F09DF81D4B1A5BAF2367
:100430005B009A420DD96B780133DBB2102B01D0EF
:100440006B7006E000236B700E4BE3181A880132C4
:100450001A8002340137042C96D189E70A4B1A78A6
:10046000012A03D900221A70FFF7D4FE05B0F0BDAF
:10047000DC000020260100200B01002019010020D3
:10048000E6000020F0000020720100200C01002096
:1004900066010020200100206C0100206201002084
:1004A000F6000020F8B5824F3B78012B08D03022AF
:1004B000804C237865781A40A678102A15D10CE074
:1004C000642401F0CFF98306F1D5013C0220A4B2E7
:1004D00000F0DAFC002CF4D1E9E77749097800292B
:1004E0000DD101207549087007E0202A07D1724913
:1004F0000978002903D17148017093432370002DBE
:1005000003D00120002E00D1D0E020231D420DD0C9
:10051000AA2E04D12A1C9A436270002305E0BB2E48
:1005200004D12A1C9A43012362703B706BB2002BEA
:1005300012DAAA2E34D100224021614BA2701A7027
:10054000E3798B43C0390B43E3717F2361780B4020
:100550006370FFF7B3FE23E04022281C104011D047
:10056000AA2E1BD10121564B19707F23E1790B4034
:100570001343E3716378934363700023A370FFF721
:100580009DFE0BE0082D09D1AA2E0FD13A224D4B2A
:100590001D70E37993432A3A13437AE0012D07D083
:1005A000042D25D0402D6DD0802D74D000207DE00D
:1005B000AA2EFBD13A220026424B37271D70E37941
:1005C000A6709343383A1343E371FFF723FE4621A5
:1005D000301C6172A77200F0E1FF281C391C00F08A
:1005E000DDFF301C282100F0E1FF281C282122E03B
:1005F000AA2E24D13A22FA200026E379C0009343A0
:10060000323A1343E371A67000F028FC2D4B1D70A5
:100610003835FFF7FFFD301C291C6572A57200F00C
:10062000BDFF0120291C00F0B9FF301C1E2100F085
:10063000BDFF01201E2100F0B9FF301C36E0EF2E77
:10064000B4D1204B3A221D700025E379B33E934389
:10065000323A1343E371A570FFF7DCFD281C311C0F
:100660006672A67200F09AFF0120311C00F096FF1E
:10067000281C1E2100F09AFF01201E2100F096FF89
:10068000281C13E0462E91D100200B4B1870E37903
:10069000AB43E37109E0772E88D101220020064B9D
:1006A0001A70E3793F321343E371A070F8BDC0467E
:1006B00019010020260100206A0100201B010020F2
:1006C000600100200B010020F0B572B60021081C6B
:1006D000254B1C78254B264D042C00D00433071CD9
:1006E0006E5ACA5A234D5643B609B3B2B6B2360A49
:1006F0001B023343061C0C377F00EF199BB2BB7102
:100700001B0AFB711C4B10365B5A76005A43920948
:1007100093B292B2120A1B021343AD199BB2AB7192
:100720001B0AEB71124B5A5A134B5D5A0023AA4213
:1007300001D9531B9BB2021C0E4D08325BBA52000A
:10074000AA189BB293711B0AD3710C4A4319125C0D
:1007500002315A730A4A125C5A74012801D00120EE
:10076000B8E762B6F0BDC0460B010020041F0000D0
:10077000E600002026010020F00000209800002064
:100780009A00002038B5134B1B78012B0FD1124D66
:100790002C78012C1DD1002001F01EFA002000F061
:1007A000A3FB00230D4A2B70D379234310E0002BC9
:1007B0000FD1094C2378002B0BD1012001F00CFA4A
:1007C000012000F091FB0121044A2170D3798B4371
:1007D000D37138BD1B01002012010020260100202A
:1007E00010B501F03FF8002000F08AFB0E4C01F03C
:1007F00039F8830601D596240EE0013C0220A4B20C
:1008000000F042FB002CF2D1F5E7013C0220A4B23B
:1008100000F03AFB002C03D001F024F88306F4D456
:10082000012000F06DFB10BDDC050000F7B500F005
:100830002BFF5B495B4B0A785B4C18782270009168
:1008400001935A4D904201D000232B70584B1B78D6
:10085000042B30D00323574E1340032B13D1012711
:10086000B770DC26544B0020311C5E729E7200F083
:1008700095FE381C311C00F091FE00F005FF009B36
:100880001B78237017E0B378002B14D04B4B1A88D9
:10089000452A02D95B88362B0DD846213727464B8F
:1008A000002059729F7200F079FE0120391C00F07F
:1008B00075FE0023B370019B227841491A702B7892
:1008C00008780133DBB22B703E49012805D8012B93
:1008D00003D900232B7001330B700B78002B5DD0F4
:1008E00000230B70111C01331940324C01D1E1700F
:1008F00000E0E37002210A4202D0E3780B43E37088
:10090000E378227993422DD000215A406171013160
:10091000A2710A4203D00B4200D10221617102216F
:100920000A4208D00B4202D06379042201E0082277
:1009300063791343637162791F4BDA70FFF750FFDD
:100940000023214AE3711380204A1380204B1A7838
:10095000012A21D1E1781F4B002901D119701BE038
:100960001A7019E0002B0CD0174A138801339BB280
:10097000642B01D813800FE000231380FFF7C0FC25
:100980000AE012490A88013292B29F2A01D80A80ED
:1009900002E00B800123E371E3782371F7BDC046C9
:1009A000FD00002025010020180100201A01002070
:1009B0000B010020DC00002026010020F6000020B2
:1009C0000A0100202401002016010020100100204F
:1009D0006A0100201B01002010B5214C00F042FFED
:1009E000830606D41F4B204CDB79002B09D19023C2
:1009F00008E0013C0220A4B200F046FA002CEDD140
:100A0000F0E7C8239B00236000F0E4F900F0D4F97C
:100A10002368C018154B984201D9154BC018012402
:100A200000F0C0F900F0DEF9124B1868204012D136
:100A300000F072FA00F0F4FC00F0AEFE00F03CFAB8
:100A400000F0AEFE00F004FD042000F065FA201C6A
:100A500000F056FA02E00C2000F000FA10BDC0468B
:100A6000DC050000DC00002074000020FFFF000017
:100A70000000FFFF6400064008B501F039F9084A9C
:100A8000084B012805D100211170DA7904310A439D
:100A900004E001211170DA7903318A43DA7108BD6B
:100AA0000A0100202601002080220120134912059E
:100AB0000B6870B513430B60114B0D1C1A681C1C9E
:100AC00082431A6000204022131C0021403B1E7804
:100AD000013389199342FAD140331A1C81234018FB
:100AE0009B019A42F0D12A68064B80B21340012242
:100AF0002B6023681343236070BDC0460400104080
:100B000000001040FFFFFFF770B50125012001F044
:100B100063F8012000F0E8F9374B04201D7000F065
:100B2000FBF9281C00F0ECF9042001F0D7F80420B0
:100B300001F0BEF8281C01F0C5F8281C01F0ACF843
:100B400041232E4C0026221C637064332371853BA5
:100B5000A3716233E3713C3B63720F3BA3722E328D
:100B60002D3B1370221C2F3213702670A670E67076
:100B7000657126726675FFF797FF231C3033187076
:100B8000231C000A3133187003213A20221C00F084
:100B90007BFE00F0D5FD62B600F0FCF80F2000F0FF
:100BA0005DF9174B174C1E70174B25701D70174BB6
:100BB0001E70174B1D70174B186800F0F3F800F00B
:100BC00011F9154801F0ACF8FFF74CFBFFF7BCFB3F
:100BD000FFF72CFEFFF766FCFFF7D4FD2378002B10
:100BE00005D1FFF771FD0C2000F038F901E0FFF7A7
:100BF000F3FEFFF741FFE9E7120100202601002084
:100C00006A010020190100200B0100206001002072
:100C10000A0100207400002061010000FEE70000CE
:100C200070B51049104B01394A1C15D000221E68BE
:100C30005C689D68A018AA4203D0B058A050043246
:100C4000F8E7021CDC68151AA54202D0002520C274
:100C5000F9E710330139E7E701F034F9FFF754FF02
:100C6000FEE7C04601000000881F000001210E4A77
:100C700010B51368141C8B43136000239A000B49B2
:100C8000032B01D80A4989580A4801338150192B8E
:100C9000F4D1FFF7CBF90022074B1A602368013229
:100CA0001343236010BDC046000010400D0C00002F
:100CB0000000000000000020680000200B4A10B572
:100CC0001368002803D0802109060B4301E05B0074
:100CD0005B081360064B202419680A1CA2430028F5
:100CE00001D0221C0A431A6010BDC04600200240F9
:100CF00028000340F8B5182804D01023021C9A439A
:100D0000202A39D1041C01F041F80726071CFF20D6
:100D10001A4D1B4A2B681B49B3432B60136861189B
:100D2000097883430B431360174A184913688038C6
:100D3000B3431360164A0B68A2181278834302402B
:100D400013430B604D3801F017F8182C11D9231CF0
:100D50002A681C3B9B08B2433340134332202B606C
:100D600001F00AF8183C2868A4083440B043044352
:100D70002C60381C01F00EF8F8BDC046080F034087
:100D80000C0F0340CDF1FF0F100F0340180F03406D
:100D9000B4F1FF0F014A024B1A6070476588EDAC51
:100DA00038000340034A13681B0C1B0418431060EF
:100DB0007047C04640000340014B18687047C0466A
:100DC0003C0003400121024A13680B431360704743
:100DD000440003400121024A13688B4313607047AB
:100DE0004C0003400121024A13680B431360704713
:100DF0004C000340024B8000C3181868196070470C
:100E00004000002038B5041C0D1C00F0BFFFA308F3
:100E1000074A9B009B180322144094400634A240CA
:100E2000A540196891432943196000F0B3FF38BD0C
:100E300000E400E01F2318401E3B8340181C014BB8
:100E40001860704700E100E01F2318401E3B8340FC
:100E5000181C014B1860704780E100E010B5041CBD
:100E60008022074B1202944205D9186800F084FFD3
:100E7000044BE418F4E75868604300F07DFF10BDB0
:100E80007C0000200080FFFF08B5034B1B7A58430D
:100E900000F072FF08BDC0467C00002008B500F0DD
:100EA00075FF0421034A13688B43136030BF00F0C1
:100EB00071FF08BD10ED00E008B500F067FF0421E8
:100EC000064B074A1B889BB21360064A13680B4304
:100ED000136030BF00F05EFF08BDC04652F1FF0F47
:100EE0000400034010ED00E00223044940000A68BA
:100EF0009A43D2B2034013430B6070470001044091
:100F00004023044980010A689A43D2B20340134344
:100F10000B60704700010440034A044B11688004D1
:100F20000B4018431060704708010440FFFFE3FFC7
:100F30000F2010B51249134B0A68134C1A7023780E
:100F400003401A1C2378834313430B600F4A104B52
:100F500008381A600F4A104B1A60104A104B11687B
:100F60000B40C021C9020B431360FFF76DFF0D4911
:100F70000720FFF73FFF07200321FFF743FF10BDC6
:100F800000FF08407301002062F1FF0F0002000122
:100F9000080008400008A0010400084000000240CA
:100FA000FFFFF0FF9916000008B500F02FFE00F0DB
:100FB00057FE0020011C00F05FFE0020011C00F025
:100FC00031FEFF2000F03EFE402000F011FE044AFA
:100FD0000449136807200B431360FFF72BFF08BD7C
:100FE000040008400010088008B50720FFF72CFF18
:100FF000064A074B11680B40136013685B005B08DF
:10100000136000F003FE00F02BFE08BD0400084052
:10101000FFEFF7FF024B1878012318407047C046D6
:10102000E400002070B50F4E355CB31CAD001C5CB5
:1010300000F0ACFE73190F26A100C9B28E405D68A6
:101040002A68B24304268E40596903236343072468
:10105000DBB29C4032430E68A6430E602A6000F06B
:1010600099FE70BD201F0000194BF7B59A1C175C44
:101070001C5CB900C9B28C46164AA400105C1A194F
:1010800056680F21326803250192624691407D43E4
:10109000019AEDB28A43326001930026012800D004
:1010A000063600F073FE0721AE40A940351C019BB7
:1010B0001C19626913688B431D43156000F06AFEBA
:1010C0000122BA40616A0B6893430B60F7BDC046CA
:1010D000201F00007501002008B50020FFF7C4FFA5
:1010E0000120FFF7C1FF08BDF7B5051C314C324B9D
:1010F000271C34331B5C66199B0000931B590A376D
:10110000019300F083FD00F0ABFD307A002101383F
:1011100080B200F0B1FD785D0021013880B200F0AE
:1011200081FDFF2000F08EFD402000F061FD0720D2
:10113000FFF78AFE80222149367A0B6893437A5D55
:1011400010041207121A0098005970430E1C8242B4
:1011500001D3402200E0C022134333600720FFF791
:1011600069FE0720FFF770FE154962190B68107BB6
:10117000144A0E341340625D0343120413430B60A0
:101180003468114B07201C40104B1C43FFF752FEE4
:10119000281CFFF747FF00F0F9FD051C3460002014
:1011A00000F0EAFD0A4B019A281C1A6000F0F2FDDB
:1011B000F7BDC0468C000020201F0000040008403E
:1011C0000800084000FF80FFFF1FDFFF2000200015
:1011D0000C000840002208B5044B1A70C2B29A7184
:1011E00081221A70FFF780FF08BDC046E40000208E
:1011F00008B50E4B420019680D4B0233D152FFF770
:1012000033FF0720FFF720FE0A4A0B4B1168072027
:101210000B40A02109020B431360084A084B1168D8
:101220000B401360FFF706FE08BDC0460C000840E7
:10123000E400002004000840FF1FDFFF0800084012
:1012400000FF80FF0323034918400A68400210434F
:10125000086070470400084010B50024054B1C705E
:101260005C70FFF765FE201CFFF7ECFFFFF734FF13
:1012700010BDC04675010020072301220B409A4093
:10128000C908405C1040431E9841704710B5041CCB
:101290000134E4B2022C06D00448211C1030FFF7C0
:1012A000EBFF0028F4D0201C10BDC0468C000020AD
:1012B000002310B50A4C2370FF33A371A079C0B28C
:1012C000FFF7E4FFA071A379012B07D8012223784F
:1012D00013432370A079C0B2FFF706FF10BDC046CC
:1012E000E400002010B50724CB082140063C8C40C8
:1012F000C018E1B20378002A02D01943017001E05E
:101300008B43037010BD0000014B18180173704728
:101310008C000020014B0E33195470478C000020C4
:1013200010B5041CFFF756FF034B1A78D207FBD405
:1013300002336400185B10BDE40000200023F7B501
:10134000071C082680251418019123702378381C67
:101350002B432370FFF7E4FF019B984202D22378CE
:10136000AB432370013E6D08002EEFD1F7BD0000A6
:10137000F8B5204CE379002B03D1FFF76DFF012373
:10138000E37155261C4DFFF70FFE2A681B4B1C4CC2
:1013900013402B6023686421180C7043271C00F055
:1013A000FFFC0C373A1C011C0020FFF7C7FF6368E5
:1013B0006421180C704300F0F3FC3A1C011C01205E
:1013C000FFF7BCFF237B80215A0801335B0823739E
:1013D000637BA2735A08E273802201335B08637354
:1013E0002B6852041343074A2B601368C9030B434D
:1013F0001360F8BDE400002008000840FFFFFFFC78
:101400008C00002004000840034B1B68002B02DA0C
:101410000122024B1A70704704000840EE000020C1
:1014200008B5FFF7F1FF0720FFF70EFD064A074B4F
:1014300011680B40136013685B005B08136000F0D9
:10144000E5FB00F00DFC08BD04000840FFEFF7FFCE
:1014500008B5FF2000F0CCFBFF2000F0F3FB034BAE
:101460001B78002B01D0FFF79FFD08BDEE00002088
:1014700010B5084B084C4200195C145B074BD45262
:10148000002418180471981D1452054A0A33525C3E
:101490005A5410BD541F0000E6000020F000002048
:1014A000A8000020F8B5041C294B2A4A1E5C2A48D3
:1014B0007600831CF35A29499C4663009A5A595A6C
:1014C000071C8A4206D30020254B01251855531AC4
:1014D0009BB214E0851D8B1A755B9BB29D420DD2A9
:1014E0001F4D0A302B5D025D9A4204D8201CFFF785
:1014F000BFFF002300E001332B5522E000256345A8
:101500000DD9B81D805B984202D8002D19D001E09A
:10151000002D04D0114A64000632A35216E00802DE
:10152000071C0E48521A06193079384310180B4F11
:101530006200010AD1530021094A307111556345F7
:10154000E3D80022054B64000633E252F8BDC046E2
:10155000541F0000E6000020A8000020F00000203A
:101560007701002008B5FFF79DFF08BD10B50A4CB4
:101570000021201CFFF780FE002802D00020FFF78A
:1015800091FF201C0121FFF777FE002802D00120E7
:10159000FFF788FF10BDC0469C000020024B4000B2
:1015A000181881817047C046A8000020024B4000F7
:1015B0000233C1527047C046A8000020F0B5254C48
:1015C000051C271C244B254A1E5C85B07300D318CC
:1015D00099891B8A0D370293935D0191381C291C50
:1015E0000393FFF749FEA21D6B00002810D0D25ACA
:1015F0000299019B5B1A9A4222DA0022381C291CAC
:10160000FFF770FE6A46231C127B0A339A5517E0D7
:10161000D15A029A019B9446221C63440A32994291
:101620000BDB935D013BDBB29355002B08D1381CDB
:10163000291C0122FFF756FE02E06B461B7B9355E7
:10164000201C291C0D30FFF717FE431E984105B0E2
:10165000F0BDC046F0000020541F0000A80000208C
:1016600070B50026074B1C5C02331D5C2D19201C35
:10167000FFF7A4FF002800D001260134AC42F6D3C6
:10168000301C70BD601F000010B50020FFF7E8FFA0
:10169000041C0120FFF7E4FF0123002802D1231CD2
:1016A0005C1EA341181C10BD70B501260720FFF772
:1016B000CBFB164B164D1E602878C0B2FFF798FD85
:1016C000144C23785BB2002B03DA2378B3432370E6
:1016D00018E02878C0B2FFF7D9FD28702B78012BCD
:1016E00004D82878C0B2FFF7FFFC0BE02378B3439F
:1016F000237023785B0605D5074B1A78074B1E70BD
:10170000074B1A700720FFF795FB70BD14000840C7
:10171000EA000020E400002074010020FE00002008
:101720009C0000208021054A08B5136809060B4378
:1017300013600520FFF77EFB08BDC0460000064091
:1017400010B5054C2378002B03D100F02DF80123B0
:101750002370FFF7E7FF10BD0001002080200A4B37
:1017600040001A6802420AD0084A1268520406D49D
:101770001A680749114019601A6802431A60022268
:10178000044B1A607047C0460000064060000640E7
:10179000FFFEFFFF6C00064008B500F08DF808BDA5
:1017A00008B500F093F808BD802210B50024194B4D
:1017B00052001A60184A194B19491A60194B1A4AF3
:1017C00005201360194A1460194A1160194A136000
:1017D000194B1C60FFF738FB05200321FFF712FBB4
:1017E00016490520FFF706FB5222154BFF321C60FD
:1017F000144B1A60144B1C60144B1C60144B1C607F
:10180000144B1C70144B1C70144B1C80144B1C701C
:1018100010BDC046000006400008004060000640C1
:101820008000FE000701008000030640040306401C
:10183000100306400002064004020640D1180000D2
:10184000880E0640480F0640080F0640C80F0640A5
:10185000880F064080010020840100207E010020C6
:101860007C01002010B50520FFF7EEFA1F21054B83
:1018700005201C781A78E4B28A431A70FFF7DAFA66
:10188000201C10BD8401002070B5061C0D1C141E08
:101890000BD00520FFF7D8FA044B05201C60044B41
:1018A0001E80044B1D80FFF7C5FA70BD8801002023
:1018B0008C0100208201002008B500F051FA0122BD
:1018C000014B1A6008BDC046880E0640002208B5CC
:1018D000024BFF201A6000F035FA08BD880E064062
:1018E000F0B59E4B87B01B68002B00D098470223B1
:1018F0009B499C480D689C4AFF33166804882B401E
:101900000390029104922DD02020984A13685B0026
:101910005B081360964B1978814319701978103859
:101920000143197093490D68054206D19248007829
:10193000A04206D01878082501E00225187828432F
:1019400018708E488E4B05682B40036000238D482D
:1019500003600B608C490B708021136809060B43F0
:101960001360F7E0F20601D5884A13600A231E428D
:1019700000D185E0864B1B685B0744D5854B8249C7
:101980001A680B78002B10D0012B3AD182480188BD
:10199000002934D0814FD2B23B60814B01391B68A2
:1019A00001801B191A7001342BE07E4800888242A6
:1019B00025D20124794804607B480088824201D204
:1019C000831A9BB274480380072B02D801230B7043
:1019D00011E06A496B48082B06D1A0240B68240249
:1019E00023430B60002305E080240B68A4012343FC
:1019F0000B6008230360604B141C1A7001E0FFF7B2
:101A0000ADFE04223AE05D490B6801919B0437D595
:101A10000222324008D0654B1A680F230868134031
:101A2000574A02400A6007E05B480388083B9BB2C4
:101A30000380082B01D908230122181C1F19391A09
:101A40008C4600280DD0564F01383F68391C6F4630
:101A5000614400914F490968F975F97D009F39701B
:101A6000ECE73C1C002A08D18020019B01991B68EF
:101A7000000203430B60434B1A600C224C4B1A606C
:101A800002231E4247D0EA0613D500223D490A60D0
:101A900038490A60384A1278944200D008333449F1
:101AA0002B400A7813432022934300220B70364BBD
:101AB0001A706B062DD520212D4A13780B43137015
:101AC0002D4B10391C783B4B1B680B4211D08020EA
:101AD000344B314A1B8840021B1B1380364B1A685B
:101AE00002431A601868354A02401A60214B196097
:101AF00002E00422234B1A6001221020304B02998D
:101B00001A60304B0B6030490B6803430B60234B6A
:101B10001A60029B1D60049B1B685B071AD5204B53
:101B20001D4A18681388294D002B07D00119097820
:101B3000013BC9B2296001349BB201E0FF21296059
:101B400023490D680F2129400829ECD11380102268
:101B5000204B1A60039B1C8007B0F0BD04010020DD
:101B6000400F06407E010020000E064000000640A7
:101B700084010020880F06407C01002060000640A0
:101B8000FF5FFFFFC80F064080010020880E06405F
:101B9000CC0F064040030640080100206C000640C0
:101BA000880100208C0100208201002008030640EB
:101BB000C00F06406400064004020640FFFFFEFF1F
:101BC000800E0640FF0F0000480F0640400206400E
:101BD00008020640800F06404023044980010A683D
:101BE0009A43D2B2034013430B6070470000044095
:101BF000044B1A68002AFBDB034A000210431860FA
:101C00007047C0460000014041000080034B1A6845
:101C1000002AFBDB024A1A607047C0460000014000
:101C200041000040FF22072330B5054CC90025685C
:101C3000000211402B4001431943216030BDC046D2
:101C400004030140044B1A68002AFBDB034A00022C
:101C5000104318607047C0460000014040000080FB
:101C6000034B1A68002AFBDB024A1A607047C04621
:101C70000000014040000040FF22072330B5054C22
:101C8000C9002568000211402B400143194321601F
:101C900030BDC04600030140012304490A689A434D
:101CA000D2B2034013430B607047C04600030440A8
:101CB0000721034A13688B43184310607047C046DE
:101CC000080304400223044940000A689A43D2B240
:101CD000034013430B607047000304403821034A5C
:101CE000C00013688B43184310607047080304401A
:101CF000024B18684007C00F7047C04604030440F9
:101D000010B5041C00F042F8C021044AA401136875
:101D10008B432343136000F03DF810BD04E400E062
:101D200010B51024044B1C60044B18650320FFF70A
:101D3000E7FF034B1C6010BD80E100E000000020C5
:101D400000E100E0044B1A68002AFBDB034A0002B2
:101D5000104318607047C0460000014042000080F8
:101D6000034B1A68002AFBDB024A1A607047C04620
:101D700000000140420000400230800804D0C0460C
:101D80000138FDD1C046C046C0467047EFF3108011
:101D900072B6704780F310887047C046C046C04690
:101DA000002243088B4274D303098B425FD3030A9A
:101DB0008B4244D3030B8B4228D3030C8B420DD3AD
:101DC000FF22090212BA030C8B4202D3121209023B
:101DD00065D0030B8B4219D300E0090AC30B8B4279
:101DE00001D3CB03C01A5241830B8B4201D38B0327
:101DF000C01A5241430B8B4201D34B03C01A5241CC
:101E0000030B8B4201D30B03C01A5241C30A8B420E
:101E100001D3CB02C01A5241830A8B4201D38B02F9
:101E2000C01A5241430A8B4201D34B02C01A52419D
:101E3000030A8B4201D30B02C01A5241CDD2C3090F
:101E40008B4201D3CB01C01A524183098B4201D38B
:101E50008B01C01A524143098B4201D34B01C01A76
:101E6000524103098B4201D30B01C01A5241C308EE
:101E70008B4201D3CB00C01A524183088B4201D35D
:101E80008B00C01A524143088B4201D34B00C01A49
:101E90005241411A00D20146524110467047FFE7B5
:101EA00001B5002000F00CF802BDC0460029F7D0B3
:101EB00003B5FFF775FF0EBC4243891A1847C046A9
:101EC0007047C0460E4B70B500251E1C0D4CE41A21
:101ED000A410A54204D0AB00F35898470135F8E7A9
:101EE00000F048F8084B00251E1C084CE41AA4100A
:101EF000A54204D0AB00F35898470135F8E770BD10
:101F0000701F0000701F0000701F0000781F00008D
:101F1000000000005300BA0076003C0100FFFF0DF6
:101F20000A1C0B1C0C003100160023000D000000E1
:101F300001010203000002400001024000020240D1
:101F40000003024008000440080104400802044065
:101F50000803044000000440000104400002044063
:101F6000000304400001000004000000080000001D
:101F700000010101F8B5C046F8BC08BC9E46704798
:101F8000290100005D0C0000F8B5C046F8BC08BC93
:101F90009E46704701010000981F0000700000205D
:101FA00050000000D00000000000000040020000CF
:101FB0000100000000007017E02E00000C0000007F
:101FC000001BB7000000FF3F0000FF3F01010202BD
:101FD0004040404003000000080104400801044064
:101FE000010128002800140014000A0A32003200FF
:101FF00001000100000000000000000000000000DF
:1020000000000000000000000000000000000000D0
:00000001FF
