:1000000001100D0006000000002000001733000062
:100010000004002041140000E1130000E11300007F
:1000200010B572B610211A4801600322D204826012
:1000300081611848CE210160C10381604E21816138
:10004000154803210160642181601449EE20086095
:10005000182000F0F9FD7F22114852020260124977
:10006000104B0B6042605A1C0A6082158260981C1B
:1000700008600E49042088620D48402181604121BA
:10008000416042210160012001F088FB10BD0000A9
:10009000000004400001044000030440000302404B
:1000A0000003014040FF00800000014000000340C9
:1000B00000010140000000000000000000000000FE
:1000C0000000000000000000000000000000000030
:1000D0000000000000000000000000000000000020
:1000E0000000000000000000000000000000000010
:1000F0000000000000000000000000000000000000
:1001000000000000000000000000000000000000EF
:1001100000F002F800F040F80CA030C808382418AD
:100120002D18A246671EAB4654465D46AC4201D12F
:1001300000F032F87E460F3E0FCCB6460126334221
:1001400000D0FB1AA246AB4633431847A81900005B
:10015000D8190000103A02D378C878C1FAD85207EB
:1001600001D330C830C101D504680C60704700006D
:100170000023002400250026103A01D378C1FBD8C3
:10018000520700D330C100D50B6070471FB5C04681
:10019000C0461FBD10B510BD03488546FFF7F6FFEA
:1001A00000F000F900F0C5F80004002003B4FFF7E8
:1001B000F1FF03BC00F0C4F8801C800804D000BF2D
:1001C000401EFDD100BF00BF7047EFF3108072B634
:1001D000704780F310887047002203098B422CD3AC
:1001E000030A8B4211D300239C464EE003460B4387
:1001F0003CD4002243088B4231D303098B421CD3E9
:10020000030A8B4201D394463FE0C3098B4201D3DA
:10021000CB01C01A524183098B4201D38B01C01A12
:10022000524143098B4201D34B01C01A5241030989
:100230008B4201D30B01C01A5241C3088B4201D338
:10024000CB00C01A524183088B4201D38B00C01AE5
:10025000524143088B4201D34B00C01A5241411A0C
:1002600000D201465241104670475DE0CA0F00D0EF
:100270004942031000D34042534000229C460309E8
:100280008B422DD3030A8B4212D3FC22890112BA6E
:10029000030A8B420CD3890192118B4208D3890146
:1002A00092118B4204D389013AD0921100E089095E
:1002B000C3098B4201D3CB01C01A524183098B423F
:1002C00001D38B01C01A524143098B4201D34B0128
:1002D000C01A524103098B4201D30B01C01A52418B
:1002E000C3088B4201D3CB00C01A524183088B4212
:1002F00001D38B00C01A5241D9D243088B4201D39B
:100300004B00C01A5241411A00D201466346524185
:100310005B10104601D34042002B00D54942704784
:1003200063465B1000D3404201B50020C046C04682
:1003300002BD0446C046C0462046FFF737FF000016
:1003400001491820ABBEFEE726000200704770B5D9
:100350008C180578401C6B075B0F01D10378401C9B
:100360002A1106D10278401C03E00678401C0E706A
:10037000491C5B1EF9D12B0705D40023521E0DD456
:100380000B70491CFAE70378401CCB1A921C03E05F
:100390001D785B1C0D70491C521EF9D5A142D8D3A3
:1003A000002070BD01F0C2FA01F00CFBFEE7000076
:1003B000F0B5114E00237068F70138437060306863
:1003C0004008400030601A460021084695012C5C28
:1003D000401C091980B24028F9D3521C5B1892B214
:1003E000802AF1D37068B8437060306801210843F7
:1003F000306098B2F0BD00000000104010B509490F
:10040000094B4200094C095C9B5AA3520023153C3E
:10041000235420461D30835215382246405C10324A
:10042000505410BDB01A0000C4000020F400002099
:10043000F8B506468024002015460F469055A85D65
:100440002043A855304600F0F0F8B84202D2A85D2B
:10045000A043A8556408F2D1F8BD10B50024204689
:1004600000F046F8641C042CF9D310BD10B51849EF
:100470000868184AC0B29071174A030990781B01A6
:100480000007000F1843F0239278984312091201D5
:1004900002430A60124811498160124941601249C1
:1004A00008681A0390430322520410430860086846
:1004B0006022984310430860072000F087FB0B4937
:1004C000072000F0B1FB0321072000F093FB10BDD3
:1004D00000FF0840B000002060F1FF0F00020001A3
:1004E000000008400008A00100000240390600009A
:1004F000F8B505461B480024425D001D415D96008D
:1005000088004B00C918174ACFB20C3216499359CC
:10051000495D1A689C460F2383409A4363461A60DC
:10052000022901D0012900D00624FFF74EFE034620
:100530000C481C30815908680722BA409043BC40DF
:1005400004430C601846FFF744FE06482C308059DF
:100550000168044A121D535D01229A4091430160D3
:10056000F8BD0000A81A0000C000002010B500F07F
:10057000CBF900F089F90021084600F069F9002163
:10058000084600F0A5F9FF2000F070F9402000F0C7
:10059000ADF904494868044A10434860072000F058
:1005A0001FFB10BD0000084000100880F8B510497E
:1005B0000E5C091D085C410045188400FFF705FE2C
:1005C000B3000B4E0C36F15809680F22A24091433C
:1005D0000422A2400A4331461031C9580C6807274B
:1005E000AF40BC430C60F1580A60FFF7F2FDF8BD64
:1005F000A81A000010B50446641CE4B2042C05D00F
:100600002146034800F006F80028F5D0204610BD2A
:10061000B3000020CA084B075B0F01219940805CA2
:10062000C9B2084000D00120704770B505460024CB
:1006300000F042F900F05EF80128FBD0284600F0F7
:1006400001F9001980B270BD70B5072000F0BEFA44
:10065000194901204861194C207800F053F8184DD1
:100660002878000604D528784008400028701EE04D
:100670002078FFF7BFFF20702078042803D220786D
:1006800000F06CF813E028784008400028702878C3
:1006900040060CD50B4900200B4A0C4B0870C0B229
:1006A000145C1C54401C0006000E0870F7D0072094
:1006B00000F096FA70BD000000000840B200002073
:1006C000B10000204C010020B7000020B300002042
:1006D00010B50020064902460A54401C0428FBD3EA
:1006E000FFF7C4FE002000F02DF9FFF7B6FE10BDA5
:1006F000C000002002484078C007C00F70470000CB
:10070000B000002070B5114C0546E068104A690041
:1007100050522846FFF7ECFE002D01D0022D02D1E9
:10072000681CFFF7E5FE072000F050FA60680949F1
:1007300008400521490308436060A0680649084055
:10074000A060072000F04CFA70BD000000000840D7
:10075000C4000020FF1FDFFF00FF80FFF8B5054643
:100760003248405D84003248075900F0CDF800F06F
:100770008BF82F4E00211C3E7079401E80B200F095
:1007800067F830790021401E80B200F0A1F8FF2008
:1007900000F06CF8402000F0A9F8072000F016FAED
:1007A000244948684022104380229043337972796B
:1007B0001E03F31A1E4E1B0434595443A34201D2A4
:1007C000802210430C464860072000F009FA0720F9
:1007D00000F0FCF9A0681849154A0840144914397A
:1007E000103A525D495D120402431143A1606668EC
:1007F0001248064012480643072000F0F1F9284647
:10080000FFF7D4FE002D01D0022D02D1681CFFF7A6
:10081000CDFEFFF7DAFC054666603320FFF7CCFC1F
:10082000E7602846FFF7D5FCF8BD0000B01A0000CD
:10083000CC0000200000084000FF80FFFF1FDFFF0A
:100840002000200001494000085A7047C4000020E1
:10085000054B1A6800025207520FC9061043090ED1
:1008600008431860704700000003014005490A680A
:10087000002AFCDB000240300122D207104308604E
:100880007047000000000140034801680029FCDBBC
:100890000249016070470000000001404000004034
:1008A00003484068002802DA0249012008707047B6
:1008B00000000840DC00002010B5044900224A7006
:1008C000887081224A70FFF749FF10BDB0000020F8
:1008D000054B5A6800025207520FC9061043090E11
:1008E00008435860704700000003014005490A684A
:1008F000002AFCDB000241300122D20710430860CD
:100900007047000000000140034801680029FCDB3B
:1009100002490160704700000000014041000040B2
:10092000014A115470470000BC000020014A1154D4
:1009300070470000B8000020014A40001152704783
:100940000C010020034980074A68400D10434860AD
:10095000704700000000084010B5FFF7A1FF072016
:1009600000F034F907484168812212039143416045
:100970004168490049084160FFF7C6FFFFF784FF5F
:1009800010BD000000000840F8B5264C2078002873
:1009900003D1FFF79DFE01202070FFF7E7FD224DF8
:1009A000A868032109068843A8601E4F00241F4E33
:1009B0001C3703E0002C01D0022C02D1601CFFF791
:1009C000F5FD305D552180003858000C4843642106
:1009D000FFF702FC134A014608322046FFF728FDC4
:1009E000002C01D0022C02D1601CFFF781FD641C99
:1009F000042CDFD30B49002008310B1D0A5C541C6A
:100A000064081C5452080A54401C0428F6D3A868F1
:100A1000012109060843A8606868891008436860D6
:100A2000F8BD0000B000002000000840B01A00002F
:100A300010B5072000F0CAF8074841688122120368
:100A4000914341604168490049084160FFF75CFFFC
:100A5000FFF71AFF10BD000000000840F8B504467B
:100A600029486600005D42002848805A00902848C6
:100A7000815B26481838805B884207D8234D0023C5
:100A8000213D2B550B1A9DB2012714E0431A9DB24C
:100A90001E4B002708339B5AAB420CD21B4821380F
:100AA000005D0C2803D32046FFF7A8FC1BE0174984
:100AB0002139401C1AE0009B9D4206D9134B083394
:100AC0009A5AAA4213D9002F11D1104A03022D3A83
:100AD000125D1A435118081A01020A0C0B49183901
:100AE0008A53153908550949002021390855074905
:100AF00000981039854203D9002F01D08D53F8BDDD
:100B000000208853F8BD0000B01A00000C0100203E
:100B1000C400002010B5002421460648FFF77AFDE6
:100B2000002802D02046FFF799FF641C042CF3D361
:100B300010BD0000B300002000B5FFF78FFF00BD1F
:100B400010B5FF20FFF7D2FEFF20FFF78FFE03480E
:100B50000078002801D0FFF709FD10BDDC0000205F
:100B600010B500F079FE084A0849012806D0012096
:100B7000D073C879FB221040C87110BD0020D0731B
:100B8000C87904221043F7E76800002050010020D4
:100B900070B501260446074DF60303E0E868FFF749
:100BA0000BFBA41BB442F9D8A8686043FFF704FB11
:100BB00070BD00003C01002010B50349097848438E
:100BC000FFF7FAFA10BD00003C010020C106C90E73
:100BD00001208840014908607047000080E100E082
:100BE000C106C90E01208840014908607047000015
:100BF00000E100E070B506468007C40E0D46A41D56
:100C0000FFF7E3FA0146B20806489200101802689E
:100C10000323A3409A43A540154305600846FFF708
:100C2000D8FA70BD00E400E001225207800082186B
:100C3000106C1164704700000248C16AC20311437E
:100C4000C16270470000034070B50446182803D005
:100C5000202C01D0302C3CD1FFF7B7FA1D4D0646B1
:100C6000A868C008C000A860E8681B49000A000224
:100C70006118497B0843E8602869C008C000286102
:100C8000A8691549C009C00120396118097D4906C4
:100C9000490E0843A8613220FFF78EFA182C15D9A7
:100CA0000120E40640072018A968400FC908C900C0
:100CB0000843A8603220FFF77FFA01208007201840
:100CC000A968400FC908C9000843A8603046FFF76B
:100CD00080FA70BD000F0340C0F1FF0F10B5FFF7A1
:100CE00074FA0649498A064A516006490A6904238A
:100CF0001A430A6130BFFFF76CFA10BD40F1FF0FD5
:100D00000000034000ED00E0024841680122114369
:100D100041607047400003400249014888637047C2
:100D20006588EDAC000003400248C16849084900ED
:100D3000C1607047400003400148C06B704700002D
:100D4000000003400248C16801221143C16070479E
:100D500040000340034600B50648C06A002801DB96
:100D6000FFF76AFF034940310A68120C12041A4364
:100D70000A6000BD00000340F8B5994800680028EB
:100D800000D080479748984900880A6897490B68BF
:100D9000FF21023111400226954C00292DD0944AA2
:100DA000403A116849004908116092490B78DF25E3
:100DB0002B400B700B7810252B430B708A4B403364
:100DC0009D68ED0617D48C4E3678B04203D00D786E
:100DD000082635430D70216A05256D03A94321625C
:100DE000814C00218034A1609960844B1970116896
:100DF00063061943F0E00D78EBE7D90603D57B4D88
:100E000000218035A9600A210B427ED076498031CD
:100E1000C9687B4F490742D53968784F3D78002D26
:100E20000ED0012D36D1774F3D88002D31D00126CF
:100E3000E662754E36683154401C6D1E3D8029E0D7
:100E4000724D2D88A94224D20126E662704D0846D3
:100E50002D88A94201D2291A00E0002189B2694DEA
:100E60000829298001D23E700AE00829216A0AD0A7
:100E700001256D032943216208215B4D8035A9605E
:100E80005D49087006E005256D03294321620021B4
:100E9000F3E7E662544D04218035296035E0216A8C
:100EA000890432D599070BD5554940398968256A97
:100EB0000907090F05267603B5432562012507E0DA
:100EC000504D2988083989B2298008290DD8002574
:100ED000002907D04C4E3668494F3F683754401CB4
:100EE000491EF9D1002D03D00BE008210125F1E7BF
:100EF000216A0125ED03294321623B4D0021803504
:100F0000A96039490C2580310D60990747D5D10674
:100F10002027002914DA3449002380318B603249BC
:100F200040318B60344D02212D78A84200D00A2137
:100F3000304D11402E783143B94329702F490B7041
:100F400051062AD52B480178394301702A48616A35
:100F50000078C90611D52D492A4B0988091A19802C
:100F60002C494D6801231B041D434D604D689D4372
:100F70004D601D4B1021403302E01B4B0421803398
:100F800099601A49012580310D601749224B0B6089
:100F90008B68102633438B60E56213490A6013495E
:100FA0000968490719D518491A4C164B4034194D90
:100FB0000A68FF271988002905D0165C2660401CA6
:100FC000491E198000E02760A9680907090F082950
:100FD000F0D1054A10214032116002490880F8BD65
:100FE0002801002034010020400F0640000E06407A
:100FF000400006402C0100202E0100202D01002081
:10100000400306404E01002038010020300100203E
:101010003201002000020640FF0F000010B5044816
:1010200001688203114301600520FFF7D9FD10BD5F
:101030000000064010B50520FFF7C8FD05480478FC
:1010400001784909490101700520FFF7C9FD2046D3
:1010500010BD00002C01002010B5FF201849013000
:10106000086017491748403108621848164901605E
:1010700000244460164A026116480160446005205D
:10108000FFF7A4FD03210520FFF7B4FD1249052059
:10109000FFF7CAFD11488460FF2010495230C0316B
:1010A00088600E48803084600D4884600C48403869
:1010B00084600C48447004700481847010BD00008A
:1010C00000000640000800400701008000030640C1
:1010D0004000FE0000020640690D0000800E064040
:1010E000C00F06402C010020014900208860704795
:1010F000800E06400149012088607047800E06403E
:10110000002A03D0024BDA609880D9807047000033
:101110002C01002010B5FFF7EDFF10BD10B5054CF8
:101120002078002803D1FFF797FF01202070FFF7F8
:1011300075FF10BD2401002010B5FFF7D5FF10BDCD
:1011400003498A6838239A43C00002438A60704783
:1011500000030440044A1168FD23C0071940800FB2
:1011600008431060704700000003044003498A6888
:10117000D208D20002438A60704700000003044096
:10118000044A1168FE23C0071940C00F08431060CD
:101190007047000000030440F8B55B4FB87B01289E
:1011A0000BD10024FFF746FF800606D50220FFF78B
:1011B00003FD641CA4B2642CF4D3544E3021307867
:1011C000EF2302460A407178B4780D461D40102A7C
:1011D00002D0202A07D00DE0FA7A002A0AD1012293
:1011E0003A73184005E0FA7A002A03D13A73DF22F5
:1011F00010403070002D01D0002C06D0A80610D56C
:10120000AA2C04D0BB2C07D00BE00120F8BDDF20B6
:1012100001407170002003E0DF2001407170012067
:10122000B873E8090FD0AA2C21D100217974F07984
:10123000BF22104080221043F07170784006400EAB
:101240007070B17011E0680611D5AA2C0FD1012081
:101250007874F07940214006400E0843F0717078B0
:10126000BF21084070700020B07000F0F7F808212E
:10127000082D08D0012D0ED0042D2AD0402D31D0BC
:10128000802D3AD037E0AA2C35D13974F079C521B8
:101290000840102122E0AA2C2DD10120387400F042
:1012A0005FF8F079C521084002210843F071002061
:1012B000B07064213C207172B072F17230730024FE
:1012C0003C212046FFF738FB641CA4B2042CF7D362
:1012D00011E0AA2C0FD1F079C52210400843F0711B
:1012E000002007E0462C06D10020F872F179BF22D9
:1012F0001140F171B0700020F8BD772CFBD10120B6
:10130000F872F0794021E9E76800002050010020E0
:1013100004498A6807235B059A43400502438A60B3
:101320007047000000010440044A1168C0074906E4
:10133000490E000E08431060704700000001044091
:1013400010B5054A054B00204100401C545AC0B25C
:101350005C520428F8D310BDC4000020F400002023
:10136000F8B500F033F900F09BF80D4D00210A4C60
:101370000A4B2E46083E4800225A1A52084F2A525B
:101380003252103F3A52083F491CC9B23A5204291E
:10139000F1D3FFF7BFFBF8BDC4000020F40000202C
:1013A000A600002070B5FFF7EFFA0F48407C012837
:1013B0000ED10E4D00242E1D295D2046FFF7B6FAF2
:1013C000315D2046FFF7ACFA641CE4B2042CF3D381
:1013D00000243C212046FFF7AFFA641CE4B2042C41
:1013E000F7D3FFF7BDFF70BD68000020901A000022
:1013F000FEE70000044A1168BF23C0071940400EF1
:1014000008431060704700000000044070B50E4EA5
:101410000125317B30460D4C407B012901D101284B
:101420000AD0014307D10120FFF7E4FF7573E0798B
:1014300040084000E07170BD0020FFF7DBFF002096
:101440007073E0792843F5E7680000205001002020
:1014500010B5FFF761FCFEF75BFE10BD70B5FFF73E
:10146000E7FA0120FFF794FBFFF78EFA0A48407C69
:1014700001280ED1094D00242E1D295D2046FFF7BD
:1014800055FA315D2046FFF74BFA641CE4B2042C98
:10149000F3D3FFF765FF70BD68000020901A0000CD
:1014A00030B5074A074B00204100545A5D5A401C92
:1014B0006C43A402240CC0B254520428F4D330BDAF
:1014C000C4000020981A0000F8B53B49887A401CF7
:1014D000C0B28872032805D93848827C521C8274B5
:1014E000002088723448007C082859D000F06EF83B
:1014F000FFF7D6FF324E334F00256C00305B395B6F
:10150000884201D9411A00E0091AE122D200914231
:1015100004DD2949887C401C887423E0264B2E3347
:1015200019461A5B08310A531039095B1953083BF5
:1015300018539B1F1A8059809880184600F0E4F9D0
:101540001D4A014630533E32105B884201D9491C86
:10155000315389B2884201D2491E31531153284672
:10156000FFF7EAFA002D01D0022D15D11648FF2110
:10157000005B2D3188420FD90F49487A401CC0B218
:101580004872142808D100204872385B401C385338
:10159000E0194188491C41806D1CEDB2042DACD38B
:1015A0000548817B012906D1817C012903D90021CD
:1015B0008174FFF7D5FEF8BD68000020700100209F
:1015C000C4000020F4000020FC000020F0B585B02D
:1015D000002001466E468200401CC0B2B150042873
:1015E000F9D3124F002500242046FFF765F9FFF7D5
:1015F00081F80028FBD1A00062003158BA5A641C5F
:101600008918E4B23150042CEED36D1CEDB2022DDA
:10161000E9D30020810071584200C903090C401C25
:10162000C0B2B9520428F5D305B0F0BDC400002003
:1016300070B5FFF7FFFC0020FFF776FE00240E4D8B
:10164000FFF7F8FC800606D40220FFF7B5FA641C09
:10165000A4B2AC42F4D30024FFF7ECFC800606D51C
:101660000220FFF7A9FA641CA4B2962CF4D301203F
:10167000FFF75AFE70BD0000DC050000F8B5454DCF
:10168000434A687D138800090001082728210026A5
:10169000642B03D938436875697101E068756E7110
:1016A0006879A87190886428687D06D90007000FC2
:1016B000802210436875E97103E00007000F687528
:1016C000EE71E8792872687DE97C884200D02E7539
:1016D000E874297D0124491CC9B22975EA7B002AD6
:1016E00001D0012A04D1012902D92E75AC7502E07E
:1016F000A97D00294BD0AE752E70010700D52C7046
:10170000C0090222002802D02878104328702878C7
:101710006978884225D04140EE70A970CB0704D08B
:10172000C30701D0EC7000E0EA70890707D5800795
:10173000E87802D50421084300E03843E8701649F0
:10174000E878C870FFF774FF2E836E832E71E87AF5
:1017500001281AD12878002801D02C7315E02E73A7
:1017600013E0002809D0288B401C80B228835A2817
:101770000BD92E83FFF7E4FD07E0688B401C80B295
:101780006883FA2801D36E832C7128786870F8BDBD
:10179000FC0000206800002050010020094A116868
:1017A000002802D09304194301E049004908116060
:1017B000054B996A2022002801D0114300E0914393
:1017C00099627047002002400000034070B5002479
:1017D0001E4DFFF72FFC800606D50220FFF7ECF91F
:1017E000641CA4B2AC42F4D3194C2079002816D062
:1017F0000B208001E061FFF797FAFFF79DFAE1699E
:1018000080B24018FFF7A6FAFFF79CFA1148406A29
:10181000C007C00F06D00C20FFF7BAF970BD012039
:101820004002E7E70020FFF773FDFFF795F8FFF7A9
:1018300071FCFFF753FAFFF77FFCFFF781F90420F3
:10184000FFF766FD0120FFF76FFD70BDDC050000AE
:101850006800002040000640024840684007C00F72
:10186000704700000003044010B5FFF74DFAFFF782
:101870005BFAFFF761FA044980B2C9694018FFF7C3
:1018800069FAFFF75FFA10BD68000020F0B572B684
:101890000020174E174F18494300CA5A1749C95A12
:1018A0000C465443A402240C2502240A2543DC19C7
:1018B000E583F35A59438902090C0D02090A0D43C5
:1018C000E5849A4201D9D11A00E0002189B20A02C6
:1018D000090A0A430A49E2820A5C39184A73094A2A
:1018E000125C401CC0B24A740428D4D362B6F0BD66
:1018F000F400002050010020C4000020A01A0000C5
:10190000B8000020BC0000208288418800888A42FC
:1019100007D3814201D3084670479042FCD310465A
:1019200070478242FBD28842F5D2704770B50F4CA7
:10193000206840084000206000200D4B0D4A01E067
:10194000042802D28100595800E00B498500401C50
:1019500051511928F4D3FEF763FB084900200860B1
:10196000206801210843206070BD00000000104085
:101970000000000000000020E113000064000020CF
:1019800010B50446FEF721FC04494A68C0239A4377
:10199000A3011A434A60FEF71CFC10BD00E400E0FE
:1019A00010B5064910240C60054908650320FFF7AF
:1019B000E7FF02488038046010BD000080E100E0CD
:1019C000000000200120FFF715FD314D01276F7346
:1019D0000420FFF79DFC0120FFF7A6FC2D4C0026FC
:1019E000267041206070A670E6700D2020710620E0
:1019F00060718020A0718220E071642161723C20BE
:101A0000A072E1722073267266752348E085FEF7A6
:101A1000CFFC2086224603213C20FFF771FBFFF715
:101A20007DFB0220FFF78CFB0220FFF79FFB0120CC
:101A3000FFF790FB0120FFF7A3FB62B6FFF76CF9FD
:101A40001E20FFF7A5F8EE722F746E74AF73EF735C
:101A5000E869FFF77FF9FFF775F91048FFF7A0FF76
:101A6000FFF7A0FCFFF730FDFFF708FEFFF794FB40
:101A7000FFF7CCFCA87B002804D0FFF7A7FEFFF7F8
:101A80006FF8EFE7FFF702FF0C20FFF781F8F6E7AA
:101A90006800002050010020090A000059180000C9
:101AA00010080A0511090B0638003800240024002C
:101AB00049004900710071000101010106030201A2
:101AC0000001020300000240000102400002024047
:101AD00000030240080004400801044008020440DA
:101AE00008030440000004400001044000020440D8
:101AF00000030440141B00000000002064000000EC
:101B000044010000781B000068000020E80000008D
:101B100044010000601C0000500100203C00000057
:101B20006001000000000000000000000000000054
:101B300000000000000000000000000000000000A5
:101B40000000000000000000000000000000000095
:101B50000000000000000000000000000000000085
:101B60000000000000000000000000000000000075
:101B70000000000000000000000000000000000065
:101B80000000000000000000000000000000000055
:101B90000000000000000000000000000000000045
:101BA0000000000000020000000000000000000033
:101BB0000000000000000000000000000000000025
:101BC0000000000000000000000000000000000015
:101BD0000000000F040200007878787850505050D0
:101BE0000000000000000000000000000000FF1FD7
:101BF0000000FF1F0000FF1F0000FF1F000000008B
:101C00000000000C0C0C0C010101010000000000A0
:101C100000000000000000000000000000000000C4
:101C200000000000320032003200320014001400C4
:101C3000140014000F000F000F000F00010001003E
:101C40000100010000000000000000000000000092
:101C50000000000000000000000000000C00000078
:101C6000001BB700E02E000000007017000000000D
:101C70000000000000000000000000000000000064
:101C80000000000000000000000000000000000054
:101C90000000000000000000000000000000000044
:101CA0000000000000000000000000000000000034
:00000001FF
