:100000005555AAAA211900000000000000000000B8
:10001000568300000000000000000000AB51C581C5
:100020000002100005080000890200009F02000085
:10003000B5020000CB020000E10200000000000059
:10004000000000000000000000000000312F000050
:10005000352F000000000000F7020000372F0000DD
:10006000392F0000552C0000B32F00008D2C00000C
:10007000532F0000552F0000592F0000672F00005C
:10008000792F00007B2F00007D2F00009B2F0000A8
:100090009D2F0000B52F00000000000000000000B0
:1000A000B72F0000B92F0000000000000000000082
:1000B00000000000BB2F0000BD2F0000A12C00009D
:1000C000BF2F0000CD2F000009030000E72F000024
:1000D000E92F000000000000000000000000000008
:1000E0002119000000F002F800F05AF80AA090E888
:1000F000000C82448344AAF10107DA4501D100F0E3
:100100004FF8AFF2090EBAE80F0013F0010F18BF55
:10011000FB1A43F00103184794BE0100B4BE01006E
:100120000A444FF0000C10F8013B13F0070408BF1D
:1001300010F8014B1D1108BF10F8015B641E05D0BB
:1001400010F8016B641E01F8016BF9D113F0080F70
:100150001EBF10F8014BAD1C0C1B09D16D1E58BF02
:1001600001F801CBFAD505E014F8016B01F8016B39
:100170006D1EF9D59142D6D37047000000230024AC
:1001800000250026103A28BF78C1FBD8520728BFA7
:1001900030C148BF0B6070471FB51FBD10B510BD03
:1001A000DFF80CD0FFF7F8FF03F0A8F81BF024FCF1
:1001B0000002100003B4FFF7F1FF03BC1BF024FCA6
:1001C0000A484FF0FF0101704FF0000080F31188E2
:1001D0004FF0000080F3098805484FF002010170DC
:1001E00062B604484FF080510160704722ED00E094
:1001F0000002100004ED00E002484FF08051016061
:100200007047000004ED00E04FF0200080F31188FB
:10021000EFF3098098B112480068124909688842D2
:1002200017D0EFF309800E49096820E9F00F8860C4
:1002300000B50B48006800F0F2F85DF804EB0848E0
:1002400008490A68026000688168B1E8F00F81F32C
:1002500009884EF0040E4FF0000080F311887047BB
:100260000402100008021000EFF311804FF020018B
:1002700081F31188704700004FF0000080F311886F
:100280007047000062B6704772B6704740BA704758
:10029000C0BA7047401E0028FCDC704700BE7047A3
:1002A00040BA7047C0BA70471EF0040F0CBFEFF39E
:1002B0000880EFF309804FF0010102F06ABD1EF0E3
:1002C000040F0CBFEFF30880EFF309804FF0020139
:1002D00002F05FBD1EF0040F0CBFEFF30880EFF3D8
:1002E00009804FF0030102F054BD1EF0040F0CBF53
:1002F000EFF30880EFF309804FF0040102F049BDED
:100300001EF0040F0CBFEFF30880EFF309804FF0ED
:10031000050102F03EBD4FF0000000B504F05DFBAA
:100320005DF804EBFFF770BF1EF0040F0CBFEFF396
:100330000880EFF309804FF0000102F02ABD0000B1
:10034000194910B5012008701849002008601849A3
:100350000860184908601849086000F0B9F900F011
:100360004BF900F063F8002010BD10B5114800F003
:100370002AF90F4908600D490968884207D00A48E0
:100380000078022803D1BDE81040FFF735BF10BD4B
:1003900010B5FFF7EAFF044902200870FFF710FFCD
:1003A0004FF0FF3010BD00000002100004021000EA
:1003B000080210000C0210001002100070B50D466B
:1003C0000446C1698068CC221BF019FAE169A06873
:1003D000084440384FF08071C163216A8163002175
:1003E00041630163C1628162C0E908514FF00B3182
:1003F000C1614FF00A3181614FF0093141614FF025
:10040000083101614FF00731C1604FF00631816062
:100410004FF0053141604FF00431016070BD8269D9
:100420008168914201D803F02CB8704710B54FF4A1
:10043000B4714F481BF00DFA002010BD70B5054691
:1004400000EBC5014A4800EB8104FFF70DFF0646AB
:10045000207828B13046FFF70FFF6FF0010070BD24
:100460000320207000206560206204F11C0000F071
:1004700083F83046FFF700FF002070BD2DE9F04102
:100480000F463B49002500EBC00001EB80042E46DF
:10049000FFF7EAFE8046206A3843206204F11C0020
:1004A000074600F090F80CE0216A026C114203D07C
:1004B00000F066F9012600E06D1C2946384600F080
:1004C00078F80028F0D1012E01D1FFF74EFF404609
:1004D000FFF7D2FE0020BDE8F08170B50D4624493B
:1004E00000EBC00001EB8004FFF7BEFE216AA943C8
:1004F0002162FFF7C1FE002070BD70B50C461C499B
:1005000000EBC00001EB800500202060FFF7ACFE8F
:10051000296A2160FFF7B0FE002070BD2DE9F0418F
:100520000D46134900EBC0001E46904601EB8004C7
:10053000FFF79AFE07460F4800680564216A2942C2
:1005400003D104F11C0100F02DF93846FFF794FEA9
:10055000FFF78AFE216A29403160B8F1010F02D10C
:10056000216AA9432162FFF787FE0020B3E700005C
:10057000F8061000040210000021016008467047D0
:1005800030B50A6812B10B46C46B09E0002208605E
:10059000C0E903210BE000BF02F10C03D26812B1E5
:1005A000D56BA542F8DC1A68C0E903211860002069
:1005B00030BD0068002201E0C068521C8A4201D0B0
:1005C0000028F9D170470068704702690AB11168C4
:1005D00031B96FF00400704701F10C02C96839B1FC
:1005E0008142F9D1C9681160002101610846704754
:1005F0006FF003007047000010B54FF4C871324827
:100600001BF027F9002010BD2DE9F0418846054672
:100610002D4900EB8500174601EBC004FFF724FECF
:100620000646207830B13046FFF726FE6FF0010015
:10063000BDE8F08102202070E7611422414604F1F8
:10064000080065601BF096F80020206204F1240089
:10065000FFF792FF3046FFF70FFE0020E8E770B586
:10066000194900EB800001EBC004FFF7FDFD0546D2
:10067000D4E90701814205DB144804F12401006834
:1006800000F090F8206A401C20622846FFF7F4FD35
:10069000002070BD70B50C4900EB800001EBC00478
:1006A000FFF7E2FD0546206A08B1401E206204F112
:1006B0002400FFF788FF10B1606A00F011F82846A7
:1006C000FFF7DAFD002070BD600810000402100082
:1006D00010B54FF42A7140481BF0BBF8002010BD44
:1006E00010B5044690F8380002280BD02046FFF7DA
:1006F0006CFF022084F8380038492046FFF740FF9D
:10070000FFF733FE002010BD2DE9F05F8B46064653
:10071000314900EB06109046DDE90AA911F82020C6
:100720001D461AB16FF00100BDE8F09F01EB800497
:10073000FFF79AFD074601202070C4E90165C4E96E
:100740000585C4E907A91422594604F124001BF0C9
:1007500011F8002084F8370084F838006169E060FF
:100760002061C4E90F1020460C99FFF727FEA06016
:100770002046FFF7B5FF3846FFF77EFD0020D3E7A0
:1007800010B5044690F83800022809D02046FFF73B
:100790001CFF022084F8380010492046FFF7F0FEC5
:1007A000002010BD70B5044690F838000D460228B0
:1007B0000BD12046FFF709FF032084F838002946B3
:1007C0002046FFF7DDFEFFF7D0FD002070BD044896
:1007D0000068406870470000F00910000C0210002B
:1007E00004021000F0B58446002004460C4F14E0CB
:1007F0005CF824600323DD0046FA05F280EA02601B
:100800000825002802DA87EA400000E040006D1E5B
:10081000002DF6DC5B1EEED5641C8C42E8DBF0BDDF
:100820001B0000801248804712480047FEE7FEE7A1
:10083000FEE7FEE7FEE7FEE7FEE7FEE7FEE7FEE790
:10084000FEE7FEE7FEE7FEE7FEE7FEE7FEE7FEE780
:10085000FEE7FEE7FEE7FEE7FEE7FEE7FEE7FEE770
:10086000FEE7FEE7FEE7FEE7FEE7FEE7FEE7000045
:10087000AD080000C50000001E4800684FF00051A0
:10088000002891F8210000F01C000DD0042805D0AC
:10089000082805D00C2805D096200CE011200AE08D
:1008A000252008E04B2006E0042809D0082809D0BC
:1008B0000C2809D07020401E01F82C0F08707047DA
:1008C0000C20F8E71B20F6E73720F4E770470A49C9
:1008D00093200870D0E708490B200870CCE7054842
:1008E000006818B904480078932801D000207047A8
:1008F00001207047340400222100002010B504209C
:1009000000F0B3F9052000F0B0F9062000F0ADF9D1
:10091000072000F0AAF9082000F0A7F9182000F03D
:10092000A4F9192000F0A1F91A2000F09EF9E04A7C
:1009300000201060DE4B40331860DD491839086034
:10094000DB4908310860DB49C871D94C143C206090
:10095000D74C0C3420600872D54C103C2060D44C2D
:10096000103420604872D24C0C3C2060D04C1434BF
:1009700020608872CE4C083C2060CD4C183420603A
:10098000C872CB4C283420608873241D2060C87343
:10099000241D206008740120106018600870062172
:1009A000042000F07AF90621052000F076F90621EE
:1009B000084600F072F90621072000F06EF90621C2
:1009C000082000F06AF90621182000F066F90621D7
:1009D000192000F062F904211A2000F05EF90420C9
:1009E00000F04FF9052000F04CF9062000F049F91D
:1009F000072000F046F9082000F043F9182000F025
:100A000040F9192000F03DF91A2000F03AF90420CD
:100A100000F01FF9052000F01CF9062000F019F97C
:100A2000072000F016F9082000F013F9182000F054
:100A300010F9BDE810401A2000F00BB900EB80005F
:100A40009B494000002218390A609A4A521F1070D0
:100A500001200860704796490020183908607047E7
:100A600000EB800092494000002214390A60914A4C
:100A7000121F10700120086070478D490020143942
:100A80000860704700EB800089494000002210395F
:100A90000A60884AD21E107001200860704784499D
:100AA000002010390860704700EB8000804940004A
:100AB00000220C390A607F4A921E107001200860E3
:100AC00070477B4900200C390860704700EB8000BC
:100AD00077494000002208390A60764A521E107099
:100AE000012008607047724900200839086070478B
:100AF0007149097848430A21B0FBF1F16F48491E5A
:100B000080F86010582181761121C176042280F886
:100B100060205C228276C17670476848002180F8A8
:100B200060105C2181761121C1767047604A10B552
:100B3000283214680123D10664B10024146081F8BE
:100B4000350091F83F0000BF91F83F408442FBD050
:100B5000136010BD81F83500FAE700EBC00101EB2E
:100B600000106FF0030101EB800010B55449554CA3
:100B70000978B0FBF1F0401E80B2FF280CD9010AC1
:100B80002170494200EB01206070FF20FFF7CEFF8B
:100B90002078401E207010BD002121706170BDE8DA
:100BA0001040C0B2C2E7424828300168002909D08D
:100BB00000210160C10691F83F0000BF91F83F207D
:100BC0008242FBD0704710B53E4C2178607851EAE4
:100BD000000207D051B1FF20FFF7A8FF2078401E88
:100BE000207010BDBDE810400BF036BDFFF79EFF32
:100BF0000020607010BD2E4A10B5303214680123F9
:100C0000590794B10024146081F8370091F83F002F
:100C100091F83F408442FBD0136091F83F0000BF41
:100C200091F83F208242FBD010BD81F83700F3E7F6
:100C30001F483030016800290AD0002101604FF0C0
:100C4000005191F83F0000BF91F83F208242FBD055
:100C5000704700F01F020121914040094FF0E0224F
:100C600002EB8000C0F80011704700F01F02012164
:100C7000914040094FF0E02202EB8000C0F8801163
:100C8000704700F01F020121914040094FF0E0221F
:100C900002EB8000C0F8801270474907090E002857
:100CA00003DA00F00F00084A00E0084A8154704758
:100CB0001C05002233000020CE021000001000208E
:100CC000CD0210001402100014ED00E000E400E07A
:100CD0004948012101600021016070474748012116
:100CE000016000210160704710B5002000F06BF832
:100CF000FFF7F4FFFFF7ECFF41490020086041498E
:100D0000A0200870002000F06AF8BDE81040002024
:100D100000F04DB83A4801211C3801600021016003
:100D2000704710B5002000F04EF8334901200860EC
:100D3000002000F054F8BDE81040002000F037B863
:100D40002D4901201C39086070472F4800782E4932
:100D5000491C0978401A00F03F0070472B4902787F
:100D60000A7042784A7082788A70C278CA700279B2
:100D70000A7142794A7182798A71C079C871704763
:100D800023480068417882784FF00050437A03741A
:100D9000204B1B78437443891B0A83744389C374B3
:100DA00001754275C1798175017AC175704700F08E
:100DB0001F020121914040094FF0E02202EB800028
:100DC000C0F80011704700F01F0201219140400956
:100DD0004FF0E02202EB8000C0F88011704700F075
:100DE0001F020121914040094FF0E02202EB8000F8
:100DF000C0F88012704700005C840022A00000222E
:100E00007C04002200E400E0200400200002002016
:100E10003C021000C102100010B5092000F054F887
:100E20000A2000F051F8092000F05AF80A2000F0DA
:100E300057F80521092000F05FF805210A2000F08D
:100E40005BF833487F2141707C2282700171002160
:100E500000F848192F490A684FF0010192F8C8308C
:100E6000DC070AD09C0708D590F84A40C3F38203F8
:100E700001FA03F39C4380F84A4092F81131DC07F1
:100E800021D0C3F34203012B03D0234B4FF48064E2
:100E90001C604830837802F211121478C4F34204C3
:100EA00001FA04F4A343837003791478C4F3420471
:100EB00001FA04F42343037103781278C2F3420267
:100EC00091400B43037010BD00F01F0201219140BF
:100ED00040094FF0E02202EB8000C0F8801170471B
:100EE00000F01F020121914040094FF0E02202EB87
:100EF0008000C0F8801270474907090E002803DA05
:100F000000F00F00054A00E0054A815470470000D8
:100F1000480000203C02100000E100E014ED00E079
:100F200000E400E0704710B5044602462A21002084
:100F300000F06EF9221D2B21002000F069F904F168
:100F400008022C21002000F063F904F10C020F21AB
:100F5000032000F05DF92068000E032825D304F17A
:100F600014022D21002000F053F904F110022E216B
:100F7000002000F04DF904F11C022F21002000F0A8
:100F800047F904F118023021002000F041F904F182
:100F900024023121002000F03BF904F1200232212B
:100FA000BDE81040002000F033B910BD08B507219E
:100FB0006A46084600F02CF9009808BD10B5BE4CF2
:100FC000072060700020207044F2C000608000BFE5
:100FD00000BF00BF4CF2C000608000BF00BF00BF78
:100FE0004CF2E00060800920FFF754F944F2E00081
:100FF000608000BF00BF00BF4FF48040608010BD24
:10100000F0B500252E464FF00054E02717E000BF52
:10101000883401F03F0160702170678000BF00BF1D
:1010200000BFD4F808C043F825C06680883C00BFE4
:101030006D1C521E491C3F2901D9401CC0B2002A18
:10104000E6DCF0BD2DE9F0479B4D0026AD1C0446C3
:101050002E80DFF868920121C9F880104FF4C05843
:10106000A5F8008000BF00BF00BF00BF00BF4FF465
:1010700080572F803520FFF70DF92E80FFF79EFF58
:1010800000F0DCF85C2000F0EAF823460122082199
:101090000020FFF7B5FF231D012209210020FFF7E3
:1010A000AFFF04F1080301220A210020FFF7A8FF87
:1010B00004F10C0301220B210020FFF7A1FF04F132
:1010C000100301220C210020FFF79AFF04F1140302
:1010D00001220D210020FFF793FF00F0AFF8FFF78A
:1010E0006DFF2F8000BF00BF00BF00BF00BF00BF6B
:1010F00000BF00BF00BF00BFA5F8008000BF00BF59
:1011000000BF00BF00BF4FF440602880C9F8806076
:10111000BDE8F087F0B54FF0000C059C0CB14FF026
:10112000800CC5B200264FF00057644C28E000BF89
:1011300087F889504FEAC05EBEF1000F01F03F0E04
:101140004EEA0C0E01DA4EF0400E87F888E053F8B4
:1011500026E0C7F88CE04FF0010EC4F8B0E04FF085
:10116000000EC4F8B0E0491CC9B2402902D36D1C7E
:10117000EDB20021D4F8C0E0BEF1000FFAD1761C28
:101180009642D5DBF0BD4FF0005282F88900002373
:1011900009B1802002E0C00503D5402082F8880014
:1011A00001E082F8883045480121C0F8AC10C0F851
:1011B000AC3000BFD0F8C0100029FBD17047F8B5A3
:1011C0000C4605464FF4F47600213046FFF7DBFF6E
:1011D0000020014600902B4622463046FFF79AFF3A
:1011E000F8BDF8B50C4605464FF4F87600213046B8
:1011F000FFF7C9FF00214FF4FC70FFF7C4FF002088
:10120000014600902B4622463046FFF783FFF8BD8B
:10121000294B587041F0800003F8880927480021C5
:10122000B4300160012140F8B41900BFD0F8C010FB
:101230000029FBD1D3F890001060704710B51E4C08
:101240004FF48040A41C20800420FFF723F80020E6
:10125000208000BF00BF00BF00BF00BF10BD70B541
:10126000154C2126A41C268000BF00BF00BF00BF74
:1012700000BF40F02105258000BF00BF00BF00BFB8
:1012800000BF44F22101084320800420FFF702F848
:10129000258000BF00BF00BF00BF00BF268000BF89
:1012A00000BF00BF00BF00BF0020208000BF00BF04
:1012B00000BF00BF00BF70BD8800002000100022EA
:1012C000F8B5F94C002635466670E6602661666121
:1012D0000120A66100F0ACFF0C2000F0A9FF032064
:1012E00000F0A6FF172000F0A3FF012000F0ACFFE4
:1012F0000C2000F0A9FF032000F0A6FF172000F04B
:10130000A3FF01F003F86A460221E84801F09BFCC4
:10131000E7499DF80000E74A08709DF80110117038
:10132000442802D0542800D0042601F002FA01F02B
:10133000F6F90521012000F093FF05210C2000F0B3
:101340008FFF0621032000F08BFF0621172000F0FD
:1013500087FF012000F060FF032000F05DFF1720F1
:1013600000F05AFFE570A5703046F8BD70B5CE4B61
:101370001889C0F38001C0F34016C0F30024714007
:10138000C0F3C0226140C0F380355140694040083D
:1013900040EAC130188170BDD065704738B50D4640
:1013A000009014460421684602F0E6F9C2498978A3
:1013B000C90602D5072D00D1401C0099616584F84B
:1013C000530038BD2DE9F04FBC4D0646BA4C286895
:1013D0008BB090F83304C00718D0608840F08000CC
:1013E0006080FFF7C3FF296800F00700084490F809
:1013F000340484F84100FFF7B9FF2968C0F30210F4
:10140000084490F83404800084F840004FF0000B4A
:1014100084F84BB02868A44F062E90F845076075F5
:10142000387802D0062827D010E006280ED00120F8
:101430008DF80000684602F0E2FB684601F04AF8C9
:10144000684600F0FEFF684601F029FB96484FF021
:1014500002084FF0E90A06709948042EC0F30E07FF
:101460000DD0032E26D04FF00409022E46D0052EB3
:1014700060D0062E7ED0EEE08DF800B0DAE78E4A1E
:101480003146E06AFFF78AFF206BE065A4F84C70F4
:10149000A07880060028286890F8580703DA20F022
:1014A000060040F0040084F8510084F8528084F86B
:1014B0004EA0D0E0804A3146E06AFFF76FFF206B14
:1014C000E0657D4804212C3002F056F97C4901EB9F
:1014D0008000C0F30E00A4F84C00A078800600281D
:1014E000286890F8580703DA20F0060040F004005E
:1014F00084F8510084F85280ED2018E06E4A31469D
:10150000E06AFFF74BFF206BE065A4F84C70A07811
:1015100080060028286890F8580703DA20F00600B3
:1015200040F0040084F8510084F85290E52084F8DB
:101530004E0090E0A078800628D528682C3400F270
:10154000C9305D4A01782176C178A1764178A177CA
:1015500080782073E07F314640F00100E07720681A
:10156000FFF71CFF5748C0F30E002084286890F84E
:10157000580700E00BE020F0060040F0020084F87D
:10158000250084F8268084F822A02C3C63E04A4A97
:101590003146E06AFFF702FF206BE0654848F8300B
:1015A000C0F30E00A4F84C0062889006002828685A
:1015B00090F8510203DA20F0060040F0040084F8AD
:1015C000510041480078012811D1296891F8500252
:1015D000C3070CD091F81011090608D53B490978CA
:1015E00029B9800703D5012184F8528002E0002147
:1015F00084F852902868D20500F25220038824F81B
:10160000343F438863800379237143796371C388CE
:10161000E38003892381837AA372C37AE372037B15
:101620002374A0F25220A4F1340403D490F8932739
:1016300084F8462090F85F0284F84A0011B184F8DB
:101640004EA002E0E52084F84E0094F84B0040F0F4
:10165000040084F84B00286890F8FD16C907A178AB
:101660004FEA817134D0002934DB94F84B104907DC
:1016700035D490F8FC06C0070DD00021012003F0FE
:10168000BCFB94F84F0020F00300801C84F84F004E
:10169000A4F842B027E00121084603F0AEFB94F81D
:1016A0004F0040F003001CE018021000041000205E
:1016B000C0021000C1021000980C10003C02100083
:1016C000009F0120F0A001205702100079021000B5
:1016D000002904DA90F8660720F0030001E090F892
:1016E000660784F84F00607D20F004006075FC48B8
:1016F00086700BB0FB48BDE8F04F01F0FCB8FA482B
:10170000F74A0168927901F1D20030F81220F548C9
:10171000428311F8F93FC3754B7803768978817756
:10172000002101758175F14909785A2904D1EF49E1
:10173000491C09781144418370472DE9F047E94C71
:101740000546002084F84B00E74FE12084F84E0066
:101750003868DFF89C93E24E90F84517617590F871
:10176000FD165FEAC1782146B1F802C0CB7D0CF0CE
:10177000FF024CF0010104D05FEA8C7C01D4012D02
:1017800008D0DFF87083082D0BD0092D3DD0072D30
:1017900045D033E0337172710A22E2756180D54918
:1017A00012E0337172716180417D027D4B1C94F8AF
:1017B00060C003FB02F1BCF1010F03D902FB0CF284
:1017C00002FB03F108EB4101C1F30E01A4F84C1038
:1017D00090F8531799F8002001F0F00102F00F0281
:1017E0001143E17790F8550784F82100BD4A294656
:1017F0005FF00100FFF7D2FD2069E06560884107D6
:10180000617D2AD521F004012DE0FFF778FF3868CB
:10181000B279017D5143B84A02EB4101D4E7427DE0
:10182000338B017D521C5A43514308EB4101C1F3F4
:101830000E01A4F84C1090F8531799F8002001F00D
:10184000F00102F00F021143E17790F8550784F898
:101850002100A44A2946E068CCE73A6892F8452777
:1018600002F0040211436175C10705D094F84E10CF
:1018700041F0020184F84E1039684FEA807091F807
:10188000FD26D20718D0002818DB072D04D00A2D1A
:1018900002D0012D05D01AE014F84F0F20F00300FC
:1018A00008E00021012003F0A8FA14F84F0F20F0FF
:1018B0000300801C20700AE0002804DA91F8660713
:1018C00020F0030001E091F8660784F84F00B5703E
:1018D000BDE8F047834800F09FBF072812D00A28D0
:1018E00010D001280ED008280CD009280AD00428CE
:1018F00007D0032805D0052803D0022801D00628E8
:1019000001D15FE519E770472DE9F843744D814631
:10191000012901D10020E871EC79784E641C724FE6
:10192000DFF8C0810FE0386890F8FD06C00702D0EC
:1019300098F80200800756F82420694648469047E8
:10194000012805D0641C0B2CEDD90020BDE8F883DC
:10195000EC719DF80000F9E72DE9F041064600889A
:1019600000283BD0642231465E4802F0FBFBFEF7C4
:101970002EFF5B4C00255C4FC4E90650A57138680A
:1019800090F8FD06C0070AD0B078800707D4554903
:10199000088810F0760F02D040F080000880A07810
:1019A00000281BD101214F48FFF7AEFF060015D0DC
:1019B000534901200870386890F8101149070FD575
:1019C00090F8430780070BD401F005F90220E0707E
:1019D00001F005F9192001F02EF9A670BDE8F0819B
:1019E00065703046BDE8F04177E700207047C26877
:1019F000120006D00088C00503D508200870012019
:101A0000704700207047C268120006D000880005A9
:101A100003D5092008700120704700207047C26874
:101A2000120006D00078C00703D0072008700120FC
:101A3000704700207047426A120006D00078000705
:101A400003D50A2008700120704700207047C26843
:101A5000120005D00078000602D5012008707047FA
:101A600000207047C26A120008D0026B32B10078C1
:101A7000800603D5022008700120704700207047BF
:101A8000C26A120006D00078C00603D5052008708F
:101A90000120704700207047C26A120006D000780B
:101AA000800703D50420087001207047002070478C
:101AB000026B32B10078400703D503200870012083
:101AC000704700207047C26A12001BD0026BCAB177
:101AD0000088400516D506200870012070470000D8
:101AE00018021000980C10003C021000EEFF0100DC
:101AF000F6FF010000800120009E0120F4B90100E2
:101B0000CB0210000020E9E7002008700120E5E783
:101B10002DE9F0410421FC4801F02EFE0446FA486C
:101B20000421001D01F028FEF84F0546DFF8D88398
:101B3000B878F74EA8F12C08042801D002280CD15F
:101B400098F80200800602D5A200F14902E0620086
:101B500006EB4401EF4802F005FBB878032801D0FA
:101B6000022811D198F80200800603D5AA0006EBDE
:101B7000840104E005EB44006A0006EB4001BDE887
:101B8000F041E54802F0EEBA28E710B588B0012030
:101B90008DF80000E148DC4C0068A4F12C0490F8BA
:101BA000FD06C0070BD0A078800708D4D7488078FE
:101BB000012804D102208DF800000AF056FD00F043
:101BC00072FBD7480190D248039000F5F87004905A
:101BD000A1686846884708B010BDF0B5CF4B47F6FE
:101BE000FF7201291B6803D01B7DCE4C00211EE033
:101BF000CC4C5B7D3C3CF9E70D18EDB2CA4FEE18BA
:101C0000F6B237F815E007F1800C37F816703CF89B
:101C100015503CF81660AEEB0505BE1B35442DB2E1
:101C200024F81150954200DA2A46491CC9B299425B
:101C3000E2D3002007E000BF34F81010891A24F81E
:101C40001010401CC0B29842F6D3F0BD2DE9F84FF9
:101C5000B24D012000902868AD4C002690F8F8168F
:101C6000C90730D0A8492C3991F8487007B9012725
:101C7000A549DFF898822C3991F8471091FBF7F1CC
:101C80000FFA81FA98F80210042902D0032903D030
:101C90000BE0407D460023E0007D042146009A4889
:101CA00001F06AFD9A4901EB800498F802000228CD
:101CB0000AD005280FD0042812D0032810D00228FB
:101CC0000ED005280CD03DE12868914C417D007D67
:101CD0000844460004E02868944C3A2690F8F9A697
:101CE000D8F80C2091465245EDDCB9F1000F05D132
:101CF0008E484FF4F871783019F0ABFDC64698F86D
:101D00000200DFF82482002108F18008A8F5AA6B00
:101D10002BE000BF5BF8213034F911C00428634484
:101D20004BF8213001D003281ED1B9F1000F07D1A3
:101D30007D4B002223F8112047F6FF7228F811206E
:101D4000DFF8E4C134F911203CF911309A4200DC8B
:101D50001A462CF8112034F9112038F911309A4222
:101D600000DB1A4628F81120491CB142D2DB09F1E8
:101D70000101CEF80C1051457DDB0023DFF8B09156
:101D8000F046CEF80C30042806D003282ED00228C6
:101D900056D0052870D0D5E001210020FFF71DFFA7
:101DA00059482C3890F8490060B12868407D4100BE
:101DB0005E48783002F0A4FFC8F8100078215D4832
:101DC00019F025FD00204B465946D8F810200AE0AE
:101DD00031F820507D43AD1A24F8105051F82050AE
:101DE00043F82050401CB042F2DBABE00021084633
:101DF000FFF7F3FE44482C3890F8490060B128689A
:101E0000007D41004948783002F07AFFC8F814009C
:101E10008021494819F0FBFC00204B465946D8F870
:101E200014200AE031F820507D43AD1A24F81050F8
:101E300051F8205043F82050401CB042F2DB81E0C2
:101E400031482C3890F84900E8B12868407D4100BD
:101E50003648783002F054FFC8F810002868017D39
:101E6000427D49000BEBC20002F04AFFC8F81400A3
:101E70007821304801E061E034E019F0C8FC8021AD
:101E80002D4819F0C4FC002043464A4659460EE04E
:101E900031F820C0B3F810800CFB07FCACEB080C49
:101EA00024F810C051F820C042F820C0401CD5F8DA
:101EB00000C09CF815C0B0EB4C0FE9DB28685B69EB
:101EC000407D40000BE000BF31F820507D43ED1A0B
:101ED00024F8105051F8205042F82050401CB042D5
:101EE000F2DB2FE0104A00205946F03A09E000BF2B
:101EF00031F8203024F8103051F8203042F82030EA
:101F0000401CB042F4DB1DE0C40C100018021000AD
:101F1000009F01202CB00120A4B001203C02100041
:101F20000080012074A7012038A60120F0A0012024
:101F300058A3012024B101209CB10120FFF7CDFC62
:101F4000002000900098BDE8F88FCB4910B58A7842
:101F50000120092A10D18B795B1CDCB2C74B8C7134
:101F60001B6893F8D13003F00F035B1C9C4204D232
:101F70001046FFF7B2FC002010BD00228A7110BD90
:101F8000BD4910B58A780120072A0BD18B69BC4C5A
:101F90005B1C8B6194F86040A34204DA1046FFF7A3
:101FA0009CFC002010BD00228A6110BD70B5B349B1
:101FB00009684B7D097D5B1C4B43B1490C460A788F
:101FC00094F86040D2071FD0012C1DD949884905DB
:101FD0001AD50020AB4A14E0012109E001FB0306F9
:101FE00032F8105032F81660491C354422F810506F
:101FF0008C42F3DC32F9101091FBF4F122F810104E
:10200000401C9842E8D370BD047670BDF0B587B02F
:10201000FFF77EFDFFF799FF00282AD0FFF7B0FFFA
:10202000002826D0964DA878400603D4FFF70EFE70
:1020300000281ED0914E904C306890F8FD06C007E5
:102040000BD0A878800708D4A078012805D1207982
:10205000E875607968800AF008FBA078082801D14B
:102060006079688000218648FFF74EFC18B1FFF7C1
:1020700034FC07B0F0BD84480027A77007703068B3
:1020800090F8FD06C00706D0A878800703D4002189
:10209000084602F0B2FE7D49A4200873306890F82B
:1020A0001001400702D5E77000F083FD6078012839
:1020B00023D08DF8007001208DF818006846FFF7D6
:1020C00075FF2888724C400507D53068407D420076
:1020D00004EB4001204602F045F86A48019000F503
:1020E000F050029000F58070039000F5F870CDE993
:1020F0000404A96868468847BBE703208DF8000000
:10210000D9E770B55D48604D4FF00004016891F863
:102110001001420758480AD591F84317890706D499
:10212000C178012908D002290FD0032903D1C47036
:10213000FFF72BFD2C7070BD0221C17000F04FFD28
:10214000BDE87040322000F076BD0321C170807878
:10215000BDE87040FFF7C1BBF0B500224D1E12E094
:10216000531C1F460BE000BF30F8126030F81340DC
:10217000A64203D920F8136020F812405B1C9BB2E2
:102180008B42F1D3BAB2AA42EADBF0BD2DE9FF419E
:1021900000252E462946012002F02FFE00246F461E
:1021A00000F0B2FD27F81400641CA4B2082CF7D389
:1021B00008216846FFF7D0FF5FF0020037F81010E3
:1021C00019B131446D1C8EB2ADB2401C80B20628EC
:1021D000F4D3B6FBF5F004B0D6E438B50C460546AA
:1021E00001226946104600F074FD9DF800000009C8
:1021F00028709DF8000000F00300207038BD08B57D
:1022000001F0030141EA00118DF800100122694636
:10221000104600F091F908BD00F01F020121914025
:1022200040094FF0E02202EB8000C0F8001155E4B5
:1022300000F01F020121914040094FF0E02202EB23
:102240008000C0F8801149E400F01F020121914094
:1022500040094FF0E02202EB8000C0F880123DE41C
:102260004907090E002803DA00F00F00094A00E0D0
:10227000094A815432E40000180210003C021000A8
:10228000980C100000800120CB02100000100020EC
:10229000F89F012014ED00E000E400E0FE48016832
:1022A0000029FCD17047FD4800220260FB481C3821
:1022B0000260FB480261012101618260816002606D
:1022C00001600260F449A0F574700B68002BFCD12A
:1022D000F4490B7B43F020030B730B7B23F040038B
:1022E0000B730B7B23F080030B730B7B23F020031A
:1022F0000B73C0F8D823C0F8E023EB480270704796
:10230000E548183001680029FCD1704730B5E44831
:10231000002474300460E24880300460E048C46007
:102320000121C160C460046001600460DF4D2020B1
:1023300028706870DB49593D0873A4200873D6489B
:10234000183001680029FCD1FFF7ADFFD8480460C0
:1023500085F8344030BDF0B5D648272500784428AC
:1023600002D0542800D1182500224FF4F831CA4E6B
:10237000CC485C2724E00C465FF0000303EB000E22
:1023800011F803C05B1C8EF860C00C2BF6DB3368C1
:10239000002BFCD18276C77604F10C0103EB000E12
:1023A00011F803C05B1C8EF860C00C2BF6DB3168A3
:1023B0000029FCD1511C8176C77604F13001921CB2
:1023C000B2EB450FD7DBF0BD2DE9F0479246089EF2
:1023D0005B1EC6F108010022B24C01F0FF0C15464D
:1023E000002189469A420BDA00EB0208875C98F8D4
:1023F000018027FA06F708FA0CF847EA080703E015
:1024000007D1875C27FA06F701EB040888F86070AB
:1024100003E001EB040888F8609001F1010102F18A
:1024200001020C29DEDB9C490F68002FFCD10AEB6E
:102430000501A1765C21E1766D1C022DD0DBBDE8A3
:10244000F08778B500259C4E00950446006A11235C
:1024500032782946FFF7B8FF0095182372780021DB
:10246000606AFFF7B1FF78BD00B58BB000208DF832
:102470000000684601F0C3FB6846FFF7E2FF0BB0BF
:1024800000BD2DE9F0470024DFF80C828549824623
:10249000254626464FF05C0900209C4206DA00EBF8
:1024A000010C1AF804708CF8607002E0471887F885
:1024B0006060641C401C0C28EFDB00BFD8F80000F3
:1024C0000028FBD15019887681F81B906D1C032DD4
:1024D000E2DBB4E730B5784D044640691623AA78AC
:1024E0000021FFF7CEFFEA78A069BDE83040202345
:1024F0000021C6E700B58BB000208DF800006846CB
:1025000001F07DFB6846FFF7E5FFB8E7F0B5002472
:10251000644D05E0165D6719641C87F8606064B25D
:102520009C42F7DB5C4A1468002CFCD1A976184366
:1025300040F01000E876F0BD70B50023594C05E07E
:10254000CD5C1E195B1C86F860505BB29342F7DBD2
:1025500051490B68002BFCD1A07642F01000E076C8
:1025600070BD30B5554C07220220216801F242713E
:10257000FFF7E2FF2168022201F24A710920FFF70A
:10258000DBFF2168062201F24D710B20FFF7D4FF1B
:1025900020684B494B4D90F85307097800F0F00044
:1025A00001F00F0108432870012229461120FFF78E
:1025B000C3FF2168032201F257711620FFF7BCFF09
:1025C0003F480122401E007800F00F01206890F87B
:1025D0005A0761F31F10287029461920FFF7ACFF36
:1025E0002168012201F25B711A20FFF7A5FF216823
:1025F000042201F25C711B20FFF79EFF304802228B
:10260000C01C2946007828702D48401C007868704E
:102610001F20FFF791FF2168022201F5EC612120C4
:10262000FFF78AFF26480222001D294600782870FD
:102630002348801C007868702720FFF77DFF216801
:10264000012201F263712A20FFF776FF2168072239
:1026500001F266713D20FFF76FFF2068022290F8BB
:102660006E17297090F86F07687029464420FFF7AD
:1026700063FF2168022201F5EE614620FFF75CFF4F
:102680002168082201F272714820FFF755FF216886
:10269000082201F27A7117E0040B00221C0C0022C0
:1026A000D0030022001000201A0210005900002060
:1026B00040050022C0021000380210003C02100049
:1026C000F6FF0100FC0C10005020FFF735FF2168D9
:1026D000052201F284715820FFF72EFF2268FF4D7A
:1026E00092F88F072870012302F28A72FA210020E3
:1026F000FFF70CFF2268012302F28C720E21C0202A
:10270000FFF704FF2268012302F28D721421C0201A
:10271000FFF7FCFE332068740B20A87430BD10B5A1
:10272000FFF71FFFFFF7E6FEFFF79EFEBDE8104034
:1027300011E630B55C2562225E236424E849442812
:1027400001D0542804D00D704A708B70CC7030BD0D
:102750003020087035204870322088703720C870CB
:1027600030BD38B50546DF4C406D00906073010AFE
:10277000A173010CE173000E2074042269462B2022
:10278000FFF7DAFE012205F153012F20FFF7D4FEF7
:1027900095F85300A074E86D0090E074010A21756B
:1027A000010C6175000EA075042269463520FFF703
:1027B000C3FE0098800F84F84000CB4901220870C6
:1027C0003920FFF7B9FE38BD00EBC00101EB001066
:1027D0006FF0030101EB800010B5C449C44A0978C9
:1027E000146890FBF1F0401EC1B2012358075CB1A0
:1027F0000024146080F8341090F83F1090F83F40A7
:102800008C42FBD0136010BD80F83410FAE7B94851
:1028100001680129FCD170477CB5044600208DF881
:1028200004002046FFF79DFFAC48B4F84C10401C54
:102830000180217D00F8011C94F84E104173A94ECF
:10284000A07D86F83600AC4D286890F842078DF8D8
:1028500000006188890503D520F012008DF8000082
:10286000012269460220FFF767FE042204F11501E8
:102870000520FFF761FE2968022201F24A71092052
:10288000FFF75AFE022204F11A010C20FFF754FE52
:10289000022204F11C010E20FFF74EFE052204F176
:1028A0001E011020FFF748FE286890F8FC06C007BC
:1028B0000AD0012201A94420FFF73EFE022204F1C2
:1028C00042013F20FFF738FE012204F14F013D2075
:1028D000FFF732FE012204F150014420FFF72CFEE5
:1028E000844801680129FCD194F84E0030732320FC
:1028F000FFF76AFF7CBD7EB50446FFF732FF7748DD
:10290000B4F84C10401C018094F8451000F8011CEC
:1029100094F84E104173784D286890F842078DF86E
:1029200000006188890503D520F012008DF80000B1
:10293000012269460220FFF7FFFD012204F1150183
:102940000520FFF7F9FD94F84B00664EC00708D04C
:10295000286800F2957190F8950786F836000122F4
:1029600006E094F8460086F83600012204F146019C
:102970000620FFF7E1FD012204F144010720FFF7E3
:10298000DBFD012204F14A010820FFF7D5FD28688C
:1029900090F8FD16C90734D061888A0731D494F8BD
:1029A0004B2052072DD4B0F80027ADF80420B0F822
:1029B0006A07ADF80800090609D594F841100844E3
:1029C000ADF8080094F840001044ADF8040002226D
:1029D00002A94120FFF7B0FD022201A90920FFF75B
:1029E000ABFD296891F8FC06C0071DD0012201F259
:1029F0006E714420FFF7A0FD022204F142013F2046
:102A000010E090F8FC06C00707D000208DF8040005
:102A1000012201A94420FFF78FFD2968022201F25B
:102A20004A710920FFF788FD012204F151011720A6
:102A3000FFF782FD012204F152011820FFF77CFD0F
:102A4000022204F134011B20FFF776FD022204F17B
:102A500036011D20FFF770FD012204F1380121200D
:102A6000FFF76AFD012204F139012220FFF764FD1E
:102A7000012204F13F012A20FFF75EFD012204F14B
:102A80004F013D20FFF758FD1A4801680129FCD18C
:102A900094F84E0030732320FFF796FE7EBD30B5CC
:102AA0000446C069104D0122007800F00F01124861
:102AB000006890F85A0761F31F1028702946192002
:102AC000FFF73AFDE0680222294600782870606826
:102AD000007868701F20FFF72FFD0FE053000020E3
:102AE0003802100000100020FC0C1000CD02100075
:102AF00040050022000B00223C02100020692946FC
:102B0000022200782870A06800786870BDE8304024
:102B1000272011E58E498F4B0A6892F84D270270E5
:102B20000A68B2F85027428009681B7801F2537195
:102B300003F00F030A7802F0F0021A430271B1F8B1
:102B40000B20C28002818A7B82720A7CC2728978E1
:102B50000173704710B50446014601220B20FFF7B0
:102B6000EBFC0222A11C0E20FFF7E6FC0122211D36
:102B70001120FFF7E1FC0222A11D1D20FFF7DCFC64
:102B8000022204F108012520FFF7D6FC012204F1FE
:102B90000A012220FFF7D0FC012204F10B012A20B8
:102BA000FFF7CAFC04F10C010122BDE8104013201C
:102BB000C2E4694908B504200873654801226946E2
:102BC000006890F8430720F008008DF8000003200B
:102BD000FFF7B2FC08BD604920200873704718B5A4
:102BE0005E4C01226946207840F0F0008DF800002C
:102BF0001046FFF7A1FC5849C020087320788DF8D3
:102C00000000012269461046FFF796FC18BD5449A2
:102C1000002008607047524840300168002909D000
:102C2000002101604FF0005191F83F0091F83F20E2
:102C30008242FBD070474A4900220A60494A10701C
:102C400001200860704770B5474C2368002BFCD109
:102C50001D4603E0C6185B1C86F880508B42F9D3F2
:102C60002368002BFCD102E0C45CD4545B1C8B4273
:102C7000FAD370BD10B501F0CBFEFFF7CCFF3B4897
:102C8000007878B13848183801680029FCD13248FA
:102C9000C078400602D5364901200870BDE81040D2
:102CA000FFF7B4B933490020087010BD10B501F02A
:102CB000AFFE2B4900200860BDE81040FFF721BAA5
:102CC00010B501F0A5FEFFF7A6FFBDE81040FFF725
:102CD00018BA214B10B59876DA762348183804686C
:102CE000002CFCD1012083F8E0001F480468002C70
:102CF000FCD1002005E0C41894F860400C54401C3E
:102D000040B29042F7DB10BD08B543F6FF70ADF856
:102D10000000022269463F20FFF70EFC0220ADF8BA
:102D20000000012269463D20FFF706FC0A49E02029
:102D300008734FF41670FDF7ADFA0222694687203A
:102D4000FFF7C7FFFFF735FFBDF8000008BD000023
:102D50003C021000F6FF0100001000207702100076
:102D6000000500222D0000201C0B00221A0210007A
:102D700019021000CB0210007048006890F8F007AC
:102D8000C00605D5ED214EF6ED52084609F0CAFD04
:102D9000FEE705460E46012009F086FD694C6848AD
:102DA000C4E900062868A0606868E060A86820613F
:102DB000E86860612869A0616869E061A8692062CB
:102DC000614EE869606230685F4FA062103F38680A
:102DD00007F10408E062D8F8000008F10409206354
:102DE000D9F8000006F1040A6063DAF80000DFF8A1
:102DF00058B1A063ABF1340BDBF80000E063381F7F
:102E000000682064FDF7E3FC60645048002100681E
:102E1000A0640F202A6809F05FFD01210F206A6875
:102E200009F05AFD02210F20AA6809F055FD03217F
:102E30000F20EA6809F050FD0C210F202A6909F0E3
:102E40004BFD0E210F206A6909F046FD0F2108464F
:102E5000AA6909F041FD20210F20EA6909F03CFD33
:102E6000326821210F2009F037FD3A6822210F2016
:102E700009F032FDD8F8002023210F2009F02CFDA5
:102E8000D9F8002024210F2009F026FDDAF80020CF
:102E900025210F2009F020FDDBF8002026210F203E
:102EA00009F01AFD381F026827210F2009F014FDD0
:102EB000FDF78DFC024630210F2009F00DFDFFF7D4
:102EC0005BFF012807D002280FD0032805D0042873
:102ED00005D004210AE0012108E0032106E00021D9
:102EE000032009F0E1FCFFF747FF0221032009F06E
:102EF000DBBC10B504460146042009F0D5FC012CCA
:102F000001D1FFF739FF10BD0146082009F0CCBC04
:102F10000146062009F0C8BC10B50446014607204A
:102F200009F0C2FC012C03D0022C01D0032C01D1EA
:102F3000FFF722FF10BD0320EEE700003C02100067
:102F4000AF0550FA5800012038ED00E07C02100077
:102F500001F05EBD704770472C4810B5016821F044
:102F60000401016001F054FDBDE8104017F04EB9B6
:102F70007047704701F04CBD10B501F049FDBDE848
:102F8000104009F015BF10B501F042FDBDE810403A
:102F90004FF0005001F0C6BF7047704710B501F008
:102FA00037FD1B480078012803D0BDE8104009F028
:102FB0006FBBBDE8104002F0ECBC704710B501F0EB
:102FC00027FDBDE810404FF0805001F0ABBF7047C7
:102FD000704770477047704770477047704710B52B
:102FE00001F016FDBDE81040FDF7EDBD10B501F094
:102FF0000FFD07480078012801D102F0A4FC054923
:103000000020086010BD70477047000010ED00E020
:10301000CA0210004805002210B55821C94818F00E
:10302000F6FBC848C849C94A01808280C849418026
:10303000C84BC380C84C0481C84C4481C84C8481AF
:10304000C84CC481C84C0482C84C4482C84C848299
:10305000C84CC482C84C0483C84C4483C84C848385
:10306000C84CC483C84C0484C84C4484C84C848471
:10307000C84CC484C84C0485C38741878287C7492C
:10308000A0F84010C6490968B1F86220A0F84220B3
:10309000B1F8C621A0F84420B1F8A120A0F846203C
:1030A000B1F8F021A0F84820B1F85421A0F84A2046
:1030B000B1F85221A0F84C200022A0F84E20B94AC5
:1030C0001288A0F850204A7DA0F852200A7DA0F86E
:1030D0005420B54AA0F8562091F84E27AF484280B8
:1030E000B1F85C17C180018110BD10B5FDF75EFF1E
:1030F00000EB104081B2AD4801220378AC48442B6C
:1031000004D1382902D00021017010BD027010BD19
:10311000A8481322A9490378A748552B02D002706A
:1031200019200CE09E4B1B6893F81131DB0702D08D
:10313000A04A521C127802709E48801C00780870C9
:1031400070472DE9F047FF2228219D4818F057FBD2
:103150009B48FDF7E8FEDFF868920E240126D9F8B7
:103160000410072545F2AA58414503D0D9F80810A4
:1031700041453BD1D9F80000D9F80820070E424557
:1031800006D1032F01D1C0F30136C0F3032502E0BD
:103190000120FFF7BDFED9F80410414504D199F88C
:1031A000000000F01F0402E00220FFF7B1FE032F31
:1031B00022D1D9F814304146824A48468B4201D187
:1031C000036900E0804B1360C369804A8B4201D1E0
:1031D000836900E07E4B1360436A7E4A434502D117
:1031E000D9F8200000E07C48106005E00120FFF7DE
:1031F0008FFE0220FFF78CFE6948016891F8F00706
:10320000400702D591F8F20704E006F003002A0710
:1032100040EA126091F8DA26D20711D0B9F80C20F2
:1032200093B243450CD0634A921F1278C52A07D146
:1032300020F0F0025F48401F0078000742EA10606B
:1032400091F8411720F00C00C1F3C00240EAC2001F
:10325000C1F3800140EA810160480170604880F854
:103260006010012181761121C1765E48017864F3F6
:1032700004010170BDE8F08770B5FDF728FBFDF78C
:1032800033FD474D28680078A52802D00120FFF7BC
:1032900030FE4FF008500124C0F898432868524A85
:1032A00090F8271101F00101116090F82701111D1C
:1032B000C0F340000860FDF735FEFDF71FFBFDF78A
:1032C000FFFF042801D1FFF7FCFDFDF759FDFDF7D5
:1032D000A3FD4348802180F86010042181761121EC
:1032E000C176FFF72EFFFFF713FF3F486C380460ED
:1032F000FFF7FBFE3C480C38046070BD41F621101E
:1033000010B541074881FFF7B7FFFFF785FE374942
:103310005F20086036490020086037483549016061
:1033200001F5086035490860354801F0CAF8FCF736
:10333000ABFF00F067F8FCF7A5FFFDF729F80120C7
:1033400010BD00000000012000800120E0D7012016
:1033500060D00120A8000120009F0120B02A012098
:10336000EC2A0120282C0120642C01209831012016
:10337000D431012068130120A41301202C2B01203B
:10338000682B01201432012050320120C417012083
:10339000001801204817012084170120A4261000DE
:1033A0003C021000E8021000B01A0120C002100018
:1033B000C2021000F2FF0100CE021000CD02100088
:1033C00050281000D802100040A5AE02DC02100008
:1033D00000879303E002100000366E0177021000B0
:1033E000001000202000002088040022242C01204E
:1033F000BC0210008C141000880210008C02100017
:103400008C2510007FB5FCF79BFF254D002400BFE5
:1034100005EB441000F11002017F4CCACDE90261B6
:10342000CDE900230FC8FDF76FF910B10220FFF7B7
:1034300073FD641C082CEBDB1A4D002404EB4400E4
:1034400005EB8001091D55F8200006C9FDF7DCF8E1
:1034500010B10220FFF760FD641C082CEEDB114D5B
:103460000024603505EBC400416855F83400FCF7D2
:10347000E5FF10B10220FFF74FFD641C072CF1DBC4
:103480007FBD4068FFF757BD38B50C460546694615
:103490002846FDF732F800992142F8D138BD0000E6
:1034A00024BA010024BB0100F0B500245F1E26E011
:1034B0002546661C08E000BF30F915C030F916E05B
:1034C000F44500DB3546761C9E42F5DB30F814608F
:1034D00030F815C020F814C020F8156031F81460D9
:1034E00031F815C021F814C021F8156032F81460C5
:1034F00032F815C022F814C022F81560641CBC42D2
:10350000D6DBF0BD01EB8010801001EB41014900DA
:10351000182291FBF2F300EB400000F5F83002FBBB
:103520001311006820F07F40C84000F03F00704752
:103530002DE9F04F87B007460020009001900290DF
:103540000390049005900690FA480125F84E8046B5
:1035500028E002241EE0087D04FB005036F910002C
:10356000B84216DD032304AA02A96846FFF79CFFB0
:10357000D8F80000BDF90010007D04FB005036F9BA
:103580001000814205DAADF80000ADF80850ADF842
:103590001040641CD8F8001040464A7D521EA242DA
:1035A000D9DC6D1C0168097D491EA942D1DC0024CB
:1035B0000DF1080BB246C1465FF0000504A83BF9C7
:1035C00014C030F91430D9F80000017D504603FBD7
:1035D00001C63AF91660BE4235DDD74E76571E4415
:1035E00006FB01C2731C03FB01C130F812203AF83C
:1035F00011006146101A0FFA80F8701EFFF782FF63
:10360000069061463046FFF77DFF01460698401A56
:10361000002807D0D9F800000EDAB0F89C13414515
:103620000FDB1CE0D9F80000B0F898134A4242457D
:1036300015DAB0F89C1302E0B0F898034142414516
:103640000DDD012006906D1CEDB2022DB6D3641C79
:10365000E4B2032CB0D3069807B0BDE8F08F002089
:10366000FAE7F0B5054600204FEA254C4FEA21461F
:10367000BCEB060400D564429C421FDA4FEA2247A5
:10368000BCEB070400D564429C4217DAF41B00D55A
:1036900064429C4212DA2DB20CB2291B00D5494279
:1036A00099420BDA12B2A91A00D54942994205DAB9
:1036B000A11A00D54942994200DA0120F0BD2DE956
:1036C000F0479246012547F6F87256429946AC46B5
:1036D0000024089F17E000BF30F8143031F8148040
:1036E000A8EB03031BB29A4200DD1A469E4200DAA1
:1036F0001E46002B02DA4FF0000502E001DD4FF01C
:10370000000C04F10104BC42E6DB55EA0C0306D0D0
:10371000012D01D02DB108E0BCF1010F05D100222F
:1037200003E0BCF1010F00D1324600252C462B46A8
:1037300011E000BF30F8136031F813C01644ACEB51
:10374000060636B24E4505DAC9F1000C664501DDC4
:103750003544641C5B1CBB42ECDB95FBF4F10A4472
:10376000002105E030F8113013442AF81130491CCB
:10377000B942F7DBBDE8F08770B50346002002468A
:103780006E4C09E09D5C521C05F00F0604EB15150C
:10379000A65D2D78304428448A42F3DB70BD884210
:1037A00000D308467047884200DB084670478842CD
:1037B00000D808467047884200DC084670478842B7
:1037C00000D30846904200D3104670472DE9F047D9
:1037D000D0F810C00568046A85FB0C12A1FB041226
:1037E00042694368914683FB02628269E246A6FB16
:1037F00002677618D0E9021781FB07C8C069ACFBE5
:1038000000C81CEB060682FB0A2CA2FB011280FBFF
:103810000902A0FB0502401884FB0712A1FB03125A
:103820000818301A4FEAE071A4E7F0B50025059FAB
:1038300014E000240EE000BF05FB03F600EB860C4D
:1038400001EB86065CF824C09CFBF7FC46F824C01C
:10385000641C64B29C42EFDB6D1C6DB29542E8DBE8
:10386000F0BDF0B50025059F14E000240EE000BF78
:1038700005FB03F600EB860C01EB86065CF824C022
:103880000CFB07FC46F824C0641C64B29C42EFDBCE
:103890006D1C6DB29542E8DBF0BDF0B50025059FCB
:1038A00017E0002411E000BF05FB07F600EB860CD3
:1038B00001EB860E5CF824C05EF824E002EB86067D
:1038C000F44446F824C0641C64B2BC42ECDB6D1CBA
:1038D0006DB29D42E5DBF0BDF0B50025059F17E018
:1038E000002411E005FB07F600EB860C01EB860EC9
:1038F0005CF824C05EF824E002EB8606ACEB0E0C0C
:1039000046F824C0641C64B2BC42EBDB6D1C6DB293
:103910009D42E5DBF0BD2DE9F04F814609A88A46BE
:10392000B0E822400020DDF834B08A4229D094E685
:103930000C0D10003C021000F7021000BCBB01008F
:1039400000241BE0002116E000FB02FC01FB05F84F
:1039500000FB0BF609EB8C0C0EEB860603EB8808DC
:103960005CF821C056F8247058F82480491C0CFBE0
:10397000087746F824709142E6DB641CAC42E1DB38
:10398000401C5045DCDB68E62DE9F04391460023FE
:103990000024224600EBC30609EB830501EB8208F5
:1039A00056F822C055F8247058F82480521C0CFB9D
:1039B000087745F82470022AF0DB5B1C022BE7DB5A
:1039C000BDE8F0832DE9F04391460024002200EB8E
:1039D000C40609EBC405002301EBC30856F823C055
:1039E00055F8227058F822805B1C0CFB08775BB2FC
:1039F00045F82270022BEFDB521C52B2022AEADB9E
:103A0000641C64B2022CE1DBDAE72DE9F04389B0F3
:103A10000446006800906068019020690290606828
:103A2000039020690490A069059020690690A06920
:103A30000790E06908900D466846FFF7C7FE80468C
:103A4000A0680190E0680490606907908946684624
:103A5000FFF7BCFE064660680190A06802902069EE
:103A60000490E0680590A0690790606908900F468F
:103A70006846FFF7ABFEC5E90401C5E90267C5E981
:103A8000008909B09CE72DE9FF4F4FF0000A89B08B
:103A90009B465746D146D046564655465446202169
:103AA000684617F0D6FE0B9810E00999824431F968
:103AB000102000FB00F102FB01668844414302FB39
:103AC000009901FB004417440D44401C5845ECDDAF
:103AD0000B99ABEB0100401CCDE9000ACDE906547F
:103AE000CDE90486CDE9027968460A99FFF78DFF92
:103AF0000DB0B2E5FE480068017B427B41EA02213D
:103B0000827BC07B41EA024141EA0060400070478D
:103B1000F74800680179427941EA02218279C07947
:103B200041EA024141EA0060704700B5FFF7E2FF59
:103B30004008400000BDF8B50E460446FFF7F5FF0B
:103B40000090FFF7D7FF054604216846FFF714FEF3
:103B500004EB400700240099204623464FF0010C57
:103B60000CFA03F20A4207D02A4204D037F8102098
:103B700026F81420641C401C5B1C1E2BF0DBF8BDD7
:103B8000C6E7FCB50E460746FFF7CFFF0190FFF7EB
:103B9000BFFF0090FFF7BCFF0546042101A8FFF717
:103BA000EBFD044604216846FFF7E6FD00EB440008
:103BB00007EB400700200099044603464FF0010C34
:103BC0000CFA03F20A4207D02A4204D037F8142034
:103BD00026F81020401C641C5B1C202BF0DBFCBD75
:103BE00000B5FFF787FF40F0010000BD90E7C14A34
:103BF000520102EB810101F1085108607047017820
:103C0000012916D0BC494160491C8160BB49416112
:103C1000BA492C318161B849891CC160491C0161D4
:103C2000491FC161B5496C310162B4498D314162AE
:103C30007047B14910394160491C8160AF49BD31BD
:103C40004161AE49E9318161AB490E39C160491C1E
:103C50000161491FC161AA490162A9492131E6E711
:103C6000F0B507460598884201DD1846F0BDB84218
:103C700001DA1046F0BD9E1AC01B4643CD1B00D191
:103C800001259B4C96FBF5F02468104400B294F893
:103C9000F1470E2CEED1A4469A4CA4F800C04FEA8E
:103CA000264CA4F802C0A6802E14E68025816781E8
:103CB000A181E28123826082F0BDF0B507460598BC
:103CC000884201DD1846F0BDB84201DA1046F0BD69
:103CD0009E1AC01B4643CD1B00D10125844C96FB88
:103CE000F5F02468104400B294F8F1470E2CEED1A0
:103CF000A446844CA4F800C04FEA264CA4F802C0A5
:103D0000A6802E14E68025816781A181E28123822D
:103D10006082F0BD30B5002304465242184615B209
:103D200009E000BF34F91320AA4203DA002A00DABE
:103D3000524210445B1C8B42F4DB30BD01EB80101F
:103D4000801010B501EB41014900182391FBF3F4F9
:103D500003FB141300EB400000F5F8303F2401682A
:103D60009C40A1439A400A430270110A4170110C11
:103D7000817010BD2DE9F04F8B4682460026FFF77B
:103D80002FFF8146FFF7C4FE07464FF0270C0025A2
:103D90004FF0010808FA05F111EA090F13D00024C9
:103DA00008FA04F038420AD0BBF1010F10D01AF81B
:103DB000062021462846FFF7C1FF761CB6B2641CD8
:103DC000A4B2202CECD36D1CADB26545E2DB44E41B
:103DD00021462846FFF796FB0AF80600EDE746491C
:103DE00015390880704744481538B0F9000070470D
:103DF0002DE9FF4F0027864681B04FF0FF093E4670
:103E0000BC46481C52D0501C50D0881E012800DCF3
:103E10000120C4B2364801F1020805682B7D981EC6
:103E2000404501DD881C00E0981E00F0FF0B901E4D
:103E3000012800DC0120C0B20090687D02F1020878
:103E4000851E454501DD901C00E0801E00F0FF0A44
:103E500018E0009D12E000BF05FB034080B21EF891
:103E6000000084441FFA8CFCB84200D90746814503
:103E700000D98146761C6D1CF6B2EDB25545EBD9E2
:103E8000641CE4B25C45E4D953430EEB0100185CBA
:103E9000BCEB000101D5C1F10001A6F1010691FBC7
:103EA000F6F1411A00D5494204980170A7EB0900C8
:103EB000C0B205B03BE530B50D4A03460E48146864
:103EC0001538B4F8342194F84647B0F9000004F0EE
:103ED0000F04641C02FB040562439D4214DAA2EB4A
:103EE00060029A1A92B292FBF0F0084416E00000C9
:103EF0003C021000242C0120F7FF010040F80100D3
:103F000069F90100E0D70120141A9C4208DD02EB98
:103F10006002D21A92B292FBF0F0081AC0B230BD21
:103F2000084630BD2DE9FC4F8B4682460026DFF85F
:103F3000F8C3FE4CDFF8F893DFF8F88317E00125AB
:103F40000FE0007D002205FB00618FB2391A38F9BD
:103F5000170019F80110FFF7AEFF6D1C0CF80700F1
:103F6000EDB22068417DA942EBD2761CF6B2206802
:103F7000007DB042E3D820684FFA8AF24FFA8BF105
:103F8000007D6B46604416460D46FFF731FF07463D
:103F900001AB32462946E648FFF72AFF0146206872
:103FA00090F8582407EB9210884207D39DF8000040
:103FB0009DF8041000EB9210884202D20120BDE867
:103FC000FC8F0020FBE7DC4A22F810107047DA492A
:103FD00031F910007047F0B5D449074600200E684B
:103FE000022396F815E015E0347D0122A11E0EE0B3
:103FF00003FB0425ADB205F1010C1FFA8CFC7D5DBD
:1040000017F80CC0654501D1401C80B2521C91428A
:10401000EEDC5B1C9E45E7DCF0BD2DE9F0434FF084
:104020000008FFF7DDFD4FEA500CFFF771FD074672
:1040300000264FF0010900BF09FA06F1394214D0F9
:104040000024254609FA05F010EA0C0F0AD0314683
:104050002846FFF757FAA04203D108F101011FFAE1
:1040600081F804466D1C272DECDB761C202EE3DB4B
:104070004046A5E42DE9F14F4FF00008FFF7B0FDF1
:104080004FEA500CFFF744FD074600264FF0010AA7
:104090000AFA06F1394221D000980025DFF88CB2E7
:1040A0002C4600EB060900BF0AFA04F010EA0C0FD8
:1040B00011D031462046FFF725FADBF80010621CCC
:1040C000097D5143A84201F8090003D108F101011B
:1040D0001FFA81F80546641C272CE5DB761C202E90
:1040E000D6DB4046BDE8F88F2DE9F05F83464FF000
:1040F00000084FF4787117F08AFBFFF771FD4FEA63
:10410000500CFFF705FD074600244FF0010A00BFE1
:104110000AFA04F111EA0C0F1ED000252E4604F114
:10412000010900BF0AFA06F0384212D03146204693
:10413000FFF7E8F97D490BEB0602A8420968097D03
:1041400001FB09F1885403D108F101011FFA81F83C
:104150000546761C202EE5DB641C272CD8DB404668
:10416000BDE8F09F04E000BF11F8013B00F8013BFF
:10417000521EF9D2704701464FF404624FF4F830F2
:10418000F0E730B56C4A0021684B05E032F8114089
:1041900020F81140491C89B21C68257D647D654367
:1041A0008D42F3D830BD30B5634A00215F4B05E046
:1041B00030F8114022F81140491C89B21C68257D55
:1041C000647D65438D42F3D830BD2DE9F0438146CF
:1041D0000026FF27481C38D0501C36D0881E0128E6
:1041E00000DC0120C4B2901E022800DC022000F096
:1041F000FF0C4E4801F102080068057DAB1E4345E7
:1042000001DD891C00E0A91E01F0FF08417D931C1F
:10421000481E984201DD911C00E0491EC9B212E01F
:1042200063460CE003FB054080B219F80000B04281
:1042300000D90646874200D907465B1CDBB28B4299
:10424000F0D9641CE4B24445EAD9F01BC0B210E7CF
:104250002DE9FE4F0024601E009001903448FFF7C6
:1042600009FF324F324D3868007D00EB400005EB0E
:104270008000817B027C11444908C1732846FFF706
:10428000AAFE8246772147F27772084608F024FB9F
:104290000026DFF8A4B0DFF8A490B84633E000BFF2
:1042A0004FF0010C28E0087D224A0CFB00618FB220
:1042B000381AE95D32F9172080B202923BF91000FA
:1042C00060B182B20298FFF7F6FD1749C855D8F8D9
:1042D000000090F8F1171B2905D009E0FF214FF6E7
:1042E000FF727C20B6E0007D02993A1A29F812107C
:1042F0000CF1010C0CF0FF0CD8F800104A7D62455F
:10430000D1D2761CF6B2D8F80030197DB142C7D8A8
:10431000197DDFF8148001EB410208EB82018A7BF2
:104320000E7C32440CE0000074AB01203C02100013
:10433000B4A701200C0D1000BCF90100E80B01200E
:104340004FEA5202CA734FF000011A7D1AE00120B1
:104350005F7D13E000FB0216B6B218F806C0AE5D32
:10436000BCEB060600D5764276B2A64204DD3446A2
:104370004EB2009646B20196401CC0B28742E9D2C6
:10438000491CC9B28A42E2D8DDE90012812008F056
:10439000A3FAF84C216891F8F10719280FD10020F1
:1043A0005A464D4606E000BF32F8103025F810306E
:1043B000401C80B20B7D4E7D73438342F4D891F84C
:1043C000F1071A280ED1002043464D4605E01E187D
:1043D000925D25F81020401C80B20A7D4E7D564328
:1043E0008642F4D8E448FFF7F6FD054602465146FA
:1043F000782008F071FA206890F8581301EB0A0051
:10440000A84204D2FF214FF6FF72782022E05545E2
:1044100025D34FF6FF773A46FF21792008F05CFA62
:10442000DDE90012D448FFF7D0FEDDE900120546B1
:10443000D248FFF7CAFE064602462946792008F010
:104440004BFA2168701B91F85913884207DD3A46F0
:10445000FF21802008F040FA0120BDE8FE8F0020F7
:10446000FBE7C74931F910007047821002EB4202A6
:104470000A4400EB40004000182190FBF1F301FBDF
:104480001301106820F07F40C84000F03F007047E3
:10449000831003EB430310B51A4400EB40004000C7
:1044A000182390FBF3F403FB14033F2410689C4093
:1044B000A043994001431170080A5070080C907095
:1044C00010BD2DE9F14F82B04FF0000B782102981A
:1044D00017F0BFF9FFF784FB4FEA5008FFF718FB0E
:1044E000DC46814666464FF0010A00BF0AFA06F133
:1044F00011EA090F25D000240AFA0CF001272546FD
:10450000CDF800000AFA05F010EA080F14D0314681
:104510002846FEF7F7FFA04208D00299009A51F80A
:1045200027101143029A42F8271003E00BF1010112
:104530001FFA81FB04467F1C6D1C272DE2DB0CF16A
:10454000010C761C202ED1DB584686E72DE9F04F72
:104550008346884800242246D0F800A001219AF81A
:104560001450A5F1010622E003200123DFF814E234
:1045700003FA01F99AF8157016E000BF5EF820C042
:104580001CEA090F0FD0A0F1010300FB051C03FB7F
:1045900005183BF91CC03BF91830BCEB030300D5F0
:1045A0005B421C44521C401C8742E7DC491C8E4283
:1045B000DADC02B9012294FBF2F008E42DE9FF4FA6
:1045C00085B0002103910291019100916949012B6D
:1045D0000C6894F8775005F00F0700D10027667D2E
:1045E00094F87A30C7F1100BB34200D21E46002374
:1045F0000493012381E000BF4FF00009C846032463
:104600001FE0604951F824C0012199401CEA010FC4
:1046100004FB053130F911C0A4F1010101FB0531A2
:1046200030F91110ACEB010106D0002900DA494243
:10463000DDF818C0A1EB0C01002900DA49428944D9
:10464000641CB442DDDB31469EF815A01FE04D4CE2
:1046500054F821C001249C401CEA040F01FB0534DE
:1046600030F914C0A1F1010404FB053430F9144001
:10467000ACEB040406D0002C00DA6442DDF818C06C
:10468000A4EB0C04002C00DA6442A044491C8A45C7
:10469000DDDC0499012910D10199B1EB090101D5A3
:1046A000C1F10001039C214403910099B1EB080181
:1046B00000D54942029C21440291CDE900899EF82F
:1046C0007B10994216D11168039D79430BFB0511AC
:1046D000CC1701EB1471091111609168029D7943A7
:1046E0000BFB0511CC1701EB14710911916000212E
:1046F0000391029101215B1C04911E49D1F800E055
:104700009EF81450691E99423FF776AF506803999E
:1047100078430BFB0100C11700EB117000115060D2
:10472000D068029B78430BFB0300C11700EB1170AC
:104730000011D06009B040E730B5044600200222E5
:10474000A1F101010BE000BF04EB420534F9123086
:1047500035F9025C5B1B00D55B421844521C8A424F
:10476000F2DB30BD70B5034A002001461268064CEA
:10477000537D17E03C02100074AB0120B4A7012068
:10478000BCF901008C2510002C2B012034F91150AC
:10479000B2F85064B54203DBB2F85264B54200DDB2
:1047A0000120491C8B42F1DC70BDF0B5FD4C0020AE
:1047B0000346246801460246F94E677D06E000BFC5
:1047C00036F91350954200DD2A465B1C9F42F7DC08
:1047D0000023F54E277D05E036F913508D4200DDAC
:1047E00029465B1C9F42F7DCB4F84E348B4201DB58
:1047F000934200DA0120F0BD2DE9F14FE949002391
:1048000018460C6894F84914267DC1F3C001B4F829
:1048100065B4B4F867A4A6EB010926E0657D032220
:10482000DFF888E3DFF88883A5F1010519E000BF10
:104830005EF822C0012707FA01F71CEA070F0ED124
:1048400002FB061738F917C0A2F1010707FB06178C
:1048500038F91770BCEB070700D57F423B44521C68
:10486000D2B29542E4DC491CC9B28945D6DC009934
:104870009B450B6002D2534500D2012032E47CB547
:104880000D460446FFF751F90090FFF741F90190FA
:1048900000980421400800906846FEF76DFF064628
:1048A000042101A8FEF768FF304482002146284613
:1048B000FFF758FC7CBD0B46BA4909684A7D097D63
:1048C000521C4A430146520018464BE470B5044658
:1048D000642116F0BEFF0023B24D23806380286858
:1048E00090F8940700F0010043EA40106080A36054
:1048F000FFF776F9E060FFF70BF9AE4E2061AE49A5
:104900007088608309785A2904D1AB49491C097819
:1049100008446083286800F24670C27A817A02F007
:104920003F0241EA0221A1834178E17590F84910E4
:1049300021750178A17581782176017BA1779E4947
:10494000407B083100F0F000097801F00F010843C6
:10495000E077FFF7EAF8E062FFF7DAF820632C343B
:10496000F0882081E081286800F5E96090F848101F
:10497000217690F84A10617690F84B10A17610F8E5
:104980004E1CE17601212177637790F84920A277C8
:10499000C28A62812282027E2273427E6273827E9A
:1049A000A274C27EE274827F84F82320637523752B
:1049B00010F8562C2C3CA0F5E960D2070AD090F8EC
:1049C000F30600F00F0084F86000608840F4806017
:1049D000608070BD84F8601070BD10B50446FBF7B0
:1049E00053FC012C0BD16F48006890F81001800730
:1049F00005D5FBF774FF38B1FBF76DFF04E0FBF75B
:104A00006EFF08B9FBF763FFBDE81040FBF73ABC47
:104A10000020E2E7634B10B51A68947E640704D562
:104A2000D28A0468A2EB040202601A68947EA4078A
:104A300003D5128B0C68121B0A600268002A00DA88
:104A4000002202601C68E48AA24200DD2246026065
:104A50000A68002A00DA00220A601C68248BA2423D
:104A600000DD22460A601B689B7EDB0702D00368DC
:104A70000B60026010BDF0B54A4D002301242D6883
:104A800095F8E85104FA03F635420AD031F913607B
:104A900030F91370F61B32F91370BE4201DD0120AC
:104AA000F0BD5B1C062BEDDB0020F0BD2DE9F05FB7
:104AB000002492468146224620463A4D3F4EDFF87A
:104AC00000E1DDF828B01BE031F9108039F910C0A1
:104AD000A8EB0C07574501DD04F10104D5F800806F
:104AE00098F810815FEAC86809D596F80080B8F197
:104AF000060F04D1774502DA521C21F810C0401C81
:104B00009842E1D3286890F81001C00608D53078A3
:104B1000062805D122B127482A49408800F03CFBED
:104B20005C4502D30120BDE8F09F0020FBE72DE9A2
:104B3000F04F1C4CDFF890C09B462468DDE90A75F5
:104B400094F8E0669CF800C00023DDF824E0F60845
:104B5000BCF1010F01D1012D01D0002446E001215B
:104B6000DFF86890DFF85CA094F815C015E000202D
:104B700010E0257D01FB050539F915703AF915504E
:104B800005EB0208474503DAA5EB0B05AF4200DC55
:104B90005B1C401CB042ECD9491C8C45E7DA27E08D
:104BA0002C2B01203C021000682B01208C251000CA
:104BB00060D00120A4261000EEFF0100B802100012
:104BC0000CFEFFFFA8000120700210000C0D100069
:104BD00031F9145030F9146005EB020C664503DA24
:104BE000A5EB0B05AE4200DC5B1C641CBC42EFDB9A
:104BF000734501D90120E0E40020DEE42DE9F04F07
:104C00008A46DDE90997012547F6F8714E42934639
:104C1000AC46002417E000BF30F814803AF81420A6
:104C2000A2EB080212B2914200DD1146964200DA70
:104C30001646002A02DA4FF0000502E001DD4FF0CF
:104C4000000C04F10104BC42E6DB55EA0C0206D07C
:104C5000012D01D02DB108E0BCF1010F05D10021DB
:104C600012E0BCF1010F00D13146002905DD03EB54
:104C70000902B1EB420FF2DC06E005DA03EB0902B0
:104C80005242B1EB420FEADB00252C462A4610E0E7
:104C900030F812603AF812C00E44ACEB060636B299
:104CA0009E4205DAC9F1000C664501DD3544641CFD
:104CB000521CBA42ECDB95FBF4F20A44002105E0F9
:104CC00030F8113013442BF81130491CB942F7DB8E
:104CD00073E4F0B50646002004460546521C059FC5
:104CE0000AE000BF36F911C09C4504DDA44502DD91
:104CF00064460D460120491C9142F3DB3D60F0BD46
:104D000030B50268002513460AE000BF50F8254080
:104D1000944201DD224602E09C4200DA23466D1CEB
:104D20008D42F3DBD01800EBD070401030BD70B571
:104D3000B24B1B685C7D1B7D641C5C43002307E059
:104D400032F8135030F81360AD1B21F813505B1C80
:104D5000A342F5DB70BD70B5A84B1C68247D611AB9
:104D600010E0012409E02D7D04FB0515641C30F9D9
:104D7000156096FBF2F620F815601D686E7DA64260
:104D8000F1DA491C1C68247D8C42EADC70BD9C4928
:104D9000012008604FF470719A4816F038BD2DE973
:104DA000F041064615460F46302801D1FFF7EFFFC8
:104DB000934C20682844401CB0F5707F01D22068D5
:104DC00001E0012020608F4908700E542DB1084485
:104DD000401C2A463946FFF7C5F920682844401C84
:104DE0002060BDE8F08188480021012201704270F6
:104DF0008170704784480078704730B57F4A1268E8
:104E000092F8FD26D3070BD0D506804A4FF0000359
:104E10004FF0010407D5151F2860012901D1136047
:104E200030BD146030BD794D083D28600129F8D0AF
:104E3000F5E72DE9F84F714C00264FF00057206838
:104E400090F8FD06450997F8510000D1012507208B
:104E5000FBF705FCFBF7BBFCDFF8AC81C8F80800EA
:104E600020684FF0010490F8FD06C00603D5062027
:104E700087F8510001E087F8514000210120FFF739
:104E8000BCFF4FF41670FBF705FA4FF0E02A4FF421
:104E900080594FF0000BCAF880924FF040514446C1
:104EA000D8F80800FBF719FBDFF86481012088F8C7
:104EB0000000E8B2FBF7F8FDCAF800916B4600224B
:104EC0004FF04051A068FBF729FB4FF04051A0681C
:104ED000FBF703FB0098C00000D501262078B04204
:104EE00002D1607801280CD197F85100A6B140EAB0
:104EF0000522DD20A16807F0EFFC00BF84F801B0B7
:104F0000267000210846FFF778FF88F800B00720D8
:104F1000FBF7C0FB2078B1E440EA0521092007F047
:104F2000C3FCEBE710B504463A484FF480510160EA
:104F3000FBF7C7FD344821468068BDE81040FBF709
:104F40009DBA70B52D48006890F8D010CA07324954
:104F50001CD090F8D12002F00F02531C0A2B01D96B
:104F60000A2200E0521C00F1D20400234D8804E024
:104F700034F81360B5420CD05B1C9342F8DBB0F8F8
:104F80004E274A80B0F8E8200A8002E0B0F84E27A9
:104F90004A8090F88023D2071DD090F8812302F038
:104FA0000F02531C0A2B01D90A2200E0521C00F206
:104FB00082350023CC8804E035F81360B44209D070
:104FC0005B1C9342F8DBB0F85C27CA800A81B0F81A
:104FD000AC03888070BDB0F85C07C880088170BDE4
:104FE00003004FF0000006D00B785B1E13F0FF03A8
:104FF0000B7001D101200A70704700003C021000C4
:105000004002100028080120F4021000280A0022A3
:10501000CB02100080E100E0A426100010B501468C
:105020001C22FA48FFF79EF8BDE810404FF40061DB
:105030000120FBF723BA2DE9F0419AB080460D46D6
:1050400014466846FFF742FCE0074FF0010701D025
:10505000ADF80070600608D5ED4900200870BDF875
:10506000000040F48060ADF80000600733D5E94EE1
:10507000306890F8FD06C0070DD0FFF7DAFE062174
:10508000012805D0BDF8020040F00200ADF8020092
:10509000ADF8001005E0BDF8000040F00600ADF8E6
:1050A0000000A00711D1BDF8000040F00100ADF8EC
:1050B0000000306800F2211041788DF81710017857
:1050C0008DF81E1080788DF82200D3480088800566
:1050D00001D58DF84970D149ADF81A80ADF83A5034
:1050E000ADF83450097840465A2905D1CB49491CBE
:1050F00009780844ADF81A00AFF2DF00C34D03246D
:105100004FF4006602906846FCF726FC19AB0022BB
:1051100031460120FBF702FA31460120FBF7DDF9A9
:105120002878002804D0FDF7CCFE641E002CEADCB1
:105130001AB0BDE8F0812DE9F041B64A00242146BD
:105140001268254610F4D17F04D092F8221004256D
:105150004FEA111110F0050F05D092F8213045F0FB
:1051600001054FEA1314C00604D592F8210045F05A
:10517000020504098C4200DA0C46641C002DD8D0CC
:105180000026A74F05E0F98878882A46FFF753FFE5
:10519000761CA642F7DBCCE72DE9F35FDFF87482DB
:1051A0008B46D8F80000457D017D90F821006D1CEC
:1051B00000F00F074D437F1C4FF48851994816F0BB
:1051C00048FB0026974CDFF85892DFF840A218E021
:1051D000B9F8061001220098FFF72DFF9249DAF87E
:1051E000040006F060F99049002007E054F8202000
:1051F00031F910301A4444F82020401CA842F5DB55
:10520000761CBE42E4DBD8F8000090F8210000F0E4
:105210000F01491C002006E054F8202092FBF1F217
:105220002BF81020401CA842F6DBBDE8FC9F2DE9BE
:10523000F74F784D84B09146286830F83B1F0391B2
:1052400040880290FEF771FC0090FEF799FC0190F7
:1052500004216846FEF790FA8046042101A8FEF773
:105260008BFA404446002868B10090F8220000F014
:105270000F04641C6B4816F0ECFA296891F8F102EF
:10528000C20706D0800704D491F8F202044405F066
:10529000F3FD0027DFF88CB1AA462EE06048042217
:1052A00005994088FFF7C7FEDAF80010574891F8D3
:1052B0009417C568C90704D001692A46284605F035
:1052C00087FEDAF8000090F8F102C10707D08007E6
:1052D00005D45649284605F0EBFD68B1534D002032
:1052E000594607E051F8202035F910301A4441F8AA
:1052F0002020401CB042F5DB7F1CA742CEDBDAF851
:105300000010484C504691F8221001F00F0303F1B1
:1053100001034FF000011CE05BF82120056892FBBF
:10532000F3F295F8F1725FEAC77C08D0BF0706D5A3
:1053300095F8F2727F1C5743B5F8F322BA1AB1EB15
:10534000480F01DA039D00E0029D2A4424F8112051
:10535000491CB142E0DB049810F0220F09D020462E
:10536000D9F80010FEF7E7FB2046D9F80410FEF745
:1053700008FC07B0BDE8F08F2DE9F0479A46254BB1
:105380008946002101252A4E1C681AE032F81130A6
:1053900030F81170DB1B1FB200230AE0C3EB031CC3
:1053A00006EB8C0C5B1C3CF811801BB2B8442CF84B
:1053B000118094F880C305EB9C1C9C45EEDC491CD5
:1053C00009B2637D8B42E1DC00201A4A19E000BF7C
:1053D0003AF8103039F81010591A0BB2002108E0D1
:1053E00002EB8116491C36F8107009B21F4426F8EA
:1053F000107094F8806305EB96168E42F0DC401C2A
:1054000000B2217D8142E3DCBDE8F0875446100004
:10541000570210003C02100050021000EEFF010085
:10542000A42610008C1410000C0D100034AF0120C5
:10543000DC140120081601202DE9FE4F00258246CC
:10544000FE4C2F46DFF8F883DFF8F893012611E0D1
:1054500000EB4500C5EB0512B0F8B11308EB820074
:10546000009009EB8510CDE901076A465046FFF729
:10547000DEFE6D1C206890F8801306EB9111A942A6
:10548000E6DC90F85011C90710D090F89111090688
:105490000CD5407DEA494200EB48FEF763FE2068E8
:1054A000E849007D4200E948FEF75CFEBDE8FE8F5A
:1054B000FEB5E24AE64900241268012300F4907523
:1054C00092F88063C98803EB961306E002EB44066A
:1054D000B6F8B163B14202D0641CA342F6DCA34229
:1054E00019DDC5B192F85001C00703D192F820022E
:1054F000C0070FD0D249C4EB041001EB80013C225D
:10550000D448FEF72FFECF48402200EB8411D2484A
:10551000FEF728FEFEBD00220292CE4A0092CE4A3D
:1055200001926A46FFF783FEFEBD2DE9FC47FEF7B8
:10553000FCFA0090FEF724FB019004216846FEF778
:105540001BF90446042101A8FEF716F9BB4E2044BE
:1055500044003068A10090F8220000F00F077F1C83
:10556000BE4816F076F90025DFF8F4A2DFF8EC92D9
:10557000B04622E0B6484022C1884088FFF75BFD74
:10558000D8F80010DAF8146091F89417C90705D01C
:1055900032463046DAF8101005F01AFD0020494670
:1055A00008E000BF51F8202036F910301A4441F8C5
:1055B0002020401CA042F5DB6D1CBD42DADBD8F890
:1055C0000000A64E454690F822004B4600F00F0022
:1055D000401C002107E000BF53F8212092FBF0F2AD
:1055E00026F81120491CA142F6DB9E493046FEF701
:1055F000A2FA9D493046FEF7C4FA286890F82010B8
:10560000090711D5994C00212160417D9548FFF78C
:1056100093F82168084420602868017D9248FFF7CC
:105620008BF8216808442060BDE8FC8770B504460B
:105630000020FBF714F80320FBF711F87F4D2868D2
:1056400090F82010490701D424F4006490F8501118
:10565000C90705D190F82012C90701D124F06204CE
:1056600090F88013490701D424F4B07490F8D01056
:10567000490701D424F0040490F8E81109B924F092
:10568000100490F8041309B924F4C07490F850027F
:10569000C00701D124F4806460060BD570483C2219
:1056A0006C497C38FEF75EFD6D4840226A494038FF
:1056B000FEF758FD6E490020401C8842FCD32005AF
:1056C00002D52046FFF737FD14F4907F02D0204624
:1056D000FFF7B2FEE0071FD05D4866494088FFF73C
:1056E0005BFD286890F8200000070AD56148FEF7A6
:1056F0002DFF61490123614A086001465D48FEF7BC
:105700005DFF286890F84904C00705D05C48007820
:1057100010B9204602F0FBFC600501D5FFF705FF3C
:1057200014F0820F02D02046FFF7C2FE600607D5B4
:105730004B49494B4039474AA1F13C00FFF71CFE59
:105740005049012008705049087006F07BFF002086
:10575000FAF7A0FFBDE870400320FAF79BBF2DE9E0
:10576000F04136490025364A0968364EB1F8B13362
:1057700083421AD291F880339C0901EB4407B7F8B1
:10578000B17387420AD9012404EB931313E000BFDD
:1057900001EB4407B7F8B173B84201D1254602E0E6
:1057A00008D2A4F10105A5421CD191F85001C0070F
:1057B00008D103E0641CA342EADCF6E791F820027A
:1057C000C00774D0C5EB051002EB80013C222148D4
:1057D000FEF7C8FC06EB8511BDE8F04140221E48EB
:1057E000FEF7C0BC01EB4405B5F8AF33B5F8B153D3
:1057F000C01A0002EB1A90FBF3F391F85001C007B6
:1058000003D191F82002C00751D0124DC4EB04110E
:10581000002002EB810100BF01EB400231F9107062
:1058200032F93C2CBF1A5F4302EB272225F81020E7
:10583000401C1E28F0DB0020074D27E03C02100032
:10584000DC14012008160120CC15012008170120C6
:10585000A426100068130120A41301208C1410004A
:10586000544610004817012084170120C00410007E
:1058700020A10700A80001209002100004261000BB
:105880007502100056021000B402100006EB8411DD
:1058900001EB400231F9104032F9402CA41A5C436C
:1058A00002EB242225F81020401C2028F0DB40E4E5
:1058B0002DE9F0415F4801245F4E047000253560FA
:1058C000192000F0AAF8192000F08FF85B4F05208E
:1058D00038724FF41670FAF7DDFC5748443805600B
:1058E000FF2139703460046023E470B55148544C92
:1058F00001250570207F40F00400207751480068A2
:1059000090F81101C00705D00A2000F086F80A209F
:1059100000F06BF8002184F860105C22A276112060
:10592000E07684F860505823A376E076424B443BFF
:105930001960424EFF213170042184F86010A27674
:10594000E0761D6070BD70B53B48002444380460AB
:105950003A4D08352E79192000F053F8C6F1FB00B6
:105960002978C0B2491CB0FBF1F0374908703149C1
:105970000C703449096891F81111C90702D0BDE8CB
:105980007040B2E7304A5521921E11702F490870BD
:1059900070BD10B52A4C207F40F0040020772948C4
:1059A000006890F81101C00702D00A2000F029F821
:1059B00022490A7B204B0020443B186084F8600099
:1059C0005C23A3761123E3760978891A89B24FF410
:1059D000FA42B2FBF1F11C4A0909521E117055211D
:1059E000521E11701349087010BD00F01F020121F2
:1059F000914040094FF0E02202EB8000C0F8001116
:105A0000704700F01F020121914040094FF0E02251
:105A100002EB8000C0F88011704700F01F020121E6
:105A2000914040094FF0E02202EB8000C0F8801264
:105A300070470000CA021000480500222E00002016
:105A4000001000203C021000F4FF0100CD02100005
:105A50002DE9F047DFF80094FE484FF00008D9F830
:105A600000104768487D0E7D401C344606FB00F55B
:105A700045E000BF37F91400002802DC48F020019F
:105A800015E040F6FF71884202DB48F010010EE09D
:105A9000D9F80020B2F83411B2F8BE218B18834235
:105AA00006DA891A814203DD12B148F040018846C6
:105AB000D9F8002092F8461701F00F0100FB010011
:105AC00001B2107D201A80B2FEF77DFAD9F80010DD
:105AD00091F8F107192811D1B0B2E04B0CE000BFEA
