:100000000801002019010000210100002301000067
:10001000043501EC010000000000000000000000B9
:1000200000000000000000000000000025010000AA
:10003000000000000000000027010000290100006E
:100040002B010000710E0000C10E0000A10E000087
:100050002B0100002B0100002B0100002B010000F0
:100060002B010000010E00002B0100002B010000FD
:1000700000F002F800F03EF80CA030C80838241850
:100080002D18A246671EAB4654465D46AC4201D1D0
:1000900000F030F87E460F3E0FCCB64601263342C4
:1000A00000D0FB1AA246AB4633431847E0040000D9
:1000B00000050000103A02D378C878C1FAD8520778
:1000C00001D330C830C101D504680C60704700000E
:1000D0000023002400250026103A01D378C1FBD864
:1000E000520700D330C100D50B6070471FB51FBD4C
:1000F00010B510BD03488546FFF7F8FF00F03EFA43
:1001000000F035F80006002003B4FFF7F1FF03BC50
:1001100000F02EFA704770470748804707480047AD
:10012000FEE7FEE7FEE7FEE7FEE7FEE704480549D7
:10013000034A054B704700001701000071000000E2
:1001400008000020080100200800002000BF002255
:1001500004490A80002801D0102008807047002040
:1001600070470000004000407047704770470446E9
:10017000C046C0462046FFF7C7FF7047000000009A
:10018000FFFFFFFF31485A210170FF212131018219
:100190002F4941610821C1610921C1618215426075
:1001A000816070477047704770472A49088040084F
:1001B00088807047284801680322120611430160B5
:1001C0002649022008602648012101800021018380
:1001D00001822348642220308281FF228283204BC7
:1001E0003B2240331A8013220280018270471D484F
:1001F00014218182012101821A491020603908806E
:10020000082088800D200881602088811548002200
:1002100040388280144A92888283144A0282144AA7
:100220008282144A0283182202724272027342735B
:1002300009484268CB021A434260084A48151060D8
:100240000F200882FF200883704700000030004024
:100250000F040000204C004000E400E000E100E05A
:100260000054004060400040E00600201D260000D1
:10027000151D00000E15000010B500BF00F040FE77
:10028000254CA07C09281FD0A07C00281FD0A07C72
:10029000012823D0A07C022827D0A07C042827D0C6
:1002A000A07C052827D0A07C072827D0A07C082880
:1002B00027D0A07C0B2828D0A07C0C2828D0012097
:1002C000A07401F079FA10BD01F08CF9F9E700F0A3
:1002D000A7FFE07B0028F4D10420F1E700F0A0FFA5
:1002E000A08AC828EDD90220EAE700F0A1FFE8E7DC
:1002F00001F009F8E5E701F06CF8E2E701F0D2F867
:10030000DFE700F0E7FD0920DAE701F004FAD8E7BB
:1003100001F012FAD5E7704700060020704730B5AB
:1003200000BF284CE079207328492748C861254838
:1003300080302060254B00252033DD810DE0C86929
:100340000068486222681060C869001DC8612068A2
:10035000001D2060D889401CD8810E20185E0E2810
:10036000EDDB1849BD204031088316482030457523
:10037000A5821448164AE0308280164AC2800222C2
:10038000427010220274FF20CA30488330BD002919
:1003900005D0020A012907D0022908D010E081B255
:1003A000000C81420AD10BE0C0B2D1B204E0FF21BF
:1003B00009040840110C0904884201D0012070474B
:1003C000002070470006002018080000C007002029
:1003D0002C10000071320000124901200877114AE8
:1003E00020321070104921230B7000230B720F4B29
:1003F0005B788B83107770470B49FF220A758881E1
:10040000704700B50346000AFFF7F6FFD8B2FFF7C2
:10041000F3FF00BD00B50B46FFF7EEFF1846FFF7F0
:10042000EBFF00BD006C004000680040E0060020CB
:1004300001212A48C9030180F12101800321818023
:10044000F3210180704730B500BF42080A2902D964
:10045000FF235B1A00E0F02353431C12131B1419F3
:100460001E4A012520329581138295801381948242
:10047000431E1383194DAC831380194B9B799383CF
:100480000F22120302432A83154A403A90801180BA
:10049000918813484030C1801188417130BD10B53A
:1004A0000F4C403CA080FF212180FFF7CCFFA188AA
:1004B0000B484030C1802188417110BD0748F121AF
:1004C0000180F321018006488088FF21BBE700BF3F
:1004D00001200249C003088070470000003400403A
:1004E0008006002000BF1E481E49088301200880A6
:1004F0001C4920318880704700BF1A49303008718C
:100500000120088011200880704710B500BF1549F0
:10051000898A154BD981D989012901D9012100E0A6
:100520000021DA890E4CFA34A24201D0012200E007
:10053000002211420AD00D49002808D0088A4882BA
:10054000C88908828889C881D889888110BD0889AE
:100550004881C88808818888C880D889888010BD6B
:10056000050F00000044004040060020C0070020A6
:1005700001491820ABBEFEE72600020000F080F91A
:1005800000BF00BF00BF00BFFAE77047AC05000026
:100590000000002004000000B4000000B0050000CE
:1005A0000400002004010000D00000000000000052
:1005B000000000000000000000000000000000003B
:1005C000000000000000000000000000000000002B
:1005D000000000000000000000000000000000001B
:1005E000000000000000000000000000000000000B
:1008000035045255F40813000000000000000000F9
:100810008009000F000000002301090255010408AF
:100820003200140000000000FA003C00000000004C
:10083000DCC3BEB496695F4148283C1C3C1C3C1C90
:1008400000000000000000000000000000000000A8
:100850000000000000000000000000000000000098
:100860000000000000000000000000000000000088
:100870000000000000000000000000000000000078
:1008800000BF01261D4D6E710024EC713046FFF74C
:1008900046FD1B4804804480FFF774FC17480C2178
:1008A00080308171174A8280FF222D320280154AE2
:1008B00053324280C171322101721421417204739A
:1008C0002E71FFF7B5FDFFF787FD00F01FF80E480A
:1008D000A5210180032181825520FFF78DFDAA20EB
:1008E000FFF78AFDFFF766FC0120FFF738FC00BF29
:1008F00000BF00BF00BF00BF00BFF8E70006002038
:10090000000000209B020000007400400749012005
:100910000A7C400702700A7D4270097F81700121C4
:10092000C170FF210331818370470000605800408F
:1009300000BF01281CD98007BD4AC00EC03ABC497F
:100940009288062392095A431830183A8018B94AF7
:10095000C87010725072107350730022CA72C87A35
:1009600040180276C87A401CC0B2C8720428F6D378
:10097000704700BF4209AE4904D0020604D44006C5
:10098000400F06E0012004E04209072A0BD0C0080E
:100990000838C0B2401CC0B28872182801D918208B
:1009A0008872C0B2704780082438F2E7F0B5044678
:1009B0000F4600BF00209E4E082CB07131D29C4AD9
:1009C000E5004032A318187878401870187A7072D1
:1009D00000280BD0197C884213D1A818007E3073F0
:1009E00000280ED01878002805D00AE00846FFF746
:1009F000C0FF187405E08E4901202031B0716118E4
:100A00000876707A082803D2894958316918475402
:100A1000187A401C1872B079012802D10220707037
:100A20003470F0BD10B500BF4006030E8048804A08
:100A30000372403200219B181972037A7C4C9B1878
:100A40001970037A2034DB009B181976037A1B197E
:100A50001976037A5B1CDBB203729B181972037A56
:100A60009B181970037ADB009A181176007A001926
:100A7000017610BDF0B500BF6E49203189896C4EFA
:100A80008B079B0F811933710A7F0025F271012BAF
:100A900009D0F571F2790A77F279674B012A07D00C
:100AA000062A09D013E0202AF4D2521CF271F1E791
:100AB00000280CD11D830AE0002801D11B8BF38193
:100AC000F389C93B312B02D2594BE03B9D810B7E10
:100AD000002B04D00023052A03D9012402E00123BE
:100AE000F9E7002423400A2A01D9012200E000226C
:100AF00013434F4A012720328418002B01D00D7672
:100B000027704206120E72712378012B29D1337996
:100B1000002B1BD0022B24D30F762570B770FFF764
:100B200081FF3079032813D07179012049004002F8
:100B30008919088511204002717949008919488571
:100B400025713079022800D12771F0BD2570F0BDE4
:100B500071790320490000028919088523200002C9
:100B6000EAE7087E0128F2D150008019314D008D4E
:100B70002035A883A98B09273F033846884304D131
:100B8000A88BC1B21046FFF711FFA88B71794900FD
:100B90008919088520790128D9D17079401CC0B203
:100BA000410070718919098DA983A98B8F4303D1E5
:100BB000A98BC9B2FFF7FAFEA88B71794900891990
:100BC0000885F0BDF0B500BF0021194F184A184E36
:100BD00020371A4D11724036C9B2CB191B7E012B3A
:100BE00009D1CB009B191C7E844204D111701C7E5C
:100BF000AC775B7EEB77491CC9B211720629EBD347
:100C0000F0BD30B500BF0025094CA5706570657258
:100C1000607A00190576607A00190577607AFFF727
:100C200001FF607A401CC0B260720428F0D330BD6E
:100C30000007002020400040205400400006002013
:100C400000000000000000000000000000000000A4
:100C50000000000000000000000000000000000094
:100C60000000000000000000000000000000000084
:100C70000000000000000000000000000000000074
:100C80000000000000000000000000000000000064
:100C90000000000000000000000000000000000054
:100CA0000000000000000000000000000000000044
:100CB0000000000000000000000000000000000034
:100CC0000000000000000000000000000000000024
:100CD0000000000000000000000000000000000014
:100CE0000000000000000000000000000000000004
:100CF00000000000000000000000000000000000F4
:100D000000000000000000000000000000000000E3
:100D100000000000000000000000000000000000D3
:100D200000000000000000000000000000000000C3
:100D300000000000000000000000000000000000B3
:100D400000000000000000000000000000000000A3
:100D50000000000000000000000000000000000093
:100D60000000000000000000000000000000000083
:100D70000000000000000000000000000000000073
:100D80000000000000000000000000000000000063
:100D90000000000000000000000000000000000053
:100DA0000000000000000000000000000000000043
:100DB0000000000000000000000000000000000033
:100DC0000000000000000000000000000000000023
:100DD0000000000000000000000000000000000013
:100DE0000000000000000000000000000000000003
:100DF00000000000000000000000000000000000F3
:100E0000F8B500BF094EB08B0024C5B201273846A3
:100E1000A040C0B20146A94303D130832046FFF76A
:100E200029FE641CE4B2022CF1D3F8BD004000405E
:100E300000000000000000000000000000000000B2
:100E400000000000000000000000000000000000A2
:100E50000000000000000000000000000000000092
:100E60000000000000000000000000000000000082
:100E700010B500BF04480189890703D50721018106
:100E8000FFF7FAF910BD0000005400400000000018
:100E90000000000000000000000000000000000052
:100EA00000BF0348017E890701D003210176704706
:100EB00000500040000000000000000000000000A2
:100EC00000BF0348017EC90701D0032101767047A6
:100ED000004C004000BF0020F74988704881F64A66
:100EE000203A50739076888188714882C881C8837F
:100EF000487188764877F0492031C880488170472A
:100F000070B500BFEC480025E0304078EA4E02287A
:100F10000DD07575707D082801D9FFF772FEB57583
:100F2000E54C203CE576707D032804D031E0707DEF
:100F3000401C7075EEE73078E049C0004018007E34
:100F4000A0773078C0004018407EE077A07F012273
:100F5000022806D1607FE17F884200D1E276E07FFF
:100F600060777582B275A07F03282CD00020E17FC6
:100F700000292AD0002108420BD1A07FFFF73CFABC
:100F8000E07FFFF739FAA17FCC4880380173E17F19
:100F90004173A08A401CA082A08AE121C900884236
:100FA00000D9E5733089401C308130897D210901E9
:100FB000884207D93581B571BF4860304088BE4945
:100FC0002031488070BD0120D1E70121D3E710B561
:100FD00000BFB94C20346089002835D00A20205E3B
:100FE00000280ADD2088FF2804D3FF202080A08865
:100FF000401C10E02088401C09E0A188AE48603009
:101000000288914205D80088A0802088401E208058
:1010100002E0A088401EA0802088142801D214205D
:101020002080A0886188884201D96088A080A0883B
:10103000FF21FFF708FA0A20205E0028608901DD01
:10104000401E00E0401C608110BD9B4B30B520333A
:10105000002830D00146C20903D04106490E802243
:10106000511A032901DC012221E0934A60321488DD
:101070009D88AC4203D1CA0F51184A1017E01029BD
:1010800000DD1021C40903D0CC0F6418641061186E
:1010900052889C88121B1204120E521C51430AB231
:1010A00085498979012902D1032A00DD03225A8169
:1010B000C00901D05042588130BDF8B500BF7E4E06
:1010C000203EB07F00247C4D032823D1687D042876
:1010D00006D0687D05280ED0687D062811D013E063
:1010E000EC71A87E102802D2A87E401CA876E87D6C
:1010F000801C287608E0F07FE8767048A030C47243
:1011000002E0F07FFFF7A1FF287E012802D9287EA8
:10111000401E2876B07F04281BD00020697D062958
:1011200019D00021664F08422BD0687F401C687799
:10113000EC81F07F3881F98838890830814201D903
:101140006C77AC76F88839890831884205D201205D
:1011500004E00120E2E70121E4E70020297F0129E2
:1011600000D000210840A97E062901D9012100E014
:101170000021084203D051480121A03081723889F2
:10118000F880E8894F49884201D9012000E0002019
:10119000B17F042912D00021084306D0B07E102868
:1011A00002D2B07E401CB076EC8144484038807852
:1011B000012805D0A87D012804D005E00121EBE736
:1011C000AC8101E0AC70EC83E88B401CE883E88BD9
:1011D000FF21F53188420DD9EC83A878401CA87016
:1011E000A878FFF7A5FBA878C043800702D1E87E66
:1011F000FFF72BFFA889401CA881688A401C6882E1
:10120000E889401CE8817889002800D00120297EE7
:10121000012900D00021084201D0FFF7D8FEF8BD17
:1012200000BF0020244920390876234948717047BF
:1012300010B500BF0023224CA3811F4A203A908A98
:10124000642801D9012000E00020117B012900D091
:10125000002108431CD09382D07C401CD074D17CE8
:10126000154804290DD9517B022907D1D18A491C7F
:10127000D182D18AC82901D95373D3820121A18196
:1012800005E0A189012903D1517B002909D04371CF
:10129000A089012808D0A089022815D0FFF73EF8C0
:1012A00010BD03214171F3E7D374507B002801D1B5
:1012B000FFF7B6FF04200BE02006002040070020C7
:1012C00040060020A05A0000D374FFF7A9FF0B20AE
:1012D000907410BDFA494A7B012A10D0022807D029
:1012E000012807D008280BD0072808D2142008E0CE
:1012F000082006E0022048730020C874C8827047A6
:10130000042048737047F8B500BFED4DA88AEC4E35
:101310000027203602280ED2377577753777B770D9
:101320000120FEF713FFFFF783F8E548803080883F
:10133000FFF7B5F8F8BD307D0B24002803D0B07D51
:1013400001282FD041E0A88A0005800D012809D18D
:101350000A20FFF7B3F8DA488030007B012801D17A
:101360000920A874A88A082805D10020FEF73FFFAD
:101370000120F0713775A88A5A2806D9687B0028A1
:1013800001D0FFF74DFF6F730AE0A88A1428D1D966
:10139000CC4880780128CDD13075687B0028C9D031
:1013A000AC74F8BD0120FFF70DFCA87F012803D025
:1013B000A87F022805D007E0377537770520A87485
:1013C00003E0E87FFFF786FFAC74A88AA028E7D87F
:1013D000F8BDF8B500BFBB4FB94DB8780026203531
:1013E000B74C012803D0A87D012807D042E0287D12
:1013F000002800D1A682012028753BE0A6820520A6
:10140000E8757120FFF7DEFBA07F71280FD08120E7
:10141000FFF7D8FBA07F812828D000202979012957
:1014200000D00021084223D02E75072021E0EE7065
:101430003878C100A34840300918887E0202A048CD
:1014400040308283828BCB7ED2188283E07F11284A
:1014500004D19C48C0300662A0792877087F000636
:1014600001D42E71E0E70120287103E00120D5E7C7
:101470000B20A074A08A122801D9012000E00020CE
:10148000297D002906D000210840A18A462903D9D8
:10149000012102E00121F7E70021084301D00B20E0
:1014A000A074F8BDF8B500BF864F854EB97800200E
:1014B00020360B25824C012903D0B17D012907D0AC
:1014C0004FE0317D002900D1A0820120307548E035
:1014D000A0825120FFF776FBA07F5128F0780CD036
:1014E00007283DD80620FFF76DFBA07F062811D006
:1014F000A07F062820D901201FE03978714AC90051
:1015000040328918C97E4907490F884228D10820EE
:10151000A07426E0E07FF075F07D052801D201205F
:1015200000E00020F17DCD2901D9012100E000215A
:10153000084311D0A5740FE00020A17F712901D0CC
:10154000012100E000210840A17F812901D0012173
:1015500000E00021084203D0F078401CF07000E069
:10156000A574A08A122801D9012000E00020317D55
:10157000002906D000210840A18AAA2903D9012107
:1015800002E00121F7E70021084300D0A574F8BD6F
:101590004B4810B52030018902291DD0008903284D
:1015A00019D14948808A494C0005000DA0700112EC
:1015B000E1707D21090188420DDB41481121417311
:1015C0000B218174DE20FEF717FFE078FEF714FF91
:1015D000A078FEF711FF10BDFEF784FF0720FEF78D
:1015E0008BFF10BD70B500BF35488030017B344D96
:1015F000002905D0A98A8906890E10295FD087E0C5
:10160000FFF75BFD2E4B2033987D012800D0002092
:10161000D979012900D0002108400B24002821D0CD
:10162000A87F022804D0A87F042813D9012012E043
:10163000E87F072806D0E87F092813D2E87FFFF764
:1016400049FE0EE00120D87100201875D8700720DF
:10165000A87407E00020D979012900D000210842B0
:1016600000D0AC74687B012800D00020A97E03293B
:1016700001D9012100E00021084204D01448FEF7FE
:10168000C0FEAC7444E0D8891249884201D90120D7
:1016900000E00020A97E042901D2012100E0002100
:1016A000084099890C4A914201D9012100E00021AA
:1016B0000843598A094EB14212D9012111E023E0B1
:1016C00000060020000700200044004040000020E9
:1016D000FDDB0000D8590000A406000070170000D0
:1016E0000021084314D0AC749889904201D9414834
:1016F00007E0588AB04202D93E48401C01E03D480C
:10170000801CFEF77EFE03E08088FF21FEF79BFE33
:10171000FFF73EFF70BD10B500BFFEF7D8FE36499B
:10172000002088803549488134482038818A022940
:1017300001D90C21817410BD70B5304C203C607B08
:101740000225012823D0607B082825D00020617B5A
:10175000042923D00021084328492031898B4229BC
:101760001ED000210842A08A1CD03C280ED901209E
:10177000FEF7ECFCFEF75CFE204860308088FEF748
:101780008EFE0A20FEF79AFE0820A07470BDA08A83
:10179000C828FBD9A57470BD0120D8E70121DAE77C
:1017A0000121DFE73C28F6D9FEF7B8FD607B002871
:1017B000F0D1FFF735FDEDE770B510490020E031BD
:1017C0000E4D88706A7E0D4C203CA17C8A420DD063
:1017D000A17C042900D0A082A07C0849A031087116
:1017E000DB20FEF709FEA07CFEF706FEA07C6876F3
:1017F00070BD7047E4DB000040340040200600204C
:00000001FF
