:10000000000600204B040000710000007300000097
:1000100000000000000000000000000000000000E0
:10002000000000000000000000000000750000005B
:100030000000000000000000770000000000000049
:10004000E10D0000E70D0000ED0D0000F30D0000D4
:10005000F90D0000FF0D0000050E00000B0E000062
:10006000110E0000170E00001D0E0000230E0000F0
:10007000FEE7FEE7FEE7FEE7FEE70020006880F30C
:100080000888704770B5FE48FE4C8178C078814280
:100090001FD0FD481C220546002100F03DFEFB4814
:1000A00081888906FCD4FA48407D062811D0A869C9
:1000B000C10603D5C04340070BD00BE0410702D077
:1000C0004007400F6073607B20210843607328461F
:1000D00070BDF04DA869410702D04007400F607322
:1000E000607B102108436073EA4870BDE848002136
:1000F0002038017241727047E54B10B5203B1A7AE7
:100100005C7A511C0907090F8C4272B601D101209B
:1001100006E0DF4C9200603C1219906019720020DA
:1001200062B610BDDA4E603E34464034217A607AC1
:10013000814201D130BFF9E7810089198D68002D16
:100140000BD0401C0007000F6072A8470028EDD0BC
:100150002846FFF7D1FF0028E8D0FFF7C7FFE5E703
:1001600010B5C84CA07B002803D000F02DFB002068
:10017000A073C9480088000706D5C84881890822AD
:100180001143818100F002F8002010BD08B5C54977
:10019000C3480860FFF771FFC349052008820620A5
:1001A0008880C2485A2101808115818009210181FE
:1001B000BF498181BD49022420310C8308218183FC
:1001C0008482BC490183B548002140388180BA4906
:1001D0000180532109020182B84801250580B749F1
:1001E000801520310880B6499220088020200880A0
:1001F000B3482030028A0C239A43083222430282F9
:10020000828A2A43828200200880AE49E0208881C9
:10021000AC48802120388181AA4920202039888358
:10022000A94881B2A94800F0A6FAAA483022A849F4
:10023000009000F090FA98480580812101803B21D0
:1002400081800F21018121210180A34805800321A4
:10025000018041210183A149818001818181018245
:100260009F4DB42129808A491C3129810721A98009
:100270009B4920390C811121018000F04CFA9948EA
:100280000821016008468749803908607D4E00F0EA
:1002900053FC0006000E7073F9D000F04EFA90483F
:1002A000203801898907FCD500242C80022707818A
:1002B00009220121204600F050F94003010C00986A
:1002C000C187804820388481704D0120288081209A
:1002D00028806E49952020310880FF20A8820320C5
:1002E00000022882AC807F49212008606D49803956
:1002F0000860FFF7C7FE0446727B7B497B48D30743
:1003000020D0E36843607A4B83677A4888654878F1
:10031000384348706949A8152031888090065BD51C
:1003200020681C21021B60181C3A00F0F5FCA8880C
:100330008006FCD403CC0A1A03214902411A00F0BA
:10034000EBFC49E093073BD5236943606A48886525
:100350005B48922101802021018059492031098A7E
:100360000C239943564B20331982002101805348B6
:1003700081210180FF235149313320310B80FF233C
:1003800013338B805D498180052101815921818151
:100390004D2101800021C943018200218182900604
:1003A0001AD55749A0684218032061684002091A0B
:1003B00020461C3000F0B0FCA8888006FCD40BE07E
:1003C0005049416034480188082211430180FF20D0
:1003D0003A4909302031888039486030818A294C77
:1003E000403C2170018A6170008BA0700120E07098
:1003F00018224549201D00F0AEF900F093F81020B6
:1004000020870C20B072204660308770A08E40217B
:100410000843A086084600F0C8F9204880890007F4
:1004200007D5707B082108437073F08F20210843A3
:10043000F087FFF75BFE00F0A5F92A493348086012
:10044000184980390860FFF76DFE082000F07EF93A
:100450001C480189C906FCD5FFF798FE10B5234852
:10046000214C0168491C01602178890702D4406849
:10047000FFF742FE2078400750D50548817D47E0D0
:10048000E03F000040000020000600200064004023
:1004900060010020AC110000003C004040340040EE
:1004A000FF0F000080E100E0005C004000300040F1
:1004B000051D000007BB0000012A000000380040B5
:1004C00000580040206C004058020020000000202E
:1004D00064110000C00000200044004039390000D1
:1004E0002060004080E200E0800000200001002049
:1004F00037060000530F0000B10F0000ED020000AE
:10050000E4F9FFFF610100009411000042080000BF
:10051000C07D814202D00248FFF7EEFD002010BDF1
:10052000750D000070B5F9218901488BF84C002841
:100530000DD00E8B851B2946F64800F0DBFDA08010
:10054000680028180E2100F0D5FD801B03E0012073
:10055000C003A0800020E08070BD70B50023EE4D88
:100560000AE0440064194034A48F260B964207D158
:100570002405240DE31840180828F2D3184670BD4E
:10058000E64870BDF0B5E64B00211980E54903242B
:100590004A79E549002A08D0E34F8025E34E203709
:1005A000012A05D0052A08D00DE0C278042508E00C
:1005B000B5813C81C278092503E035823C81C2784F
:1005C0000A252A434A740578022215430D710578DD
:1005D00015430D72057815430D73057815430D7499
:1005E000467801252E434E7146782E434E7380780F
:1005F00020434872B4201880C7487C3018810720F7
:100600009880C74820380281838813438380112053
:100610000880F0BD0A8810184A88898810180818C0
:10062000BB4906228A5E8008101800D50020898800
:100630004143C80B704770B5022211460020FFF7F6
:100640008CFFB849830808311846FFF7E3FFB84D1F
:10065000B44C2880A07EB04E40008019FF3001309D
:100660000385012204211046FFF777FF4308214646
:1006700014311846FFF7CEFF6887A07E03224000A2
:100680008019FF300130838608211046FFF765FF8F
:10069000214603460E31FFF7BDFF294640398887C2
:1006A000A17E49008919FF310131CB85A07E022846
:1006B00001D3002000E0401CA0766079800720D1A3
:1006C0009948407C08210207120F0720FFF745FFD9
:1006D0006379002B12D0944E2036328910210A40C3
:1006E00000213181914EB18131824009002A00D030
:1006F000404240B2190703D4E87202E0E88005E006
:1007000028736079082801D3002001E06079401C3B
:100710006071002070BD8348002140380172417231
:10072000844801210180011581800F21018002226E
:10073000028101830421818270477E4881210180EA
:10074000002101807C4907200881704700E000BF3C
:10075000401EFCD27047821801E008C908C09042D0
:10076000FBD37047821803E00B780370401C491CD0
:100770009042F9D370474118002200E004C088423B
:10078000FCD370476D48012101806C4A052140323D
:10079000118000220282694920310A82684A8A81D6
:1007A00013220A80072101817047614A403A118F64
:1007B000014008D0D08E0843D0865C482030818923
:1007C00020229143818170475948817B89060FD54A
:1007D0000246403AD18EC38A9943D1860022C28212
:1007E000002905D15148203081892022114381817F
:1007F00070474C4910B580394A7A52480B2A08D3C1
:10080000454A5149116051490A8810239A430A8088
:1008100010BD8B7A5B1CDCB2494B8C729B1C012C8B
:1008200009D00A2C09D23C498C31515C0122A41E0A
:10083000A2401142ECD1184610BD00238B72521C0D
:100840004A7210BD0246002002E013785840521C44
:10085000491EFAD270470822012101E00918400818
:10086000521EFBD2C807C00F7047F0B52A4C0027B4
:10087000204626468C3080363D468446A034607A39
:1008800000280ED1A07A317B884206D20121B940DE
:10089000401C0D43A072BF1C34E00020A072012058
:1008A0006072C1B2207A814218D2A07A002819D091
:1008B000092806D26246895C401EC140C807C00FA5
:1008C00010E0092805D0FF220120A272491C6172A4
:1008D00008E06046085CFFF7BEFF03E0607D012191
:1008E0004840A175617D012251404840607540003B
:1008F0000843B8400543A07ABF1C401CA072A07DED
:10090000012801D0102FBAD37F1E27757586F0BD40
:10091000800000200000550500010020FFFF0000BE
:10092000206000402002002000440040006C004095
:100930004000002000500040003C004000540040B7
:10094000E7030000DF2E0000EC0F0000003800403D
:10095000F0B50546E5489221018020210180E34E53
:100960002036308A302738433082691CE048FFF750
:1009700069FFDF49DE4C8D394919803188731334A2
:10098000ED1C2572207BE07200206072A072607501
:100990000225A575FFF769FFD64881210180D64958
:1009A000CA78D6494B78114619439B07DB0F39406B
:1009B0001B021943CF4B20331980D1498180052177
:1009C0000181891F818103219143CA0049010A43A2
:1009D00048210A4025210A43028021462039498EB8
:1009E0000182217D8182A07B002806D1308A0C21E2
:1009F00088433082988828439880FFF736FF86E73F
:100A0000C04A108BC004C10EBB482038807A400019
:100A1000C01C1F2800DD1F20814200D2481C118B02
:100A20001F231B029943000201431183B649088822
:100A3000072212029043B04A92785207520D104397
:100A400008807047F8B5AA4A4109133200290AD034
:100A5000202901DB1F2106E0937B8B4201DA491E2E
:100A600001E08B4200DD9173A34FA64A403FBD7F5A
:100A7000A9001C31118223357D216843C90000F093
:100A800039FB9E4920318A7C101A04D4C97C40432A
:100A90004143481100E00020984EF18E0C18B08EB2
:100AA000A04200D204462803D22100F023FB1F21DC
:100AB0007956001908189549884200D908463086A9
:100AC000F8BD002130224000C30500D55040491C2C
:100AD0000829F8D30006000F7047874910B5203960
:100AE0008A8FC0075400C00F044381488C8793301D
:100AF0008178491CC9B281700C2908D32009FFF7FD
:100B0000E0FF2107090F884201D1012010BD00201C
:100B100010BD014610B57E4800897E4A401C5043F6
:100B200000F0E8FA754980B240318887BE2801D9C3
:100B3000022010BD012010BDF8B5754E308840066A
:100B400001D50420F8BD6A4A5332117A507A8142A5
:100B500054D041001346E03BC918401CC031000787
:100B60008988000F5072203A908D644D401C80B2ED
:100B7000403590858446802801D9288F92E05C4CCE
:100B800060465E4B9334042871D9D1849184480027
:100B900028870020594B4700FF182E8F3B8EF318F3
:100BA0002B873B8ED68CB34201D2D38403E0968C44
:100BB000B34200D99384401C0628EBD34F48203021
:100BC000837F5B1CDBB28377062B01D30023837703
:100BD000807F052346004948DB0130180186288FB5
:100BE000C008C31A2887A12B09D36E8F6346F31858
:100BF0009BB26B87642B02D20020908567E0938CB8
:100C0000D28C3B4E9D1A73360E2D45D9D01847080D
:100C1000002530462570203083790122C0798F422B
:100C200016D9002B0ED0B17F00290BD0002801D19E
:100C3000022906D9E5710120FFF74FFF00281FD1D7
:100C400000E0E271B577F07F401CC0B2F0771FE0A2
:100C5000002B05D0F17F002915D000280AD107E02C
:100C6000A271E571A5700020FFF737FF0BE021E0CE
:100C7000022907D9E5710020FFF72FFF002802D0D5
:100C80000220F8BDE271F577B07F401CC0B2B077AA
:100C900004281CD9A5711AE02178491CC9B2217019
:100CA000282902D9FFF735FFF8BD0020A071B077E1
:100CB000F0770CE0604602280BD000204200D218EA
:100CC000401C11860628F9D30020A0712070002056
:100CD000F8BD30890F4A401C504300F00BFA80B237
:100CE000A887C008401E3081F1E70000005800408E
:100CF0008D010020003800406000002080000020AE
:100D0000DB0500000030004000340040FF0F000011
:100D1000003C00407017000010B52D4B9C88A406C5
:100D200002D41C8B240701D5012010BD294CE0669C
:100D30002046403041860286012120304175A020A6
:100D40009883FF209882D7201882302098800F2027
:100D5000188031209880002010BD1E491D4B603145
:100D60008A7D9200D218D064887D401C4007400FD5
:100D70008875704730B516488188890625D416498C
:100D800080220A800A82134A124D6032D47DA30069
:100D90005B194C330B8304238B8201230B818D88D9
:100DA0001D438D80641C6107490FD1750521517564
:100DB00058218183FF21818208490182302181806D
:100DC0000F210180818819438180002030BD0000FF
:100DD000006400400001002000600040C6030000E5
:100DE0008C48006C00478B48406C00478948806CF9
:100DF00000478848C06C00478648006D004785481A
:100E0000406D00478348806D00478248C06D0047B1
:100E10008048006E00477F48406E00477D48806EE6
:100E200000477C48C06E0047F8B57B4A118990881E
:100E300001401181C8070223002818D0908840087B
:100E400040009080002010821080744C657D7448B2
:100E5000052D09D0868804252E438680068AC12761
:100E6000BF00BE430682657584881C438480880762
:100E70000BD59088984390806749002020310880E6
:100E800066486038806FFFF737F9F8BDF8B5644CF5
:100E9000A08A218A0840FF21A182604DC621064612
:100EA0000E40603D7021495BEA6E02236035002EE2
:100EB00025D0C42630400026002808D0A08818433A
:100EC000A0802020FFF742FC0620687507E0687DBF
:100ED000042803D1207B51182039C8776E75012072
:100EE0002080032000022082FC20A083A6804A48A4
:100EF000068006828188490849008180F8BD474EF6
:100F0000C707203E768E002F03D0300A20736B7502
:100F1000F8BDC006FCD5687D022812D02120A08033
:100F2000FF20C33020823C4880230380902303822B
:100F30000283891E81820121018182880A43828085
:100F4000F8BD267303206875F8BD364981200880F6
:100F5000704770B5334A3023138330480021403046
:100F6000847D002C0CD00346203B5B8E1382037DD6
:100F70009382012C02D0FFF778FC70BD817570BDA3
:100F8000284C2034A5880226B543A580012414806E
:100F9000254A0172148A08252C431482807B042878
:100FA00002D2108A984310821F482038018070BDF9
:100FB00010B51C4C30202083FFF71BFCA08010BD17
:100FC00010B51A4C2089800702D51948FFF794F80C
:100FD0000720208110BD17490F200883704710B5E6
:100FE00015498B890D488030027A04465200E03C56
:100FF0001219C0329380027A521C1207120F027229
:101000000F20088310BD0D488188C90701D0102129
:101010008180704780000020006000406001002057
:101020000064004000380040205800400054004058
:101030005D040000004C0040005000404030004083
:1010400030B5294AFD21547823460B4027494D14D9
:10105000022803D95370088BA84308E0022803D262
:1010600002200443547000E05370088B2843088327
:1010700030BD70B51D4C0546208AD22180081C3039
:10108000000300F037F81A490A887D21C90182421D
:1010900002D9121A122A03D81A200B8B085E14E008
:1010A000222A03D31E208B8B085E0EE0888B0B8BCD
:1010B000123AC01A504300111B181E201A26085E4F
:1010C0008E5F801B504300113018401900D500205E
:1010D0005843010C208BC004C00E401C484319210A
:1010E00000F008F870BD00008000002000300040D3
:1010F0004000002030B50B4601460020202201248C
:1011000009E00D46D5409D4205D31D469540491B3B
:101110002546954040191546521E002DF1DC30BD84
:1011200070B500242546002801DA01244042002938
:1011300001DA01254942FFF7DDFFAC4200D0404211
:10114000002C00D0494270BD30B47446641E25782E
:10115000641CAB4200D21D46635D5B00E31830BCEB
:1011600018470000290E0000C10F0000D70F000033
:10117000DF0F0000790000008D0E00004B0F000013
:10118000790000007900000079000000790000007B
:101190000710000000BB124044656320313020324C
:1011A0003031350031313A35333A34315817000097
:1011B000001E0000D824000019160000792200004B
:1011C000000000000000000010B505490348486019
:1011D000182204490448FFF7BEFA10BD1916000092
:1011E00000010020C81D00001C0000207B48417B3E
:1011F0004908490041737A488189042291438181D9
:101200007848002181800188F0229143018076494D
:10121000082088837047FEB5704D74492035A88D2D
:10122000884232D0288E72490191294640310F46BA
:101230000C466A4E203F2034009100282FD16D4883
:101240000188490622D529466B4AC0394A606C4A52
:101250006A4991650188082211430180FFF76DFA00
:10126000FFF7C4FFFF206749093088800020C04392
:10127000A88501990C2048735D48E0224038818E92
:10128000114381861046FFF790FAA4E000216170B7
:10129000A1700F21698640210181FFF73CFA7BE0B4
:1012A00042004E49401CA0395118C03100078988BE
:1012B000000F7872A88D401C80B2A885072817D827
:1012C000022807D80020E8850099C8778877A071A0
:1012D000E07161E0062803D8E88D4018E8855BE0FE
:1012E000072805D1E88D801C8008E885019A1081C7
:1012F000E88D001F884200981FD9C07F0099401CCC
:10130000C0B2C8770A2856D8A07900280FD0887FA5
:10131000052801D9002005E0022808D9E079002835
:1013200009D0012000F055FA002844D1E07100995D
:101330000020887730E00120F8E7807F0099401C8A
:10134000C0B28877A17900290CD0E179002903D0B7
:1013500005280DD9012002E00A2809D9002000F053
:1013600038FA28E00098C07F022801D90120A07136
:101370000098C07F052801D9002005E0022808D97F
:10138000E079002823D0012000F023FA002812D1B0
:10139000E07100990020C877397A787A814200D0CC
:1013A0007EE7307B401EF072288E401C80B228867B
:1013B000698E88420FD3FFF7C0F90020C043A8858B
:1013C000288E317B021D8A4203D2081A02E00120D6
:1013D000DEE70420F0720020FEBD0000A001002026
:1013E000206C00400034004000300040FFFF00004F
:1013F00040000020003C0040610100004B0F000055
:10140000800000202038004010B5C14801688030BD
:10141000826B036C8A1A9A420ADB816383218900FA
:10142000818101462031097C81730120FFF790FA08
:1014300010BD10B5B748007C00F08EF904460528B1
:101440000DD8B449B248621C10318D30FFF78AF9CB
:10145000AF480C21803001732046FFF779FA10BDA8
:10146000AB4810B5AC4980308181AA492039897ECA
:1014700081730120FFF76CFA10BD70B5A449A0314B
:10148000487BC20611D5EF2210404873A149A14CF8
:1014900040398A8EE08F802302431A438A8618439C
:1014A000FFF783F90020E08770BD4207FB23002A85
:1014B00010DA1840102210434873984801218180A7
:1014C000018830229143018095488189042211438B
:1014D000818170BD934A107E002802D000F005FB88
:1014E00070BD8B488C4D01688030C46BD0350C1BAF
:1014F000AC4203DBC16348201076EFE7826B046CDB
:101500008A1AA242ECDB884C8163217F8A0705D5C9
:10151000FD200140217700F091FA70BD814932250C
:1015200020394A785607002E05DA1A404A700564B9
:10153000FFF796FF70BD130706D5F7231A404A70D0
:101540000564FFF776FF70BD00F0A8F9607F002802
:10155000F9D0401E607770BD6D4810B5734980307A
:10156000C1604121490201610520FFF7F1F910BD79
:10157000674810B56E498030C1606E4901826E497E
:10158000CA7982740A7AC274497A01750720FFF712
:10159000DFF910BD10B55F480088C008FF2800D9EA
:1015A000FF205B49FF220D3280318A818873012040
:1015B000FFF7CEF910BD10B55849002089880907FA
:1015C00000D502205D49898BC90401D5012108435A
:1015D0005B498989C90601D5042108434D49403931
:1015E0008A8E53075B0F834205D0D208D200024394
:1015F0008A86FFF7DAF810BD4B4906226039087475
:101600004348322180300164014640398A724039B2
:101610000968323981637047F8B54A4880883D4E81
:101620008007002815DB40482030407900280DD184
:101630003C4820380078000708D5F07A09210002DC
:1016400009074018317B0843FFF787FB3E48FEF748
:1016500099FFB07B002802D03C48FEF74DFDFFF714
:10166000AAFF314D603D287A00284ED1E87A2C46F9
:10167000603C002812D0401EE872A07A052844D1B0
:101680003348FEF739FD287BE97A401E81423CD180
:101690000021204680300186818536E0A07A1C4FEB
:1016A00003008037FFF750FD070515191D212C2F6A
:1016B00031001748717B0068C90601D51D2100E083
:1016C0000321884221D90820287332203864012060
:1016D00014E0FFF75FFF022010E0FFF749FF03204F
:1016E0000CE0FFF739FF042008E000F0D5FA0848C5
:1016F0000068F863B8631E2028730520A07204E018
:10170000FFF7BBFE01E0FFF77FFE0020F8BD000001
:1017100000010020400000200C05000000340040C3
:10172000206C0040A0000020000200200C510A00A4
:101730000C71110042640000E03F000000300040E6
:101740002048004000600040541700001B1D0000AE
:101750001712000030300010202801D201207047FD
:10176000802803D220380011801C7047E02803D263
:101770008038C01008307047E0388010143070474F
:1017800010B53848C178491CC9B2C170042901D9C3
:101790000421C170CAB2334933482C39FEF7E2FF45
:1017A000304802222038017F114301772F480089F9
:1017B0001021400700282E4806DA828E0A438286CE
:1017C0001020FEF7F2FF10BD4030C28F0A43C287DF
:1017D00010BD70B5234A04469178104600252C3878
:1017E0005378002913D009291CD00A2930D3002CA2
:1017F0002CD09570002B1DD0D178012924D08B429C
:101800001ED9891CFFF71EF800281DD01EE0002CF1
:101810001CD1144960390C8E3C344C8601219170E6
:101820001D541DE00A219170185CFFF714F8A042C6
:101830000CD015E00B484038007DFFF78DFFD070CD
:101840005078401C50700BE0FFF79AFF012070BDEC
:10185000195CE4014908214319549078401C9070A8
:10186000002070BD2002002058000020206C0040A5
:101870000000002010B5FB48018EFB480088081AC4
:10188000C001FFF74DFC7F21C943884201DA0846B9
:1018900002E07F2800DD7F2040B210BDF8B5F24E97
:1018A000F2483388834205D2F148018B1F2212028D
:1018B00091430183EF4DEB4F6A7B2C46D007203CD0
:1018C00000285BD0708FFFF7D4FBB0803978C90750
:1018D00056D1FFF7B7F838464030808FE64F6B3867
:1018E0000B28A87B2FD3042804D2B988890709D5EF
:1018F000012005E0042805D9B988890702D403200E
:10190000B88038E0FFF79CFBA97B4808072801DB7B
:10191000072002E0042800DA04203A88F023800738
:101920009A43000E02433A80072901D9142000E0AF
:101930000420B881022902D94320000201E0C3201B
:101940000002388217E0092801D2012100E00321BA
:10195000B9803988F0229143122801D2002200E098
:10196000C02211433980072801D9142100E0042145
:10197000B981FFF765FBFFF743F801E0100705D5D4
:10198000FFF778FF411D0A2927D829E0B9493F8E82
:10199000A03937200968BB4208D8B84FBB421CD9D0
:1019A000E36B7D27CB1AFF00BB4216DBAE48B34B7F
:1019B0004038808F273B984204D9AD48838A06156A
:1019C00033438382AA48838B0126334383830520D4
:1019D00002436A732839A163F8BD322121640FE004
:1019E000697B9623CA07002A07D0A24A6032517F3A
:1019F000002904D0491E517702E0090700D523646D
:101A00009C4932889E4B80319A4215D90A79052A21
:101A100004D39848A0380068E063F8BD521C0A71EE
:101A2000C3218900A181A073002801D0012068741E
:101A30000120FEF78DFFF8BD0022F0E78D4810B5BC
:101A40000C212038017318214173FF21817301207B
:101A5000FEF77EFF10BDF3B5854881B0008B7D2475
:101A6000C004C60EE4011E27E75F0198761C3818F3
:101A700000D50020A58B1921684300147043FFF79F
:101A800039FB009080003221FFF734FB7D4A029938
:101A900051430A0B7649098A19235943511AAF2237
:101AA00012011230891A00D50021884201D800980D
:101AB000FEBD401A218B402802DB1A20205E09E07F
:101AC0001A22491BA25E4143D21B89114243691865
:101AD00090113818019A801800D500204843000C56
:101AE00070431921FFF706FBFEBDF8B55D4E5D4C56
:101AF0002036307E5C4F401EC2B23276A08F618F9E
:101B0000082A10D393070DD13B88C91889B2618781
:101B10007B8FC01880B2A087082A03D1090961878A
:101B20000009A087F8BD062AFCD8FFF794FF0546F8
:101B3000608F0B2109074018FFF70FF9A08F0521CF
:101B400049074018FFF709F947480D214038808FB1
:101B500009074018FFF701F938890F2109074018D4
:101B6000FFF7FBF80321284689070843FFF7F5F83C
:101B700045480088C1053C482030002901DA017D34
:101B80004D193D49098A090402D5152141564D19BF
:101B9000608F152169434843070B072138464907E1
:101BA0000843FFF7DAF834488188012905D0552128
:101BB000C9008D4203D9052005E0002003E000881C
:101BC0000006800F401C70760006C10D26480922D1
:101BD000403809186031087A8A5678430A21C009CA
:101BE0004A43101800D500201F492039897F322927
:101BF0000AD3617840084A0610D44022114361702C
:101C00000A21F174C32108E061784A0606D5BF2293
:101C1000114061700C21F174EA21A1861B498842B0
:101C200003D94A428218D20810180E4A4032928FC5
:101C30006B3A0A2A01D8164A8018164A904200D9EF
:101C400010460E4A0B4D1632203DAA81C001FFF707
:101C500051FAA87300206087A08730760120FEF734
:101C600077FEF8BD800000204000002083020000C5
:101C700000300040A001002000340040F6030000C6
:101C8000480A000008520000203800408813000075
:101C9000DC050000E826000010B5424C2820E07763
:101CA00018224149201FFEF756FD3F4910221831E6
:101CB0003E48FEF750FD3E490878002801D13A49D8
:101CC0002831384810224830FEF745FD35480622B5
:101CD00038493C30FEF746FD34487D231030C28F32
:101CE000DB00354940389A4204D20F22A2775822AD
:101CF0000A820DE03722A277F8220A822B490A22B3
:101D00001039CA74C3218186417840221143417041
:101D10004178CF221140417010BD70B5FEF754FDDF
:101D2000204C2034A07B40060AD5E07B5A2807D1FE
:101D3000607BEF2108404021084360731F488047C3
:101D4000A07B1F4DC10603D5697804221143697039
:101D5000000703D51348C07EFFF74EFCA07B082682
:101D60008007002814DA1749487B020703D5F722B9
:101D7000104048730CE030434873FFF737FA0948C6
:101D800080222038818E914381861046FEF70DFD1A
:101D9000A07BC00702D06878304368700020E073F1
:101DA000A07370BD20000020C81D0000B0000020FE
:101DB000603E0000E43F0000003000401D060020AF
:101DC00080000020A001002000EB12404465632049
:101DD000313020323031350031313A35333A343216
:101DE000F304190CEA0009000000000000000000E4
:101DF000F014AC28AC28AC28BE28B9281414000074
:101E000010B572B60648054981670649416062B659
:101E1000182205490548FEF79EFC10BD81210000EF
:101E20000001002079220000B02400001C000020E6
:101E300010B5FA4C0B21208809074018FEF78DFFDA
:101E4000608F032189074018FEF787FFA0880521CE
:101E500049074018FEF781FF20464038808F0D214A
:101E600009074018FEF779FF20890F21090740185C
:101E7000FEF773FF10BDEA48417B490849004173F2
:101E8000E8488189042291438181E74800218180CB
:101E90000188F02291430180E4490820888370473B
:101EA000E3488188022291438180E149002020316A
:101EB0000880E0480121018003210180DF49DE48DC
:101EC0008880D748062160388172704710B5FEF7C8
:101ED0007BFCD24CA07B40060AD5E07B5A2807D178
:101EE000607BEF210840402108436073D44880475D
:101EF000A07B000701D5FFF7D3FFA07B800715D596
:101F0000C748417B0A0703D5F722114041730DE012
:101F1000082211434173FFF7AEFFC04880224038CA
:101F2000818E914381861046FEF73FFC0020E073CE
:101F3000A07310BDF8B5B9480622C2491C30FEF79F
:101F400011FCC14A0120108000211181BD4BB44D0C
:101F50000F3B0846A03DC4182F18267B80373E73E0
:101F6000247B147114886406FCD4401C0928F2D325
:101F70001089AB4A030A203A53759075A8484172FC
:101F80008172AE48B14981803021018301881022DD
:101F900011430180F8BDF8B5A1486038807A052862
:101FA00073D19F48AA4C803040799C4D00280BD1BA
:101FB0002078000708D5E87A0921000209074018AF
:101FC000297B0843FEF7C9FE688FFFF752F80646E3
:101FD000A8809F489E4C00782034C00700285AD122
:101FE0003046FEF72FFD8E480090807B022809D2F4
:101FF000A98F0905C90E052904D195490A8EFF321A
:1020000025320A86884F052804D2B988890709D560
:10201000012005E0052805D9B988890702D40320E5
:10202000B88038E0FFF70CF889488A494078800783
:102030008948028801D50A4300E08A43028000985B
:10204000807B042802D20021B2220FE00B2801D2AB
:10205000002102E00F2802D20121322206E01428DA
:1020600002D20221422201E0032152226E4B1B8840
:10207000F027BB4389010B436B490B8011026A4A6D
:102080001182142802D31D2004E078E01421081ADC
:1020900040001D3020766E48237E008E2A888446BC
:1020A000C71A00206949974213DDA077E0771C200A
:1020B0002056002826DB07D0462808DD5920C043DB
:1020C00020773C2060771DE0607F401C20776349CB
:1020D00018E063449342207713D260771E22A25601
:1020E000002A0FDB5E4807D0462A08DD3120C043B6
:1020F000A0771420E07705E0E17F491CA177014635
:1021000000E0A0774D4A938B5648834210D944484B
:102110004030007A401EC7173F0F3F183F093F016C
:10212000C01B3F4F4000A03FC019C4300088288129
:102130004A4881420AD0BB20C000834206D97D2094
:102140004001081A834201D2002000E03020202EF6
:1021500006D908231843404B9D880226B5439D802D
:10216000414B92251D8020251D803F4B20331D8A29
:102170003026B54305431D829180607E9081F8BD75
:1021800010B5FEF758FA3948FEF7FCF9FFF703FFE0
:10219000002010BD3549214810B51822091D2438EA
:1021A000FEF7D9FA31492A4810221C313030FEF7A7
:1021B000D2FA1B492E48A03988671B48018A07229A
:1021C0001203914382148918018214480F21203888
:1021D000817716495820088210BD10B51249002099
:1021E0008988090700D502201049898BC90401D5C7
:1021F000012108431F498989C90601D504210843E3
:10220000064940398A8E53075B0F834205D0D208B6
:10221000D20002438A86FEF7C8FA10BD40000020B3
:10222000A0010020206C004000340040003000403D
:102230000060004000440040BF5D000000380040E6
:102240001D060020EF3F000000700040DF2E000060
:10225000800000200001000020380040ED02000056
:102260006F1700009B18000000580040AC240000CD
:102270008121000020480040F8B57B4800887B4D54
:102280004006002821DA7B48794941607B487A4939
:1022900081657548018808221143018078488121B1
:1022A00001807748FF21093120308180FEF745FA0F
:1022B000FFF7E1FD0C20687328464038818EE0224C
:1022C000114381861046FEF770FAFFF786FF694ECC
:1022D000684C4036B07A274680376A49A0340300FC
:1022E000FEF732FF0604C01BC03480C0607B0227AB
:1022F0008107002903DB38436073FFF74BFF5D481C
:10230000697B0068C90601D51E2100E000218842D2
:1023100002D9FFF70FFEB772A4E0564C01212068E6
:102320000903884227D95848FEF72CF94E48402126
:102330000181FEF7F0F9A88F0005C00E052802D133
:102340004E48524901862068F86389E0607BC206E6
:1023500012D5EF210840607305204449B07240391E
:102360008A8EE88F802302431A438A861843FEF739
:102370001CFA0020E88775E043070122002B0DDAE4
:10238000FB210840102108436073414904208881E3
:102390008A8040498A8902438A8163E0374B2D88CD
:1023A0001B8E9D4207D2334BFD6B1B685B1B7D254B
:1023B000ED00AB4211DB2D4B374D403B9B8FAB42C9
:1023C00004D98B8A0125AD022B438B828B8B13435F
:1023D0008B8305210843607344E02F492848E23984
:1023E00081803FE02A882D48824204D2088B1F2337
:1023F0001B02984308832A492A488A422CD901792A
:10240000FA2903D91E498120088001E0491C017185
:10241000A87B002802D02448FDF76EFE17481C2137
:1024200020304156002901D0491C01771E21415618
:10243000002901D0491C8177617BCA070ED0817EBB
:10244000491CC9B28176FA2903D300218176FFF7AE
:10245000EFFCFEF7D5FA05E00021D8E7080701D424
:102460000420B0720020F8BD003C00404000002075
:1024700061010000000100204B0F000080000020DF
:102480000038004000300040AC240000B6050000D9
:1024900000340040206C0040CF03000083020000A5
:1024A000480A000020020020CD1E0000101000008D
:1024B00000EA12404465632031302032303135006B
:1024C00031313A35333A3432F3041E08240109001D
:1024D000615A000000000000000000000000000041
:00000001FF
