:10000000004000009D000000B9010000BD0100009B
:10001000D5010000ED010000050200000000000015
:1000200000000000000000000000000021020000AD
:100030001D0200000000000025020000000000007A
:100040003D03000000000000000000000000000070
:1000500000000000000000000000000000000000A0
:100060000000000000000000000000000000000090
:100070000000000000000000000000000000000080
:100080000000000000000000000000000000000070
:1000900000000000000000000000000000F002F876
:1000A00000F05CF80AA090E8000C82448344AAF1B6
:1000B0000107DA4501D100F051F8AFF2090EBAE8B4
:1000C0000F0013F0010F18BFFB1A43F0010318478C
:1000D000342D0000542D00000A444FF0000C10F89D
:1000E000013B13F0070408BF10F8014B1D1108BFB6
:1000F00010F8015B641E05D010F8016B641E01F856
:10010000016BF9D113F0080F1EBF10F8014BAD1CA5
:100110000C1B09D16D1E58BF01F801CBFAD505E0C3
:1001200014F8016B01F8016B6D1EF9D59142D6D31D
:10013000704700000023002400250026103A28BF45
:1001400078C1FBD8520728BF30C148BF0B60704749
:100150001FB502F020FD1FBD10B510BDDFF80CD09B
:10016000FFF7F6FF00F01CF802F02DFC0040000045
:1001700003B4FFF7F1FF03BC02F030FC30BF70475F
:10018000BFF36F8F7047BFF34F8F7047BFF35F8F21
:100190007047EFF31480704780F3148870470000B5
:1001A00010B5002003490861886002F01BFB0020A5
:1001B00010BD00000000044000BFFEE710B542F291
:1001C0002220410748640120184908618860FFF730
:1001D000D5FF10BD10B542F222204107486401202E
:1001E000124908618860FFF7C9FF10BD10B542F2DF
:1001F00022204107486401200C4908618860FFF70C
:10020000BDFF10BD10B542F2222041074864012015
:10021000064908618860FFF7B1FF10BD00BFFEE727
:1002200000BFFEE700BFFEE700BFFEE7000004409E
:1002300010B511213148C0F89C1D3149C0F8A01DEE
:1002400042F21201C0F89C1D2E49C0F8A01D43F6D1
:100250001371C0F89C1D2C49C0F8A01D43F6140171
:10026000C0F89C1D2849C0F8A01D2849C0F89C1D55
:100270002749C0F8A01DD0F8940D40F001011F4897
:10028000C0F8941DD0F8140D40F400711B48C0F85C
:10029000141DFFF778FFFFF773FF10BD00F01F027A
:1002A0000121914043091B4A42F82310704700F096
:1002B0001F0101228A4043091649803141F8232059
:1002C000704700200AE0134951F82010124A42F802
:1002D000201000220F4941F82020401C0028F2DDA8
:1002E0007047002006E00C4951F82020094941F8E8
:1002F0002020401C0028F6DD7047000000E000E0F0
:10030000190003071900030313000313150000402D
:100310002700001300E100E00032000010B50020CB
:10032000FFF7BCFF0120FD49086010BD10B500209B
:10033000FFF7BDFF0020F949086010BD2DE9F04F1F
:100340008FB04FF0000A00200E900D900C900B9093
:100350000A900025099081468346089000260027D0
:10036000079006900590804604900390029009241F
:1003700020E0601EEA4901EB4010006801EB4411E7
:100380000860601EE64901EB4010406801EB441133
:100390004860601EE24901EB4010806801EB4411A7
:1003A0008860601EDE4901EB4010C06801EB44111B
:1003B000C860641E002CDCD1621E00214FF080401A
:1003C00001F0A2FCD6490860621E0021D54801F068
:1003D0009BFCD3494860621E0021D248001D01F0F9
:1003E00093FCCF498860621E0021CE48083001F09E
:1003F0008BFCCB49C8604FF0804000684FF08041D3
:10040000886400204864C848006800F00F08C648A7
:100410000068C0F30310049001221F21900701F02F
:1004200073FC039001221E21900701F06DFC0290E5
:1004300001221D21880701F067FC0E9003221B2179
:100440004FF0804001F060FC824601221A214807EB
:1004500001F05AFC0D9001221721900701F054FC85
:100460000B9001221621900701F04EFC0A900F22FA
:100470001021880601F048FC81464FF6FF720021EA
:10048000A84801F041FC06464FF6FF720021A5483E
:10049000001D01F039FC07464FF6FF720021A1480C
:1004A000083001F031FC059041F2010105988842C5
:1004B0000ED102209D4908600A20410748640020AF
:1004C000C8609A480068002801D10120C86425E36B
:1004D00042F20101059888420DD10120934908603C
:1004E0000020934908600A20410748640020C86042
:1004F0000120C86412E3029801281DD100208D4913
:1005000008608D4908608D4908608D4908600420A5
:100510008C4908608C480068012805D10A204107F1
:1005200048640020C860F9E20A20410748640020BE
:10053000C8600120C864F1E20398012811D1814804
:100540000068042802D302207E49086001207E4909
:1005500008600A20410748640020C8600120C86480
:10056000DCE20B9801280CD10A20410748640020E6
:100570008864C86001F0A2FA01208107C864FFF70F
:10058000FDFDBAF1020F7DD107220E21654808302A
:1005900001F0BAFB05460E98012863D16B4800684C
:1005A000FF2803D10A204107486478E165480068C4
:1005B0000228FAD1012D11D1654866490968405CCD
:1005C0006549086063480068112803D10020594933
:1005D000086064E101205749086060E1022D11D1F3
:1005E0005E485F490968405C5E4908605C48006895
:1005F000102803D100205049086050E101204E49E5
:1006000008604CE1042D11D1574800680128CCD96D
:10061000554800680728C8D2544853490968405CC7
:100620005349086001204549086038E1052DBCD1D7
:1006300001203E49086000203D4908604D4908609E
:100640004D484E490968405C4D4908604B48006878
:10065000022803D900203A49086020E101203849E6
:1006600008601CE1002039490860FF2200212D4864
:1006700001F04AFB3549086008460068FF284CD164
:10068000012D00E014E11AD12A480068002815D095
:10069000B8F1020F08D0A81EA90748640020C8605E
:1006A0000120C864FFF76AFD36480068C2B21D2108
:1006B000CC2001F060FB00201E490860B9E0022D4B
:1006C0001AD11D480068002815D0B8F1020F08D0D3
:1006D000E81E690748640020C8600120C864FFF76D
:1006E0004DFD29480068C2B21F21CC2001F043FB18
:1006F0000020114908609CE0042D54D10F48006887
:1007000000284FD0B8F1020F42D0681F2907486473
:100710000020C8600120C86438E060E04433000075
:100720004C3300000400004000005A7030330000D9
:100730001C330000AC320000D0320000F432000064
:100740001833000038330000403300007C320000D2
:1007500004320000B43200009C3200001C32000061
:10076000D8320000C0320000FC3200002F320000FE
:10077000E4320000243300003C320000203300004B
:1007800008330000A8320000CC320000FFF7F6FC6E
:10079000E4480068C2B21B21CC2001F0ECFA002032
:1007A000E149086045E0052D43D1E0480068F8B113
:1007B000B8F1020F08D0A81FA90748640020C8603C
:1007C0000120C864FFF7DAFCD9480068C2B22621CC
:1007D000CC2001F0D0FA0020D449086029E0012D96
:1007E00007D1D4480068D44908600020D349086084
:1007F0001FE0022D07D1CF480068D14908600020D2
:10080000D049086015E0042D07D1CA480068CE49D8
:1008100008600020C44908600BE0052D09D1C548D7
:100820000068CA4908600220C94908600020BF4921
:1008300008600A98012832D10F221021C54801F022
:1008400063FA18B10520C449086002E00120C249DA
:1008500008600F220021BF4801F056FABF49086026
:100860000F220421BB4801F04FFABD4908600F2256
:100870000821B84801F048FABA49086008460068FB
:1008800018B90020B849086002E00120B6490860A4
:100890000F220C21AF4801F037FAB44908604FF03D
:1008A0008040406C002802D10A2041074864EAE0F9
:1008B000B8F1020F0AD04FF0FF304FF0804148648A
:1008C0000020C8600120C864FFF758FC0D9801287B
:1008D00002D10C200C9001E0CC200C90BAF1000F5A
:1008E0002ED0B9F1000F22D0FF2200214FF080401E
:1008F00001F00AFA83464FF0FF320021954801F0DB
:1009000003FA07904FF0FF3200219248001D01F0DA
:10091000FBF9069000204FF080414864886409F19B
:1009200001020BF0FF010C9801F04DFA9CE0002051
:100930004FF080414864F1B20C9801F039FA93E02D
:10094000B9F1000F21D0FF2200214FF0804001F0CB
:10095000DBF983464FF0FF3200217E4801F0D4F9E5
:1009600007904FF0FF3200217A48001D01F0CCF9CA
:10097000069009F101000090DDE90630C2B20BF0EB
:10098000FF010C9801F005FA67E0012219218807A0
:1009900001F0BAF909900998012817D1F1B20C9821
:1009A00001F006FAFF2200214FF0804001F0ACF97F
:1009B00008904FF08040406C089988434FF0804188
:1009C0004864089807400846406C0743FAB2F1B201
:1009D0000C9801F0D0F9202E01D1654807603B2E1C
:1009E00001D1644807601D2E0AD163480760006882
:1009F00062490860002062490860624908602CE092
:100A00001F2E0AD160480760006860490860002016
:100A10005F4908605F4908601FE01B2E0AD15E48ED
:100A2000076000683F49086000205C4908605C4935
:100A3000086012E0262E10D15A48076000683C4931
:100A40000860424800685849086001204049086031
:100A5000002056490860564908604FF08040406CBD
:100A600010B90A20410748645248006801280AD199
:100A70004FF0EE304FF0804148640020C860012004
:100A8000C864FFF77BFB092420E0601E4A4901EBA4
:100A90004010006901EB44110861601E464901EBFA
:100AA0004010406901EB44114861601E424901EB6E
:100AB0004010806901EB44118861601E3E4901EBE2
:100AC0004010C06901EB4411C861641E002CDCD1E8
:100AD000621E00211F483C3001F016F936490861BA
:100AE000621E00211B48403001F00EF93249486176
:100AF000621E00211748443001F006F92E49886132
:100B0000621E00211348483001F0FEF82A49C861EE
:100B100000204FF08041C8600120C8640FB0BDE8DC
:100B2000F08F0000F0320000F432000018330000B3
:100B3000143300007C320000B4320000AC320000FC
:100B4000D8320000D0320000FC32000048320000F1
:100B5000243300000400004084320000883200008A
:100B60008C32000090320000983200009432000075
:100B70004C32000050320000A4320000A8320000C5
:100B8000B8320000BC320000C8320000CC32000095
:100B9000DC320000E0320000EC32000000330000E4
:100BA000043300001033000020330000283300001D
:100BB0002C330000803200004C330000FE487047A8
:100BC00001460A4639B900BFFB48806810F0800F23
:100BD000FAD00120704706E0F748806810F0800FD7
:100BE00001D00120F6E7501E0200F5D100BFF1E769
:100BF000F0B514460F68C3510F68C7F303174FF4DD
:100C0000C06C0CEB870542590F683F07FE0EFF27AB
:100C1000B740BA4304FA06F73A4342510F683F1D02
:100C20000F60F0BD10B504464FF00A335422214640
:100C3000E248FFF7DDFFE24B58222146DF48FFF78D
:100C4000D7FF0C235C222146DC48FFF7D1FF0523A8
:100C50006C222146D948FFF7CBFFDA4B60222146B0
:100C6000D648FFF7C5FFD84B64222146D348FFF78B
:100C7000BFFFD64B68222146D048FFF7B9FF10BD11
:100C8000CD4A1268126822F46012CB4B1B681A60BE
:100C900020B101280BD002281BD111E0C64A1268EE
:100CA000126842F40012C44B1B681A6011E0C24A79
:100CB0001268126842F48012BF4B1B681A6008E089
:100CC000BD4A1268126842F40022BB4B1B681A60CE
:100CD00000BF00BFB84A1268126822F4E022B64B87
:100CE0001B681A6021B101290BD002291BD111E028
:100CF000B14A1268126842F48022AF4B1B681A6036
:100D000011E0AD4A1268126842F40032AA4B1B6827
:100D10001A6008E0A84A1268126842F48032A64BB2
:100D20001B681A6000BF00BF7047A3490968096CBF
:100D300041F00041A04A126811649F490968096C9A
:100D400021F080419C4A126811649B490968096C32
:100D500041F00051984A1268116470479649096839
:100D6000096A0143944A12681162704792490968FE
:100D7000096A8143904A126811627047C0F3090002
:100D80008D490968096F924A11408B4A12681167B0
:100D900089490968096F41EA8021874A1268116709
:100DA0007047C0F3090084490968096F6FF30901AE
:100DB000814A1268116780490968096F01437E4AB8
:100DC00012681167704700BF7B490968096F21F0FD
:100DD0007F41794A1268116777490968096F41EACA
:100DE0000061754A12681167704740B97249096815
:100DF000096841F00801704A1268116007E06E4905
:100E00000968096821F008016B4A1268116070478F
:100E10004FF40041684A126811604FF6FF7000BF3E
:100E2000411E0800FCD164490968096821F40041A9
:100E3000614A126811607047704770B504460D46EC
:100E400016465D48C46000205B490861084645615C
:100E5000002088600876012048760846C661002098
:100E600081F8200081F821000120FFF7E5FFFFF75E
:100E7000CFFF5149087EFFF7B8FF4F49C968C8B294
:100E8000FFF7A1FF0020FFF78CFF0020FFF776FFA0
:100E90004FF6FF70FFF76AFF4FF4E040FFF75EFF89
:100EA0004549487EFFF741FF03210846FFF7E8FE6A
:100EB00070BD00B503464048C36000203E498860CD
:100EC00081F821000120FFF7B7FF3B49C968C8B28C
:100ED000FFF779FF0020FFF764FF0020FFF74EFFC8
:100EE0004FF6FF70FFF742FF4FF4E040FFF736FF89
:100EF00000BD2DE9F04307AC94E8F010C9B2D2B2BE
:100F0000DBB24FEA016848EA024848EA0328DFF802
:100F1000A890D9F80090C9F85480E4B2F6B2FFB2B4
:100F20004FEA046848EA062848EA0708DFF888908C
:100F3000D9F80090C9F85880C0B20CF0FF0C4CEA08
:100F40000048DFF87490D9F80090C9F85C80ADB221
:100F5000DFF86480D8F80080C8F86C50BDE8F083F2
:100F60002DE9F34F8BB04FF0000800200990089056
:100F7000814611480068006C20F460400E49096801
:100F800008640D480068006C20F4E0200A490968F4
:100F9000086409480068006CC0F3024BBBF1020F03
:100FA00024D90BF10301480001F09CFD0390DDE919
:100FB0000B01B0FBF1F00DE0AC3400000000557007
:100FC000020A0F050026262626260F134C000100D4
:100FD000FF03F0FF019001F085FD0290039901F0FD
:100FE000E7FD049001F062FD099014E00BF10401AB
:100FF000480001F077FD0390DDE90B01B0FBF1F053
:10100000019001F06FFD0290039901F0D1FD049071
:1010100001F04CFD09904FF000080EE008F10101CD
:10102000099890FBF1F008900898FF2803DC0898D5
:10103000A0F1020904E008F10108B8F1FF0FEDDDAD
:1010400000BFCDF8288009F10A00032190FBF1F0E0
:10105000401F07900798A9EB00073C463D463E46D7
:101060007808069079080591CA4605990798CDE950
:10107000030ACDE90117069833462A462146009017
:101080000A98FFF736FF0DB0BDE8F08F704700B546
:10109000FFF7BEFE0020FFF7F9FF00BD4FF6FF711E
:1010A000F94A1160F8490C39086820F0010040F055
:1010B000010008600021F54A11704FF4C001F44AA4
:1010C00011607047F0B502460B464FF48050002681
:1010D00014E0C0F303174FF4C06C0CEB87041159F4
:1010E0000707FD0EE940C9B2382903D117589F55AB
:1010F000761C02E0FF2900D101E0001DE9E700BFF6
:10110000001DF0BD2DE9FF4F87B08046894692460D
:10111000149D01200690002700030590C9F3C71B0A
:10112000C9F345000490CDF80CA00AA80290002055
:1011300001900120D5490870D3481038066826F080
:10114000030646F0030646F02006066000BFCE48C0
:101150000C38006800F010001028F8D1CD4B402268
:1011600005A9CD48FFF744FD05A8FFF75BFD4FF04B
:101170008051049841EA80410398007841EA802335
:10118000702205A9C448FFF733FD18F0010F34D0D1
:101190000223202205A9C048FFF72AFD002040EACB
:1011A0000510431C042205A9BB48FFF721FD4FF0A1
:1011B000804040EA4B7040F04800431C002205A9E3
:1011C000B548FFF715FDB54845EA0003442205A9D7
:1011D000B148FFF70DFD002406E00023382205A9E1
:1011E000AD48FFF705FD641CAC42F6D3EE23FF22A9
:1011F00005A9A948FFF7FCFC5EE08123202205A990
:10120000A548FFF7F5FC012D06D1A54B042205A941
:10121000A148FFF7EDFC08E0002040EA0540831CF0
:10122000042205A99C48FFF7E3FC4FF0804040EA08
:101230004B7040F08803002205A99748FFF7D8FCBF
:10124000984845EA0003442205A99348FFF7D0FCDB
:10125000012D0CD1002407E00298035D342205A97A
:101260008D48FFF7C5FC641CAC42F5D31EE000249A
:101270001AE0042C0BD24FF080404068E100084196
:10128000C3B2342205A98448FFF7B2FC0BE04FF04B
:1012900080408068211FC9000841C3B2342205A9DB
:1012A0007D48FFF7A5FC641CAC42E2D30023FF227B
:1012B00005A97948FFF79CFC0598B0F5835F09D92B
:1012C0004CF6CC404FF0804148644FF0FF300BB0FB
:1012D000BDE8F08F6C481038066826F0100646F01E
:1012E000100606600FE068480C38006800F001073F
:1012F000012F03D10020B907486410E04BF6BB3042
:101300004FF080414864C5EB45200621B0FBF1F168
:1013100001F2FF110198421C01928142E3D800BF03
:10132000012F2ED10020019000BF0198411C019196
:101330001028FAD318F0010F35D000241EE0042C39
:101340000DD25948406BE200FF21914008404FF018
:101350008041496C08434FF0804148640DE0524899
:10136000406C211FCA00FF21914008404FF080418E
:10137000896C08434FF080418864641CAC42DED322
:1013800011E041480C380768202F0CD3B7F5005FF7
:1013900009D840203C491039086040063E490860A1
:1013A000012042490860FFF779FE4FF48050059014
:1013B00006988CE710B502463D4B1B685B6823F42A
:1013C000FE033B4C24686360A2B1394B1B685B6829
:1013D00043F00203364C246863600846402800D975
:1013E0004020334B1B685B6843EA0043304C246861
:1013F000636007E02E4B1B685B6823F002032C4CF4
:101400002468636010BD2A480068006820F08000EE
:10141000274909680860704725480068406C40F01B
:101420000040234909684864704721480068006803
:1014300040F080001E490968086070471C48006839
:10144000006820F020001A4909680860704710B54C
:1014500040B1174B1B685B6C43F40033144C246899
:10146000636407E0124B1B685B6C23F40033104C81
:1014700024686364F1B10E4B1B685B6C43F48033EA
:101480000B4C246863641DE0100555705432000055
:1014900080E200E0FF6003F8000055700000038068
:1014A000020001000000028000105570000255701B
:1014B000AC340000FD4B1B685B6C23F48033FB4CA9
:1014C00024686364F94B1B685B6C6FF30F03F74C84
:1014D00024686364F54B1B685B6C1343F34C24680E
:1014E000636410BD2DE9B04F074688469346089DBA
:1014F0004FF00109ED480068006FC0F3C75A98F833
:1015000000003070002416E0042C09D24FF0804017
:101510008068E200FF2111410840611C705409E01D
:101520004FF080404068211FCA00FF211141084050
:10153000611C7054641CAC42E6D3DC484662681CF3
:10154000DA4988620020C86208460068806C20F48E
:101550000040096888647810FFF710FC6A1C0021BD
:101560000120FFF774FFFFF769FF691C0120FFF7F7
:1015700021FFFFF75AFF4FF4C070FFF7EFFB4FF466
:101580006060FFF7EBFB0D20FFF7E8FBFFF744FF80
:1015900040F6FF70FFF714FBFFF735FF0421002032
:1015A000FFF708FF4846BDE8B08FC04800680068F4
:1015B00020F04000BD49096808607047BB480068DA
:1015C000006840F04000B94909680860704710B5EC
:1015D0000246B64B1B685B6823F4FE63B34C246879
:1015E0006360A2B1B14B1B685B6843F00103AF4C71
:1015F000246863600846402800D94020AB4B1B6834
:101600005B6843EA0013A94C2468636007E0A74BBA
:101610001B685B6823F00103A44C2468636010BD61
:10162000A2480068006820F01000A049096808601E
:1016300070472DE9F04104460E4617469846069D30
:101640009A484662876200209849C8620846006846
:10165000806C20F40040096888646010FFF78EFBFE
:101660003A4600210120FFF7F2FEFFF7E7FE0121D5
:101670000846FFF79FFEFFF7D8FE4FF4C070FFF754
:101680006DFB4FF46060FFF769FB0D20FFF766FB11
:10169000FFF7C2FE40F6FF70FFF792FAFFF7B3FEC6
:1016A00004210020FFF786FE0020FFF7C5FB012084
:1016B000FFF7C2FB0920FFF7FCFB7C48C0F8248041
:1016C000856200207949C86208460068806C20F471
:1016D0000040096888646010FFF750FB2A4601212A
:1016E0000846FFF7B4FEFFF79BFF29460120FFF7EE
:1016F0006EFFFFF763FF4FF4E070FFF72FFB4FF42F
:101700006060FFF72BFB3220FFF728FBFFF784FE1A
:1017100040F6FF70FFF754FAFFF747FF042100205F
:10172000FFF748FE0120BDE8F08170B504460E4683
:1017300015465E48007E08BB2046FFF71FFB2A4681
:1017400000210120FFF783FEFFF778FE042101202E
:10175000FFF730FEFFF769FE4FF6FF70FFF706FB5D
:101760004FF4C070FFF7FAFA4FF46060FFF7F6FA33
:101770000D20FFF7F3FAFFF74FFE17E02A4600218E
:101780000846FFF764FEFFF759FE04210120FFF72A
:1017900011FEFFF74AFE4FF6FF70FFF7E7FA4FF42E
:1017A0000840FFF7DBFA0D20FFF7D8FA012070BDE3
:1017B00070B504460E4615463C48007E08BB2046E0
:1017C000FFF7DCFA2A4601210846FFF740FEFFF743
:1017D00027FF04210120FFF7FAFEFFF7EFFE4FF687
:1017E000FF70FFF7C3FA4FF4E070FFF7B7FA4FF45A
:1017F0006060FFF7B3FA3220FFF7B0FAFFF70CFE94
:1018000017E02A4601210020FFF721FEFFF708FF1D
:1018100004210120FFF7DBFEFFF7D0FE4FF6FF703B
:10182000FFF7A4FA48F64000FFF798FA3220FFF7D6
:1018300095FA012070BD70B506460F22102188066A
:1018400000F062FA451C4FF08040406C174909686F
:10185000896BC9B208434FF08041486401241EE0FF
:10186000042C0DD211480068806BC0B2E1008840A2
:101870004FF08041496C08434FF0804148640DE0CF
:101880000A480068806BC0B2211FC90088404FF031
:101890008041896C08434FF080418864641CAC42ED
:1018A000DED30220FFF762FA70BD0000AC34000006
:1018B0002DE9F04107460F221021880600F024FA96
:1018C000054603221B214FF0804000F01DFA06461A
:1018D000A6BB25B34FF080400068C0B2CC49096870
:1018E0004863012417E0052C0AD24FF0804040687D
:1018F000611EC9000841C0B2C5490968486309E0D2
:101900004FF080408068611FC9000841C0B2C049E3
:1019100009684863641CA81C8442E4D31FE04FF0AC
:1019200080404068C0B2BA49096848634FF08040BF
:101930008068C0B2B6490968486310E0FFE73DB16E
:101940004FF080400068C0B2B1490968486306E0C2
:101950004FF080404068C0B2AD490968486301203B
:10196000FFF704FABDE8F081A9490968096821F484
:101970004051A74A12681160A5490968096841EAFF
:101980000031A34A12681160704720F07F40A049DF
:1019900009688860704740B19D4A1268D26842F079
:1019A00001029B4B1B68DA6007E0994A1268D26813
:1019B00022F00102964B1B68DA60954A1268D268E1
:1019C00022F00202924B1B68DA60914A1268D268D8
:1019D00042EA41028E4B1B68DA6070478C4800680F
:1019E000406A80B270478A490968486270478848EF
:1019F0000068006B10F0807F01D00120704700204C
:101A0000FCE783480068006B10F4000F01D0012050
:101A100070470020FCE77E480068006BC0F306407A
:101A200070477B480068006B10F4807F01D0012074
:101A300070470020FCE776480068006B10F0800FCC
:101A400001D0012070470020FCE771480068006B5E
:101A500000F07F0070476E490968096D88B27047D1
:101A600000B5FFF7F8FF10F4003F01D0012000BDE2
:101A70000020FCE700B5FFF7EEFF10F4803F01D037
:101A8000012000BD0020FCE700B500220BE0FFF7BD
:101A9000A5FF10F4004F05D04FF40040FFF7A3FF5F
:101AA000012000BD521C40F6FF708242EFD300209F
:101AB000F7E7C0B256490968C8667047554A1268C8
:101AC00002F0030101F00102012A05D120F001001A
:101AD00040F001004F4A106000224F4B1A704FF443
:101AE000C0024E4B1A6070474A4A126802F0030166
:101AF00001F00102012A0FD101F00202022A04D1F1
:101B00004FF6FF72434B0C331A60424A106820F0C4
:101B1000030040F00300106000223F4B1A704FF4A6
:101B2000C0023E4B1A60704770B5FFF747F8054694
:101B3000FFF754FF044636488068204334498860E4
:101B400014F0010F05D02846FFF7B2FE0120FFF781
:101B50004AFF14F0020F05D02846FFF76CFE022062
:101B6000FFF741FF14F0400F05D02846FFF763FE52
:101B70004020FFF738FF14F0040F02D00420FFF7D5
:101B800032FF14F0080F02D00820FFF72CFF14F0EA
:101B9000200F02D02020FFF726FF14F0100F02D0F4
:101BA0001020FFF720FF14F0800F08D0FFF71FFF71
:101BB00010B92846FFF73FFE8020FFF714FF14F40A
:101BC000807F03D04FF48070FFF70DFF14F4007F87
:101BD00003D04FF40070FFF706FF14F4806F03D0BA
:101BE0004FF48060FFF7FFFE14F4006F03D04FF452
:101BF0000060FFF7F8FE14F4004F03D04FF40040EC
:101C0000FFF7F1FE4FF400100449086070BD0000BA
:101C1000AC340000040555705432000080E200E04E
:101C20000246384850F83200403050F8210000F0A9
:101C30003F00704730B50246002400234C1E314857
:101C400050F8320084602F4850F83200406840F06D
:101C500001002C4D55F8325068602A4850F8320087
:101C6000406810F4403F01D0012030BD04E05B1C0F
:101C7000052B01D90020F8E7224850F832004068CF
:101C800010F4403FF3D00120EFE71E4951F8301027
:101C9000096841F001011B4A52F830201160704779
:101CA000184951F83010096821F00101154A52F81D
:101CB00030201160704710B50346124C54F8334081
:101CC000206820F0C00040EA811020F0380040EA8F
:101CD000C2000C4C54F83340206010BD10B50446CF
:101CE0002046FFF7DDFF074800EBC40042790548B6
:101CF00000EBC40001792046FFF7DDFF2046FFF727
:101D0000C4FF10BD5832000030B503460020002447
:101D10001C6824FA01F505EA020030BD70B5002404
:101D2000046802FA01F524EA050502EA03068E407A
:101D300045EA0604046070BD00B50F220021FE488C
:101D4000FFF7E2FF0F280ED101220021FB48FFF729
:101D5000DBFF012807D1FA48006840F01000F8497D
:101D60000860012000BDF648006820F01000F4492A
:101D700008600120F6E737B582B004461546012019
:101D80002B4603AAA1B200900020FFF7BBF905B0D3
:101D900030BDFFB581B0044615461F460A9E2B464E
:101DA00002AAA1B200200096FFF7ACF905B0F0BD81
:101DB00013B582B004460120002303AAA1B200900B
:101DC000FFF7A0F91FBD37B582B0044615460023C2
:101DD00003AAA1B201200095FFF794F905B030BD28
:101DE00010B5FEF7A3FAD7480068012811D10220E8
:101DF000D4490860D4480068D4490978884205D39A
:101E0000D1480068D2490978884202D90020CD49DA
:101E10000860CC480068022862D1CE48006828B922
:101E20000320FFF75BFF0120CA490860012103205E
:101E3000FFF700FF002853D000210320FFF7F0FE3A
:101E4000C5490860C0480068C44909680844C249D7
:101E50000968884224D2C2480068C2490968401A09
:101E6000C149096888421BD2C0480068401CBF496C
:101E70000860084600680F2812D9BD480068072886
:101E80000ED2B9480068401EB7490860084600688D
:101E9000C2B21B21CC20FFF76EFF0020B3490860BF
:101EA000AD480068A8490968884219D20020AF49A6
:101EB0000860AD480068AA490968884210D2AC4859
:101EC0000068401CAA490860A7480068401CA64951
:101ED000086008460068C2B21B21CC20FFF74BFF08
:101EE000FEF71CFA10BD10B5FEF720FAA1480068F5
:101EF000002876D0FFF720FF91480068102870D1A5
:101F00009C480068012811D102209A4908609A482B
:101F100000688E490978884205D3974800688C4943
:101F20000978884202D900209249086091480068E7
:101F30000228E4D19148006828B90220FFF7CEFEBC
:101F400001208E49086001210220FFF773FE00285E
:101F5000CFD000210220FFF763FE89490860864840
:101F600000687E49096808448549096888426AD240
:101F700084480068032835D283480068834909688B
:101F8000401A83490968401A8249096888425AD22E
:101F900080480068602856D07E480068502852D09B
:101FA0007C48006840284ED07B480068401C7A4935
:101FB0000860084600680F2845D978480068072857
:101FC00041D274480068401E7249086008460068A3
:101FD000C2B22621CC20FFF7CEFE00206E49086059
:101FE00031E050E06848006868490968401A69496A
:101FF0000968884227D267480068602823D065486E
:10200000006850281FD06348006840281BD06248F1
:102010000068401C60490860084600680F2812D913
:102020005E48006807280ED25A480068401E594989
:10203000086008460068C2B22621CC20FFF79BFE4C
:102040000020554908604E4800684B49096888429D
:1020500019D20020504908604E4800684A49096872
:10206000884210D24D480068401C4C4908604948DD
:102070000068401C4749086008460068C2B2262133
:10208000CC20FFF778FEFEF749F910BD10B5FEF73A
:102090004DF943480068012811D1022040490860E9
:1020A0004048006829490978884205D33D480068BE
:1020B00027490978884202D9002039490860384800
:1020C000006802287CD13848006828B90120FFF751
:1020D00005FE01203449086001210846FFF7AAFDEA
:1020E00000286DD000210120FFF79AFD2F490860DC
:1020F0002C4800681949096808442C490968884235
:102100007AD22B4800682B490968401A2A49096885
:10211000884271D22848006870286DD0264800682F
:10212000602869D024480068502865D0224800689B
:10213000402861D0214844E064405C7004615C70D8
:1021400034330000F4320000E43200007832000042
:1021500079320000F8320000E83200003C33000021
:10216000F032000094320000EC3200000433000032
:102170000033000018330000083300001C33000057
:102180000C330000203300001433000090320000B4
:1021900098320000103300002C3300002833000078
:1021A000D0320000C0320000D4320000C43200003F
:1021B000CC3200008C320000C8320000E032000057
:1021C0003AE00068401CFE490860084600680F2895
:1021D00012D9FC48006807280ED2FB480068401E50
:1021E000F949086008460068C2B21F21CC20FFF7F9
:1021F000C2FD0020F2490860F4480068F44909680B
:10220000884219D20020EE490860EF480068F14981
:102210000968884210D2EB480068401CE949086010
:10222000E9480068401CE849086008460068C2B2F6
:102230001F21CC20FFF79FFDFEF770F810BD10B5F1
:10224000FEF774F8E4480068012811D10220E24941
:102250000860E2480068E2490978884205D3DF480F
:102260000068E0490978884202D90020DA4908600C
:10227000D9480068022872D1DB48006828B90020DC
:10228000FFF72CFD0120D849086001210020FFF74D
:10229000D1FC002863D000210846FFF7C1FCD349D8
:1022A0000860CE480068D24909680844CF490968E7
:1022B000884234D2CF480068CF490968401ACF49D4
:1022C000096888422BD2CD480068702827D0CB48B7
:1022D0000068602823D0C948006850281FD0C7482C
:1022E000006840281BD0C6480068401CC4490860EC
:1022F000084600680F2812D9C248006807280ED285
:10230000BE480068401EBD49086008460068C2B269
:102310001D21CC20FFF72FFD0020B9490860B348EC
:102320000068AE490968884219D20020B4490860A3
:10233000B2480068AF490968884210D2B1480068C5
:10234000401CB0490860AD480068401CAB490860BB
:1023500008460068C2B21D21CC20FFF70CFDFDF736
:10236000DDFF10BD43F660000068082803DD022091
:10237000A54908600BE043F660000068072803DD0C
:102380000120A149086002E000209F4908607047D1
:1023900010B5002406E043F2307050F824009B4949
:1023A0000855641C182CF6D3002406E043F29870FC
:1023B00050F8240096490855641C132CF6D30024C9
:1023C00006E043F2EC7050F8240092490855641C72
:1023D0000A2CF6D3002406E043F61C0050F8240033
:1023E0008D490855641C0D2CF6D3002434E04FF4BD
:1023F0005C5101EB8400FF220021FFF785FC0021E6
:1024000001EB8401854A50544FF45C5101EB840088
:10241000FF220821FFF778FC012101EB84017F4AAC
:1024200050544FF45C5101EB8400FF221021FFF760
:102430006BFC022101EB8401784A50544FF45C514B
:1024400001EB8400FF221821FFF75EFC032101EB62
:102450008401724A5054641C082CC8D310BD2DE965
:10246000F047DAB04FF000090A2707F1080808F131
:10247000060A78226A493CA800F070FA602268498E
:10248000783124A800F06AFA48226549D83112A8A8
:1024900000F064FA48226349684600F05FFA0026BB
:1024A0000025002456E05848006800EB80003CA955
:1024B00001EBC00050F82500A0422FD15348005D29
:1024C00005EB0901554A515C461A4F48006800EB7C
:1024D00080003CA901EBC00050F825004A4909687A
:1024E00001EB81013CAA02EBC101496A884214D088
:1024F0004548006800EB80003CA901EBC00050F8A3
:1025000025104148006800EB800002EBC002681C07
:1025100052F82000814200D16D1C6D1C3B48005DCB
:10252000801B00280ADD3948005D801B3F2805DA42
:102530003648005D801B3549085502E000203349CC
:1025400008550A2E02DC16F10A0F02DA00202F4984
:102550000855641C182CA6D300260025002481E011
:1025600024A82949096800EB411050F82500A04231
:102570005CD12748005DE919284A515C461A24A815
:102580002149096800EB411050F8251024A81E4A83
:10259000126800EB4210C069814246D024A81A4953
:1025A000096800EB411050F8251024A8164A12685B
:1025B00000EB4212681C52F82000814235D133E012
:1025C000E0320000DC320000C8320000C4320000FB
:1025D000C0320000CC320000AC3200009C3200005F
:1025E0007832000079320000B0320000A0320000E2
:1025F0003C330000A832000088320000A432000002
:10260000BC320000B8320000483300000432000041
:102610001C3200003C3200002F3200008C340000DD
:102620009C2C0000BC2D00006D1C6D1CAC48005D96
:10263000801B00280ADDAA48005D801B3F2805DAC0
:10264000A748005D801BA649085502E00020A44968
:1026500008550A2E02DC16F10A0F02DA0020A04902
:102660000855641C132CFFF47BAF002600250024C2
:1026700056E09C48006800EB4000694601EBC00052
:1026800050F82500A0422FD19748005D05EB0801C6
:10269000964A515C461A9348006800EB4000694630
:1026A00001EBC00050F825008E49096801EB41019B
:1026B0006A4602EBC1014969884214D08948006822
:1026C00000EB4000694601EBC00050F8251085483A
:1026D000006800EB400002EBC002681C52F82000CA
:1026E000814200D16D1C6D1C7F48005D801B00285D
:1026F0000ADD7D48005D801B3F2805DA7A48005DD1
:10270000801B7949085502E00020774908550A2EB8
:1027100002DC16F10A0F02DA002073490855641C26
:102720000A2CA6D300260025002456E06D48006838
:1027300000EB400012A901EBC00050F82500A042B8
:102740002FD16B48005D05EB0A01684A515C461ABF
:102750006448006800EB400012A901EBC00050F88B
:1027600025006049096801EB410112AA02EBC10191
:102770004969884214D05B48006800EB400012A908
:1027800001EBC00050F825105648006800EB4000EF
:1027900002EBC002681C52F82000814200D16D1C7F
:1027A0006D1C5348005D801B00280ADD5048005D09
:1027B000801B3F2805DA4E48005D801B4C490855B8
:1027C00002E000204A4908550A2E02DC16F10A0FE1
:1027D00002DA002046490855641C0D2CA6D35AB0D5
:1027E000BDE8F08700204349086043490860434939
:1027F0000860434908604349086001204249086075
:102800000020424908604249086042490860424944
:1028100008604249086042490860424908604249EC
:10282000086042490860012041490860022041498E
:10283000086000204FF08041C8643F483F4908606D
:102840004FF0F0303E490860FDF768FDFFF7A0FD4E
:10285000FFF788FDFFF703FE01203A4908600220D8
:10286000334908603BE037480068012832D1FFF760
:10287000E6FCFFF70BFCFFF736FBFFF7B1FA324837
:10288000006800063149096840EA0140304909689A
:1028900040EA01202F49096808434FF0804108644D
:1028A00023480068042808D1082021490860002036
:1028B0002449086001208107C86412480068022882
:1028C0000DD100200E4908600E49086001208107E3
:1028D000C86404E02048006808B9FDF71FFDC2E79E
:1028E0001C320000483300003C3200008C340000F1
:1028F0002F320000AC320000D0320000F432000071
:1029000018330000303300008432000088320000A9
:102910008C320000943200009032000098320000A7
:10292000B0320000D4320000F83200001C33000046
:10293000383300003C33000000005570AC34000018
:1029400000E400E040330000A4320000C832000080
:1029500010330000EC3200004433000010B5203A80
:10296000C0F00B80B1E81850203AA0E81850B1E848
:102970001850A0E81850BFF4F5AF5FEA027C24BFFE
:10298000B1E81850A0E8185044BF18C918C0BDE8F5
:1029900010405FEA827C24BF51F8043B40F8043BBE
:1029A00008BF7047D20728BF31F8023B48BF11F873
:1029B000012B28BF20F8023B48BF00F8012B7047CD
:1029C0007047704770470446AFF300802046FDF71C
:1029D000CFFB704700487047E034000001491820E1
:1029E000ABBEFEE72600020090EA010F48BF81F06F
:1029F000004100F1E480421A3CBF801A89184FEA76
:102A0000D0524FF07F4C1CEA410FA2EBD15318BFBC
:102A10009CEA026F00F03B804FF0004C4CEA002033
:102A20004CEA012121FA03FC10EB0C0C1ED202F13E
:102A3000FF325FEA1C2040EBC25038BF70471CF0E9
:102A40007F0F4FEA400C18BFBCF17F4F38BF704773
:102A5000C3F12003994008BF20F00100BCF17F4F73
:102A600038BF7047A0F1C04000F09CB84FEA3C006E
:102A7000000A40EBC25028BF1CF0FF0F4FEA400C89
:102A8000E6D018BFBCF17F4F38BF7047EAE79CEA39
:102A9000026F05D010EA5C0F08BF00F000407047DD
:102AA00010B500F032F800BF64FBBE3E41000B0ED3
:102AB000D3F19E0208D950F400034FEA032323FA0E
:102AC00002F048BF4042704710B500F01EF800BF4A
:102AD00049922480002070476FF0004282EA200073
:102AE00070470000B0FA80F310FA03F2C3F19D03BF
:102AF0000AD0D90501EB1220530638BF704700F108
:102B0000010008BF20F0010070470EF1020E2EF008
:102B1000030E5EF8044B244204D44FEA4102B2F1A2
:102B20007F4F11D84FEA4003B3F17F4F0CD80ED13D
:102B30004FEAD07CB2F17F4F0CEB4C0C0CF1020C45
:102B400008BF4CEBD17C04E04FF0080C01E04FEAE9
:102B5000D17C0CEB4C0324FA03F404F00704B4F129
:102B6000040C06D20EEB840CBDE810404CF0010CB6
:102B70006047DFE80CF0070802024FF00040A0F5C4
:102B8000800010BD0846420018BFD2F1807288BF95
:102B900000F0004010BD10B5FFF71CFF4FF0000122
:102BA000016010BDFF2141EAD050C0057047000010
:102BB00090EA010F48BF81F000413FF51CAF421A77
:102BC00004D882F00042A0EB020011444FEAD05238
:102BD0004FF07F4C1CEA410FA2EBD15318BF9CEA87
:102BE000026F4AD04FF0004C4CEA00204CEA012121
:102BF00021FA03FCB0EB0C0C0FD412F0FE0F36D010
:102C00005FEA4C001DD5001240EBC25038BF704740
:102C10001CF03F0F18BF70470BE0A2F101025FEA02
:102C20001C2040EBC25038BF70471CF07F0F18BF0C
:102C30007047C3F12003994014BF401E20F00100EB
:102C4000704780084FEA122308BF7047B0FA80FC33
:102C5000A2EB0C02CCF1280C60FA0CF093EA122FD4
:102C600004BF00EBC25070474FEAC3707047130AAD
:102C70005FEADC1008BF7047F6E79CEA026F04D0F9
:102C800010EA5C0F08BF0020704710B5FFF73DFF4A
:102C900040DFF63E81F00040704700000B0000006E
:102CA0000C0000000D0000000F00000010000000EC
:102CB00013000000140000001500000015000000C3
:102CC000150000000B0000000C0000000D000000CB
:102CD0000F000000100000001300000014000000AE
:102CE0001500000015000000150000000B0000009A
:102CF0000C0000000D0000000F000000100000009C
:102D00001300000014000000150000001500000072
:102D1000150000000600000006000000070000008B
:102D20000A0000000B0000000D0000000F00000072
:102D30001000000006000000060000000700000070
:102D40000A0000000B0000000D0000000F00000052
:102D50001000000006000000060000000700000050
:102D60000A0000000B0000000D0000000F00000032
:102D7000100000000200000003000000040000003A
:102D800008000000090000000B0000000200000025
:102D9000030000000400000008000000090000001B
:102DA0000B0000000200000003000000040000000F
:102DB00008000000090000000B00000005000000F2
:102DC00006000000070000000900000009000000E4
:102DD00009000000050000000600000007000000D8
:102DE00009000000090000000900000005000000C3
:102DF00006000000070000000900000009000000B4
:102E000009000000242E0000003200004C010000E8
:102E1000D8000000782E00004C330000F0010000C4
:102E2000340100008140152C2B1F1F1F2020212260
:102E30001617191C1E2226191F2C2240101E202096
:102E400022232525131416181A1E292000141324D2
:102E5000252628262E21323F121213111313141483
:102E6000223D1404817142075A91084BA874082B23
:082E7000B8700803D2043C0015
:00000001FF
