:10000000004000009D000000B9010000BD0100009B
:10001000D7010000F10100000B0200000000000009
:1000200000000000000000000000000029020000A5
:1000300025020000000000002D020000000000006A
:100040004903000000000000000000000000000064
:1000500000000000000000000000000000000000A0
:100060000000000000000000000000000000000090
:100070000000000000000000000000000000000080
:100080000000000000000000000000000000000070
:1000900000000000000000000000000000F002F876
:1000A00000F05CF80AA090E8000C82448344AAF1B6
:1000B0000107DA4501D100F051F8AFF2090EBAE8B4
:1000C0000F0013F0010F18BFFB1A43F0010318478C
:1000D000202E0000402E00000A444FF0000C10F8C3
:1000E000013B13F0070408BF10F8014B1D1108BFB6
:1000F00010F8015B641E05D010F8016B641E01F856
:10010000016BF9D113F0080F1EBF10F8014BAD1CA5
:100110000C1B09D16D1E58BF01F801CBFAD505E0C3
:1001200014F8016B01F8016B6D1EF9D59142D6D31D
:10013000704700000023002400250026103A28BF45
:1001400078C1FBD8520728BF30C148BF0B60704749
:100150001FB502F096FD1FBD10B510BDDFF80CD025
:10016000FFF7F6FF00F01CF802F0A3FC00400000CF
:1001700003B4FFF7F1FF03BC02F0A6FC30BF7047E9
:10018000BFF36F8F7047BFF34F8F7047BFF35F8F21
:100190007047EFF31480704780F3148870470000B5
:1001A00010B5002003490861886002F08FFB002031
:1001B00010BD00000000044000BFFEE710B542F291
:1001C00022201C4908604FF001001B49086188602B
:1001D000FFF7D4FF10BD10B542F222201549086088
:1001E0004FF00100144908618860FFF7C7FF10BD98
:1001F00010B542F222200F4908604FF001000E496D
:1002000008618860FFF7BAFF10BD10B542F22220E6
:10021000084908604FF00100074908618860FFF74E
:10022000ADFF10BD00BFFEE700BFFEE700BFFEE769
:1002300000BFFEE7840000400000044010B511211B
:100240003148C0F89C1D3149C0F8A01D42F212018E
:10025000C0F89C1D2E49C0F8A01D43F61371C0F8CC
:100260009C1D2C49C0F8A01D43F61401C0F89C1D2C
:100270002849C0F8A01D2849C0F89C1D2749C0F88E
:10028000A01DD0F8940D40F001011F48C0F8941D46
:10029000D0F8140D40F400711B48C0F8141DFFF78E
:1002A00072FFFFF76DFF10BD00F01F0201219140AA
:1002B00043091B4A42F82310704700F01F01012236
:1002C0008A4043091649803141F8232070470020B5
:1002D0000AE0134951F82010124A42F82010002277
:1002E0000F4941F82020401C0028F2DD7047002013
:1002F00006E00C4951F82020094941F82020401C13
:100300000028F6DD7047000000E000E01900030758
:100310001900030313000313150000402700001306
:1003200000E100E00032000010B50020FFF7BCFF44
:100330000120FE49086010BD10B50020FFF7BDFF89
:100340000020FA49086010BD2DE9F04F8DB04FF044
:10035000000A00200C900B900A900990089000254C
:10036000079081468346069000260027059004905A
:100370000390804602900190092420E0601EEC4921
:1003800001EB4010006801EB44110860601EE84971
:1003900001EB4010406801EB44114860601EE449E5
:1003A00001EB4010806801EB44118860601EE04959
:1003B00001EB4010C06801EB4411C860641E002CC2
:1003C000DCD1621E00214FF0804001F011FDD849C0
:1003D0000860621E0021D74801F00AFDD449486038
:1003E000621E0021D348001D01F002FDD049886043
:1003F000621E0021CF48083001F0FAFCCC49C860E9
:100400004FF080400068CC4908604FF000004FF08A
:100410008041C1F88400C948006800F00F084FF01F
:1004200001024FF01F014FF0804001F0E1FC02900B
:1004300001221E21900701F0DBFC019001221D2109
:10044000880701F0D5FC0C9003221B214FF080405F
:1004500001F0CEFC824601221A21480701F0C8FCB7
:100460000B9001221721900701F0C2FC0990012294
:100470001621900701F0BCFC08900F22102188067D
:1004800001F0B6FC81464FF6FF720021A94801F049
:10049000AFFC06464FF6FF720021A648001D01F092
:1004A000A7FC07464FF6FF720021A248083001F072
:1004B0009FFC039041F201010398884212D102206F
:1004C0009F4908600A209F4908604FF000004FF0E4
:1004D000804108649A480068002802D101209A49A6
:1004E0000860B1E342F201010398884212D1012071
:1004F000934908600020954908600A2091490860E6
:100500004FF000004FF0804108644FF00100C1F847
:10051000C00099E30198012825D100208C4908608A
:100520008C4908608C4908608C49086004208C491B
:1005300008608C480068012808D10A2081490860B9
:100540004FF000004FF0804108647DE30A207D49B0
:1005500008604FF000004FF0804108644FF0010048
:10056000C1F8C00070E30298012816D17C480068E9
:10057000042802D302207A490860012079490860E2
:100580000A20704908604FF000004FF08041086475
:100590004FF00100C1F8C00056E30998012810D1BE
:1005A0000A20684908604FF000004FF08041C1F810
:1005B0008800086401F0F2FA012063490860FFF73F
:1005C000DDFDBAF1020F7DD107220E215948083016
:1005D00001F00EFC05460C98012863D162480068C2
:1005E000FF2803D10A205749086095E15C4800685C
:1005F0000228FAD1012D11D15C485D490968405C9F
:100600005C4908605A480068112803D1002050490D
:10061000086081E101204E4908607DE1022D11D181
:10062000554856490968405C554908605348006878
:10063000102803D10020474908606DE10120454999
:10064000086069E1042D11D14E4800680128CCD919
:100650004C4800680728C8D24B484A490968405CA2
:100660004A49086001203C49086055E1052DBCD18C
:10067000012033490860002034490860444908607B
:10068000444845490968405C44490860424800685C
:10069000022803D90020314908603DE101202F499B
:1006A000086039E1002030490860FF22002121481C
:1006B00001F09EFB2C49086008460068FF2871D1B4
:1006C000012D00E030E11FD12148006800281AD038
:1006D000B8F1020F0DD0A81E1A4908604FF00000B3
:1006E0004FF0804108644FF00100C1F8C000FFF7EF
:1006F00045FD2B480068C2B21D21CC2001F0AFFBA4
:10070000002013490860CCE0022D5DD1114800683B
:10071000002858D0B8F1020F4BD0E81E09490860F4
:100720004FF000004FF0804108643CE0443300008B
:100730004C330000040000408800004000005A7064
:100740003033000084000040C00000401C33000033
:10075000AC320000D0320000F43200001833000048
:1007600038330000403300007C32000004320000C7
:10077000B43200009C3200001C320000D83200006D
:10078000C0320000FC3200002F320000E4320000D2
:10079000243300003C320000203300000833000006
:1007A000A832000053E04FF00100C1F8C000FFF78D
:1007B000E5FCFE480068C2B21F21CC2001F04FFBCF
:1007C0000020FB4908606CE0042D1FD1F948006847
:1007D000002866D0B8F1020F0DD0681FF6490860F6
:1007E0004FF000004FF0804108644FF00100C1F865
:1007F000C000FFF7C3FCF1480068C2B21B21CC2047
:1008000001F02DFB0020EB4908604AE0052D48D19E
:10081000EB48006820B3B8F1020F0DD0A81FE649DD
:1008200008604FF000004FF0804108644FF0010075
:10083000C1F8C000FFF7A2FCE2480068C2B226215E
:10084000CC2001F00CFB0020DD49086029E0012DDF
:1008500007D1DD480068DD4908600020DC490860F8
:100860001FE0022D07D1D8480068DA49086000204F
:10087000CF49086015E0042D07D1D3480068D64958
:1008800008600020CB4908600BE0052D09D1CE4857
:100890000068D24908600220D14908600020C84998
:1008A00008600898012837D10F221021C2488038EB
:1008B00001F09EFA18B10520CA49086002E0012043
:1008C000C84908600F220021BB48803801F090FA27
:1008D000C54908600F220421B748803801F088FA22
:1008E000C24908600F220821B348803801F080FA1D
:1008F000BF4908600846006818B90020BD49086073
:1009000002E00120BB4908600F220C21AA48803870
:1009100001F06EFAB8490860A7480068002802D1C3
:100920000A20A5490860F7E0B8F1020F0ED04FF099
:10093000FF30A14908604FF000004FF0804108648B
:100940004FF00100C1F8C000FFF718FC0B98012818
:1009500002D10C200A9001E0CC200A90BAF1000FDD
:1009600030D0B9F1000F25D0FF2200214FF0804098
:1009700001F03EFA83464FF0FF3200218E48803866
:1009800001F036FA05904FF0FF3200218A487C389A
:1009900001F02EFA04900020874908604FF0804152
:1009A000C1F8880009F101020BF0FF010A9801F07B
:1009B0007EFA9EE0002080490860F1B20A9801F0BA
:1009C0006BFA96E0B9F1000F22D0FF2200214FF020
:1009D000804001F00DFA83464FF0FF320021764847
:1009E000803801F005FA05904FF0FF32002172487F
:1009F0007C3801F0FDF9049009F101000090DDE977
:100A00000430C2B20BF0FF010A9801F036FA6AE036
:100A100001221921880701F0EBF9079007980128B6
:100A20001AD1F1B20A9801F037FAFF2200214FF0F3
:100A3000804001F0DDF906905F480068069920EAE1
:100A400001004FF08041C1F88400069807EA0007D2
:100A50005948006840EA0707FAB2F1B20A9801F073
:100A6000FEF9202E01D1654807603B2E01D1644874
:100A700007601D2E0AD1634807600068624908605C
:100A8000002062490860624908602CE01F2E0AD1EC
:100A90006048076000684549086000205E490860BA
:100AA0005E4908601FE01B2E0AD15D4807600068A0
:100AB0004249086000205B4908605B49086012E019
:100AC000262E10D15948076000683E490860434807
:100AD00000685749086001204149086000205549D5
:100AE0000860554908603448006810B90A20324946
:100AF00008605248006801280ED14FF0EE302E49B0
:100B000008604FF000004FF0804108644FF0010092
:100B1000C1F8C000FFF732FB092420E0601E4849FD
:100B200001EB4010006901EB44110861601E44496B
:100B300001EB4010406901EB44114861601E4049DF
:100B400001EB4010806901EB44118861601E3C4953
:100B500001EB4010C06901EB4411C861641E002C18
:100B6000DCD1621E00211448001F01F041F9344914
:100B70000861621E0021104801F03AF930494861CD
:100B8000621E00210C48001D01F032F92C498861D9
:100B9000621E00210848083001F02AF92849C8617E
:100BA00000204FF08041086401204BE0CC3200006F
:100BB000D0320000F432000084000040F032000027
:100BC00018330000143300007C320000B4320000FF
:100BD000AC320000D8320000FC3200004832000085
:100BE0002433000084320000883200008C32000080
:100BF0009032000098320000943200004C32000025
:100C000050320000A4320000A8320000B8320000C8
:100C1000BC320000C8320000DC320000E0320000CC
:100C2000EC320000003300000433000010330000F9
:100C300020330000283300002C33000080320000F5
:100C40004C330000024908600DB0BDE8F08F000091
:100C5000C0000040FE48704701460A4639B900BF4F
:100C6000FB48806810F0800FFAD00120704706E042
:100C7000F748806810F0800F01D00120F6E7501E81
:100C80000200F5D100BFF1E7F0B514460F68C3517B
:100C90000F68C7F303174FF4C06C0CEB870542597C
:100CA0000F683F07FE0EFF27B740BA4304FA06F766
:100CB0003A4342510F683F1D0F60F0BD10B5044626
:100CC0004FF00A3354222146E248FFF7DDFFE24BA2
:100CD00058222146DF48FFF7D7FF0C235C2221462C
:100CE000DC48FFF7D1FF05236C222146D948FFF7E6
:100CF000CBFFDA4B60222146D648FFF7C5FFD84B21
:100D000064222146D348FFF7BFFFD64B6822214615
:100D1000D048FFF7B9FF10BDCD4A1268126822F41F
:100D20006012CB4B1B681A6020B101280BD002283F
:100D30001BD111E0C64A1268126842F40012C44B7B
:100D40001B681A6011E0C24A1268126842F48012ED
:100D5000BF4B1B681A6008E0BD4A1268126842F473
:100D60000022BB4B1B681A6000BF00BFB84A126864
:100D7000126822F4E022B64B1B681A6021B10129E7
:100D80000BD002291BD111E0B14A1268126842F45B
:100D90008022AF4B1B681A6011E0AD4A12681268DE
:100DA00042F40032AA4B1B681A6008E0A84A126895
:100DB000126842F48032A64B1B681A6000BF00BF65
:100DC0007047A3490968096C41F00041A04A1268C4
:100DD00011649F490968096C21F080419C4A12689E
:100DE00011649B490968096C41F00051984A1268E6
:100DF0001164704796490968096A0143944A126868
:100E00001162704792490968096A8143904A1268E1
:100E100011627047C0F309008D490968096F924A51
:100E200011408B4A1268116789490968096F41EAC4
:100E30008021874A126811677047C0F3090084490E
:100E40000968096F6FF30901814A126811678049C7
:100E50000968096F01437E4A12681167704700BF35
:100E60007B490968096F21F07F41794A126811674F
:100E700077490968096F41EA0061754A126811678C
:100E8000704740B972490968096841F00801704A21
:100E90001268116007E06E490968096821F00801CD
:100EA0006B4A1268116070474FF40041684A12683B
:100EB00011604FF6FF7000BF411E0800FCD164496D
:100EC0000968096821F40041614A1268116070479D
:100ED000704770B504460D4616465D48C460002054
:100EE0005B4908610846456100208860087601205A
:100EF00048760846C661002081F8200081F821006C
:100F00000120FFF7E5FFFFF7CFFF5149087EFFF70C
:100F1000B8FF4F49C968C8B2FFF7A1FF0020FFF72B
:100F20008CFF0020FFF776FF4FF6FF70FFF76AFF98
:100F30004FF4E040FFF75EFF4549487EFFF741FF71
:100F400003210846FFF7E8FE70BD00B503464048A0
:100F5000C36000203E49886081F821000120FFF72E
:100F6000B7FF3B49C968C8B2FFF779FF0020FFF718
:100F700064FF0020FFF74EFF4FF6FF70FFF742FFC0
:100F80004FF4E040FFF736FF00BD2DE9F04307AC1A
:100F900094E8F010C9B2D2B2DBB24FEA016848EA75
:100FA000024848EA0328DFF8A890D9F80090C9F869
:100FB0005480E4B2F6B2FFB24FEA046848EA062869
:100FC00048EA0708DFF88890D9F80090C9F85880F7
:100FD000C0B20CF0FF0C4CEA0048DFF87490D9F86E
:100FE0000090C9F85C80ADB2DFF86480D8F800806A
:100FF000C8F86C50BDE8F0832DE9F34F8BB04FF08B
:101000000008002009900890814611480068006C93
:1010100020F460400E49096808640D480068006CBF
:1010200020F4E0200A490968086409480068006C57
:10103000C0F3024BBBF1020F24D90BF103014800AE
:1010400001F0C6FD0390DDE90B01B0FBF1F00DE00E
:10105000AC34000000005570020A0F050026262659
:1010600026260F134C000100FF03F0FF019001F052
:10107000AFFD0290039901F011FE049001F08CFD88
:10108000099014E00BF10401480001F0A1FD039068
:10109000DDE90B01B0FBF1F0019001F099FD029048
:1010A000039901F0FBFD049001F076FD09904FF0EB
:1010B00000080EE008F10101099890FBF1F008909A
:1010C0000898FF2803DC0898A0F1020904E008F161
:1010D0000108B8F1FF0FEDDD00BFCDF8288009F160
:1010E0000A00032190FBF1F0401F07900798A9EB3D
:1010F00000073C463D463E46780806907908059133
:10110000CA4605990798CDE9030ACDE90117069863
:1011100033462A46214600900A98FFF736FF0DB065
:10112000BDE8F08F704700B5FFF7BEFE0020FFF767
:10113000F9FF00BD4FF6FF71F64A1160F5490C3911
:10114000086820F0010040F0010008600021F24A28
:1011500011704FF4C001F14A11607047F0B50246BA
:101160000B464FF48050002614E0C0F303174FF4F1
:10117000C06C0CEB870411590707FD0EE940C9B29A
:10118000382903D117589F55761C02E0FF2900D15A
:1011900001E0001DE9E700BF001DF0BD2DE9FF4F94
:1011A00087B0804689469246149D0120069000270C
:1011B00000030590C9F3C71BC9F345000490CDF89F
:1011C0000CA00AA80290002001900120D2490870CA
:1011D000D0481038066826F0030646F0030646F0AD
:1011E000200606604AF6A020CD49086000BFCD4821
:1011F000006800F010001028F9D1CB4B402205A95F
:10120000CA48FFF741FD05A8FFF758FD4FF0805190
:10121000049841EA80410398007841EA80237022D3
:1012200005A9C248FFF730FD18F0010F34D00223A2
:10123000202205A9BD48FFF727FD002040EA051040
:10124000431C042205A9B948FFF71EFD4FF080405A
:1012500040EA4B7040F04800431C002205A9B34807
:10126000FFF712FDB24845EA0003442205A9AF4842
:10127000FFF70AFD002406E00023382205A9AB4849
:10128000FFF702FD641CAC42F6D3EE23FF2205A952
:10129000A648FFF7F9FC5EE08123202205A9A348B8
:1012A000FFF7F2FC012D06D1A24B042205A99F48AD
:1012B000FFF7EAFC08E0002040EA0540831C042216
:1012C00005A99A48FFF7E0FC4FF0804040EA4B70D8
:1012D00040F08803002205A99448FFF7D5FC964802
:1012E00045EA0003442205A99048FFF7CDFC012DF3
:1012F0000CD1002407E00298035D342205A98B4835
:10130000FFF7C2FC641CAC42F5D31EE000241AE0D7
:10131000042C0BD24FF080404068E1000841C3B27A
:10132000342205A98148FFF7AFFC0BE04FF0804065
:101330008068211FC9000841C3B2342205A97B4837
:10134000FFF7A2FC641CAC42E2D30023FF2205A9F4
:101350007648FFF799FC0598B0F5835F08D94AF6FF
:10136000A1206F4908604FF0FF300BB0BDE8F08F4F
:101370006C48001F066826F0100646F0100606604E
:101380000DE06848006800F00107012F03D100203C
:101390006349086011E04AF6A22061490860C5EB84
:1013A00045204FF00601B0FBF1F101F2FF11019869
:1013B00000F1010201928142E3D800BF012F31D137
:1013C0000020019000BF0198411C01911028FAD320
:1013D00018F0010F45D0002421E0042C0ED257480C
:1013E000406BE200FF21914008404D49096840EA06
:1013F00001004FF08041C1F884000EE04F48406C7E
:10140000211FCA00FF21914008404D49096840EA68
:1014100001004FF08041C1F8880004F10104AC42A2
:10142000DBD31EE03F48006800F0F8073C48076047
:10143000202F16D9B7F5005F13D840073949091F87
:10144000086000200860C80538490860002008606E
:1014500001203C4908604AF6A5204FF08041C1F8C0
:1014600084003048066826F0010646F00106066052
:101470004FF480500590069877E710B50246324B3E
:101480001B685B6823F4FE032F4C24686360A2B1E1
:101490002D4B1B685B6843F002032B4C2468636090
:1014A0000846402800D94020274B1B685B6843EA68
:1014B0000043254C2468636007E0234B1B685B688E
:1014C00023F00203204C2468636010BD1E480068AE
:1014D000006820F080001C490968086070471A48BD
:1014E0000068406C40F00040174909684864704744
:1014F00015480068006840F08000134909680860DA
:10150000704711480068006820F020000E49096803
:1015100008607047100555705432000080E200E00A
:101520008400004004055570FF6003F8000055700A
:1015300000000380020001000000028000105570CE
:101540008800004000025570AC34000010B540B176
:10155000F94B1B685B6C43F40033F74C24686364FD
:1015600007E0F54B1B685B6C23F40033F24C2468F6
:10157000636441B1F04B1B685B6C43F48033EE4C09
:101580002468636407E0EC4B1B685B6C23F48033D6
:10159000E94C24686364E84B1B685B6C6FF30F03D2
:1015A000E54C24686364E44B1B685B6C1343E24CBA
:1015B0002468636410BD2DE9B04F07468846934602
:1015C000089D4FF00109DC480068006FC0F3C75A5E
:1015D00098F800003070002416E0042C09D24FF077
:1015E00080408068E200FF2111410840611C705476
:1015F00009E04FF080404068211FCA00FF211141DF
:101600000840611C7054641CAC42E6D3CA48466270
:10161000681CC94988620020C86208460068806C5E
:1016200020F40040096888647810FFF7F3FB6A1C17
:1016300000210120FFF78AFFFFF763FF691C0120EB
:10164000FFF71BFFFFF754FF4FF4C070FFF7D2FB0B
:101650004FF46060FFF7CEFB0D20FFF7CBFBFFF7E9
:101660003EFF40F6FF70FFF7F7FAFFF72FFF042168
:101670000020FFF702FF4846BDE8B08FAE48006883
:10168000006820F04000AC49096808607047AA482B
:101690000068006840F04000A7490968086070478A
:1016A00010B50246A44B1B685B6823F4FE63A24C92
:1016B00024686360A2B1A04B1B685B6843F0010320
:1016C0009D4C246863600846402800D940209A4B0E
:1016D0001B685B6843EA0013974C2468636007E06B
:1016E000954B1B685B6823F00103934C246863608F
:1016F00010BD91480068006820F010008E4909680C
:10170000086070472DE9F04104460E46174698469A
:10171000069D89484662876200208749C86208465C
:101720000068806C20F40040096888646010FFF74E
:1017300071FB3A4600210120FFF708FFFFF7E1FEA9
:1017400001210846FFF799FEFFF7D2FE4FF4C07063
:10175000FFF750FB4FF46060FFF74CFB0D20FFF7E5
:1017600049FBFFF7BCFE40F6FF70FFF775FAFFF785
:10177000ADFE04210020FFF780FE0020FFF7A8FB4C
:101780000120FFF7A5FB0920FFF7DFFB6A48C0F83F
:101790002480856200206849C86208460068806C21
:1017A00020F40040096888646010FFF733FB2A4684
:1017B00001210846FFF7CAFEFFF79BFF29460120DB
:1017C000FFF76EFFFFF763FF4FF4E070FFF712FBC8
:1017D0004FF46060FFF70EFB3220FFF70BFBFFF7C3
:1017E0007EFE40F6FF70FFF737FAFFF747FF042150
:1017F0000020FFF742FE0120BDE8F08170B50446ED
:101800000E4615464C48007E08BB2046FFF702FBFB
:101810002A4600210120FFF799FEFFF772FE0421FE
:101820000120FFF72AFEFFF763FE4FF6FF70FFF778
:10183000E9FA4FF4C070FFF7DDFA4FF46060FFF78C
:10184000D9FA0D20FFF7D6FAFFF749FE17E02A462E
:1018500000210846FFF77AFEFFF753FE042101201E
:10186000FFF70BFEFFF744FE4FF6FF70FFF7CAFAD3
:101870004FF40840FFF7BEFA0D20FFF7BBFA012036
:1018800070BD70B504460E4615462B48007E08BB59
:101890002046FFF7BFFA2A4601210846FFF756FE09
:1018A000FFF727FF04210120FFF7FAFEFFF7EFFE05
:1018B0004FF6FF70FFF7A6FA4FF4E070FFF79AFAC1
:1018C0004FF46060FFF796FA3220FFF793FAFFF7C4
:1018D00006FE17E02A4601210020FFF737FEFFF73A
:1018E00008FF04210120FFF7DBFEFFF7D0FE4FF6D3
:1018F000FF70FFF787FA48F64000FFF77BFA3220C7
:10190000FFF778FA012070BD70B506460F2210214E
:10191000880600F06DFA451C084800680649096809
:10192000896BC9B240EA01004FF08041C1F88400E0
:101930004FF0010426E00000AC34000084000040B9
:10194000042C0ED2EA480068806BC0B2E1008840E7
:10195000E849096840EA01004FF08041C1F884007D
:101960000EE0E3480068806BC0B2211FC9008840C8
:10197000E149096840EA01004FF08041C1F8880060
:1019800004F10104AC42DBD30220FFF73BFA70BD47
:101990002DE9F04107460F221021880600F028FAB1
:1019A000054603221B214FF0804000F021FA064635
:1019B000A6BB25B34FF080400068C0B2CC4909688F
:1019C0004863012417E0052C0AD24FF0804040689C
:1019D000611EC9000841C0B2C5490968486309E0F1
:1019E0004FF080408068611FC9000841C0B2C04903
:1019F00009684863641CA81C8442E4D31FE04FF0CC
:101A000080404068C0B2BA49096848634FF08040DE
:101A10008068C0B2B6490968486310E0FFE73DB18D
:101A20004FF080400068C0B2B1490968486306E0E1
:101A30004FF080404068C0B2AD490968486301205A
:101A4000FFF7E0F9BDE8F081A9490968096821F4C8
:101A50004051A74A12681160A5490968096841EA1E
:101A60000031A34A12681160704720F07F40A049FE
:101A700009688860704740B19D4A1268D26842F098
:101A800001029B4B1B68DA6007E0994A1268D26832
:101A900022F00102964B1B68DA60954A1268D26800
:101AA00022F00202924B1B68DA60914A1268D268F7
:101AB00042EA41028E4B1B68DA6070478C4800682E
:101AC000406A80B270478A4909684862704788480E
:101AD0000068006B10F0807F01D00120704700206B
:101AE000FCE783480068006B10F4000F01D0012070
:101AF00070470020FCE77E480068006BC0F306409A
:101B000070477B480068006B10F4807F01D0012093
:101B100070470020FCE776480068006B10F0800FEB
:101B200001D0012070470020FCE771480068006B7D
:101B300000F07F0070476E490968096D88B27047F0
:101B400000B5FFF7F8FF10F4003F01D0012000BD01
:101B50000020FCE700B5FFF7EEFF10F4803F01D056
:101B6000012000BD0020FCE700B500220BE0FFF7DC
:101B7000A5FF10F4004F05D04FF40040FFF7A3FF7E
:101B8000012000BD521C40F6FF708242EFD30020BE
:101B9000F7E7C0B256490968C8667047574A1268E5
:101BA00002F0030101F00102012A05D120F0010039
:101BB00040F00100514A10600022514B1A704FF45E
:101BC000C002504B1A6070474C4A126802F0030181
:101BD00001F00102012A0FD101F00202022A04D110
:101BE0004FF6FF72454B0C331A60444A106820F0E0
:101BF000030040F0030010600022414B1A704FF4C4
:101C0000C002404B1A60704770B5FFF723F80546D5
:101C1000FFF754FF04463648806820433449886003
:101C200014F0010F05D02846FFF7B2FE0120FFF7A0
:101C30004AFF14F0020F05D02846FFF765FE022088
:101C4000FFF741FF14F0400F05D02846FFF75CFE78
:101C50004020FFF738FF14F0040F02D00420FFF7F4
:101C600032FF14F0080F02D00820FFF72CFF14F009
:101C7000200F02D02020FFF726FF14F0100F02D013
:101C80001020FFF720FF14F0800F08D0FFF71FFF90
:101C900010B92846FFF738FE8020FFF714FF14F430
:101CA000807F03D04FF48070FFF70DFF14F4007FA6
:101CB00003D04FF40070FFF706FF14F4806F03D0D9
:101CC0004FF48060FFF7FFFE14F4006F03D04FF471
:101CD0000060FFF7F8FE14F4004F03D04FF400400B
:101CE000FFF7F1FE4FF400100649086070BD0000D8
:101CF000AC340000840000408800004004055570AA
:101D00005432000080E200E00246384850F83200C9
:101D1000403050F8210000F03F00704730B50246D7
:101D2000002400234C1E314850F8320084602F48B4
:101D300050F83200406840F001002C4D55F8325008
:101D400068602A4850F83200406810F4403F01D0E3
:101D5000012030BD04E05B1C052B01D90020F8E711
:101D6000224850F83200406810F4403FF3D0012080
:101D7000EFE71E4951F83010096841F001011B4A94
:101D800052F8302011607047184951F83010096836
:101D900021F00101154A52F830201160704710B54A
:101DA0000346124C54F83340206820F0C00040EA4B
:101DB000811020F0380040EAC2000C4C54F8334047
:101DC000206010BD10B504462046FFF7DDFF074830
:101DD00000EBC4004279054800EBC40001792046BD
:101DE000FFF7DDFF2046FFF7C4FF10BD58320000AB
:101DF00030B50346002000241C6824FA01F505EAEA
:101E0000020030BD70B50024046802FA01F524EA2E
:101E1000050502EA03068E4045EA0604046070BD2B
:101E200000B50F220021FE48FFF7E2FF0F280ED178
:101E300001220021FB48FFF7DBFF012807D1FA4808
:101E4000006840F01000F8490860012000BDF64825
:101E5000006820F01000F44908600120F6E737B56B
:101E600082B00446154601202B4603AAA1B2009079
:101E70000020FFF793F905B030BDFFB581B00446EF
:101E800015461F460A9E2B4602AAA1B200200096C4
:101E9000FFF784F905B0F0BD13B582B00446012008
:101EA000002303AAA1B20090FFF778F91FBD37B550
:101EB00082B004461546002303AAA1B20120009572
:101EC000FFF76CF905B030BD10B5FEF735FAD7480D
:101ED0000068012811D10220D4490860D448006864
:101EE000D4490978884205D3D1480068D249097895
:101EF000884202D90020CD490860CC4800680228F9
:101F000062D1CE48006828B90320FFF75BFF0120AB
:101F1000CA49086001210320FFF700FF002853D0C1
:101F200000210320FFF7F0FEC5490860C0480068A3
:101F3000C44909680844C2490968884224D2C24891
:101F40000068C2490968401AC149096888421BD221
:101F5000C0480068401CBF490860084600680F2858
:101F600012D9BD48006807280ED2B9480068401E43
:101F7000B749086008460068C2B21B21CC20FFF7B1
:101F80006EFF0020B3490860AD480068A8490968A1
:101F9000884219D20020AF490860AD480068AA49BC
:101FA0000968884210D2AC480068401CAA49086001
:101FB000A7480068401CA649086008460068C2B2ED
:101FC0001B21CC20FFF74BFFFEF7AEF910BD10B57B
:101FD000FEF7B2F9A1480068002876D0FFF720FF8D
:101FE00091480068102870D19C480068012811D1E0
:101FF00002209A4908609A4800688E490978884208
:1020000005D3974800688C490978884202D9002096
:1020100092490860914800680228E4D1914800681C
:1020200028B90220FFF7CEFE01208E490860012169
:102030000220FFF773FE0028CFD000210220FFF717
:1020400063FE89490860864800687E49096808443B
:102050008549096888426AD284480068032835D2D5
:102060008348006883490968401A83490968401A0F
:102070008249096888425AD280480068602856D050
:102080007E480068502852D07C48006840284ED0D6
:102090007B480068401C7A490860084600680F28A1
:1020A00045D978480068072841D274480068401E26
:1020B0007249086008460068C2B22621CC20FFF7AA
:1020C000CEFE00206E49086031E050E068480068AC
:1020D00068490968401A69490968884227D26748EF
:1020E0000068602823D06548006850281FD06348E6
:1020F000006840281BD062480068401C60490860A6
:10210000084600680F2812D95E48006807280ED2DA
:102110005A480068401E5949086008460068C2B223
:102120002621CC20FFF79BFE0020554908604E4831
:1021300000684B490968884219D20020504908605C
:102140004E4800684A490968884210D24D480068E4
:10215000401C4C49086049480068401C47490860D9
:1021600008460068C2B22621CC20FFF778FEFEF7B1
:10217000DBF810BD10B5FEF7DFF843480068012812
:1021800011D1022040490860404800682949097877
:10219000884205D33D48006827490978884202D91A
:1021A0000020394908603848006802287CD1384846
:1021B000006828B90120FFF705FE012034490860B6
:1021C00001210846FFF7AAFD00286DD0002101205B
:1021D000FFF79AFD2F4908602C48006819490968E3
:1021E00008442C49096888427AD22B4800682B4958
:1021F0000968401A2A490968884271D2284800684B
:1022000070286DD026480068602869D0244800688E
:10221000502865D022480068402861D0214844E019
:1022200064405C7004615C7034330000F432000080
:10223000E43200007832000079320000F832000009
:10224000E83200003C330000F0320000943200001D
:10225000EC320000043300000033000018330000AB
:10226000083300001C3300000C3300002033000052
:102270001433000090320000983200001033000048
:102280002C33000028330000D0320000C0320000A0
:10229000D4320000C4320000CC3200008C32000086
:1022A000C8320000E03200003AE00068401CFE49FD
:1022B0000860084600680F2812D9FC480068072803
:1022C0000ED2FB480068401EF949086008460068C5
:1022D000C2B21F21CC20FFF7C2FD0020F2490860E6
:1022E000F4480068F4490968884219D20020EE4990
:1022F0000860EF480068F1490968884210D2EB484D
:102300000068401CE9490860E9480068401CE84949
:10231000086008460068C2B21F21CC20FFF79FFD6D
:10232000FEF702F810BD10B5FEF706F8E4480068A5
:10233000012811D10220E2490860E2480068E24920
:102340000978884205D3DF480068E0490978884267
:1023500002D90020DA490860D9480068022872D101
:10236000DB48006828B90020FFF72CFD0120D84980
:10237000086001210020FFF7D1FC002863D0002174
:102380000846FFF7C1FCD3490860CE480068D2492F
:1023900009680844CF490968884234D2CF480068A8
:1023A000CF490968401ACF49096888422BD2CD48E5
:1023B0000068702827D0CB480068602823D0C9481F
:1023C000006850281FD0C748006840281BD0C64866
:1023D0000068401CC4490860084600680F2812D9EC
:1023E000C248006807280ED2BE480068401EBD499A
:1023F000086008460068C2B21D21CC20FFF72FFDFF
:102400000020B9490860B3480068AE4909688842AD
:1024100019D20020B4490860B2480068AF49096881
:10242000884210D2B1480068401CB0490860AD48ED
:102430000068401CAB49086008460068C2B21D2114
:10244000CC20FFF70CFDFDF76FFF10BD43F66000D9
:102450000068082803D90220A54908600BE043F66C
:1024600060000068072803D90120A149086002E044
:1024700000209F490860704710B5002406E043F231
:10248000307050F824009B490855641C182CF6D372
:10249000002406E043F2987050F82400964908554D
:1024A000641C132CF6D3002406E043F2EC7050F8C1
:1024B000240092490855641C0A2CF6D3002406E037
:1024C00043F61C0050F824008D490855641C0D2C5F
:1024D000F6D3002434E04FF45C5101EB8400FF227A
:1024E0000021FFF785FC002101EB8401854A50544F
:1024F0004FF45C5101EB8400FF220821FFF778FCC8
:10250000012101EB84017F4A50544FF45C5101EBEF
:102510008400FF221021FFF76BFC022101EB8401F4
:10252000784A50544FF45C5101EB8400FF2218218B
:10253000FFF75EFC032101EB8401724A5054641CD6
:10254000082CC8D310BD2DE9F047DAB04FF00009D0
:102550000A2707F1080808F1060A78226A493CA808
:1025600000F072FA60226849783124A800F06CFA11
:1025700048226549D83112A800F066FA482263491A
:10258000684600F061FA00260025002456E058480D
:10259000006800EB80003CA901EBC00050F825006A
:1025A000A0422FD15348005D05EB0901554A515C0B
:1025B000461A4F48006800EB80003CA901EBC000C0
:1025C00050F825004A49096801EB81013CAA02EB59
:1025D000C101496A884214D04548006800EB800078
:1025E0003CA901EBC00050F825104148006800EB01
:1025F000800002EBC002681C52F82000814200D12A
:102600006D1C6D1C3B48005D801B00280ADD3948AD
:10261000005D801B3F2805DA3648005D801B354988
:10262000085502E00020334908550A2E02DC16F155
:102630000A0F02DA00202F490855641C182CA6D373
:1026400000260025002481E024A82949096800EB20
:10265000411050F82500A0425CD12748005DE919DF
:10266000284A515C461A24A82149096800EB411008
:1026700050F8251024A81E4A126800EB4210C069C9
:10268000814246D024A81A49096800EB411050F84D
:10269000251024A8164A126800EB4212681C52F852
:1026A0002000814235D133E0E0320000DC3200000E
:1026B000C8320000C4320000C0320000CC3200003A
:1026C000AC3200009C320000783200007932000009
:1026D000B0320000A03200003C330000A8320000FD
:1026E00088320000A4320000BC320000B832000082
:1026F00048330000043200001C3200003C3200006D
:102700002F3200008C340000882D0000A82E00001D
:102710006D1C6D1CAB48005D801B00280ADDA948BC
:10272000005D801B3F2805DAA648005D801BA54997
:10273000085502E00020A34908550A2E02DC16F1D4
:102740000A0F02DA00209F490855641C132CFFF47D
:102750007BAF00260025002456E09B48006800EB74
:102760004000694601EBC00050F82500A0422FD17F
:102770009648005D05EB0801954A515C461A92485F
:10278000006800EB4000694601EBC00050F82500EE
:102790008D49096801EB41016A4602EBC1014969B3
:1027A000884214D08848006800EB4000694601EB7D
:1027B000C00050F825108448006800EB400002EB90
:1027C000C002681C52F82000814200D16D1C6D1CB3
:1027D0007E48005D801B00280ADD7C48005D801B70
:1027E0003F2805DA7948005D801B7849085502E0EA
:1027F0000020764908550A2E02DC16F10A0F02DA8B
:10280000002072490855641C0A2CA6D30026002516
:10281000002456E06C48006800EB400012A901EB70
:10282000C00050F82500A0422FD16A48005D05EB9A
:102830000A01674A515C461A6348006800EB400091
:1028400012A901EBC00050F825005F49096801EBAF
:10285000410112AA02EBC1014969884214D05A48C9
:10286000006800EB400012A901EBC00050F82510F1
:102870005548006800EB400002EBC002681C52F8AB
:102880002000814200D16D1C6D1C5248005D801BF0
:1028900000280ADD4F48005D801B3F2805DA4D48BF
:1028A000005D801B4B49085502E00020494908554E
:1028B0000A2E02DC16F10A0F02DA002045490855FB
:1028C000641C0D2CA6D35AB0BDE8F0870020424905
:1028D000086042490860424908604249086042492C
:1028E00008600120414908600020414908604149D1
:1028F0000860414908604149086041490860414910
:102900000860414908604149086041490860012068
:102910004049086002204049086000203F490860A3
:102920003F48404908604FF0F0303F490860FDF7EC
:10293000FBFCFFF7A1FDFFF789FDFFF704FE012077
:102940003A4908600220334908603AE03748006895
:10295000012831D1FFF7E7FCFFF70CFCFFF737FB4D
:10296000FFF7B2FA3248006800063249096840EAC7
:1029700001403149096840EA0120304909680843AB
:102980002F49086023480068042808D108202149FD
:10299000086000202549086001202049086012488D
:1029A000006802280DD100200E4908600E49086019
:1029B00001201A49086004E02248006808B9FDF7C0
:1029C000B3FCC3E71C320000483300003C32000077
:1029D0008C3400002F320000AC320000D0320000F6
:1029E000F43200001833000030330000843200005D
:1029F000883200008C3200009432000090320000D7
:102A000098320000B0320000D4320000F8320000EA
:102A10001C330000383300003C330000C00000408D
:102A200000005570AC34000000E400E040330000CA
:102A3000A4320000C832000010330000EC32000065
:102A4000800000404433000010B5203AC0F00B80F5
:102A5000B1E81850203AA0E81850B1E81850A0E8A2
:102A60001850BFF4F5AF5FEA027C24BFB1E81850FC
:102A7000A0E8185044BF18C918C0BDE810405FEA6C
:102A8000827C24BF51F8043B40F8043B08BF7047E8
:102A9000D20728BF31F8023B48BF11F8012B28BFED
:102AA00020F8023B48BF00F8012B70477047704781
:102AB00070470446AFF300802046FDF759FB70478E
:102AC00000487047E034000001491820ABBEFEE723
:102AD0002600020090EA010F48BF81F0004100F19A
:102AE000E480421A3CBF801A89184FEAD0524FF056
:102AF0007F4C1CEA410FA2EBD15318BF9CEA026F36
:102B000000F03B804FF0004C4CEA00204CEA0121E1
:102B100021FA03FC10EB0C0C1ED202F1FF325FEA2B
:102B20001C2040EBC25038BF70471CF07F0F4FEAAB
:102B3000400C18BFBCF17F4F38BF7047C3F1200372
:102B4000994008BF20F00100BCF17F4F38BF7047AB
:102B5000A0F1C04000F09CB84FEA3C00000A40EBF6
:102B6000C25028BF1CF0FF0F4FEA400CE6D018BF40
:102B7000BCF17F4F38BF7047EAE79CEA026F05D08F
:102B800010EA5C0F08BF00F00040704710B500F07D
:102B900032F800BF64FBBE3E41000B0ED3F19E0233
:102BA00008D950F400034FEA032323FA02F048BF88
:102BB0004042704710B500F01EF800BF49922480D3
:102BC000002070476FF0004282EA2000704700004A
:102BD000B0FA80F310FA03F2C3F19D030AD0D905CD
:102BE00001EB1220530638BF704700F1010008BF07
:102BF00020F0010070470EF1020E2EF0030E5EF879
:102C0000044B244204D44FEA4102B2F17F4F11D861
:102C10004FEA4003B3F17F4F0CD80ED14FEAD07C7E
:102C2000B2F17F4F0CEB4C0C0CF1020C08BF4CEBDB
:102C3000D17C04E04FF0080C01E04FEAD17C0CEBB2
:102C40004C0324FA03F404F00704B4F1040C06D294
:102C50000EEB840CBDE810404CF0010C6047DFE83F
:102C60000CF0070802024FF00040A0F5800010BDF4
:102C70000846420018BFD2F1807288BF00F00040C1
:102C800010BD10B5FFF71CFF4FF00001016010BD33
:102C9000FF2141EAD050C0057047000090EA010FC3
:102CA00048BF81F000413FF51CAF421A04D882F0C2
:102CB0000042A0EB020011444FEAD0524FF07F4C8B
:102CC0001CEA410FA2EBD15318BF9CEA026F4AD015
:102CD0004FF0004C4CEA00204CEA012121FA03FCA1
:102CE000B0EB0C0C0FD412F0FE0F36D05FEA4C00A4
:102CF0001DD5001240EBC25038BF70471CF03F0F8B
:102D000018BF70470BE0A2F101025FEA1C2040EB04
:102D1000C25038BF70471CF07F0F18BF7047C3F117
:102D20002003994014BF401E20F001007047800826
:102D30004FEA122308BF7047B0FA80FCA2EB0C02E6
:102D4000CCF1280C60FA0CF093EA122F04BF00EBD0
:102D5000C25070474FEAC3707047130A5FEADC1035
:102D600008BF7047F6E79CEA026F04D010EA5C0FD8
:102D700008BF0020704710B5FFF73DFF40DFF63E6B
:102D800081F00040704700000B0000000C000000C4
:102D90000D0000000F0000001000000013000000F4
:102DA00014000000150000001500000015000000D0
:102DB0000B0000000C0000000D0000000F000000E0
:102DC00010000000130000001400000015000000B7
:102DD00015000000150000000B0000000C000000B2
:102DE0000D0000000F0000001000000013000000A4
:102DF0001400000015000000150000001500000080
:102E00000600000006000000070000000A000000A5
:102E10000B0000000D0000000F000000100000007B
:102E20000600000006000000070000000A00000085
:102E30000B0000000D0000000F000000100000005B
:102E40000600000006000000070000000A00000065
:102E50000B0000000D0000000F000000100000003B
:102E60000200000003000000040000000800000051
:102E7000090000000B000000020000000300000039
:102E80000400000008000000090000000B00000022
:102E90000200000003000000040000000800000021
:102EA000090000000B000000050000000600000003
:102EB00007000000090000000900000009000000F0
:102EC00005000000060000000700000009000000E7
:102ED00009000000090000000500000006000000D5
:102EE00007000000090000000900000009000000C0
:102EF000102F0000003200004C010000D80000003C
:102F0000642F00004C330000F00100003401000089
:102F10008140152C2B1F1F1F202021221617191C42
:102F20001E2226191F2C2240101E20202223252578
:102F3000131416181A1E29200014132425262826D7
:102F40002E21323F1212131113131414223D1404B4
:102F5000817142075A91084BA874082BB870080376
:042F6000D2043C005B
:00000001FF
